{"abi":[{"type":"constructor","inputs":[{"name":"pufferVault","type":"address","internalType":"contract PufferVaultV2"},{"name":"stETH","type":"address","internalType":"contract IStETH"}],"stateMutability":"payable"},{"type":"function","name":"PUFFER_VAULT","inputs":[],"outputs":[{"name":"","type":"address","internalType":"contract PufferVaultV2"}],"stateMutability":"view"},{"type":"function","name":"UPGRADE_INTERFACE_VERSION","inputs":[],"outputs":[{"name":"","type":"string","internalType":"string"}],"stateMutability":"view"},{"type":"function","name":"authority","inputs":[],"outputs":[{"name":"","type":"address","internalType":"address"}],"stateMutability":"view"},{"type":"function","name":"depositStETH","inputs":[{"name":"permitData","type":"tuple","internalType":"struct Permit","components":[{"name":"deadline","type":"uint256","internalType":"uint256"},{"name":"amount","type":"uint256","internalType":"uint256"},{"name":"v","type":"uint8","internalType":"uint8"},{"name":"r","type":"bytes32","internalType":"bytes32"},{"name":"s","type":"bytes32","internalType":"bytes32"}]},{"name":"recipient","type":"address","internalType":"address"}],"outputs":[{"name":"pufETHAmount","type":"uint256","internalType":"uint256"}],"stateMutability":"nonpayable"},{"type":"function","name":"depositWstETH","inputs":[{"name":"permitData","type":"tuple","internalType":"struct Permit","components":[{"name":"deadline","type":"uint256","internalType":"uint256"},{"name":"amount","type":"uint256","internalType":"uint256"},{"name":"v","type":"uint8","internalType":"uint8"},{"name":"r","type":"bytes32","internalType":"bytes32"},{"name":"s","type":"bytes32","internalType":"bytes32"}]},{"name":"recipient","type":"address","internalType":"address"}],"outputs":[{"name":"pufETHAmount","type":"uint256","internalType":"uint256"}],"stateMutability":"nonpayable"},{"type":"function","name":"isConsumingScheduledOp","inputs":[],"outputs":[{"name":"","type":"bytes4","internalType":"bytes4"}],"stateMutability":"view"},{"type":"function","name":"proxiableUUID","inputs":[],"outputs":[{"name":"","type":"bytes32","internalType":"bytes32"}],"stateMutability":"view"},{"type":"function","name":"setAuthority","inputs":[{"name":"newAuthority","type":"address","internalType":"address"}],"outputs":[],"stateMutability":"nonpayable"},{"type":"function","name":"upgradeToAndCall","inputs":[{"name":"newImplementation","type":"address","internalType":"address"},{"name":"data","type":"bytes","internalType":"bytes"}],"outputs":[],"stateMutability":"payable"},{"type":"event","name":"AuthorityUpdated","inputs":[{"name":"authority","type":"address","indexed":false,"internalType":"address"}],"anonymous":false},{"type":"event","name":"Initialized","inputs":[{"name":"version","type":"uint64","indexed":false,"internalType":"uint64"}],"anonymous":false},{"type":"event","name":"Upgraded","inputs":[{"name":"implementation","type":"address","indexed":true,"internalType":"address"}],"anonymous":false},{"type":"error","name":"AccessManagedInvalidAuthority","inputs":[{"name":"authority","type":"address","internalType":"address"}]},{"type":"error","name":"AccessManagedRequiredDelay","inputs":[{"name":"caller","type":"address","internalType":"address"},{"name":"delay","type":"uint32","internalType":"uint32"}]},{"type":"error","name":"AccessManagedUnauthorized","inputs":[{"name":"caller","type":"address","internalType":"address"}]},{"type":"error","name":"AddressEmptyCode","inputs":[{"name":"target","type":"address","internalType":"address"}]},{"type":"error","name":"AddressInsufficientBalance","inputs":[{"name":"account","type":"address","internalType":"address"}]},{"type":"error","name":"ERC1967InvalidImplementation","inputs":[{"name":"implementation","type":"address","internalType":"address"}]},{"type":"error","name":"ERC1967NonPayable","inputs":[]},{"type":"error","name":"FailedInnerCall","inputs":[]},{"type":"error","name":"InvalidInitialization","inputs":[]},{"type":"error","name":"NotInitializing","inputs":[]},{"type":"error","name":"SafeERC20FailedOperation","inputs":[{"name":"token","type":"address","internalType":"address"}]},{"type":"error","name":"UUPSUnauthorizedCallContext","inputs":[]},{"type":"error","name":"UUPSUnsupportedProxiableUUID","inputs":[{"name":"slot","type":"bytes32","internalType":"bytes32"}]}],"bytecode":{"object":"0x60e060408190523060805261123b3881900390819083398101604081905261002691610054565b6001600160a01b0391821660c0521660a05261008c565b6001600160a01b0381168114610051575f80fd5b50565b5f8060408385031215610065575f80fd5b82516100708161003d565b60208401519092506100818161003d565b809150509250929050565b60805160a05160c0516111556100e65f395f818160ea015281816102e1015261053401525f8181610201015281816102990152818161030b015261055e01525f818161080801528181610831015261097b01526111555ff3fe608060405260043610610084575f3560e01c806352d1902d1161005757806352d1902d146101395780637a9e5e4b1461014d5780638fb360371461016c578063ad3cb1cc14610199578063bf7e214f146101d6575f80fd5b8063205943be1461008857806331b4a693146100ba5780633e68b094146100d95780634f1ef28614610124575b5f80fd5b348015610093575f80fd5b506100a76100a2366004610e11565b6101ea565b6040519081526020015b60405180910390f35b3480156100c5575f80fd5b506100a76100d4366004610e11565b6103ea565b3480156100e4575f80fd5b5061010c7f000000000000000000000000000000000000000000000000000000000000000081565b6040516001600160a01b0390911681526020016100b1565b610137610132366004610e5d565b61058d565b005b348015610144575f80fd5b506100a76105ac565b348015610158575f80fd5b50610137610167366004610f19565b6105c7565b348015610177575f80fd5b5061018061064e565b6040516001600160e01b031990911681526020016100b1565b3480156101a4575f80fd5b506101c9604051806040016040528060058152602001640352e302e360dc1b81525081565b6040516100b19190610f54565b3480156101e1575f80fd5b5061010c610684565b5f6101f7335b5f3661069f565b6001600160a01b037f00000000000000000000000000000000000000000000000000000000000000001663d505accf33306020870135873561023f60608a0160408b01610f86565b89606001358a608001356040518863ffffffff1660e01b815260040161026b9796959493929190610fa6565b5f604051808303815f87803b158015610282575f80fd5b505af1925050508015610293575060015b506102c47f00000000000000000000000000000000000000000000000000000000000000003330866020013561079d565b604051633d7ad0b760e21b81523060048201526001600160a01b037f000000000000000000000000000000000000000000000000000000000000000081169163f6dbd16f917f0000000000000000000000000000000000000000000000000000000000000000169063f5eb42dc906024015b602060405180830381865afa158015610351573d5f803e3d5ffd5b505050506040513d601f19601f820116820180604052508101906103759190610fe7565b6040516001600160e01b031960e084901b16815260048101919091526001600160a01b03851660248201526044016020604051808303815f875af11580156103bf573d5f803e3d5ffd5b505050506040513d601f19601f820116820180604052508101906103e39190610fe7565b9392505050565b5f6103f4336101f0565b737f39c581f595b53c5cb19bd0b3f8da6c935e2ca063d505accf33306020870135873561042760608a0160408b01610f86565b89606001358a608001356040518863ffffffff1660e01b81526004016104539796959493929190610fa6565b5f604051808303815f87803b15801561046a575f80fd5b505af192505050801561047b575060015b506104a0737f39c581f595b53c5cb19bd0b3f8da6c935e2ca03330866020013561079d565b604051636f074d1f60e11b815260208401356004820152737f39c581f595b53c5cb19bd0b3f8da6c935e2ca09063de0e9a3e906024016020604051808303815f875af11580156104f2573d5f803e3d5ffd5b505050506040513d601f19601f820116820180604052508101906105169190610fe7565b50604051633d7ad0b760e21b81523060048201526001600160a01b037f000000000000000000000000000000000000000000000000000000000000000081169163f6dbd16f917f0000000000000000000000000000000000000000000000000000000000000000169063f5eb42dc90602401610336565b6105956107fd565b61059e826108a3565b6105a882826108af565b5050565b5f6105b5610970565b505f8051602061113583398151915290565b336105d0610684565b6001600160a01b0316816001600160a01b0316146106105760405162d1953b60e31b81526001600160a01b03821660048201526024015b60405180910390fd5b816001600160a01b03163b5f03610645576040516361798f2f60e11b81526001600160a01b0383166004820152602401610607565b6105a8826109b9565b5f8051602061111583398151915280545f9190600160a01b900460ff16610675575f61067e565b638fb3603760e01b5b91505090565b5f80516020611115833981519152546001600160a01b031690565b5f805160206111158339815191525f806106d76106ba610684565b87306106c960045f8a8c610ffe565b6106d291611025565b610a19565b91509150816107955763ffffffff81161561077257825460ff60a01b1916600160a01b178355610705610684565b6001600160a01b03166394c7d7ee8787876040518463ffffffff1660e01b815260040161073493929190611055565b5f604051808303815f87803b15801561074b575f80fd5b505af115801561075d573d5f803e3d5ffd5b5050845460ff60a01b19168555506107959050565b60405162d1953b60e31b81526001600160a01b0387166004820152602401610607565b505050505050565b604080516001600160a01b0385811660248301528416604482015260648082018490528251808303909101815260849091019091526020810180516001600160e01b03166323b872dd60e01b1790526107f7908590610b21565b50505050565b306001600160a01b037f000000000000000000000000000000000000000000000000000000000000000016148061088357507f00000000000000000000000000000000000000000000000000000000000000006001600160a01b03166108775f80516020611135833981519152546001600160a01b031690565b6001600160a01b031614155b156108a15760405163703e46dd60e11b815260040160405180910390fd5b565b6108ac336101f0565b50565b816001600160a01b03166352d1902d6040518163ffffffff1660e01b8152600401602060405180830381865afa925050508015610909575060408051601f3d908101601f1916820190925261090691810190610fe7565b60015b61093157604051634c9c8ce360e01b81526001600160a01b0383166004820152602401610607565b5f80516020611135833981519152811461096157604051632a87526960e21b815260048101829052602401610607565b61096b8383610b82565b505050565b306001600160a01b037f000000000000000000000000000000000000000000000000000000000000000016146108a15760405163703e46dd60e11b815260040160405180910390fd5b5f8051602061111583398151915280546001600160a01b0383166001600160a01b03199091168117825560408051918252517f2f658b440c35314f52658ea8a740e05b284cdc84dc9ae01e891f21b8933e7cad9181900360200190a15050565b6040516001600160a01b03848116602483015283811660448301526001600160e01b0319831660648301525f9182918291829189169060840160408051601f198184030181529181526020820180516001600160e01b031663b700961360e01b17905251610a879190611094565b5f60405180830381855afa9150503d805f8114610abf576040519150601f19603f3d011682016040523d82523d5f602084013e610ac4565b606091505b50915091508115610b16576040815110610af65780806020019051810190610aec91906110be565b9094509250610b16565b6020815110610b165780806020019051810190610b1391906110fb565b93505b505094509492505050565b5f610b356001600160a01b03841683610bd7565b905080515f14158015610b59575080806020019051810190610b5791906110fb565b155b1561096b57604051635274afe760e01b81526001600160a01b0384166004820152602401610607565b610b8b82610be4565b6040516001600160a01b038316907fbc7cd75a20ee27fd9adebab32041f755214dbc6bffa90cc0225b39da2e5c2d3b905f90a2805115610bcf5761096b8282610c47565b6105a8610cb9565b60606103e383835f610cd8565b806001600160a01b03163b5f03610c1957604051634c9c8ce360e01b81526001600160a01b0382166004820152602401610607565b5f8051602061113583398151915280546001600160a01b0319166001600160a01b0392909216919091179055565b60605f80846001600160a01b031684604051610c639190611094565b5f60405180830381855af49150503d805f8114610c9b576040519150601f19603f3d011682016040523d82523d5f602084013e610ca0565b606091505b5091509150610cb0858383610d71565b95945050505050565b34156108a15760405163b398979f60e01b815260040160405180910390fd5b606081471015610cfd5760405163cd78605960e01b8152306004820152602401610607565b5f80856001600160a01b03168486604051610d189190611094565b5f6040518083038185875af1925050503d805f8114610d52576040519150601f19603f3d011682016040523d82523d5f602084013e610d57565b606091505b5091509150610d67868383610d71565b9695505050505050565b606082610d8657610d8182610dcd565b6103e3565b8151158015610d9d57506001600160a01b0384163b155b15610dc657604051639996b31560e01b81526001600160a01b0385166004820152602401610607565b50806103e3565b805115610ddd5780518082602001fd5b604051630a12f52160e11b815260040160405180910390fd5b80356001600160a01b0381168114610e0c575f80fd5b919050565b5f8082840360c0811215610e23575f80fd5b60a0811215610e30575f80fd5b50829150610e4060a08401610df6565b90509250929050565b634e487b7160e01b5f52604160045260245ffd5b5f8060408385031215610e6e575f80fd5b610e7783610df6565b9150602083013567ffffffffffffffff80821115610e93575f80fd5b818501915085601f830112610ea6575f80fd5b813581811115610eb857610eb8610e49565b604051601f8201601f19908116603f01168101908382118183101715610ee057610ee0610e49565b81604052828152886020848701011115610ef8575f80fd5b826020860160208301375f6020848301015280955050505050509250929050565b5f60208284031215610f29575f80fd5b6103e382610df6565b5f5b83811015610f4c578181015183820152602001610f34565b50505f910152565b602081525f8251806020840152610f72816040850160208701610f32565b601f01601f19169190910160400192915050565b5f60208284031215610f96575f80fd5b813560ff811681146103e3575f80fd5b6001600160a01b0397881681529590961660208601526040850193909352606084019190915260ff16608083015260a082015260c081019190915260e00190565b5f60208284031215610ff7575f80fd5b5051919050565b5f808585111561100c575f80fd5b83861115611018575f80fd5b5050820193919092039150565b6001600160e01b0319813581811691600485101561104d5780818660040360031b1b83161692505b505092915050565b6001600160a01b03841681526040602082018190528101829052818360608301375f818301606090810191909152601f909201601f1916010192915050565b5f82516110a5818460208701610f32565b9190910192915050565b80518015158114610e0c575f80fd5b5f80604083850312156110cf575f80fd5b6110d8836110af565b9150602083015163ffffffff811681146110f0575f80fd5b809150509250929050565b5f6020828403121561110b575f80fd5b6103e3826110af56fef3177357ab46d8af007ab3fdb9af81da189e1068fefdc0073dca88a2cab40a00360894a13ba1a3210667c828492db98dca3e2076cc3735a920a3ca505d382bbc","linkReferences":{}},"methodIdentifiers":{"PUFFER_VAULT()":"3e68b094","UPGRADE_INTERFACE_VERSION()":"ad3cb1cc","authority()":"bf7e214f","depositStETH((uint256,uint256,uint8,bytes32,bytes32),address)":"205943be","depositWstETH((uint256,uint256,uint8,bytes32,bytes32),address)":"31b4a693","isConsumingScheduledOp()":"8fb36037","proxiableUUID()":"52d1902d","setAuthority(address)":"7a9e5e4b","upgradeToAndCall(address,bytes)":"4f1ef286"},"id":122}