{"abi":[{"type":"constructor","inputs":[{"name":"delegationManager","type":"address","internalType":"contract IDelegationManager"},{"name":"slasher","type":"address","internalType":"contract ISlasher"},{"name":"moduleManager","type":"address","internalType":"contract IPufferModuleManager"}],"stateMutability":"nonpayable"},{"type":"function","name":"EIGEN_DELEGATION_MANAGER","inputs":[],"outputs":[{"name":"","type":"address","internalType":"contract IDelegationManager"}],"stateMutability":"view"},{"type":"function","name":"EIGEN_SLASHER","inputs":[],"outputs":[{"name":"","type":"address","internalType":"contract ISlasher"}],"stateMutability":"view"},{"type":"function","name":"PUFFER_MODULE_MANAGER","inputs":[],"outputs":[{"name":"","type":"address","internalType":"contract IPufferModuleManager"}],"stateMutability":"view"},{"type":"function","name":"authority","inputs":[],"outputs":[{"name":"","type":"address","internalType":"address"}],"stateMutability":"view"},{"type":"function","name":"customCalldataCall","inputs":[{"name":"target","type":"address","internalType":"address"},{"name":"customCalldata","type":"bytes","internalType":"bytes"}],"outputs":[{"name":"response","type":"bytes","internalType":"bytes"}],"stateMutability":"nonpayable"},{"type":"function","name":"deregisterOperatorFromAVS","inputs":[{"name":"avsRegistryCoordinator","type":"address","internalType":"address"},{"name":"quorumNumbers","type":"bytes","internalType":"bytes"}],"outputs":[],"stateMutability":"nonpayable"},{"type":"function","name":"initialize","inputs":[{"name":"initialAuthority","type":"address","internalType":"address"},{"name":"operatorDetails","type":"tuple","internalType":"struct IDelegationManager.OperatorDetails","components":[{"name":"earningsReceiver","type":"address","internalType":"address"},{"name":"delegationApprover","type":"address","internalType":"address"},{"name":"stakerOptOutWindowBlocks","type":"uint32","internalType":"uint32"}]},{"name":"metadataURI","type":"string","internalType":"string"}],"outputs":[],"stateMutability":"nonpayable"},{"type":"function","name":"isConsumingScheduledOp","inputs":[],"outputs":[{"name":"","type":"bytes4","internalType":"bytes4"}],"stateMutability":"view"},{"type":"function","name":"isValidSignature","inputs":[{"name":"digestHash","type":"bytes32","internalType":"bytes32"},{"name":"signature","type":"bytes","internalType":"bytes"}],"outputs":[{"name":"","type":"bytes4","internalType":"bytes4"}],"stateMutability":"view"},{"type":"function","name":"modifyOperatorDetails","inputs":[{"name":"newOperatorDetails","type":"tuple","internalType":"struct IDelegationManager.OperatorDetails","components":[{"name":"earningsReceiver","type":"address","internalType":"address"},{"name":"delegationApprover","type":"address","internalType":"address"},{"name":"stakerOptOutWindowBlocks","type":"uint32","internalType":"uint32"}]}],"outputs":[],"stateMutability":"nonpayable"},{"type":"function","name":"optIntoSlashing","inputs":[{"name":"slasher","type":"address","internalType":"address"}],"outputs":[],"stateMutability":"nonpayable"},{"type":"function","name":"registerOperatorToAVS","inputs":[{"name":"avsRegistryCoordinator","type":"address","internalType":"address"},{"name":"quorumNumbers","type":"bytes","internalType":"bytes"},{"name":"socket","type":"string","internalType":"string"},{"name":"params","type":"tuple","internalType":"struct IBLSApkRegistry.PubkeyRegistrationParams","components":[{"name":"pubkeyRegistrationSignature","type":"tuple","internalType":"struct BN254.G1Point","components":[{"name":"X","type":"uint256","internalType":"uint256"},{"name":"Y","type":"uint256","internalType":"uint256"}]},{"name":"pubkeyG1","type":"tuple","internalType":"struct BN254.G1Point","components":[{"name":"X","type":"uint256","internalType":"uint256"},{"name":"Y","type":"uint256","internalType":"uint256"}]},{"name":"pubkeyG2","type":"tuple","internalType":"struct BN254.G2Point","components":[{"name":"X","type":"uint256[2]","internalType":"uint256[2]"},{"name":"Y","type":"uint256[2]","internalType":"uint256[2]"}]}]},{"name":"operatorSignature","type":"tuple","internalType":"struct ISignatureUtils.SignatureWithSaltAndExpiry","components":[{"name":"signature","type":"bytes","internalType":"bytes"},{"name":"salt","type":"bytes32","internalType":"bytes32"},{"name":"expiry","type":"uint256","internalType":"uint256"}]}],"outputs":[],"stateMutability":"nonpayable"},{"type":"function","name":"registerOperatorToAVSWithChurn","inputs":[{"name":"avsRegistryCoordinator","type":"address","internalType":"address"},{"name":"quorumNumbers","type":"bytes","internalType":"bytes"},{"name":"socket","type":"string","internalType":"string"},{"name":"params","type":"tuple","internalType":"struct IBLSApkRegistry.PubkeyRegistrationParams","components":[{"name":"pubkeyRegistrationSignature","type":"tuple","internalType":"struct BN254.G1Point","components":[{"name":"X","type":"uint256","internalType":"uint256"},{"name":"Y","type":"uint256","internalType":"uint256"}]},{"name":"pubkeyG1","type":"tuple","internalType":"struct BN254.G1Point","components":[{"name":"X","type":"uint256","internalType":"uint256"},{"name":"Y","type":"uint256","internalType":"uint256"}]},{"name":"pubkeyG2","type":"tuple","internalType":"struct BN254.G2Point","components":[{"name":"X","type":"uint256[2]","internalType":"uint256[2]"},{"name":"Y","type":"uint256[2]","internalType":"uint256[2]"}]}]},{"name":"operatorKickParams","type":"tuple[]","internalType":"struct IRegistryCoordinator.OperatorKickParam[]","components":[{"name":"quorumNumber","type":"uint8","internalType":"uint8"},{"name":"operator","type":"address","internalType":"address"}]},{"name":"churnApproverSignature","type":"tuple","internalType":"struct ISignatureUtils.SignatureWithSaltAndExpiry","components":[{"name":"signature","type":"bytes","internalType":"bytes"},{"name":"salt","type":"bytes32","internalType":"bytes32"},{"name":"expiry","type":"uint256","internalType":"uint256"}]},{"name":"operatorSignature","type":"tuple","internalType":"struct ISignatureUtils.SignatureWithSaltAndExpiry","components":[{"name":"signature","type":"bytes","internalType":"bytes"},{"name":"salt","type":"bytes32","internalType":"bytes32"},{"name":"expiry","type":"uint256","internalType":"uint256"}]}],"outputs":[],"stateMutability":"nonpayable"},{"type":"function","name":"setAuthority","inputs":[{"name":"newAuthority","type":"address","internalType":"address"}],"outputs":[],"stateMutability":"nonpayable"},{"type":"function","name":"updateOperatorAVSSocket","inputs":[{"name":"avsRegistryCoordinator","type":"address","internalType":"address"},{"name":"socket","type":"string","internalType":"string"}],"outputs":[],"stateMutability":"nonpayable"},{"type":"function","name":"updateOperatorMetadataURI","inputs":[{"name":"metadataURI","type":"string","internalType":"string"}],"outputs":[],"stateMutability":"nonpayable"},{"type":"function","name":"updateSignatureProof","inputs":[{"name":"digestHash","type":"bytes32","internalType":"bytes32"},{"name":"signer","type":"address","internalType":"address"}],"outputs":[],"stateMutability":"nonpayable"},{"type":"event","name":"AuthorityUpdated","inputs":[{"name":"authority","type":"address","indexed":false,"internalType":"address"}],"anonymous":false},{"type":"event","name":"Initialized","inputs":[{"name":"version","type":"uint64","indexed":false,"internalType":"uint64"}],"anonymous":false},{"type":"error","name":"AccessManagedInvalidAuthority","inputs":[{"name":"authority","type":"address","internalType":"address"}]},{"type":"error","name":"AccessManagedRequiredDelay","inputs":[{"name":"caller","type":"address","internalType":"address"},{"name":"delay","type":"uint32","internalType":"uint32"}]},{"type":"error","name":"AccessManagedUnauthorized","inputs":[{"name":"caller","type":"address","internalType":"address"}]},{"type":"error","name":"AddressEmptyCode","inputs":[{"name":"target","type":"address","internalType":"address"}]},{"type":"error","name":"AddressInsufficientBalance","inputs":[{"name":"account","type":"address","internalType":"address"}]},{"type":"error","name":"ECDSAInvalidSignature","inputs":[]},{"type":"error","name":"ECDSAInvalidSignatureLength","inputs":[{"name":"length","type":"uint256","internalType":"uint256"}]},{"type":"error","name":"ECDSAInvalidSignatureS","inputs":[{"name":"s","type":"bytes32","internalType":"bytes32"}]},{"type":"error","name":"FailedInnerCall","inputs":[]},{"type":"error","name":"InvalidAddress","inputs":[]},{"type":"error","name":"InvalidInitialization","inputs":[]},{"type":"error","name":"NotInitializing","inputs":[]},{"type":"error","name":"Unauthorized","inputs":[]}],"bytecode":{"object":"0x60e060405234801562000010575f80fd5b5060405162001a9b38038062001a9b8339810160408190526200003391620001a0565b6001600160a01b0383166200005b5760405163e6c4247b60e01b815260040160405180910390fd5b6001600160a01b038216620000835760405163e6c4247b60e01b815260040160405180910390fd5b6001600160a01b038116620000ab5760405163e6c4247b60e01b815260040160405180910390fd5b6001600160a01b0380841660805282811660a052811660c052620000ce620000d7565b505050620001f1565b7ff0c57e16840df040f15088dc2f81fe391c3923bec73e23a9662efc9c229c6a00805468010000000000000000900460ff1615620001285760405163f92ee8a960e01b815260040160405180910390fd5b80546001600160401b0390811614620001885780546001600160401b0319166001600160401b0390811782556040519081527fc7f505b2f371ae2175ee4913f4499e1f2633a7b5936321eed1cdaeb6115181d29060200160405180910390a15b50565b6001600160a01b038116811462000188575f80fd5b5f805f60608486031215620001b3575f80fd5b8351620001c0816200018b565b6020850151909350620001d3816200018b565b6040850151909250620001e6816200018b565b809150509250925092565b60805160a05160c051611824620002775f395f818161010f015281816102d801528181610444015281816104fa0152818161059301528181610629015281816107bd0152818161085301528181610a870152610b4b01525f81816102380152610ba701525f818161029801528181610811015281816109c50152610adb01526118245ff3fe608060405234801561000f575f80fd5b5060043610610106575f3560e01c80638fb360371161009e578063d3da60891161006e578063d3da60891461025a578063d7e549991461026d578063f16172b014610280578063f2251b0f14610293578063f73b7519146102ba575f80fd5b80638fb36037146101fb57806399be81c814610203578063bf7e214f14610216578063c2e6619014610233575f80fd5b806358fa420c116100d957806358fa420c146101a257806370034c86146101c2578063742ab890146101d55780637a9e5e4b146101e8575f80fd5b80630575c0a91461010a578063160f61a71461014e5780631626ba7e146101635780631e6d44761461018f575b5f80fd5b6101317f000000000000000000000000000000000000000000000000000000000000000081565b6040516001600160a01b0390911681526020015b60405180910390f35b61016161015c366004611065565b6102cd565b005b610176610171366004611106565b610372565b6040516001600160e01b03199091168152602001610145565b61016161019d3660046111ec565b610439565b6101b56101b036600461129e565b6104ed565b6040516101459190611320565b6101616101d0366004611332565b610588565b6101616101e336600461139c565b61061e565b6101616101f636600461149b565b6106db565b61017661077c565b6101616102113660046114b4565b6107b2565b5f80516020611804833981519152546001600160a01b0316610131565b6101317f000000000000000000000000000000000000000000000000000000000000000081565b61016161026836600461129e565b610848565b61016161027b366004611502565b6108f0565b61016161028e36600461155f565b610a7c565b6101317f000000000000000000000000000000000000000000000000000000000000000081565b6101616102c836600461149b565b610b40565b336001600160a01b037f00000000000000000000000000000000000000000000000000000000000000001614610315576040516282b42960e81b815260040160405180910390fd5b604051630cf4b76760e01b81526001600160a01b03831690630cf4b76790610341908490600401611320565b5f604051808303815f87803b158015610358575f80fd5b505af115801561036a573d5f803e3d5ffd5b505050505050565b5f8381527f2182a68f8e463a6b4c76f5de5bb25b7b51ccc88cb3b9ba6c251c356b50555100602081905260408220546001600160a01b031680158015906104085750806001600160a01b03166103fd8787878080601f0160208091040260200160405190810160405280939291908181526020018383808284375f92019190915250610bd692505050565b6001600160a01b0316145b1561041f5750630b135d3f60e11b91506104329050565b506001600160e01b031991506104329050565b9392505050565b336001600160a01b037f00000000000000000000000000000000000000000000000000000000000000001614610481576040516282b42960e81b815260040160405180910390fd5b60405163a50857bf60e01b81526001600160a01b0388169063a50857bf906104b790899089908990899089908990600401611617565b5f604051808303815f87803b1580156104ce575f80fd5b505af11580156104e0573d5f803e3d5ffd5b5050505050505050505050565b6060336001600160a01b037f00000000000000000000000000000000000000000000000000000000000000001614610537576040516282b42960e81b815260040160405180910390fd5b61058083838080601f0160208091040260200160405190810160405280939291908181526020018383808284375f92019190915250506001600160a01b03881692915050610c00565b949350505050565b336001600160a01b037f000000000000000000000000000000000000000000000000000000000000000016146105d0576040516282b42960e81b815260040160405180910390fd5b5f7f2182a68f8e463a6b4c76f5de5bb25b7b51ccc88cb3b9ba6c251c356b505551005f93845260205250604090912080546001600160a01b0319166001600160a01b03909216919091179055565b336001600160a01b037f00000000000000000000000000000000000000000000000000000000000000001614610666576040516282b42960e81b815260040160405180910390fd5b604051639b5d177b60e01b81526001600160a01b038b1690639b5d177b906106a2908c908c908c908c908c908c908c908c908c9060040161166f565b5f604051808303815f87803b1580156106b9575f80fd5b505af11580156106cb573d5f803e3d5ffd5b5050505050505050505050505050565b336106fa5f80516020611804833981519152546001600160a01b031690565b6001600160a01b0316816001600160a01b03161461073a5760405162d1953b60e31b81526001600160a01b03821660048201526024015b60405180910390fd5b816001600160a01b03163b5f0361076f576040516361798f2f60e11b81526001600160a01b0383166004820152602401610731565b61077882610c0d565b5050565b5f8051602061180483398151915280545f9190600160a01b900460ff166107a3575f6107ac565b638fb3603760e01b5b91505090565b336001600160a01b037f000000000000000000000000000000000000000000000000000000000000000016146107fa576040516282b42960e81b815260040160405180910390fd5b604051631337d03960e31b81526001600160a01b037f000000000000000000000000000000000000000000000000000000000000000016906399be81c890610341908590859060040161173e565b336001600160a01b037f00000000000000000000000000000000000000000000000000000000000000001614610890576040516282b42960e81b815260040160405180910390fd5b60405163ca4f2d9760e01b81526001600160a01b0384169063ca4f2d97906108be908590859060040161173e565b5f604051808303815f87803b1580156108d5575f80fd5b505af11580156108e7573d5f803e3d5ffd5b50505050505050565b7ff0c57e16840df040f15088dc2f81fe391c3923bec73e23a9662efc9c229c6a008054600160401b810460ff1615906001600160401b03165f811580156109345750825b90505f826001600160401b0316600114801561094f5750303b155b90508115801561095d575080155b1561097b5760405163f92ee8a960e01b815260040160405180910390fd5b845467ffffffffffffffff1916600117855583156109a557845460ff60401b1916600160401b1785555b6109ae89610c6d565b604051630f589e5960e01b81526001600160a01b037f00000000000000000000000000000000000000000000000000000000000000001690630f589e59906109fe908b908b908b9060040161179d565b5f604051808303815f87803b158015610a15575f80fd5b505af1158015610a27573d5f803e3d5ffd5b505050508315610a7157845460ff60401b19168555604051600181527fc7f505b2f371ae2175ee4913f4499e1f2633a7b5936321eed1cdaeb6115181d29060200160405180910390a15b505050505050505050565b336001600160a01b037f00000000000000000000000000000000000000000000000000000000000000001614610ac4576040516282b42960e81b815260040160405180910390fd5b604051630f16172b60e41b81526001600160a01b037f0000000000000000000000000000000000000000000000000000000000000000169063f16172b090610b109084906004016117c6565b5f604051808303815f87803b158015610b27575f80fd5b505af1158015610b39573d5f803e3d5ffd5b5050505050565b336001600160a01b037f00000000000000000000000000000000000000000000000000000000000000001614610b88576040516282b42960e81b815260040160405180910390fd5b60405163f73b751960e01b81526001600160a01b0382811660048301527f0000000000000000000000000000000000000000000000000000000000000000169063f73b751990602401610b10565b5f805f80610be48686610c81565b925092509250610bf48282610cca565b50909150505b92915050565b606061043283835f610d82565b5f8051602061180483398151915280546001600160a01b0383166001600160a01b03199091168117825560408051918252517f2f658b440c35314f52658ea8a740e05b284cdc84dc9ae01e891f21b8933e7cad9181900360200190a15050565b610c75610e1b565b610c7e81610e66565b50565b5f805f8351604103610cb8576020840151604085015160608601515f1a610caa88828585610e77565b955095509550505050610cc3565b505081515f91506002905b9250925092565b5f826003811115610cdd57610cdd6117d4565b03610ce6575050565b6001826003811115610cfa57610cfa6117d4565b03610d185760405163f645eedf60e01b815260040160405180910390fd5b6002826003811115610d2c57610d2c6117d4565b03610d4d5760405163fce698f760e01b815260048101829052602401610731565b6003826003811115610d6157610d616117d4565b03610778576040516335e2f38360e21b815260048101829052602401610731565b606081471015610da75760405163cd78605960e01b8152306004820152602401610731565b5f80856001600160a01b03168486604051610dc291906117e8565b5f6040518083038185875af1925050503d805f8114610dfc576040519150601f19603f3d011682016040523d82523d5f602084013e610e01565b606091505b5091509150610e11868383610f3f565b9695505050505050565b7ff0c57e16840df040f15088dc2f81fe391c3923bec73e23a9662efc9c229c6a0054600160401b900460ff16610e6457604051631afcd79f60e31b815260040160405180910390fd5b565b610e6e610e1b565b610c7e81610c0d565b5f80807f7fffffffffffffffffffffffffffffff5d576e7357a4501ddfe92f46681b20a0841115610eb057505f91506003905082610f35565b604080515f808252602082018084528a905260ff891692820192909252606081018790526080810186905260019060a0016020604051602081039080840390855afa158015610f01573d5f803e3d5ffd5b5050604051601f1901519150506001600160a01b038116610f2c57505f925060019150829050610f35565b92505f91508190505b9450945094915050565b606082610f5457610f4f82610f9b565b610432565b8151158015610f6b57506001600160a01b0384163b155b15610f9457604051639996b31560e01b81526001600160a01b0385166004820152602401610731565b5080610432565b805115610fab5780518082602001fd5b604051630a12f52160e11b815260040160405180910390fd5b80356001600160a01b0381168114610fda575f80fd5b919050565b634e487b7160e01b5f52604160045260245ffd5b5f6001600160401b038084111561100c5761100c610fdf565b604051601f8501601f19908116603f0116810190828211818310171561103457611034610fdf565b8160405280935085815286868601111561104c575f80fd5b858560208301375f602087830101525050509392505050565b5f8060408385031215611076575f80fd5b61107f83610fc4565b915060208301356001600160401b03811115611099575f80fd5b8301601f810185136110a9575f80fd5b6110b885823560208401610ff3565b9150509250929050565b5f8083601f8401126110d2575f80fd5b5081356001600160401b038111156110e8575f80fd5b6020830191508360208285010111156110ff575f80fd5b9250929050565b5f805f60408486031215611118575f80fd5b8335925060208401356001600160401b03811115611134575f80fd5b611140868287016110c2565b9497909650939450505050565b5f610100828403121561115e575f80fd5b50919050565b5f60608284031215611174575f80fd5b604051606081016001600160401b03828210818311171561119757611197610fdf565b8160405282935084359150808211156111ae575f80fd5b508301601f810185136111bf575f80fd5b6111ce85823560208401610ff3565b82525060208301356020820152604083013560408201525092915050565b5f805f805f805f610180888a031215611203575f80fd5b61120c88610fc4565b965060208801356001600160401b0380821115611227575f80fd5b6112338b838c016110c2565b909850965060408a013591508082111561124b575f80fd5b6112578b838c016110c2565b909650945084915061126c8b60608c0161114d565b93506101608a0135915080821115611282575f80fd5b5061128f8a828b01611164565b91505092959891949750929550565b5f805f604084860312156112b0575f80fd5b6112b984610fc4565b925060208401356001600160401b03811115611134575f80fd5b5f5b838110156112ed5781810151838201526020016112d5565b50505f910152565b5f815180845261130c8160208601602086016112d3565b601f01601f19169290920160200192915050565b602081525f61043260208301846112f5565b5f8060408385031215611343575f80fd5b8235915061135360208401610fc4565b90509250929050565b5f8083601f84011261136c575f80fd5b5081356001600160401b03811115611382575f80fd5b6020830191508360208260061b85010111156110ff575f80fd5b5f805f805f805f805f806101c08b8d0312156113b6575f80fd5b6113bf8b610fc4565b995060208b01356001600160401b03808211156113da575f80fd5b6113e68e838f016110c2565b909b50995060408d01359150808211156113fe575f80fd5b61140a8e838f016110c2565b909950975087915061141f8e60608f0161114d565b96506101608d0135915080821115611435575f80fd5b6114418e838f0161135c565b90965094506101808d013591508082111561145a575f80fd5b6114668e838f01611164565b93506101a08d013591508082111561147c575f80fd5b506114898d828e01611164565b9150509295989b9194979a5092959850565b5f602082840312156114ab575f80fd5b61043282610fc4565b5f80602083850312156114c5575f80fd5b82356001600160401b038111156114da575f80fd5b6114e6858286016110c2565b90969095509350505050565b5f6060828403121561115e575f80fd5b5f805f8060a08587031215611515575f80fd5b61151e85610fc4565b935061152d86602087016114f2565b925060808501356001600160401b03811115611547575f80fd5b611553878288016110c2565b95989497509550505050565b5f6060828403121561156f575f80fd5b61043283836114f2565b81835281816020850137505f828201602090810191909152601f909101601f19169091010190565b80358252602080820135908301526115c9604083016040830180358252602090810135910152565b6040608082016080840137604060c0820160c08401375050565b5f8151606084526115f760608501826112f5565b905060208301516020850152604083015160408501528091505092915050565b5f61016080835261162b818401898b611579565b90508281036020840152611640818789611579565b905061164f60408401866115a1565b82810361014084015261166281856115e3565b9998505050505050505050565b5f6101a08083526116838184018c8e611579565b90506020838203602085015261169a828b8d611579565b915060406116ab604086018b6115a1565b84830361014086015287835288926020015f5b8981101561170257843560ff81168082146116d7575f80fd5b8352506001600160a01b036116ed868601610fc4565b168285015293820193908201906001016116be565b5085810361016087015261171681896115e3565b935050505082810361018084015261172e81856115e3565b9c9b505050505050505050505050565b602081525f610580602083018486611579565b6001600160a01b038061176383610fc4565b1683528061177360208401610fc4565b16602084015250604081013563ffffffff8116808214611791575f80fd5b80604085015250505050565b6117a78185611751565b608060608201525f6117bd608083018486611579565b95945050505050565b60608101610bfa8284611751565b634e487b7160e01b5f52602160045260245ffd5b5f82516117f98184602087016112d3565b919091019291505056fef3177357ab46d8af007ab3fdb9af81da189e1068fefdc0073dca88a2cab40a00","linkReferences":{}},"methodIdentifiers":{"EIGEN_DELEGATION_MANAGER()":"f2251b0f","EIGEN_SLASHER()":"c2e66190","PUFFER_MODULE_MANAGER()":"0575c0a9","authority()":"bf7e214f","customCalldataCall(address,bytes)":"58fa420c","deregisterOperatorFromAVS(address,bytes)":"d3da6089","initialize(address,(address,address,uint32),string)":"d7e54999","isConsumingScheduledOp()":"8fb36037","isValidSignature(bytes32,bytes)":"1626ba7e","modifyOperatorDetails((address,address,uint32))":"f16172b0","optIntoSlashing(address)":"f73b7519","registerOperatorToAVS(address,bytes,string,((uint256,uint256),(uint256,uint256),(uint256[2],uint256[2])),(bytes,bytes32,uint256))":"1e6d4476","registerOperatorToAVSWithChurn(address,bytes,string,((uint256,uint256),(uint256,uint256),(uint256[2],uint256[2])),(uint8,address)[],(bytes,bytes32,uint256),(bytes,bytes32,uint256))":"742ab890","setAuthority(address)":"7a9e5e4b","updateOperatorAVSSocket(address,string)":"160f61a7","updateOperatorMetadataURI(string)":"99be81c8","updateSignatureProof(bytes32,address)":"70034c86"},"id":197}