{"abi":[{"type":"function","name":"mrenclave","inputs":[],"outputs":[{"name":"","type":"bytes32","internalType":"bytes32"}],"stateMutability":"pure"},{"type":"function","name":"mrsigner","inputs":[],"outputs":[{"name":"","type":"bytes32","internalType":"bytes32"}],"stateMutability":"pure"},{"type":"function","name":"payload","inputs":[],"outputs":[{"name":"","type":"bytes","internalType":"bytes"}],"stateMutability":"pure"},{"type":"function","name":"report","inputs":[],"outputs":[{"name":"","type":"bytes","internalType":"bytes"}],"stateMutability":"pure"},{"type":"function","name":"sig","inputs":[],"outputs":[{"name":"","type":"bytes","internalType":"bytes"}],"stateMutability":"pure"},{"type":"function","name":"signingCert","inputs":[],"outputs":[{"name":"","type":"bytes","internalType":"bytes"}],"stateMutability":"pure"},{"type":"function","name":"signingExp","inputs":[],"outputs":[{"name":"","type":"bytes","internalType":"bytes"}],"stateMutability":"pure"},{"type":"function","name":"signingMod","inputs":[],"outputs":[{"name":"","type":"bytes","internalType":"bytes"}],"stateMutability":"pure"}],"bytecode":{"object":"0x608060405234801561000f575f80fd5b50610d0c8061001d5f395ff3fe608060405234801561000f575f80fd5b5060043610610084575f3560e01c80637e48cc24116100585780637e48cc24146100e65780637fc9570d14610105578063a878f8581461010d578063e0be788914610115575f80fd5b8062a7029b146100885780632606a10b146100a65780632fe532e5146100ae578063534684b3146100b6575b5f80fd5b61009061013b565b60405161009d91906101e9565b60405180910390f35b61009061015e565b610090610183565b7f83d719e77deaca1470f6baf62a4d774303c899db69020f9c70ee1dfc08c7ce9e5b60405190815260200161009d565b60408051808201909152600381526201000160e81b6020820152610090565b6100906101a6565b6100906101c9565b7f8eb70e76a34bf6cbf9deed7f467b4888cc187f1f1f34cce2d11ca54014149a356100d8565b606060405180610120016040528061010081526020016105a66101009139905090565b606060405160200161016f90610235565b604051602081830303815290604052905090565b6060604051806101a0016040528061018081526020016106a66101809139905090565b6060604051806104e001604052806104a581526020016108676104a59139905090565b606060405180608001604052806041815260200161082660419139905090565b5f602080835283518060208501525f5b81811015610215578581018301518582016040015282016101f9565b505f604082860101526040601f19601f8301168501019250505092915050565b5f610100808352602781840152507f3230393735393937313336383134393733313733373935343638353735313532610120830152660dcc0dcc8c0c0d60ca1b6101408301526101608060208401526102ba818401601a81527f323032332d31302d31365432303a31373a30382e373432313035000000000000602082015260400190565b905082810360408401526102dc8160018152600d60fa1b602082015260400190565b905082810360608401526103c78160ac81527f4562724d3658365943483362726a50585432336756682f49324547357356664860208201527f59682b533534666230727241715652546952544f53664c73575356545a63387760408201527f72617a4747376f6f6f476f4d5537476a3554456873704e57504e426b70636d7760608201527f662b33575a5973756e63773665583655696a6b2b507a5070336442515365624860808201527f734f45515944527847654675576f77766b546f325a3548546176796f5249725360a08201526b75704254714445373848413d60a01b60c082015260e00190565b8381036080850152602181527f68747470733a2f2f73656375726974792d63656e7465722e696e74656c2e636f6020820152606d60f81b604082015290506060810183810360a0850152602381527f5b22494e54454c2d53412d3030333334222c22494e54454c2d53412d3030363160208201526235225d60e81b604082015290506060810183810360c0850152601381527214d5d7d21054911153925391d7d39151511151606a1b6020820152905060408101905082810360e084015261059e816101b081527f02000100ac0c00000d000d000000000042616c98d53c9712639447c9b0e7003f60208201526f15150b07ff800e00000000000000000060408201525f606082018190527f05000000000000001f000000000000008eb70e76a34bf6cbf9deed7f467b488860808301526fcc187f1f1f34cce2d11ca54014149a3560801b60a08301526f83d719e77deaca1470f6baf62a4d774360c08301526f01e44cedb48107ce38770efe0463e74f60811b60e083015261010082018190526101208201819052610140820181905261016082018190526fbc3029f55f939dfad86a268c340aeba86101808301526f361f6aa8ff708128328db20e6abc3c9b60821b6101a08301526101c08201526101e00190565b939250505056fe77d614e10b4f29730c14681ea0808758c22f3ffd833020fcd572dc445ca9abd2ea3e2abdcfd5a04f0975202c5f8c17812a5701346d8f75427b16455da264673e02bedb15d06945ab566d39788e586b73a0259f024a68a27b1fa40964f0b695f3394a5cd3a7af283447f5ff8adccf8091640086de1067cf85fb8ee5db5073bb6894478a9a8bee8292bcb839a10529d82300f3c9cbd548279eae92809f99d0fd6dd7280fe1a6b250d5c1e5219afa7032c4771b393d7fb0269027184013cc6bec4ec40a6699bdc967d67c57035c12f129d59559b98c7f6588aa3658bcf3542a221941ee91b100b80ca895b19464b5570537573ddb0426a09a88b2eca50875809b0e9f3c647eb5773cbb512d2732c0d7415ebb55a0fa9ede2e649199e6821db910d53177370977466a6a5e4786ccd2ddebd4149d6a2f6325529dd10cc98737b0779c1a07e29c47a1ae004948476c489f45a5a15d7ac8ecc6acc645adb43d87679df59c093bc5a2e9696c5478541b979e754b573914be55d32ff4c09ddf27219934cd990527b3f92ed78fbf29246abecb71240ef39c2d7107b447545a7ffb10eb060a68a98580219e36910952683892d6a5e2a80803193e407531404e36b315623799aa825074409754a2dfe8f5afd5fe631e1fc2af3808906f28a790d9dd9fe060939b125790c5805d037df56a99531b96de69de33ed226cc1207d1042b5c9ab7f404fc711c0fe4769fb9578b1dc0ec469ea1a25e0ff9914886ef2699b235bb4847dd6ff40b606e6170793c2fb98b314587f9cfd257362dfeab10b3bd2d97673a1a4bd44c453aaf47fc1f2d3d0f384f74a06f89c089f0da6cdb7fceee8c9821a8e54f25c0416d18c46839a5f8012fbdd3dc74d256279adc2c0d55aff6f0622425d1b04f050c3ce5d575600af388f41876e2962499a97bc8fcfa4a12adf7e4a486a3be9a1db0efd899c09723f83fe490e8215fd596a5f03c819e28a8b95f3cce6238613308204a130820309a003020102020900d107765d32a3b096300d06092a864886f70d01010b0500307e310b3009060355040613025553310b300906035504080c0243413114301206035504070c0b53616e746120436c617261311a3018060355040a0c11496e74656c20436f72706f726174696f6e3130302e06035504030c27496e74656c20534758204174746573746174696f6e205265706f7274205369676e696e67204341301e170d3136313132323039333635385a170d3236313132303039333635385a307b310b3009060355040613025553310b300906035504080c0243413114301206035504070c0b53616e746120436c617261311a3018060355040a0c11496e74656c20436f72706f726174696f6e312d302b06035504030c24496e74656c20534758204174746573746174696f6e205265706f7274205369676e696e6730820122300d06092a864886f70d01010105000382010f003082010a0282010100a97a2de0e66ea6147c9ee745ac0162686c7192099afc4b3f040fad6de093511d74e802f510d716038157dcaf84f4104bd3fed7e6b8f99c8817fd1ff5b9b864296c3d81fa8f1b729e02d21d72ffee4ced725efe74bea68fbc4d4244286fcdd4bf64406a439a15bcb4cf67754489c423972b4a80df5c2e7c5bc2dbaf2d42bb7b244f7c95bf92c75d3b33fc5410678a89589d1083da3acc459f2704cd99598c275e7c1878e00757e5bdb4e840226c11c0a17ff79c80b15c1ddb5af21cc2417061fbd2a2da819ed3b72b7efaa3bfebe2805c9b8ac19aa346512d484cfc81941e15f55881cc127e8f7aa12300cd5afb5742fa1d20cb467a5beb1c666cf76a368978b50203010001a381a43081a1301f0603551d2304183016801478437b76a67ebcd0af7e4237eb357c3b8701513c300e0603551d0f0101ff0404030206c0300c0603551d130101ff0402300030600603551d1f045930573055a053a051864f687474703a2f2f7472757374656473657276696365732e696e74656c2e636f6d2f636f6e74656e742f43524c2f5347582f4174746573746174696f6e5265706f72745369676e696e6743412e63726c300d06092a864886f70d01010b050003820181006708b61b5c2bd215473e2b46af99284fbb939d3f3b152c996f1a6af3b329bd220b1d3b610f6bce2e6753bded304db21912f385256216cfcba456bd96940be892f5690c260d1ef84f1606040222e5fe08e5326808212a447cfdd64a46e94bf29f6b4b9a721d25b3c4e2f62f58baed5d77c505248f0f801f9fbfb7fd752080095cee80938b339f6dbb4e165600e20e4a718812d49d9901e310a9b51d66c79909c6996599fae6d76a79ef145d9943bf1d3e35d3b42d1fb9a45cbe8ee334c166eee7d32fcdc9935db8ec8bb1d8eb3779dd8ab92b6e387f0147450f1e381d08581fb83df33b15e000a59be57ea94a3a52dc64bdaec959b3464c91e725bbdaea3d99e857e380a23c9d9fb1ef58e9e42d71f12130f9261d7234d6c37e2b03dba40dfdfb13ac4ad8e13fd3756356b6b50015a3ec9580b815d87c2cef715cd28df00bbf2a3c403ebf6691b3f05edd9143803ca085cff57e053eec2f8fea46ea778a68c9be885bc28225bc5f309be4a2b74d3a03945319dd3c7122fed6ff53bb8b8cb3a03c","linkReferences":{}},"methodIdentifiers":{"mrenclave()":"e0be7889","mrsigner()":"534684b3","payload()":"a878f858","report()":"2606a10b","sig()":"00a7029b","signingCert()":"7fc9570d","signingExp()":"7e48cc24","signingMod()":"2fe532e5"},"id":228}