{"abi":[{"type":"constructor","inputs":[{"name":"freshnessBlocks","type":"uint256","internalType":"uint256"},{"name":"accessManager","type":"address","internalType":"address"}],"stateMutability":"nonpayable"},{"type":"function","name":"FRESHNESS_BLOCKS","inputs":[],"outputs":[{"name":"","type":"uint256","internalType":"uint256"}],"stateMutability":"view"},{"type":"function","name":"addLeafX509","inputs":[{"name":"leafX509Cert","type":"bytes","internalType":"bytes"}],"outputs":[],"stateMutability":"nonpayable"},{"type":"function","name":"authority","inputs":[],"outputs":[{"name":"","type":"address","internalType":"address"}],"stateMutability":"view"},{"type":"function","name":"buildJSON","inputs":[{"name":"values","type":"tuple","internalType":"struct JSONBuilder.Values","components":[{"name":"id","type":"bytes","internalType":"bytes"},{"name":"timestamp","type":"bytes","internalType":"bytes"},{"name":"version","type":"bytes","internalType":"bytes"},{"name":"epidPseudonym","type":"bytes","internalType":"bytes"},{"name":"advisoryURL","type":"bytes","internalType":"bytes"},{"name":"advisoryIDs","type":"bytes","internalType":"bytes"},{"name":"isvEnclaveQuoteStatus","type":"bytes","internalType":"bytes"},{"name":"isvEnclaveQuoteBody","type":"bytes","internalType":"bytes"}]}],"outputs":[{"name":"json","type":"string","internalType":"string"}],"stateMutability":"pure"},{"type":"function","name":"getIntelRootCAPubKey","inputs":[],"outputs":[{"name":"","type":"tuple","internalType":"struct IEnclaveVerifier.RSAPubKey","components":[{"name":"modulus","type":"bytes","internalType":"bytes"},{"name":"exponent","type":"bytes","internalType":"bytes"}]}],"stateMutability":"pure"},{"type":"function","name":"isConsumingScheduledOp","inputs":[],"outputs":[{"name":"","type":"bytes4","internalType":"bytes4"}],"stateMutability":"view"},{"type":"function","name":"rave","inputs":[{"name":"report","type":"bytes","internalType":"bytes"},{"name":"sig","type":"bytes","internalType":"bytes"},{"name":"leafX509Cert","type":"bytes","internalType":"bytes"},{"name":"signingMod","type":"bytes","internalType":"bytes"},{"name":"signingExp","type":"bytes","internalType":"bytes"},{"name":"mrenclave","type":"bytes32","internalType":"bytes32"},{"name":"mrsigner","type":"bytes32","internalType":"bytes32"}],"outputs":[{"name":"payload","type":"bytes","internalType":"bytes"}],"stateMutability":"view"},{"type":"function","name":"removeLeafX509","inputs":[{"name":"hashedCert","type":"bytes32","internalType":"bytes32"}],"outputs":[],"stateMutability":"nonpayable"},{"type":"function","name":"setAuthority","inputs":[{"name":"newAuthority","type":"address","internalType":"address"}],"outputs":[],"stateMutability":"nonpayable"},{"type":"function","name":"verifyEvidence","inputs":[{"name":"blockNumber","type":"uint256","internalType":"uint256"},{"name":"raveCommitment","type":"bytes32","internalType":"bytes32"},{"name":"evidence","type":"tuple","internalType":"struct RaveEvidence","components":[{"name":"report","type":"bytes","internalType":"bytes"},{"name":"signature","type":"bytes","internalType":"bytes"},{"name":"leafX509CertDigest","type":"bytes32","internalType":"bytes32"}]},{"name":"mrenclave","type":"bytes32","internalType":"bytes32"},{"name":"mrsigner","type":"bytes32","internalType":"bytes32"}],"outputs":[{"name":"","type":"bool","internalType":"bool"}],"stateMutability":"view"},{"type":"function","name":"verifyRemoteAttestation","inputs":[{"name":"report","type":"bytes","internalType":"bytes"},{"name":"sig","type":"bytes","internalType":"bytes"},{"name":"signingMod","type":"bytes","internalType":"bytes"},{"name":"signingExp","type":"bytes","internalType":"bytes"},{"name":"mrenclave","type":"bytes32","internalType":"bytes32"},{"name":"mrsigner","type":"bytes32","internalType":"bytes32"}],"outputs":[{"name":"payload","type":"bytes","internalType":"bytes"}],"stateMutability":"view"},{"type":"function","name":"verifyReportSignature","inputs":[{"name":"report","type":"bytes","internalType":"bytes"},{"name":"sig","type":"bytes","internalType":"bytes"},{"name":"signingMod","type":"bytes","internalType":"bytes"},{"name":"signingExp","type":"bytes","internalType":"bytes"}],"outputs":[{"name":"","type":"bool","internalType":"bool"}],"stateMutability":"view"},{"type":"event","name":"AddedPubKey","inputs":[{"name":"pubKeyHash","type":"bytes32","indexed":true,"internalType":"bytes32"}],"anonymous":false},{"type":"event","name":"AuthorityUpdated","inputs":[{"name":"authority","type":"address","indexed":false,"internalType":"address"}],"anonymous":false},{"type":"event","name":"RemovedPubKey","inputs":[{"name":"pubKeyHash","type":"bytes32","indexed":true,"internalType":"bytes32"}],"anonymous":false},{"type":"error","name":"AccessManagedInvalidAuthority","inputs":[{"name":"authority","type":"address","internalType":"address"}]},{"type":"error","name":"AccessManagedRequiredDelay","inputs":[{"name":"caller","type":"address","internalType":"address"},{"name":"delay","type":"uint32","internalType":"uint32"}]},{"type":"error","name":"AccessManagedUnauthorized","inputs":[{"name":"caller","type":"address","internalType":"address"}]},{"type":"error","name":"BadReportSignature","inputs":[]},{"type":"error","name":"InvalidAddress","inputs":[]},{"type":"error","name":"StaleEvidence","inputs":[]}],"bytecode":{"object":"0x60a060405234801562000010575f80fd5b50604051620021c3380380620021c38339810160408190526200003391620000c5565b806200003f8162000072565b506001600160a01b038116620000685760405163e6c4247b60e01b815260040160405180910390fd5b5060805262000101565b5f80546001600160a01b0319166001600160a01b0383169081179091556040519081527f2f658b440c35314f52658ea8a740e05b284cdc84dc9ae01e891f21b8933e7cad9060200160405180910390a150565b5f8060408385031215620000d7575f80fd5b825160208401519092506001600160a01b0381168114620000f6575f80fd5b809150509250929050565b6080516120a3620001205f395f818160ed015261068a01526120a35ff3fe608060405234801561000f575f80fd5b50600436106100b1575f3560e01c80637a9e5e4b1161006e5780637a9e5e4b146101735780637accaea4146101865780638c1c9085146101995780638fb36037146101ac578063bf7e214f146101cd578063fe4e6aee146101e7575f80fd5b806319d2be90146100b557806327a88ff0146100d357806328a55c21146100e85780633549c40e1461011d57806354a2da361461014057806361bb035514610160575b5f80fd5b6100bd6101fa565b6040516100ca91906110f5565b60405180910390f35b6100e66100e136600461117a565b61025e565b005b61010f7f000000000000000000000000000000000000000000000000000000000000000081565b6040519081526020016100ca565b61013061012b36600461129d565b6103ab565b60405190151581526020016100ca565b61015361014e366004611347565b610473565b6040516100ca9190611408565b61015361016e366004611421565b6104fd565b6100e6610181366004611504565b6105a1565b6100e661019436600461152a565b61061e565b6101306101a7366004611541565b610687565b6101b4610891565b6040516001600160e01b031990911681526020016100ca565b5f546040516001600160a01b0390911681526020016100ca565b6101536101f53660046115a1565b6108b3565b60408051808201909152606080825260208201526040518060400160405280604051806101a001604052806101808152602001611f23610180913981526020016040518060400160405280600381526020016201000160e81b815250815250905090565b5f8073__$f3adf7c7352a784d1737852c3f8f0a4c62$__63a21f157a8585604051806101a001604052806101808152602001611f2361018091396040518060400160405280600381526020016201000160e81b8152506040518563ffffffff1660e01b81526004016102d39493929190611726565b5f60405180830381865af41580156102ed573d5f803e3d5ffd5b505050506040513d5f823e601f3d908101601f1916820160405261031491908101906117b4565b915091505f8484604051610329929190611813565b60408051918290038220828201825285835260208084018690525f828152600190915291909120825191935090819061036290826118a3565b506020820151600182019061037790826118a3565b50506040518291507f13b85b042d2bb270091da7111e3b3cc407f6b86c85882cf48ae94123cae22b17905f90a25050505050565b5f805f6103ee858589898080601f0160208091040260200160405190810160405280939291908181526020018383808284375f9201919091525061092892505050565b915091505f61040b602083516104049190611976565b8390610942565b90508280156104665750600289604051610425919061198f565b602060405180830381855afa158015610440573d5f803e3d5ffd5b5050506040513d601f19601f8201168201806040525081019061046391906119aa565b81145b9998505050505050505050565b60605f806104b58b8b8080601f0160208091040260200160405190810160405280939291908181526020018383808284375f9201919091525061096492505050565b915091506104c6818a8a8a8a6103ab565b6104e357604051633f1a65c760e21b815260040160405180910390fd5b6104ee828686610a43565b9b9a5050505050505050505050565b60605f8073__$f3adf7c7352a784d1737852c3f8f0a4c62$__63a21f157a8989896040518463ffffffff1660e01b815260040161053c939291906119c1565b5f60405180830381865af4158015610556573d5f803e3d5ffd5b505050506040513d5f823e601f3d908101601f1916820160405261057d91908101906117b4565b915091506105918c8c8c8c86868b8b610473565b9c9b505050505050505050505050565b5f5433906001600160a01b031681146105dc5760405162d1953b60e31b81526001600160a01b03821660048201526024015b60405180910390fd5b816001600160a01b03163b5f03610611576040516361798f2f60e11b81526001600160a01b03831660048201526024016105d3565b61061a82610b4f565b5050565b610629335f36610ba2565b5f81815260016020526040812061063f91611056565b5f818152600160208190526040822061065a92910190611056565b60405181907f0ebd07953ae533bded7d9b0715fa49e0a0ed0a6cef4638a685737ffef8b86254905f90a250565b5f7f00000000000000000000000000000000000000000000000000000000000000006106b38743611976565b11156106d257604051635d4ad9a960e01b815260040160405180910390fd5b5f60015f866040013581526020019081526020015f206040518060400160405290815f8201805461070290611822565b80601f016020809104026020016040519081016040528092919081815260200182805461072e90611822565b80156107795780601f1061075057610100808354040283529160200191610779565b820191905f5260205f20905b81548152906001019060200180831161075c57829003601f168201915b5050505050815260200160018201805461079290611822565b80601f01602080910402602001604051908101604052809291908181526020018280546107be90611822565b80156108095780601f106107e057610100808354040283529160200191610809565b820191905f5260205f20905b8154815290600101906020018083116107ec57829003601f168201915b50505091909252509192505f915061084190506108268780611a03565b61083360208a018a611a03565b865160208801518b8b610473565b90505f878940604051602001610861929190918252602082015260400190565b60405160208183030381529060405290508180519060200120818051906020012014935050505095945050505050565b5f8054600160a01b900460ff166108a757505f90565b50638fb3603760e01b90565b6060815f01518260200151836040015184606001516040516020016108db9493929190611a45565b60408051601f1981840301815290829052608084015160a085015160c086015160e087015193955061091294869490602001611b04565b6040516020818303038152906040529050919050565b5f6060610936838587610c98565b91509150935093915050565b81515f90610951836020611c0e565b111561095b575f80fd5b50016020015190565b6109ac60405180610100016040528060608152602001606081526020016060815260200160608152602001606081526020016060815260200160608152602001606081525090565b60605f805f805f805f808a8060200190518101906109ca9190611c21565b975097509750975097509750975097505f6109e482610d2c565b90506040518061010001604052808a8152602001898152602001888152602001878152602001868152602001858152602001848152602001828152509a50610a2b8b6108b3565b60e08c019290925250989a9899505050505050505050565b60c083015180516020909101206060907fdaa4f5d475c02455977059e29f0bd4c2f7e92e8cfa8026b3dcd2c374e8a520e6811480610aa057507f174348b9c1e9ee5c57cffc36f0797c45d85e5ec45e51b2b17433eb33f56a215081145b610aec5760405162461bcd60e51b815260206004820152601960248201527f62616420697376456e636c61766551756f74655374617475730000000000000060448201526064016105d3565b60e085015180516101b014610b0357610b03611d53565b5f610b0f826070610942565b9050858114610b1c575f80fd5b5f610b288360b0610942565b9050858114610b35575f80fd5b610b43836101706040610e7a565b98975050505050505050565b5f80546001600160a01b0319166001600160a01b0383169081179091556040519081527f2f658b440c35314f52658ea8a740e05b284cdc84dc9ae01e891f21b8933e7cad9060200160405180910390a150565b5f80610bd5610bb85f546001600160a01b031690565b8630610bc760045f898b611d67565b610bd091611d8e565b610ef9565b9150915081610c915763ffffffff811615610c6e575f805460ff60a01b198116600160a01b17909155604051634a63ebf760e11b81526001600160a01b03909116906394c7d7ee90610c2f90889088908890600401611dbe565b5f604051808303815f87803b158015610c46575f80fd5b505af1158015610c58573d5f803e3d5ffd5b50505f805460ff60a01b1916905550610c919050565b60405162d1953b60e31b81526001600160a01b03861660048201526024016105d3565b5050505050565b5f60605f855185518551888888604051602001610cba96959493929190611de2565b604051602081830303815290604052905083516001600160401b03811115610ce457610ce46111b8565b6040519080825280601f01601f191660200182016040528015610d0e576020820181803683370190505b50915083516020830182516020840160055afa925050935093915050565b606081515f03610d4957505060408051602081019091525f815290565b5f604051806060016040528060408152602001611ee36040913990505f600384516002610d769190611c0e565b610d809190611e42565b610d8b906004611e61565b6001600160401b03811115610da257610da26111b8565b6040519080825280601f01601f191660200182016040528015610dcc576020820181803683370190505b509050600182016020820185865187015b80821015610e38576003820191508151603f8160121c168501518453600184019350603f81600c1c168501518453600184019350603f8160061c168501518453600184019350603f8116850151845350600183019250610ddd565b5050600386510660018114610e545760028114610e6757610e6f565b603d6001830353603d6002830353610e6f565b603d60018303535b509195945050505050565b8251606090610e898385611c0e565b1115610e93575f80fd5b5f826001600160401b03811115610eac57610eac6111b8565b6040519080825280601f01601f191660200182016040528015610ed6576020820181803683370190505b50905060208082019086860101610eee828287611001565b509095945050505050565b6040516001600160a01b03848116602483015283811660448301526001600160e01b0319831660648301525f9182918291829189169060840160408051601f198184030181529181526020820180516001600160e01b031663b700961360e01b17905251610f67919061198f565b5f60405180830381855afa9150503d805f8114610f9f576040519150601f19603f3d011682016040523d82523d5f602084013e610fa4565b606091505b50915091508115610ff6576040815110610fd65780806020019051810190610fcc9190611e8c565b9094509250610ff6565b6020815110610ff65780806020019051810190610ff39190611ec9565b93505b505094509492505050565b602081106110395781518352611018602084611c0e565b9250611025602083611c0e565b9150611032602082611976565b9050611001565b905182516020929092036101000a5f190180199091169116179052565b50805461106290611822565b5f825580601f10611071575050565b601f0160209004905f5260205f209081019061108d9190611090565b50565b5b808211156110a4575f8155600101611091565b5090565b5f5b838110156110c25781810151838201526020016110aa565b50505f910152565b5f81518084526110e18160208601602086016110a8565b601f01601f19169290920160200192915050565b602081525f82516040602084015261111060608401826110ca565b90506020840151601f1984830301604085015261112d82826110ca565b95945050505050565b5f8083601f840112611146575f80fd5b5081356001600160401b0381111561115c575f80fd5b602083019150836020828501011115611173575f80fd5b9250929050565b5f806020838503121561118b575f80fd5b82356001600160401b038111156111a0575f80fd5b6111ac85828601611136565b90969095509350505050565b634e487b7160e01b5f52604160045260245ffd5b60405161010081016001600160401b03811182821017156111ef576111ef6111b8565b60405290565b604051601f8201601f191681016001600160401b038111828210171561121d5761121d6111b8565b604052919050565b5f6001600160401b0382111561123d5761123d6111b8565b50601f01601f191660200190565b5f82601f83011261125a575f80fd5b813561126d61126882611225565b6111f5565b818152846020838601011115611281575f80fd5b816020850160208301375f918101602001919091529392505050565b5f805f805f608086880312156112b1575f80fd5b85356001600160401b03808211156112c7575f80fd5b6112d389838a0161124b565b965060208801359150808211156112e8575f80fd5b6112f489838a01611136565b9096509450604088013591508082111561130c575f80fd5b61131889838a0161124b565b9350606088013591508082111561132d575f80fd5b5061133a8882890161124b565b9150509295509295909350565b5f805f805f805f8060c0898b03121561135e575f80fd5b88356001600160401b0380821115611374575f80fd5b6113808c838d01611136565b909a50985060208b0135915080821115611398575f80fd5b6113a48c838d01611136565b909850965060408b01359150808211156113bc575f80fd5b6113c88c838d0161124b565b955060608b01359150808211156113dd575f80fd5b506113ea8b828c0161124b565b9350506080890135915060a089013590509295985092959890939650565b602081525f61141a60208301846110ca565b9392505050565b5f805f805f805f805f60e08a8c031215611439575f80fd5b89356001600160401b038082111561144f575f80fd5b61145b8d838e01611136565b909b50995060208c0135915080821115611473575f80fd5b61147f8d838e01611136565b909950975060408c0135915080821115611497575f80fd5b6114a38d838e0161124b565b965060608c01359150808211156114b8575f80fd5b6114c48d838e0161124b565b955060808c01359150808211156114d9575f80fd5b506114e68c828d0161124b565b93505060a08a0135915060c08a013590509295985092959850929598565b5f60208284031215611514575f80fd5b81356001600160a01b038116811461141a575f80fd5b5f6020828403121561153a575f80fd5b5035919050565b5f805f805f60a08688031215611555575f80fd5b853594506020860135935060408601356001600160401b03811115611578575f80fd5b860160608189031215611589575f80fd5b94979396509394606081013594506080013592915050565b5f602082840312156115b1575f80fd5b81356001600160401b03808211156115c7575f80fd5b9083019061010082860312156115db575f80fd5b6115e36111cc565b8235828111156115f1575f80fd5b6115fd8782860161124b565b825250602083013582811115611611575f80fd5b61161d8782860161124b565b602083015250604083013582811115611634575f80fd5b6116408782860161124b565b604083015250606083013582811115611657575f80fd5b6116638782860161124b565b60608301525060808301358281111561167a575f80fd5b6116868782860161124b565b60808301525060a08301358281111561169d575f80fd5b6116a98782860161124b565b60a08301525060c0830135828111156116c0575f80fd5b6116cc8782860161124b565b60c08301525060e0830135828111156116e3575f80fd5b6116ef8782860161124b565b60e08301525095945050505050565b81835281816020850137505f828201602090810191909152601f909101601f19169091010190565b606081525f6117396060830186886116fe565b828103602084015261174b81866110ca565b9050828103604084015261175f81856110ca565b979650505050505050565b5f82601f830112611779575f80fd5b815161178761126882611225565b81815284602083860101111561179b575f80fd5b6117ac8260208301602087016110a8565b949350505050565b5f80604083850312156117c5575f80fd5b82516001600160401b03808211156117db575f80fd5b6117e78683870161176a565b935060208501519150808211156117fc575f80fd5b506118098582860161176a565b9150509250929050565b818382375f9101908152919050565b600181811c9082168061183657607f821691505b60208210810361185457634e487b7160e01b5f52602260045260245ffd5b50919050565b601f82111561189e57805f5260205f20601f840160051c8101602085101561187f5750805b601f840160051c820191505b81811015610c91575f815560010161188b565b505050565b81516001600160401b038111156118bc576118bc6111b8565b6118d0816118ca8454611822565b8461185a565b602080601f831160018114611903575f84156118ec5750858301515b5f19600386901b1c1916600185901b17855561195a565b5f85815260208120601f198616915b8281101561193157888601518255948401946001909101908401611912565b508582101561194e57878501515f19600388901b60f8161c191681555b505060018460011b0185555b505050505050565b634e487b7160e01b5f52601160045260245ffd5b8181038181111561198957611989611962565b92915050565b5f82516119a08184602087016110a8565b9190910192915050565b5f602082840312156119ba575f80fd5b5051919050565b606081525f6119d360608301866110ca565b82810360208401526119e581866110ca565b905082810360408401526119f981856110ca565b9695505050505050565b5f808335601e19843603018112611a18575f80fd5b8301803591506001600160401b03821115611a31575f80fd5b602001915036819003821315611173575f80fd5b663d9134b2111d1160c91b815284515f90611a67816007850160208a016110a8565b6e1116113a34b6b2b9ba30b6b8111d1160891b6007918401918201528551611a96816016840160208a016110a8565b6b1116113b32b939b4b7b7111d60a11b601692909101918201528451611ac38160228401602089016110a8565b71161132b834b22839b2bab237b73cb6911d1160711b602292909101918201528351611af68160348401602088016110a8565b016034019695505050505050565b5f8651611b15818460208b016110a8565b7011161130b23b34b9b7b93caaa926111d1160791b9083019081528651611b43816011840160208b016110a8565b6f11161130b23b34b9b7b93ca4a239911d60811b601192909101918201528551611b74816021840160208a016110a8565b7f2c22697376456e636c61766551756f7465537461747573223a22000000000000602192909101918201528451611bb281603b8401602089016110a8565b7f222c22697376456e636c61766551756f7465426f6479223a2200000000000000603b92909101918201528351611bf08160548401602088016110a8565b61227d60f01b60549290910191820152605601979650505050505050565b8082018082111561198957611989611962565b5f805f805f805f80610100898b031215611c39575f80fd5b88516001600160401b0380821115611c4f575f80fd5b611c5b8c838d0161176a565b995060208b0151915080821115611c70575f80fd5b611c7c8c838d0161176a565b985060408b0151915080821115611c91575f80fd5b611c9d8c838d0161176a565b975060608b0151915080821115611cb2575f80fd5b611cbe8c838d0161176a565b965060808b0151915080821115611cd3575f80fd5b611cdf8c838d0161176a565b955060a08b0151915080821115611cf4575f80fd5b611d008c838d0161176a565b945060c08b0151915080821115611d15575f80fd5b611d218c838d0161176a565b935060e08b0151915080821115611d36575f80fd5b50611d438b828c0161176a565b9150509295985092959890939650565b634e487b7160e01b5f52600160045260245ffd5b5f8085851115611d75575f80fd5b83861115611d81575f80fd5b5050820193919092039150565b6001600160e01b03198135818116916004851015611db65780818660040360031b1b83161692505b505092915050565b6001600160a01b03841681526040602082018190525f9061112d90830184866116fe565b8681528560208201528460408201525f8451611e058160608501602089016110a8565b845190830190611e1c8160608401602089016110a8565b8451910190611e328160608401602088016110a8565b0160600198975050505050505050565b5f82611e5c57634e487b7160e01b5f52601260045260245ffd5b500490565b808202811582820484141761198957611989611962565b80518015158114611e87575f80fd5b919050565b5f8060408385031215611e9d575f80fd5b611ea683611e78565b9150602083015163ffffffff81168114611ebe575f80fd5b809150509250929050565b5f60208284031215611ed9575f80fd5b61141a82611e7856fe4142434445464748494a4b4c4d4e4f505152535455565758595a6162636465666768696a6b6c6d6e6f707172737475767778797a303132333435363738392b2f9f3c647eb5773cbb512d2732c0d7415ebb55a0fa9ede2e649199e6821db910d53177370977466a6a5e4786ccd2ddebd4149d6a2f6325529dd10cc98737b0779c1a07e29c47a1ae004948476c489f45a5a15d7ac8ecc6acc645adb43d87679df59c093bc5a2e9696c5478541b979e754b573914be55d32ff4c09ddf27219934cd990527b3f92ed78fbf29246abecb71240ef39c2d7107b447545a7ffb10eb060a68a98580219e36910952683892d6a5e2a80803193e407531404e36b315623799aa825074409754a2dfe8f5afd5fe631e1fc2af3808906f28a790d9dd9fe060939b125790c5805d037df56a99531b96de69de33ed226cc1207d1042b5c9ab7f404fc711c0fe4769fb9578b1dc0ec469ea1a25e0ff9914886ef2699b235bb4847dd6ff40b606e6170793c2fb98b314587f9cfd257362dfeab10b3bd2d97673a1a4bd44c453aaf47fc1f2d3d0f384f74a06f89c089f0da6cdb7fceee8c9821a8e54f25c0416d18c46839a5f8012fbdd3dc74d256279adc2c0d55aff6f0622425d1b","linkReferences":{"lib/rave/src/X509Verifier.sol":{"X509Verifier":[{"start":898,"length":20},{"start":1571,"length":20}]}}},"methodIdentifiers":{"FRESHNESS_BLOCKS()":"28a55c21","addLeafX509(bytes)":"27a88ff0","authority()":"bf7e214f","buildJSON((bytes,bytes,bytes,bytes,bytes,bytes,bytes,bytes))":"fe4e6aee","getIntelRootCAPubKey()":"19d2be90","isConsumingScheduledOp()":"8fb36037","rave(bytes,bytes,bytes,bytes,bytes,bytes32,bytes32)":"61bb0355","removeLeafX509(bytes32)":"7accaea4","setAuthority(address)":"7a9e5e4b","verifyEvidence(uint256,bytes32,(bytes,bytes,bytes32),bytes32,bytes32)":"8c1c9085","verifyRemoteAttestation(bytes,bytes,bytes,bytes,bytes32,bytes32)":"54a2da36","verifyReportSignature(bytes,bytes,bytes,bytes)":"3549c40e"},"id":185}