{"abi":[{"type":"function","name":"getDepositDataRoot","inputs":[{"name":"pubKey","type":"bytes","internalType":"bytes"},{"name":"signature","type":"bytes","internalType":"bytes"},{"name":"withdrawalCredentials","type":"bytes","internalType":"bytes"}],"outputs":[{"name":"","type":"bytes32","internalType":"bytes32"}],"stateMutability":"pure"}],"bytecode":{"object":"0x6105bd610035600b8282823980515f1a60731461002957634e487b7160e01b5f525f60045260245ffd5b305f52607381538281f3fe7300000000000000000000000000000000000000003014608060405260043610610034575f3560e01c80638f4988ef14610038575b5f80fd5b61004b610046366004610426565b61005d565b60405190815260200160405180910390f35b5f806002865f60801b604051602001610077929190610506565b60408051601f198184030181529082905261009191610533565b602060405180830381855afa1580156100ac573d5f803e3d5ffd5b5050506040513d601f19601f820116820180604052508101906100cf9190610545565b90505f6002806100e2604084898b61055c565b6040516020016100f3929190610583565b60408051601f198184030181529082905261010d91610533565b602060405180830381855afa158015610128573d5f803e3d5ffd5b5050506040513d601f19601f8201168201806040525081019061014b9190610545565b600261015a886040818c61055c565b60405161016d9291905f90602001610592565b60408051601f198184030181529082905261018791610533565b602060405180830381855afa1580156101a2573d5f803e3d5ffd5b5050506040513d601f19601f820116820180604052508101906101c59190610545565b60408051602081019390935282015260600160408051601f19818403018152908290526101f191610533565b602060405180830381855afa15801561020c573d5f803e3d5ffd5b5050506040513d601f19601f8201168201806040525081019061022f9190610545565b905060028083866040516020016102479291906105a4565b60408051601f198184030181529082905261026191610533565b602060405180830381855afa15801561027c573d5f803e3d5ffd5b5050506040513d601f19601f8201168201806040525081019061029f9190610545565b60408051634059730760d81b602082015290810184905260029060600160408051601f19818403018152908290526102d691610533565b602060405180830381855afa1580156102f1573d5f803e3d5ffd5b5050506040513d601f19601f820116820180604052508101906103149190610545565b60408051602081019390935282015260600160408051601f198184030181529082905261034091610533565b602060405180830381855afa15801561035b573d5f803e3d5ffd5b5050506040513d601f19601f8201168201806040525081019061037e9190610545565b979650505050505050565b634e487b7160e01b5f52604160045260245ffd5b5f82601f8301126103ac575f80fd5b813567ffffffffffffffff808211156103c7576103c7610389565b604051601f8301601f19908116603f011681019082821181831017156103ef576103ef610389565b81604052838152866020858801011115610407575f80fd5b836020870160208301375f602085830101528094505050505092915050565b5f805f8060608587031215610439575f80fd5b843567ffffffffffffffff80821115610450575f80fd5b61045c8883890161039d565b95506020870135915080821115610471575f80fd5b818701915087601f830112610484575f80fd5b813581811115610492575f80fd5b8860208285010111156104a3575f80fd5b6020830195508094505060408701359150808211156104c0575f80fd5b506104cd8782880161039d565b91505092959194509250565b5f81515f5b818110156104f857602081850181015186830152016104de565b505f93019283525090919050565b5f61051182856104d9565b6fffffffffffffffffffffffffffffffff199390931683525050601001919050565b5f61053e82846104d9565b9392505050565b5f60208284031215610555575f80fd5b5051919050565b5f808585111561056a575f80fd5b83861115610576575f80fd5b5050820193919092039150565b818382375f9101908152919050565b82848237909101908152602001919050565b8281525f6105b560208301846104d9565b94935050505056","linkReferences":{}},"methodIdentifiers":{"getDepositDataRoot(bytes,bytes,bytes)":"8f4988ef"},"id":188}