{"abi":[{"type":"constructor","inputs":[{"name":"guardianModule","type":"address","internalType":"contract IGuardianModule"},{"name":"vault","type":"address","internalType":"address payable"},{"name":"accessManager","type":"address","internalType":"address"}],"stateMutability":"nonpayable"},{"type":"function","name":"GUARDIAN_MODULE","inputs":[],"outputs":[{"name":"","type":"address","internalType":"contract IGuardianModule"}],"stateMutability":"view"},{"type":"function","name":"PUFFER_VAULT","inputs":[],"outputs":[{"name":"","type":"address","internalType":"address payable"}],"stateMutability":"view"},{"type":"function","name":"authority","inputs":[],"outputs":[{"name":"","type":"address","internalType":"address"}],"stateMutability":"view"},{"type":"function","name":"exitValidators","inputs":[{"name":"numberOfExits","type":"uint256","internalType":"uint256"}],"outputs":[],"stateMutability":"nonpayable"},{"type":"function","name":"getLockedEthAmount","inputs":[],"outputs":[{"name":"","type":"uint256","internalType":"uint256"}],"stateMutability":"view"},{"type":"function","name":"getNumberOfActiveValidators","inputs":[],"outputs":[{"name":"","type":"uint256","internalType":"uint256"}],"stateMutability":"view"},{"type":"function","name":"getTotalNumberOfValidators","inputs":[],"outputs":[{"name":"","type":"uint256","internalType":"uint256"}],"stateMutability":"view"},{"type":"function","name":"getValidatorTicketPrice","inputs":[],"outputs":[{"name":"","type":"uint256","internalType":"uint256"}],"stateMutability":"view"},{"type":"function","name":"isConsumingScheduledOp","inputs":[],"outputs":[{"name":"","type":"bytes4","internalType":"bytes4"}],"stateMutability":"view"},{"type":"function","name":"isOverBurstThreshold","inputs":[],"outputs":[{"name":"","type":"bool","internalType":"bool"}],"stateMutability":"view"},{"type":"function","name":"provisionNode","inputs":[],"outputs":[],"stateMutability":"nonpayable"},{"type":"function","name":"setAuthority","inputs":[{"name":"newAuthority","type":"address","internalType":"address"}],"outputs":[],"stateMutability":"nonpayable"},{"type":"function","name":"setMintPrice","inputs":[{"name":"newPrice","type":"uint256","internalType":"uint256"}],"outputs":[],"stateMutability":"nonpayable"},{"type":"function","name":"setTotalNumberOfValidators","inputs":[{"name":"newTotalNumberOfValidators","type":"uint256","internalType":"uint256"},{"name":"epochNumber","type":"uint256","internalType":"uint256"},{"name":"guardianEOASignatures","type":"bytes[]","internalType":"bytes[]"}],"outputs":[],"stateMutability":"nonpayable"},{"type":"event","name":"AuthorityUpdated","inputs":[{"name":"authority","type":"address","indexed":false,"internalType":"address"}],"anonymous":false},{"type":"event","name":"NumberOfActiveValidators","inputs":[{"name":"numberOfActivePufferValidators","type":"uint256","indexed":false,"internalType":"uint256"}],"anonymous":false},{"type":"event","name":"TotalNumberOfValidatorsUpdated","inputs":[{"name":"oldNumberOfValidators","type":"uint256","indexed":false,"internalType":"uint256"},{"name":"newNumberOfValidators","type":"uint256","indexed":false,"internalType":"uint256"},{"name":"epochNumber","type":"uint256","indexed":false,"internalType":"uint256"}],"anonymous":false},{"type":"event","name":"ValidatorTicketMintPriceUpdated","inputs":[{"name":"oldPrice","type":"uint256","indexed":false,"internalType":"uint256"},{"name":"newPrice","type":"uint256","indexed":false,"internalType":"uint256"}],"anonymous":false},{"type":"error","name":"AccessManagedInvalidAuthority","inputs":[{"name":"authority","type":"address","internalType":"address"}]},{"type":"error","name":"AccessManagedRequiredDelay","inputs":[{"name":"caller","type":"address","internalType":"address"},{"name":"delay","type":"uint32","internalType":"uint32"}]},{"type":"error","name":"AccessManagedUnauthorized","inputs":[{"name":"caller","type":"address","internalType":"address"}]},{"type":"error","name":"InvalidUpdate","inputs":[]},{"type":"error","name":"InvalidValidatorTicketPrice","inputs":[]}],"bytecode":{"object":"0x60c060405234801561000f575f80fd5b50604051610be0380380610be083398101604081905261002e9161011d565b8061003881610072565b506001600160a01b03808416608052821660a052620e259260025562041a1c60035561006a662386f26fc100006100c5565b505050610167565b5f80546001600160a01b0319166001600160a01b0383169081179091556040519081527f2f658b440c35314f52658ea8a740e05b284cdc84dc9ae01e891f21b8933e7cad9060200160405180910390a150565b60045460408051918252602082018390527ff76811fec27423d0853e6bf49d7ea78c666629c2f67e29647d689954021ae0ea910160405180910390a1600455565b6001600160a01b038116811461011a575f80fd5b50565b5f805f6060848603121561012f575f80fd5b835161013a81610106565b602085015190935061014b81610106565b604085015190925061015c81610106565b809150509250925092565b60805160a051610a5161018f5f395f61012e01525f81816101a901526103e80152610a515ff3fe608060405234801561000f575f80fd5b50600436106100e5575f3560e01c80638fb3603711610088578063bf7e214f11610063578063bf7e214f146101d3578063d3d982aa146101e3578063ec7d3380146101fb578063f4a0a5281461020e575f80fd5b80638fb3603714610183578063a1873ca5146101a4578063bf7370d1146101cb575f80fd5b806321a39a30116100c357806321a39a30146101215780633e68b09414610129578063698c6504146101685780637a9e5e4b14610170575f80fd5b80630ea8ecd8146100e95780630f29b867146100fe57806313673ccd14610106575b5f80fd5b6100fc6100f7366004610741565b610221565b005b6100fc61027d565b61010e6102c5565b6040519081526020015b60405180910390f35b60015461010e565b6101507f000000000000000000000000000000000000000000000000000000000000000081565b6040516001600160a01b039091168152602001610118565b60045461010e565b6100fc61017e366004610758565b6102e2565b61018b61035f565b6040516001600160e01b03199091168152602001610118565b6101507f000000000000000000000000000000000000000000000000000000000000000081565b60025461010e565b5f546001600160a01b0316610150565b6101eb610381565b6040519015158152602001610118565b6100fc610209366004610785565b6103a6565b6100fc61021c366004610741565b6104a0565b61022d335b5f366104b5565b8060015f82825461023e9190610815565b90915550506001546040519081527f45764f51b0d6c57e08feca682a0d20f8cc0373521a95633441e75f6b65587151906020015b60405180910390a150565b61028633610226565b600180548101908190556040519081527f45764f51b0d6c57e08feca682a0d20f8cc0373521a95633441e75f6b655871519060200160405180910390a1565b5f6001546801bc16d674ec8000006102dd919061082e565b905090565b5f5433906001600160a01b0316811461031d5760405162d1953b60e31b81526001600160a01b03821660048201526024015b60405180910390fd5b816001600160a01b03163b5f03610352576040516361798f2f60e11b81526001600160a01b0383166004820152602401610314565b61035b826105ab565b5050565b5f8054600160a01b900460ff1661037557505f90565b50638fb3603760e01b90565b5f60166002546001546064610396919061082e565b6103a09190610845565b11905090565b6103af33610226565b60035483116103d157604051637d5ba07f60e01b815260040160405180910390fd5b60405163292369cd60e01b81526001600160a01b037f0000000000000000000000000000000000000000000000000000000000000000169063292369cd9061042390879087908790879060040161088c565b5f6040518083038186803b158015610439575f80fd5b505afa15801561044b573d5f803e3d5ffd5b5050600254604080519182526020820188905281018690527f8f0c199ed6dcf2e02fd20fc110b7f3569c87cba503e4b05a2a3610552c5c1cfe9250606001905060405180910390a15050600291909155600355565b6104a933610226565b6104b2816105f8565b50565b5f806104e86104cb5f546001600160a01b031690565b86306104da60045f898b610937565b6104e39161095e565b610639565b91509150816105a45763ffffffff811615610581575f805460ff60a01b198116600160a01b17909155604051634a63ebf760e11b81526001600160a01b03909116906394c7d7ee906105429088908890889060040161098e565b5f604051808303815f87803b158015610559575f80fd5b505af115801561056b573d5f803e3d5ffd5b50505f805460ff60a01b19169055506105a49050565b60405162d1953b60e31b81526001600160a01b0386166004820152602401610314565b5050505050565b5f80546001600160a01b0319166001600160a01b0383169081179091556040519081527f2f658b440c35314f52658ea8a740e05b284cdc84dc9ae01e891f21b8933e7cad90602001610272565b60045460408051918252602082018390527ff76811fec27423d0853e6bf49d7ea78c666629c2f67e29647d689954021ae0ea910160405180910390a1600455565b6040516001600160a01b03848116602483015283811660448301526001600160e01b0319831660648301525f9182918291829189169060840160408051601f198184030181529181526020820180516001600160e01b031663b700961360e01b179052516106a791906109bb565b5f60405180830381855afa9150503d805f81146106df576040519150601f19603f3d011682016040523d82523d5f602084013e6106e4565b606091505b50915091508115610736576040815110610716578080602001905181019061070c91906109fb565b9094509250610736565b602081511061073657808060200190518101906107339190610a38565b93505b505094509492505050565b5f60208284031215610751575f80fd5b5035919050565b5f60208284031215610768575f80fd5b81356001600160a01b038116811461077e575f80fd5b9392505050565b5f805f8060608587031215610798575f80fd5b8435935060208501359250604085013567ffffffffffffffff808211156107bd575f80fd5b818701915087601f8301126107d0575f80fd5b8135818111156107de575f80fd5b8860208260051b85010111156107f2575f80fd5b95989497505060200194505050565b634e487b7160e01b5f52601160045260245ffd5b8181038181111561082857610828610801565b92915050565b808202811582820484141761082857610828610801565b5f8261085f57634e487b7160e01b5f52601260045260245ffd5b500490565b81835281816020850137505f828201602090810191909152601f909101601f19169091010190565b5f606082018683526020866020850152606060408501528185835260808501905060808660051b8601019250865f5b8781101561092857868503607f190183528135368a9003601e190181126108e0575f80fd5b8901848101903567ffffffffffffffff8111156108fb575f80fd5b803603821315610909575f80fd5b610914878284610864565b9650505091830191908301906001016108bb565b50929998505050505050505050565b5f8085851115610945575f80fd5b83861115610951575f80fd5b5050820193919092039150565b6001600160e01b031981358181169160048510156109865780818660040360031b1b83161692505b505092915050565b6001600160a01b03841681526040602082018190525f906109b29083018486610864565b95945050505050565b5f82515f5b818110156109da57602081860181015185830152016109c0565b505f920191825250919050565b805180151581146109f6575f80fd5b919050565b5f8060408385031215610a0c575f80fd5b610a15836109e7565b9150602083015163ffffffff81168114610a2d575f80fd5b809150509250929050565b5f60208284031215610a48575f80fd5b61077e826109e756","linkReferences":{}},"methodIdentifiers":{"GUARDIAN_MODULE()":"a1873ca5","PUFFER_VAULT()":"3e68b094","authority()":"bf7e214f","exitValidators(uint256)":"0ea8ecd8","getLockedEthAmount()":"13673ccd","getNumberOfActiveValidators()":"21a39a30","getTotalNumberOfValidators()":"bf7370d1","getValidatorTicketPrice()":"698c6504","isConsumingScheduledOp()":"8fb36037","isOverBurstThreshold()":"d3d982aa","provisionNode()":"0f29b867","setAuthority(address)":"7a9e5e4b","setMintPrice(uint256)":"f4a0a528","setTotalNumberOfValidators(uint256,uint256,bytes[])":"ec7d3380"},"id":194}