{"abi":[{"type":"constructor","inputs":[{"name":"communityMultisig","type":"address","internalType":"address"},{"name":"operationsMultisig","type":"address","internalType":"address"},{"name":"pauser","type":"address","internalType":"address"},{"name":"accessManager","type":"address","internalType":"address"},{"name":"initialDelay","type":"uint256","internalType":"uint256"}],"stateMutability":"nonpayable"},{"type":"function","name":"ACCESS_MANAGER","inputs":[],"outputs":[{"name":"","type":"address","internalType":"contract AccessManager"}],"stateMutability":"view"},{"type":"function","name":"COMMUNITY_MULTISIG","inputs":[],"outputs":[{"name":"","type":"address","internalType":"address"}],"stateMutability":"view"},{"type":"function","name":"MINIMUM_DELAY","inputs":[],"outputs":[{"name":"","type":"uint256","internalType":"uint256"}],"stateMutability":"view"},{"type":"function","name":"OPERATIONS_MULTISIG","inputs":[],"outputs":[{"name":"","type":"address","internalType":"address"}],"stateMutability":"view"},{"type":"function","name":"cancelTransaction","inputs":[{"name":"target","type":"address","internalType":"address"},{"name":"callData","type":"bytes","internalType":"bytes"},{"name":"operationId","type":"uint256","internalType":"uint256"}],"outputs":[],"stateMutability":"nonpayable"},{"type":"function","name":"delay","inputs":[],"outputs":[{"name":"","type":"uint256","internalType":"uint256"}],"stateMutability":"view"},{"type":"function","name":"executeTransaction","inputs":[{"name":"target","type":"address","internalType":"address"},{"name":"callData","type":"bytes","internalType":"bytes"},{"name":"operationId","type":"uint256","internalType":"uint256"}],"outputs":[{"name":"success","type":"bool","internalType":"bool"},{"name":"returnData","type":"bytes","internalType":"bytes"}],"stateMutability":"nonpayable"},{"type":"function","name":"pause","inputs":[{"name":"targets","type":"address[]","internalType":"address[]"}],"outputs":[],"stateMutability":"nonpayable"},{"type":"function","name":"pauserMultisig","inputs":[],"outputs":[{"name":"","type":"address","internalType":"address"}],"stateMutability":"view"},{"type":"function","name":"queue","inputs":[{"name":"transactionHash","type":"bytes32","internalType":"bytes32"}],"outputs":[{"name":"lockedUntil","type":"uint256","internalType":"uint256"}],"stateMutability":"view"},{"type":"function","name":"queueTransaction","inputs":[{"name":"target","type":"address","internalType":"address"},{"name":"callData","type":"bytes","internalType":"bytes"},{"name":"operationId","type":"uint256","internalType":"uint256"}],"outputs":[{"name":"","type":"bytes32","internalType":"bytes32"}],"stateMutability":"nonpayable"},{"type":"function","name":"setDelay","inputs":[{"name":"newDelay","type":"uint256","internalType":"uint256"}],"outputs":[],"stateMutability":"nonpayable"},{"type":"function","name":"setPauser","inputs":[{"name":"newPauser","type":"address","internalType":"address"}],"outputs":[],"stateMutability":"nonpayable"},{"type":"event","name":"DelayChanged","inputs":[{"name":"oldDelay","type":"uint256","indexed":false,"internalType":"uint256"},{"name":"newDelay","type":"uint256","indexed":false,"internalType":"uint256"}],"anonymous":false},{"type":"event","name":"PauserChanged","inputs":[{"name":"oldPauser","type":"address","indexed":false,"internalType":"address"},{"name":"newPauser","type":"address","indexed":false,"internalType":"address"}],"anonymous":false},{"type":"event","name":"TransactionCanceled","inputs":[{"name":"txHash","type":"bytes32","indexed":true,"internalType":"bytes32"},{"name":"target","type":"address","indexed":true,"internalType":"address"},{"name":"callData","type":"bytes","indexed":false,"internalType":"bytes"},{"name":"operationId","type":"uint256","indexed":true,"internalType":"uint256"}],"anonymous":false},{"type":"event","name":"TransactionExecuted","inputs":[{"name":"txHash","type":"bytes32","indexed":true,"internalType":"bytes32"},{"name":"target","type":"address","indexed":true,"internalType":"address"},{"name":"callData","type":"bytes","indexed":false,"internalType":"bytes"},{"name":"operationId","type":"uint256","indexed":true,"internalType":"uint256"}],"anonymous":false},{"type":"event","name":"TransactionQueued","inputs":[{"name":"txHash","type":"bytes32","indexed":true,"internalType":"bytes32"},{"name":"target","type":"address","indexed":true,"internalType":"address"},{"name":"callData","type":"bytes","indexed":false,"internalType":"bytes"},{"name":"operationId","type":"uint256","indexed":true,"internalType":"uint256"},{"name":"lockedUntil","type":"uint256","indexed":false,"internalType":"uint256"}],"anonymous":false},{"type":"error","name":"BadAddress","inputs":[]},{"type":"error","name":"InvalidDelay","inputs":[{"name":"delay","type":"uint256","internalType":"uint256"}]},{"type":"error","name":"InvalidTransaction","inputs":[{"name":"txHash","type":"bytes32","internalType":"bytes32"}]},{"type":"error","name":"Locked","inputs":[{"name":"txHash","type":"bytes32","internalType":"bytes32"},{"name":"lockedUntil","type":"uint256","internalType":"uint256"}]},{"type":"error","name":"Unauthorized","inputs":[]}],"bytecode":{"object":"0x60e060405234801562000010575f80fd5b50604051620010b2380380620010b28339810160408190526200003391620001b0565b620000418585858562000084565b6001600160a01b0385811660805284811660a052600180546001600160a01b031916858316179055821660c05262000079816200012a565b505050505062000213565b6001600160a01b038416620000ac576040516332691b5760e01b815260040160405180910390fd5b6001600160a01b038316620000d4576040516332691b5760e01b815260040160405180910390fd5b6001600160a01b038216620000fc576040516332691b5760e01b815260040160405180910390fd5b6001600160a01b03811662000124576040516332691b5760e01b815260040160405180910390fd5b50505050565b62093a80811162000155576040516309913ab360e31b81526004810182905260240160405180910390fd5b5f5460408051918252602082018390527fe238f342cc2d86b842f1511bd768de5dbea53639f6b5335c5d877543bc355c71910160405180910390a15f55565b80516001600160a01b0381168114620001ab575f80fd5b919050565b5f805f805f60a08688031215620001c5575f80fd5b620001d08662000194565b9450620001e06020870162000194565b9350620001f06040870162000194565b9250620002006060870162000194565b9150608086015190509295509295909350565b60805160a05160c051610e51620002615f395f8181610140015261075101525f818161010401528181610292015281816103b6015261050501525f81816101b101526103710152610e515ff3fe608060405234801561000f575f80fd5b50600436106100cb575f3560e01c80636b8d7a12116100885780638c3dc5c1116100635780638c3dc5c1146101f25780639755c6a714610205578063b1b43ae514610218578063e177246e14610222575f80fd5b80636b8d7a121461018b5780637780ba1a146101ac5780637c10dea6146101d3575f80fd5b80630ea850f6146100cf57806329009066146100ff5780632d88af4a146101265780633a7b7a391461013b57806350b6386f146101625780636a42b8f814610175575b5f80fd5b6001546100e2906001600160a01b031681565b6040516001600160a01b0390911681526020015b60405180910390f35b6100e27f000000000000000000000000000000000000000000000000000000000000000081565b610139610134366004610947565b610235565b005b6100e27f000000000000000000000000000000000000000000000000000000000000000081565b6101396101703660046109d3565b610287565b61017d5f5481565b6040519081526020016100f6565b61019e610199366004610a66565b610364565b6040516100f6929190610b35565b6100e27f000000000000000000000000000000000000000000000000000000000000000081565b61017d6101e1366004610b57565b60026020525f908152604090205481565b61017d6102003660046109d3565b6104f9565b610139610213366004610b6e565b610612565b61017d62093a8081565b610139610230366004610b57565b6107ce565b333014610254576040516282b42960e81b815260040160405180910390fd5b6001600160a01b03811661027b576040516332691b5760e01b815260040160405180910390fd5b610284816107f6565b50565b336001600160a01b037f000000000000000000000000000000000000000000000000000000000000000016148015906102c05750333014155b156102dd576040516282b42960e81b815260040160405180910390fd5b5f8383836040516020016102f393929190610bdd565b60408051601f1981840301815282825280516020918201205f818152600290925291812055915082906001600160a01b0386169083907f4b02192b257234d0b6923d1cf041a4b39c504132836d60650632cd161c29ba7f90610356908890610c10565b60405180910390a450505050565b5f60606001600160a01b037f00000000000000000000000000000000000000000000000000000000000000001633036103ab576103a286868661085f565b915091506104f0565b336001600160a01b037f000000000000000000000000000000000000000000000000000000000000000016146103f3576040516282b42960e81b815260040160405180910390fd5b5f8686868660405160200161040b9493929190610c4a565b60408051601f1981840301815291815281516020928301205f8181526002909352908220549092509081900361045c57604051631416489560e31b8152600481018390526024015b60405180910390fd5b80421015610487576040516383ead0c560e01b81526004810183905260248101829052604401610453565b5f828152600260205260408120556104a088888861085f565b809450819550505084886001600160a01b0316837fc7c496b6b1839782c38a269d6c0426f05129d0374b7ee175e8571f96e21e02ca8a8a6040516104e5929190610c7f565b60405180910390a450505b94509492505050565b5f336001600160a01b037f00000000000000000000000000000000000000000000000000000000000000001614610542576040516282b42960e81b815260040160405180910390fd5b5f84848460405160200161055893929190610bdd565b6040516020818303038152906040528051906020012090505f80544261057e9190610c92565b5f83815260026020526040902054909150156105b057604051631416489560e31b815260048101839052602401610453565b5f82815260026020526040908190208290555184906001600160a01b0388169084907f5548e4b06f16c2bb2224a884464ab659f6284c75e5bd7ffc9d73c32ca7d5d7be90610601908a908790610cb7565b60405180910390a450949350505050565b6001546001600160a01b0316331480159061062d5750333014155b1561064a576040516282b42960e81b815260040160405180910390fd5b5f8167ffffffffffffffff81111561066457610664610967565b60405190808252806020026020018201604052801561069757816020015b60608152602001906001900390816106825790505b5090505f5b82811015610739578383828181106106b6576106b6610cd8565b90506020020160208101906106cb9190610947565b6040516001600160a01b0390911660248201526001604482015260640160408051601f198184030181529190526020810180516001600160e01b031663167bd39560e01b179052825183908390811061072657610726610cd8565b602090810291909101015260010161069c565b50604051631592ca1b60e31b81526001600160a01b037f0000000000000000000000000000000000000000000000000000000000000000169063ac9650d890610786908490600401610cec565b5f604051808303815f875af11580156107a1573d5f803e3d5ffd5b505050506040513d5f823e601f3d908101601f191682016040526107c89190810190610d4e565b50505050565b3330146107ed576040516282b42960e81b815260040160405180910390fd5b610284816108c7565b600154604080516001600160a01b03928316815291831660208301527f95bb211a5a393c4d30c3edc9a745825fba4e6ad3e3bb949e6bf8ccdfe431a811910160405180910390a1600180546001600160a01b0319166001600160a01b0392909216919091179055565b5f6060846001600160a01b0316848460405161087c929190610e42565b5f604051808303815f865af19150503d805f81146108b5576040519150601f19603f3d011682016040523d82523d5f602084013e6108ba565b606091505b5091509150935093915050565b62093a8081116108ed576040516309913ab360e31b815260048101829052602401610453565b5f5460408051918252602082018390527fe238f342cc2d86b842f1511bd768de5dbea53639f6b5335c5d877543bc355c71910160405180910390a15f55565b80356001600160a01b0381168114610942575f80fd5b919050565b5f60208284031215610957575f80fd5b6109608261092c565b9392505050565b634e487b7160e01b5f52604160045260245ffd5b604051601f8201601f1916810167ffffffffffffffff811182821017156109a4576109a4610967565b604052919050565b5f67ffffffffffffffff8211156109c5576109c5610967565b50601f01601f191660200190565b5f805f606084860312156109e5575f80fd5b6109ee8461092c565b9250602084013567ffffffffffffffff811115610a09575f80fd5b8401601f81018613610a19575f80fd5b8035610a2c610a27826109ac565b61097b565b818152876020838501011115610a40575f80fd5b816020840160208301375f60208383010152809450505050604084013590509250925092565b5f805f8060608587031215610a79575f80fd5b610a828561092c565b9350602085013567ffffffffffffffff80821115610a9e575f80fd5b818701915087601f830112610ab1575f80fd5b813581811115610abf575f80fd5b886020828501011115610ad0575f80fd5b95986020929092019750949560400135945092505050565b5f5b83811015610b02578181015183820152602001610aea565b50505f910152565b5f8151808452610b21816020860160208601610ae8565b601f01601f19169290920160200192915050565b8215158152604060208201525f610b4f6040830184610b0a565b949350505050565b5f60208284031215610b67575f80fd5b5035919050565b5f8060208385031215610b7f575f80fd5b823567ffffffffffffffff80821115610b96575f80fd5b818501915085601f830112610ba9575f80fd5b813581811115610bb7575f80fd5b8660208260051b8501011115610bcb575f80fd5b60209290920196919550909350505050565b6001600160a01b03841681526060602082018190525f90610c0090830185610b0a565b9050826040830152949350505050565b602081525f6109606020830184610b0a565b81835281816020850137505f828201602090810191909152601f909101601f19169091010190565b6001600160a01b03851681526060602082018190525f90610c6e9083018587610c22565b905082604083015295945050505050565b602081525f610b4f602083018486610c22565b80820180821115610cb157634e487b7160e01b5f52601160045260245ffd5b92915050565b604081525f610cc96040830185610b0a565b90508260208301529392505050565b634e487b7160e01b5f52603260045260245ffd5b5f60208083016020845280855180835260408601915060408160051b8701019250602087015f5b82811015610d4157603f19888603018452610d2f858351610b0a565b94509285019290850190600101610d13565b5092979650505050505050565b5f6020808385031215610d5f575f80fd5b825167ffffffffffffffff80821115610d76575f80fd5b818501915085601f830112610d89575f80fd5b815181811115610d9b57610d9b610967565b8060051b610daa85820161097b565b9182528381018501918581019089841115610dc3575f80fd5b86860192505b83831015610e3557825185811115610ddf575f80fd5b8601603f81018b13610def575f80fd5b878101516040610e01610a27836109ac565b8281528d82848601011115610e14575f80fd5b610e23838c8301848701610ae8565b85525050509186019190860190610dc9565b9998505050505050505050565b818382375f910190815291905056","linkReferences":{}},"methodIdentifiers":{"ACCESS_MANAGER()":"3a7b7a39","COMMUNITY_MULTISIG()":"7780ba1a","MINIMUM_DELAY()":"b1b43ae5","OPERATIONS_MULTISIG()":"29009066","cancelTransaction(address,bytes,uint256)":"50b6386f","delay()":"6a42b8f8","executeTransaction(address,bytes,uint256)":"6b8d7a12","pause(address[])":"9755c6a7","pauserMultisig()":"0ea850f6","queue(bytes32)":"7c10dea6","queueTransaction(address,bytes,uint256)":"8c3dc5c1","setDelay(uint256)":"e177246e","setPauser(address)":"2d88af4a"},"id":127}