{"abi":[{"type":"constructor","inputs":[{"name":"stETH","type":"address","internalType":"contract IStETH"},{"name":"lidoWithdrawalQueue","type":"address","internalType":"contract ILidoWithdrawalQueue"},{"name":"stETHStrategy","type":"address","internalType":"contract IStrategy"},{"name":"eigenStrategyManager","type":"address","internalType":"contract IEigenLayer"}],"stateMutability":"payable"},{"type":"receive","stateMutability":"payable"},{"type":"function","name":"DOMAIN_SEPARATOR","inputs":[],"outputs":[{"name":"","type":"bytes32","internalType":"bytes32"}],"stateMutability":"view"},{"type":"function","name":"UPGRADE_INTERFACE_VERSION","inputs":[],"outputs":[{"name":"","type":"string","internalType":"string"}],"stateMutability":"view"},{"type":"function","name":"allowance","inputs":[{"name":"owner","type":"address","internalType":"address"},{"name":"spender","type":"address","internalType":"address"}],"outputs":[{"name":"","type":"uint256","internalType":"uint256"}],"stateMutability":"view"},{"type":"function","name":"approve","inputs":[{"name":"spender","type":"address","internalType":"address"},{"name":"value","type":"uint256","internalType":"uint256"}],"outputs":[{"name":"","type":"bool","internalType":"bool"}],"stateMutability":"nonpayable"},{"type":"function","name":"asset","inputs":[],"outputs":[{"name":"","type":"address","internalType":"address"}],"stateMutability":"view"},{"type":"function","name":"authority","inputs":[],"outputs":[{"name":"","type":"address","internalType":"address"}],"stateMutability":"view"},{"type":"function","name":"balanceOf","inputs":[{"name":"account","type":"address","internalType":"address"}],"outputs":[{"name":"","type":"uint256","internalType":"uint256"}],"stateMutability":"view"},{"type":"function","name":"claimWithdrawalFromEigenLayer","inputs":[{"name":"queuedWithdrawal","type":"tuple","internalType":"struct IEigenLayer.QueuedWithdrawal","components":[{"name":"strategies","type":"address[]","internalType":"contract IStrategy[]"},{"name":"shares","type":"uint256[]","internalType":"uint256[]"},{"name":"depositor","type":"address","internalType":"address"},{"name":"withdrawerAndNonce","type":"tuple","internalType":"struct IEigenLayer.WithdrawerAndNonce","components":[{"name":"withdrawer","type":"address","internalType":"address"},{"name":"nonce","type":"uint96","internalType":"uint96"}]},{"name":"withdrawalStartBlock","type":"uint32","internalType":"uint32"},{"name":"delegatedAddress","type":"address","internalType":"address"}]},{"name":"tokens","type":"address[]","internalType":"contract IERC20[]"},{"name":"middlewareTimesIndex","type":"uint256","internalType":"uint256"}],"outputs":[],"stateMutability":"nonpayable"},{"type":"function","name":"claimWithdrawalsFromLido","inputs":[{"name":"requestIds","type":"uint256[]","internalType":"uint256[]"}],"outputs":[],"stateMutability":"nonpayable"},{"type":"function","name":"convertToAssets","inputs":[{"name":"shares","type":"uint256","internalType":"uint256"}],"outputs":[{"name":"","type":"uint256","internalType":"uint256"}],"stateMutability":"view"},{"type":"function","name":"convertToShares","inputs":[{"name":"assets","type":"uint256","internalType":"uint256"}],"outputs":[{"name":"","type":"uint256","internalType":"uint256"}],"stateMutability":"view"},{"type":"function","name":"decimals","inputs":[],"outputs":[{"name":"","type":"uint8","internalType":"uint8"}],"stateMutability":"pure"},{"type":"function","name":"deposit","inputs":[{"name":"assets","type":"uint256","internalType":"uint256"},{"name":"receiver","type":"address","internalType":"address"}],"outputs":[{"name":"","type":"uint256","internalType":"uint256"}],"stateMutability":"nonpayable"},{"type":"function","name":"depositToEigenLayer","inputs":[{"name":"amount","type":"uint256","internalType":"uint256"}],"outputs":[],"stateMutability":"nonpayable"},{"type":"function","name":"eip712Domain","inputs":[],"outputs":[{"name":"fields","type":"bytes1","internalType":"bytes1"},{"name":"name","type":"string","internalType":"string"},{"name":"version","type":"string","internalType":"string"},{"name":"chainId","type":"uint256","internalType":"uint256"},{"name":"verifyingContract","type":"address","internalType":"address"},{"name":"salt","type":"bytes32","internalType":"bytes32"},{"name":"extensions","type":"uint256[]","internalType":"uint256[]"}],"stateMutability":"view"},{"type":"function","name":"getELBackingEthAmount","inputs":[],"outputs":[{"name":"ethAmount","type":"uint256","internalType":"uint256"}],"stateMutability":"view"},{"type":"function","name":"getPendingLidoETHAmount","inputs":[],"outputs":[{"name":"","type":"uint256","internalType":"uint256"}],"stateMutability":"view"},{"type":"function","name":"initialize","inputs":[{"name":"accessManager","type":"address","internalType":"address"}],"outputs":[],"stateMutability":"nonpayable"},{"type":"function","name":"initiateETHWithdrawalsFromLido","inputs":[{"name":"amounts","type":"uint256[]","internalType":"uint256[]"}],"outputs":[{"name":"requestIds","type":"uint256[]","internalType":"uint256[]"}],"stateMutability":"nonpayable"},{"type":"function","name":"initiateStETHWithdrawalFromEigenLayer","inputs":[{"name":"sharesToWithdraw","type":"uint256","internalType":"uint256"}],"outputs":[],"stateMutability":"nonpayable"},{"type":"function","name":"isConsumingScheduledOp","inputs":[],"outputs":[{"name":"","type":"bytes4","internalType":"bytes4"}],"stateMutability":"view"},{"type":"function","name":"maxDeposit","inputs":[{"name":"","type":"address","internalType":"address"}],"outputs":[{"name":"","type":"uint256","internalType":"uint256"}],"stateMutability":"view"},{"type":"function","name":"maxMint","inputs":[{"name":"","type":"address","internalType":"address"}],"outputs":[{"name":"","type":"uint256","internalType":"uint256"}],"stateMutability":"view"},{"type":"function","name":"maxRedeem","inputs":[{"name":"owner","type":"address","internalType":"address"}],"outputs":[{"name":"","type":"uint256","internalType":"uint256"}],"stateMutability":"view"},{"type":"function","name":"maxWithdraw","inputs":[{"name":"owner","type":"address","internalType":"address"}],"outputs":[{"name":"","type":"uint256","internalType":"uint256"}],"stateMutability":"view"},{"type":"function","name":"mint","inputs":[{"name":"shares","type":"uint256","internalType":"uint256"},{"name":"receiver","type":"address","internalType":"address"}],"outputs":[{"name":"","type":"uint256","internalType":"uint256"}],"stateMutability":"nonpayable"},{"type":"function","name":"name","inputs":[],"outputs":[{"name":"","type":"string","internalType":"string"}],"stateMutability":"view"},{"type":"function","name":"nonces","inputs":[{"name":"owner","type":"address","internalType":"address"}],"outputs":[{"name":"","type":"uint256","internalType":"uint256"}],"stateMutability":"view"},{"type":"function","name":"onERC721Received","inputs":[{"name":"","type":"address","internalType":"address"},{"name":"","type":"address","internalType":"address"},{"name":"","type":"uint256","internalType":"uint256"},{"name":"","type":"bytes","internalType":"bytes"}],"outputs":[{"name":"","type":"bytes4","internalType":"bytes4"}],"stateMutability":"nonpayable"},{"type":"function","name":"permit","inputs":[{"name":"owner","type":"address","internalType":"address"},{"name":"spender","type":"address","internalType":"address"},{"name":"value","type":"uint256","internalType":"uint256"},{"name":"deadline","type":"uint256","internalType":"uint256"},{"name":"v","type":"uint8","internalType":"uint8"},{"name":"r","type":"bytes32","internalType":"bytes32"},{"name":"s","type":"bytes32","internalType":"bytes32"}],"outputs":[],"stateMutability":"nonpayable"},{"type":"function","name":"previewDeposit","inputs":[{"name":"assets","type":"uint256","internalType":"uint256"}],"outputs":[{"name":"","type":"uint256","internalType":"uint256"}],"stateMutability":"view"},{"type":"function","name":"previewMint","inputs":[{"name":"shares","type":"uint256","internalType":"uint256"}],"outputs":[{"name":"","type":"uint256","internalType":"uint256"}],"stateMutability":"view"},{"type":"function","name":"previewRedeem","inputs":[{"name":"shares","type":"uint256","internalType":"uint256"}],"outputs":[{"name":"","type":"uint256","internalType":"uint256"}],"stateMutability":"view"},{"type":"function","name":"previewWithdraw","inputs":[{"name":"assets","type":"uint256","internalType":"uint256"}],"outputs":[{"name":"","type":"uint256","internalType":"uint256"}],"stateMutability":"view"},{"type":"function","name":"proxiableUUID","inputs":[],"outputs":[{"name":"","type":"bytes32","internalType":"bytes32"}],"stateMutability":"view"},{"type":"function","name":"redeem","inputs":[{"name":"","type":"uint256","internalType":"uint256"},{"name":"","type":"address","internalType":"address"},{"name":"","type":"address","internalType":"address"}],"outputs":[{"name":"","type":"uint256","internalType":"uint256"}],"stateMutability":"nonpayable"},{"type":"function","name":"setAuthority","inputs":[{"name":"newAuthority","type":"address","internalType":"address"}],"outputs":[],"stateMutability":"nonpayable"},{"type":"function","name":"symbol","inputs":[],"outputs":[{"name":"","type":"string","internalType":"string"}],"stateMutability":"view"},{"type":"function","name":"totalAssets","inputs":[],"outputs":[{"name":"","type":"uint256","internalType":"uint256"}],"stateMutability":"view"},{"type":"function","name":"totalSupply","inputs":[],"outputs":[{"name":"","type":"uint256","internalType":"uint256"}],"stateMutability":"view"},{"type":"function","name":"transfer","inputs":[{"name":"to","type":"address","internalType":"address"},{"name":"value","type":"uint256","internalType":"uint256"}],"outputs":[{"name":"","type":"bool","internalType":"bool"}],"stateMutability":"nonpayable"},{"type":"function","name":"transferFrom","inputs":[{"name":"from","type":"address","internalType":"address"},{"name":"to","type":"address","internalType":"address"},{"name":"value","type":"uint256","internalType":"uint256"}],"outputs":[{"name":"","type":"bool","internalType":"bool"}],"stateMutability":"nonpayable"},{"type":"function","name":"upgradeToAndCall","inputs":[{"name":"newImplementation","type":"address","internalType":"address"},{"name":"data","type":"bytes","internalType":"bytes"}],"outputs":[],"stateMutability":"payable"},{"type":"function","name":"withdraw","inputs":[{"name":"","type":"uint256","internalType":"uint256"},{"name":"","type":"address","internalType":"address"},{"name":"","type":"address","internalType":"address"}],"outputs":[{"name":"","type":"uint256","internalType":"uint256"}],"stateMutability":"nonpayable"},{"type":"event","name":"Approval","inputs":[{"name":"owner","type":"address","indexed":true,"internalType":"address"},{"name":"spender","type":"address","indexed":true,"internalType":"address"},{"name":"value","type":"uint256","indexed":false,"internalType":"uint256"}],"anonymous":false},{"type":"event","name":"AuthorityUpdated","inputs":[{"name":"authority","type":"address","indexed":false,"internalType":"address"}],"anonymous":false},{"type":"event","name":"ClaimedWithdrawals","inputs":[{"name":"requestIds","type":"uint256[]","indexed":false,"internalType":"uint256[]"}],"anonymous":false},{"type":"event","name":"Deposit","inputs":[{"name":"sender","type":"address","indexed":true,"internalType":"address"},{"name":"owner","type":"address","indexed":true,"internalType":"address"},{"name":"assets","type":"uint256","indexed":false,"internalType":"uint256"},{"name":"shares","type":"uint256","indexed":false,"internalType":"uint256"}],"anonymous":false},{"type":"event","name":"EIP712DomainChanged","inputs":[],"anonymous":false},{"type":"event","name":"Initialized","inputs":[{"name":"version","type":"uint64","indexed":false,"internalType":"uint64"}],"anonymous":false},{"type":"event","name":"RequestedWithdrawals","inputs":[{"name":"requestIds","type":"uint256[]","indexed":false,"internalType":"uint256[]"}],"anonymous":false},{"type":"event","name":"Transfer","inputs":[{"name":"from","type":"address","indexed":true,"internalType":"address"},{"name":"to","type":"address","indexed":true,"internalType":"address"},{"name":"value","type":"uint256","indexed":false,"internalType":"uint256"}],"anonymous":false},{"type":"event","name":"Upgraded","inputs":[{"name":"implementation","type":"address","indexed":true,"internalType":"address"}],"anonymous":false},{"type":"event","name":"Withdraw","inputs":[{"name":"sender","type":"address","indexed":true,"internalType":"address"},{"name":"receiver","type":"address","indexed":true,"internalType":"address"},{"name":"owner","type":"address","indexed":true,"internalType":"address"},{"name":"assets","type":"uint256","indexed":false,"internalType":"uint256"},{"name":"shares","type":"uint256","indexed":false,"internalType":"uint256"}],"anonymous":false},{"type":"error","name":"AccessManagedInvalidAuthority","inputs":[{"name":"authority","type":"address","internalType":"address"}]},{"type":"error","name":"AccessManagedRequiredDelay","inputs":[{"name":"caller","type":"address","internalType":"address"},{"name":"delay","type":"uint32","internalType":"uint32"}]},{"type":"error","name":"AccessManagedUnauthorized","inputs":[{"name":"caller","type":"address","internalType":"address"}]},{"type":"error","name":"AddressEmptyCode","inputs":[{"name":"target","type":"address","internalType":"address"}]},{"type":"error","name":"AddressInsufficientBalance","inputs":[{"name":"account","type":"address","internalType":"address"}]},{"type":"error","name":"ECDSAInvalidSignature","inputs":[]},{"type":"error","name":"ECDSAInvalidSignatureLength","inputs":[{"name":"length","type":"uint256","internalType":"uint256"}]},{"type":"error","name":"ECDSAInvalidSignatureS","inputs":[{"name":"s","type":"bytes32","internalType":"bytes32"}]},{"type":"error","name":"ERC1967InvalidImplementation","inputs":[{"name":"implementation","type":"address","internalType":"address"}]},{"type":"error","name":"ERC1967NonPayable","inputs":[]},{"type":"error","name":"ERC20InsufficientAllowance","inputs":[{"name":"spender","type":"address","internalType":"address"},{"name":"allowance","type":"uint256","internalType":"uint256"},{"name":"needed","type":"uint256","internalType":"uint256"}]},{"type":"error","name":"ERC20InsufficientBalance","inputs":[{"name":"sender","type":"address","internalType":"address"},{"name":"balance","type":"uint256","internalType":"uint256"},{"name":"needed","type":"uint256","internalType":"uint256"}]},{"type":"error","name":"ERC20InvalidApprover","inputs":[{"name":"approver","type":"address","internalType":"address"}]},{"type":"error","name":"ERC20InvalidReceiver","inputs":[{"name":"receiver","type":"address","internalType":"address"}]},{"type":"error","name":"ERC20InvalidSender","inputs":[{"name":"sender","type":"address","internalType":"address"}]},{"type":"error","name":"ERC20InvalidSpender","inputs":[{"name":"spender","type":"address","internalType":"address"}]},{"type":"error","name":"ERC2612ExpiredSignature","inputs":[{"name":"deadline","type":"uint256","internalType":"uint256"}]},{"type":"error","name":"ERC2612InvalidSigner","inputs":[{"name":"signer","type":"address","internalType":"address"},{"name":"owner","type":"address","internalType":"address"}]},{"type":"error","name":"ERC4626ExceededMaxDeposit","inputs":[{"name":"receiver","type":"address","internalType":"address"},{"name":"assets","type":"uint256","internalType":"uint256"},{"name":"max","type":"uint256","internalType":"uint256"}]},{"type":"error","name":"ERC4626ExceededMaxMint","inputs":[{"name":"receiver","type":"address","internalType":"address"},{"name":"shares","type":"uint256","internalType":"uint256"},{"name":"max","type":"uint256","internalType":"uint256"}]},{"type":"error","name":"ERC4626ExceededMaxRedeem","inputs":[{"name":"owner","type":"address","internalType":"address"},{"name":"shares","type":"uint256","internalType":"uint256"},{"name":"max","type":"uint256","internalType":"uint256"}]},{"type":"error","name":"ERC4626ExceededMaxWithdraw","inputs":[{"name":"owner","type":"address","internalType":"address"},{"name":"assets","type":"uint256","internalType":"uint256"},{"name":"max","type":"uint256","internalType":"uint256"}]},{"type":"error","name":"FailedInnerCall","inputs":[]},{"type":"error","name":"InvalidAccountNonce","inputs":[{"name":"account","type":"address","internalType":"address"},{"name":"currentNonce","type":"uint256","internalType":"uint256"}]},{"type":"error","name":"InvalidInitialization","inputs":[]},{"type":"error","name":"InvalidWithdrawal","inputs":[]},{"type":"error","name":"MathOverflowedMulDiv","inputs":[]},{"type":"error","name":"NotInitializing","inputs":[]},{"type":"error","name":"SafeERC20FailedOperation","inputs":[{"name":"token","type":"address","internalType":"address"}]},{"type":"error","name":"UUPSUnauthorizedCallContext","inputs":[]},{"type":"error","name":"UUPSUnsupportedProxiableUUID","inputs":[{"name":"slot","type":"bytes32","internalType":"bytes32"}]},{"type":"error","name":"WithdrawalsAreDisabled","inputs":[]}],"bytecode":{"object":"0x61012060408190523060805262003f0b388190039081908339810160408190526200002a9162000127565b6001600160a01b0380851660e0528381166101005282811660a052811660c052620000546200005e565b505050506200018c565b7ff0c57e16840df040f15088dc2f81fe391c3923bec73e23a9662efc9c229c6a00805468010000000000000000900460ff1615620000af5760405163f92ee8a960e01b815260040160405180910390fd5b80546001600160401b03908116146200010f5780546001600160401b0319166001600160401b0390811782556040519081527fc7f505b2f371ae2175ee4913f4499e1f2633a7b5936321eed1cdaeb6115181d29060200160405180910390a15b50565b6001600160a01b03811681146200010f575f80fd5b5f805f80608085870312156200013b575f80fd5b8451620001488162000112565b60208601519094506200015b8162000112565b60408601519093506200016e8162000112565b6060860151909250620001818162000112565b939692955090935050565b60805160a05160c05160e05161010051613cd8620002335f395f8181610d7401528181610db00152610f4501525f81816107dc015281816108610152818161093201528181610d53015261136801525f81816107fd0152818161089001528181610bfc01528181611750015261184601525f818161083901528181610b3d01528181611617015261168501525f8181611bcd01528181611bf60152611d3b0152613cd85ff3fe608060405260043610610261575f3560e01c80637ecebe001161013f578063c4d66de8116100b3578063d905777e11610078578063d905777e1461073a578063dd62ed3e14610759578063ed344a2214610778578063ef8b30f7146106dd578063f7fe1bd11461078c578063fdcffbac146107ac575f80fd5b8063c4d66de8146106be578063c63d75b6146104a1578063c6e6f592146106dd578063ce96cb77146106fc578063d505accf1461071b575f80fd5b8063a9059cbb11610104578063a9059cbb1461061d578063ad3cb1cc1461063c578063b3d7f6b91461066c578063b460af941461068b578063ba0876521461068b578063bf7e214f146106aa575f80fd5b80637ecebe001461059057806384b0196e146105af5780638fb36037146105d657806394bf804d146105ea57806395d89b4114610609575f80fd5b806338d52e0f116101d657806352d1902d1161019b57806352d1902d146104d4578063593961de146104e8578063677a11e9146105145780636e553f651461053357806370a08231146105525780637a9e5e4b14610571575f80fd5b806338d52e0f14610456578063402064a714610482578063402d267d146104a15780634cdad506146103245780634f1ef286146104c1575f80fd5b80630a28a477116102275780630a28a47714610372578063150b7a021461039157806318160ddd146103d557806323b872dd14610408578063313ce567146104275780633644e51514610442575f80fd5b80628e0590146102bd57806301e1d114146102dc57806306fdde031461030357806307a2d13a14610324578063095ea7b314610343575f80fd5b366102b9577f611ea165ca9257827fc43d2954fdae7d825e82c825d9037db9337fa1bfa93102545f80516020613c588339815191529060ff16156102b75734815f015f8282546102b19190612f19565b90915550505b005b5f80fd5b3480156102c8575f80fd5b506102b76102d7366004612f2c565b6107cb565b3480156102e7575f80fd5b506102f06108fe565b6040519081526020015b60405180910390f35b34801561030e575f80fd5b506103176109c6565b6040516102fa9190612f90565b34801561032f575f80fd5b506102f061033e366004612f2c565b610a6b565b34801561034e575f80fd5b5061036261035d366004612fc6565b610a7c565b60405190151581526020016102fa565b34801561037d575f80fd5b506102f061038c366004612f2c565b610a93565b34801561039c575f80fd5b506103bc6103ab366004612ff0565b630a85bd0160e11b95945050505050565b6040516001600160e01b031990911681526020016102fa565b3480156103e0575f80fd5b507f52c63247e1f47db19d5ce0460030c497f067ca4cebf71ba98eeadabe20bace02546102f0565b348015610413575f80fd5b50610362610422366004613087565b610a9f565b348015610432575f80fd5b50604051601281526020016102fa565b34801561044d575f80fd5b506102f0610ac4565b348015610461575f80fd5b5061046a610acd565b6040516001600160a01b0390911681526020016102fa565b34801561048d575f80fd5b506102b761049c366004612f2c565b610b01565b3480156104ac575f80fd5b506102f06104bb3660046130c5565b505f1990565b6102b76104cf366004613125565b610cad565b3480156104df575f80fd5b506102f0610cc8565b3480156104f3575f80fd5b5061050761050236600461320f565b610ce3565b6040516102fa9190613288565b34801561051f575f80fd5b506102b761052e36600461320f565b610eb0565b34801561053e575f80fd5b506102f061054d36600461329a565b61102e565b34801561055d575f80fd5b506102f061056c3660046130c5565b611042565b34801561057c575f80fd5b506102b761058b3660046130c5565b611072565b34801561059b575f80fd5b506102f06105aa3660046130c5565b6110f9565b3480156105ba575f80fd5b506105c3611103565b6040516102fa97969594939291906132c8565b3480156105e1575f80fd5b506103bc6111ac565b3480156105f5575f80fd5b506102f061060436600461329a565b6111e2565b348015610614575f80fd5b506103176111f6565b348015610628575f80fd5b50610362610637366004612fc6565b611234565b348015610647575f80fd5b50610317604051806040016040528060058152602001640352e302e360dc1b81525081565b348015610677575f80fd5b506102f0610686366004612f2c565b611241565b348015610696575f80fd5b506102f06106a5366004613337565b61124d565b3480156106b5575f80fd5b5061046a611267565b3480156106c9575f80fd5b506102b76106d83660046130c5565b61127c565b3480156106e8575f80fd5b506102f06106f7366004612f2c565b61141f565b348015610707575f80fd5b506102f06107163660046130c5565b61142a565b348015610726575f80fd5b506102b7610735366004613376565b61143d565b348015610745575f80fd5b506102f06107543660046130c5565b611592565b348015610764575f80fd5b506102f06107733660046133e7565b61159c565b348015610783575f80fd5b506102f06115e5565b348015610797575f80fd5b505f80516020613c58833981519152546102f0565b3480156107b7575f80fd5b506102b76107c6366004613413565b611728565b6107d7335b5f366118ba565b6108227f00000000000000000000000000000000000000000000000000000000000000007f0000000000000000000000000000000000000000000000000000000000000000836119b0565b6040516373d0285560e11b81526001600160a01b037f0000000000000000000000000000000000000000000000000000000000000000811660048301527f000000000000000000000000000000000000000000000000000000000000000081166024830152604482018390527f0000000000000000000000000000000000000000000000000000000000000000169063e7a050aa906064016020604051808303815f875af11580156108d6573d5f803e3d5ffd5b505050506040513d601f19601f820116820180604052508101906108fa9190613485565b5050565b5f476109155f80516020613c588339815191525490565b61091d6115e5565b6040516370a0823160e01b81523060048201527f00000000000000000000000000000000000000000000000000000000000000006001600160a01b0316906370a0823190602401602060405180830381865afa15801561097f573d5f803e3d5ffd5b505050506040513d601f19601f820116820180604052508101906109a39190613485565b6109ad919061349c565b6109b7919061349c565b6109c1919061349c565b905090565b60605f5f80516020613c788339815191525b90508060030180546109e9906134af565b80601f0160208091040260200160405190810160405280929190818152602001828054610a15906134af565b8015610a605780601f10610a3757610100808354040283529160200191610a60565b820191905f5260205f20905b815481529060010190602001808311610a4357829003601f168201915b505050505091505090565b5f610a76825f611a3d565b92915050565b5f33610a89818585611a94565b5060019392505050565b5f610a76826001611aa6565b5f33610aac858285611af4565b610ab7858585611b51565b60019150505b9392505050565b5f6109c1611bae565b5f807f0773e532dfede91f04b12a73d3d2acd361424f41f76b4fb79f090161e36b4e005b546001600160a01b031692915050565b610b0a336107d0565b6040805160018082528183019092525f80516020613c58833981519152915f9190602080830190803683370190505090507f0000000000000000000000000000000000000000000000000000000000000000815f81518110610b6e57610b6e6134e7565b6001600160a01b0392909216602092830291909101909101526040805160018082528183019092525f9181602001602082028036833701905050905083815f81518110610bbd57610bbd6134e7565b60200260200101818152505083836001015f828254610bdc919061349c565b90915550506040805160018082528183019092525f916001600160a01b037f0000000000000000000000000000000000000000000000000000000000000000169163f123991e91602080830190803683370190505085853060016040518663ffffffff1660e01b8152600401610c569594939291906134fb565b6020604051808303815f875af1158015610c72573d5f803e3d5ffd5b505050506040513d601f19601f82011682018060405250810190610c969190613485565b9050610ca56005850182611bb7565b505050505050565b610cb5611bc2565b610cbe82611c68565b6108fa8282611c74565b5f610cd1611d30565b505f80516020613cb883398151915290565b6060610cee336107d0565b5f80516020613c588339815191525f805b84811015610d3557858582818110610d1957610d196134e7565b9050602002013582610d2b919061349c565b9150600101610cff565b5080825f015f828254610d48919061349c565b90915550610d9990507f00000000000000000000000000000000000000000000000000000000000000007f0000000000000000000000000000000000000000000000000000000000000000836119b0565b604051636b34082160e11b81526001600160a01b037f0000000000000000000000000000000000000000000000000000000000000000169063d668104290610de9908890889030906004016135b5565b5f604051808303815f875af1158015610e04573d5f803e3d5ffd5b505050506040513d5f823e601f3d908101601f19168201604052610e2b91908101906135e0565b92505f5b8351811015610e7057610e67848281518110610e4d57610e4d6134e7565b602002602001015184600301611bb790919063ffffffff16565b50600101610e2f565b507f7dac5a8ab4fe1710dfba58441ca15750a9c71877b358e90aac49fc80b293e61783604051610ea09190613288565b60405180910390a1505092915050565b7f611ea165ca9257827fc43d2954fdae7d825e82c825d9037db9337fa1bfa93102805460ff191660011790555f80516020613c588339815191525f5b82811015610fe2575f610f23858584818110610f0a57610f0a6134e7565b9050602002013584600301611d7990919063ffffffff16565b905080610f435760405163c945242d60e01b815260040160405180910390fd5b7f00000000000000000000000000000000000000000000000000000000000000006001600160a01b031663f8444436868685818110610f8457610f846134e7565b905060200201356040518263ffffffff1660e01b8152600401610fa991815260200190565b5f604051808303815f87803b158015610fc0575f80fd5b505af1158015610fd2573d5f803e3d5ffd5b5050505050806001019050610eec565b5060028101805460ff191690556040517ffe1f3a60946e634f858dc1f2f911c04cba9dc419a19abcb1bb1ce905ed79e325906110219085908590613681565b60405180910390a1505050565b5f611038336107d0565b610abd8383611d84565b5f805f80516020613c788339815191525b6001600160a01b039093165f9081526020939093525050604090205490565b3361107b611267565b6001600160a01b0316816001600160a01b0316146110bb5760405162d1953b60e31b81526001600160a01b03821660048201526024015b60405180910390fd5b816001600160a01b03163b5f036110f0576040516361798f2f60e11b81526001600160a01b03831660048201526024016110b2565b6108fa82611da7565b5f610a7682611e07565b5f60608082808083815f80516020613c98833981519152805490915015801561112e57506001810154155b6111725760405162461bcd60e51b81526020600482015260156024820152741152540dcc4c8e88155b9a5b9a5d1a585b1a5e9959605a1b60448201526064016110b2565b61117a611e2f565b611182611e6d565b604080515f80825260208201909252600f60f81b9c939b5091995046985030975095509350915050565b5f80516020613c3883398151915280545f9190600160a01b900460ff166111d3575f6111dc565b638fb3603760e01b5b91505090565b5f6111ec336107d0565b610abd8383611e83565b7f52c63247e1f47db19d5ce0460030c497f067ca4cebf71ba98eeadabe20bace0480546060915f80516020613c78833981519152916109e9906134af565b5f33610a89818585611b51565b5f610a76826001611a3d565b5f60405163290ebeeb60e11b815260040160405180910390fd5b5f805f80516020613c38833981519152610af1565b7ff0c57e16840df040f15088dc2f81fe391c3923bec73e23a9662efc9c229c6a008054600160401b810460ff16159067ffffffffffffffff165f811580156112c15750825b90505f8267ffffffffffffffff1660011480156112dd5750303b155b9050811580156112eb575080155b156113095760405163f92ee8a960e01b815260040160405180910390fd5b845467ffffffffffffffff19166001178555831561133357845460ff60401b1916600160401b1785555b61133c86611e9e565b611363604051806040016040528060068152602001650e0eacc8aa8960d31b815250611eaf565b61138c7f0000000000000000000000000000000000000000000000000000000000000000611eda565b6113d2604051806040016040528060068152602001650e0eacc8aa8960d31b815250604051806040016040528060068152602001650e0eacc8aa8960d31b815250611eeb565b8315610ca557845460ff60401b19168555604051600181527fc7f505b2f371ae2175ee4913f4499e1f2633a7b5936321eed1cdaeb6115181d29060200160405180910390a1505050505050565b5f610a76825f611aa6565b5f610a7661143783611042565b5f611a3d565b834211156114615760405163313c898160e11b8152600481018590526024016110b2565b5f7f6e71edae12b1b97f4d1f60370fef10105fa2faae0126114a169c64845d6126c98888886114cb8c6001600160a01b03165f9081527f5ab42ced628888259c08ac98db1eb0cf702fc1501344311d8b100cd1bfe4bb006020526040902080546001810190915590565b6040805160208101969096526001600160a01b0394851690860152929091166060840152608083015260a082015260c0810186905260e0016040516020818303038152906040528051906020012090505f61152582611efd565b90505f61153482878787611f29565b9050896001600160a01b0316816001600160a01b03161461157b576040516325c0072360e11b81526001600160a01b0380831660048301528b1660248201526044016110b2565b6115868a8a8a611a94565b50505050505050505050565b5f610a7682611042565b6001600160a01b039182165f9081527f52c63247e1f47db19d5ce0460030c497f067ca4cebf71ba98eeadabe20bace016020908152604080832093909416825291909152205490565b5f805f80516020613c58833981519152604051630aa794bf60e31b81523060048201529091505f906001600160a01b037f0000000000000000000000000000000000000000000000000000000000000000169063553ca5f890602401602060405180830381865afa15801561165c573d5f803e3d5ffd5b505050506040513d601f19601f820116820180604052508101906116809190613485565b90505f7f00000000000000000000000000000000000000000000000000000000000000006001600160a01b0316637a8b263784600101546040518263ffffffff1660e01b81526004016116d591815260200190565b602060405180830381865afa1580156116f0573d5f803e3d5ffd5b505050506040513d601f19601f820116820180604052508101906117149190613485565b9050611720818361349c565b935050505090565b60405163b43b514b60e01b81525f80516020613c58833981519152905f906001600160a01b037f0000000000000000000000000000000000000000000000000000000000000000169063b43b514b90611785908990600401613814565b602060405180830381865afa1580156117a0573d5f803e3d5ffd5b505050506040513d601f19601f820116820180604052508101906117c49190613485565b90505f6117d46005840183611d79565b9050806117f45760405163c945242d60e01b815260040160405180910390fd5b6118016020880188613826565b5f818110611811576118116134e7565b90506020020135836001015f82825461182a9190612f19565b909155505060405163f3be65d360e01b81526001600160a01b037f0000000000000000000000000000000000000000000000000000000000000000169063f3be65d390611884908a908a908a908a9060019060040161386c565b5f604051808303815f87803b15801561189b575f80fd5b505af11580156118ad573d5f803e3d5ffd5b5050505050505050505050565b5f80516020613c388339815191525f806118f26118d5611267565b87306118e460045f8a8c6138dd565b6118ed91613904565b611f55565b9150915081610ca55763ffffffff81161561198d57825460ff60a01b1916600160a01b178355611920611267565b6001600160a01b03166394c7d7ee8787876040518463ffffffff1660e01b815260040161194f93929190613934565b5f604051808303815f87803b158015611966575f80fd5b505af1158015611978573d5f803e3d5ffd5b5050845460ff60a01b1916855550610ca59050565b60405162d1953b60e31b81526001600160a01b03871660048201526024016110b2565b604051636eb1769f60e11b81523060048201526001600160a01b0383811660248301525f919085169063dd62ed3e90604401602060405180830381865afa1580156119fd573d5f803e3d5ffd5b505050506040513d601f19601f82011682018060405250810190611a219190613485565b9050611a378484611a32858561349c565b61205d565b50505050565b5f610abd611a496108fe565b611a5490600161349c565b611a5f5f600a613a53565b7f52c63247e1f47db19d5ce0460030c497f067ca4cebf71ba98eeadabe20bace0254611a8b919061349c565b8591908561211a565b611aa18383836001612169565b505050565b5f610abd611ab582600a613a53565b7f52c63247e1f47db19d5ce0460030c497f067ca4cebf71ba98eeadabe20bace0254611ae1919061349c565b611ae96108fe565b611a8b90600161349c565b5f611aff848461159c565b90505f198114611a375781811015611b4357604051637dc7a0d960e11b81526001600160a01b038416600482015260248101829052604481018390526064016110b2565b611a3784848484035f612169565b6001600160a01b038316611b7a57604051634b637e8f60e11b81525f60048201526024016110b2565b6001600160a01b038216611ba35760405163ec442f0560e01b81525f60048201526024016110b2565b611aa183838361224d565b5f6109c1612386565b5f610abd83836123f9565b306001600160a01b037f0000000000000000000000000000000000000000000000000000000000000000161480611c4857507f00000000000000000000000000000000000000000000000000000000000000006001600160a01b0316611c3c5f80516020613cb8833981519152546001600160a01b031690565b6001600160a01b031614155b15611c665760405163703e46dd60e11b815260040160405180910390fd5b565b611c71336107d0565b50565b816001600160a01b03166352d1902d6040518163ffffffff1660e01b8152600401602060405180830381865afa925050508015611cce575060408051601f3d908101601f19168201909252611ccb91810190613485565b60015b611cf657604051634c9c8ce360e01b81526001600160a01b03831660048201526024016110b2565b5f80516020613cb88339815191528114611d2657604051632a87526960e21b8152600481018290526024016110b2565b611aa18383612445565b306001600160a01b037f00000000000000000000000000000000000000000000000000000000000000001614611c665760405163703e46dd60e11b815260040160405180910390fd5b5f610abd838361249a565b5f5f195f611d918561141f565b9050611d9f3385878461257d565b949350505050565b5f80516020613c3883398151915280546001600160a01b0383166001600160a01b03199091168117825560408051918252517f2f658b440c35314f52658ea8a740e05b284cdc84dc9ae01e891f21b8933e7cad9181900360200190a15050565b5f807f5ab42ced628888259c08ac98db1eb0cf702fc1501344311d8b100cd1bfe4bb00611053565b7fa16a46d94261c7517cc8ff89f61c0ce93598e3c849801011dee649a6a557d10280546060915f80516020613c98833981519152916109e9906134af565b60605f5f80516020613c988339815191526109d8565b5f5f195f611e9085611241565b9050611d9f3385838861257d565b611ea661260d565b611c7181612656565b611eb761260d565b611c7181604051806040016040528060018152602001603160f81b815250612667565b611ee261260d565b611c71816126c6565b611ef361260d565b6108fa8282612749565b5f610a76611f09611bae565b8360405161190160f01b8152600281019290925260228201526042902090565b5f805f80611f3988888888612799565b925092509250611f498282612861565b50909695505050505050565b6040516001600160a01b03848116602483015283811660448301526001600160e01b0319831660648301525f9182918291829189169060840160408051601f198184030181529181526020820180516001600160e01b031663b700961360e01b17905251611fc39190613a61565b5f60405180830381855afa9150503d805f8114611ffb576040519150601f19603f3d011682016040523d82523d5f602084013e612000565b606091505b5091509150811561205257604081511061203257808060200190518101906120289190613a8b565b9094509250612052565b6020815110612052578080602001905181019061204f9190613ab5565b93505b505094509492505050565b604080516001600160a01b038416602482015260448082018490528251808303909101815260649091019091526020810180516001600160e01b031663095ea7b360e01b1790526120ae8482612919565b611a37576040516001600160a01b0384811660248301525f604483015261211091869182169063095ea7b3906064015b604051602081830303815290604052915060e01b6020820180516001600160e01b0383818316178352505050506129b6565b611a3784826129b6565b5f80612127868686612a17565b905061213283612ad6565b801561214d57505f848061214857612148613ace565b868809115b156121605761215d60018261349c565b90505b95945050505050565b5f80516020613c788339815191526001600160a01b0385166121a05760405163e602df0560e01b81525f60048201526024016110b2565b6001600160a01b0384166121c957604051634a1406b160e11b81525f60048201526024016110b2565b6001600160a01b038086165f9081526001830160209081526040808320938816835292905220839055811561224657836001600160a01b0316856001600160a01b03167f8c5be1e5ebec7d5bd14f71427d1e84f3dd0314c0f7b2291e5b200ac8c7c3b9258560405161223d91815260200190565b60405180910390a35b5050505050565b5f80516020613c788339815191526001600160a01b0384166122875781816002015f82825461227c919061349c565b909155506122f79050565b6001600160a01b0384165f90815260208290526040902054828110156122d95760405163391434e360e21b81526001600160a01b038616600482015260248101829052604481018490526064016110b2565b6001600160a01b0385165f9081526020839052604090209083900390555b6001600160a01b038316612315576002810180548390039055612333565b6001600160a01b0383165f9081526020829052604090208054830190555b826001600160a01b0316846001600160a01b03167fddf252ad1be2c89b69c2b068fc378daa952ba7f163c4a11628f55a4df523b3ef8460405161237891815260200190565b60405180910390a350505050565b5f7f8b73c3c69bb8fe3d512ecc4cf759cc79239f7b179b0ffacaa9a75d522b39400f6123b0612b02565b6123b8612b6a565b60408051602081019490945283019190915260608201524660808201523060a082015260c00160405160208183030381529060405280519060200120905090565b5f81815260018301602052604081205461243e57508154600181810184555f848152602080822090930184905584548482528286019093526040902091909155610a76565b505f610a76565b61244e82612bac565b6040516001600160a01b038316907fbc7cd75a20ee27fd9adebab32041f755214dbc6bffa90cc0225b39da2e5c2d3b905f90a280511561249257611aa18282612c0f565b6108fa612c78565b5f8181526001830160205260408120548015612574575f6124bc600183612f19565b85549091505f906124cf90600190612f19565b905080821461252e575f865f0182815481106124ed576124ed6134e7565b905f5260205f200154905080875f01848154811061250d5761250d6134e7565b5f918252602080832090910192909255918252600188019052604090208390555b855486908061253f5761253f613ae2565b600190038181905f5260205f20015f90559055856001015f8681526020019081526020015f205f905560019350505050610a76565b5f915050610a76565b7f0773e532dfede91f04b12a73d3d2acd361424f41f76b4fb79f090161e36b4e0080546125b5906001600160a01b0316863086612c97565b6125bf8483612cd0565b836001600160a01b0316856001600160a01b03167fdcbc1c05240f31ff3ad067ef1ee35ce4997762752e3a095284754544f4c709d7858560405161223d929190918252602082015260400190565b7ff0c57e16840df040f15088dc2f81fe391c3923bec73e23a9662efc9c229c6a0054600160401b900460ff16611c6657604051631afcd79f60e31b815260040160405180910390fd5b61265e61260d565b611c7181611da7565b61266f61260d565b5f80516020613c988339815191527fa16a46d94261c7517cc8ff89f61c0ce93598e3c849801011dee649a6a557d1026126a88482613b3a565b50600381016126b78382613b3a565b505f8082556001909101555050565b6126ce61260d565b7f0773e532dfede91f04b12a73d3d2acd361424f41f76b4fb79f090161e36b4e005f806126fa84612d04565b915091508161270a57601261270c565b805b83546001600160a81b031916600160a01b60ff92909216919091026001600160a01b031916176001600160a01b0394909416939093179091555050565b61275161260d565b5f80516020613c788339815191527f52c63247e1f47db19d5ce0460030c497f067ca4cebf71ba98eeadabe20bace0361278a8482613b3a565b5060048101611a378382613b3a565b5f80807f7fffffffffffffffffffffffffffffff5d576e7357a4501ddfe92f46681b20a08411156127d257505f91506003905082612857565b604080515f808252602082018084528a905260ff891692820192909252606081018790526080810186905260019060a0016020604051602081039080840390855afa158015612823573d5f803e3d5ffd5b5050604051601f1901519150506001600160a01b03811661284e57505f925060019150829050612857565b92505f91508190505b9450945094915050565b5f82600381111561287457612874613bf6565b0361287d575050565b600182600381111561289157612891613bf6565b036128af5760405163f645eedf60e01b815260040160405180910390fd5b60028260038111156128c3576128c3613bf6565b036128e45760405163fce698f760e01b8152600481018290526024016110b2565b60038260038111156128f8576128f8613bf6565b036108fa576040516335e2f38360e21b8152600481018290526024016110b2565b5f805f846001600160a01b0316846040516129349190613a61565b5f604051808303815f865af19150503d805f811461296d576040519150601f19603f3d011682016040523d82523d5f602084013e612972565b606091505b509150915081801561299c57508051158061299c57508080602001905181019061299c9190613ab5565b80156121605750505050506001600160a01b03163b151590565b5f6129ca6001600160a01b03841683612dda565b905080515f141580156129ee5750808060200190518101906129ec9190613ab5565b155b15611aa157604051635274afe760e01b81526001600160a01b03841660048201526024016110b2565b5f838302815f1985870982811083820303915050805f03612a4b57838281612a4157612a41613ace565b0492505050610abd565b808411612a6b5760405163227bc15360e01b815260040160405180910390fd5b5f848688095f868103871696879004966002600389028118808a02820302808a02820302808a02820302808a02820302808a02820302808a02909103029181900381900460010186841190950394909402919094039290920491909117919091029150509392505050565b5f6002826003811115612aeb57612aeb613bf6565b612af59190613c0a565b60ff166001149050919050565b5f5f80516020613c9883398151915281612b1a611e2f565b805190915015612b3257805160209091012092915050565b81548015612b41579392505050565b7fc5d2460186f7233c927e7db2dcc703c0e500b653ca82273b7bfad8045d85a470935050505090565b5f5f80516020613c9883398151915281612b82611e6d565b805190915015612b9a57805160209091012092915050565b60018201548015612b41579392505050565b806001600160a01b03163b5f03612be157604051634c9c8ce360e01b81526001600160a01b03821660048201526024016110b2565b5f80516020613cb883398151915280546001600160a01b0319166001600160a01b0392909216919091179055565b60605f80846001600160a01b031684604051612c2b9190613a61565b5f60405180830381855af49150503d805f8114612c63576040519150601f19603f3d011682016040523d82523d5f602084013e612c68565b606091505b5091509150612160858383612de7565b3415611c665760405163b398979f60e01b815260040160405180910390fd5b6040516001600160a01b038481166024830152838116604483015260648201839052611a379186918216906323b872dd906084016120de565b6001600160a01b038216612cf95760405163ec442f0560e01b81525f60048201526024016110b2565b6108fa5f838361224d565b60408051600481526024810182526020810180516001600160e01b031663313ce56760e01b17905290515f918291829182916001600160a01b03871691612d4a91613a61565b5f60405180830381855afa9150503d805f8114612d82576040519150601f19603f3d011682016040523d82523d5f602084013e612d87565b606091505b5091509150818015612d9b57506020815110155b15612dce575f81806020019051810190612db59190613485565b905060ff8111612dcc576001969095509350505050565b505b505f9485945092505050565b6060610abd83835f612e43565b606082612dfc57612df782612edc565b610abd565b8151158015612e1357506001600160a01b0384163b155b15612e3c57604051639996b31560e01b81526001600160a01b03851660048201526024016110b2565b5080610abd565b606081471015612e685760405163cd78605960e01b81523060048201526024016110b2565b5f80856001600160a01b03168486604051612e839190613a61565b5f6040518083038185875af1925050503d805f8114612ebd576040519150601f19603f3d011682016040523d82523d5f602084013e612ec2565b606091505b5091509150612ed2868383612de7565b9695505050505050565b805115612eec5780518082602001fd5b604051630a12f52160e11b815260040160405180910390fd5b634e487b7160e01b5f52601160045260245ffd5b81810381811115610a7657610a76612f05565b5f60208284031215612f3c575f80fd5b5035919050565b5f5b83811015612f5d578181015183820152602001612f45565b50505f910152565b5f8151808452612f7c816020860160208601612f43565b601f01601f19169290920160200192915050565b602081525f610abd6020830184612f65565b6001600160a01b0381168114611c71575f80fd5b8035612fc181612fa2565b919050565b5f8060408385031215612fd7575f80fd5b8235612fe281612fa2565b946020939093013593505050565b5f805f805f60808688031215613004575f80fd5b853561300f81612fa2565b9450602086013561301f81612fa2565b935060408601359250606086013567ffffffffffffffff80821115613042575f80fd5b818801915088601f830112613055575f80fd5b813581811115613063575f80fd5b896020828501011115613074575f80fd5b9699959850939650602001949392505050565b5f805f60608486031215613099575f80fd5b83356130a481612fa2565b925060208401356130b481612fa2565b929592945050506040919091013590565b5f602082840312156130d5575f80fd5b8135610abd81612fa2565b634e487b7160e01b5f52604160045260245ffd5b604051601f8201601f1916810167ffffffffffffffff8111828210171561311d5761311d6130e0565b604052919050565b5f8060408385031215613136575f80fd5b823561314181612fa2565b915060208381013567ffffffffffffffff8082111561315e575f80fd5b818601915086601f830112613171575f80fd5b813581811115613183576131836130e0565b613195601f8201601f191685016130f4565b915080825287848285010111156131aa575f80fd5b80848401858401375f848284010152508093505050509250929050565b5f8083601f8401126131d7575f80fd5b50813567ffffffffffffffff8111156131ee575f80fd5b6020830191508360208260051b8501011115613208575f80fd5b9250929050565b5f8060208385031215613220575f80fd5b823567ffffffffffffffff811115613236575f80fd5b613242858286016131c7565b90969095509350505050565b5f815180845260208085019450602084015f5b8381101561327d57815187529582019590820190600101613261565b509495945050505050565b602081525f610abd602083018461324e565b5f80604083850312156132ab575f80fd5b8235915060208301356132bd81612fa2565b809150509250929050565b60ff60f81b8816815260e060208201525f6132e660e0830189612f65565b82810360408401526132f88189612f65565b606084018890526001600160a01b038716608085015260a0840186905283810360c08501529050613329818561324e565b9a9950505050505050505050565b5f805f60608486031215613349575f80fd5b83359250602084013561335b81612fa2565b9150604084013561336b81612fa2565b809150509250925092565b5f805f805f805f60e0888a03121561338c575f80fd5b873561339781612fa2565b965060208801356133a781612fa2565b95506040880135945060608801359350608088013560ff811681146133ca575f80fd5b9699959850939692959460a0840135945060c09093013592915050565b5f80604083850312156133f8575f80fd5b823561340381612fa2565b915060208301356132bd81612fa2565b5f805f8060608587031215613426575f80fd5b843567ffffffffffffffff8082111561343d575f80fd5b9086019060e08289031215613450575f80fd5b90945060208601359080821115613465575f80fd5b50613472878288016131c7565b9598909750949560400135949350505050565b5f60208284031215613495575f80fd5b5051919050565b80820180821115610a7657610a76612f05565b600181811c908216806134c357607f821691505b6020821081036134e157634e487b7160e01b5f52602260045260245ffd5b50919050565b634e487b7160e01b5f52603260045260245ffd5b60a081525f61350d60a083018861324e565b8281036020848101919091528751808352888201928201905f5b8181101561354c5784516001600160a01b031683529383019391830191600101613527565b50508481036040860152613560818961324e565b6001600160a01b03979097166060860152505050509015156080909101529392505050565b8183525f6001600160fb1b0383111561359c575f80fd5b8260051b80836020870137939093016020019392505050565b604081525f6135c8604083018587613585565b905060018060a01b0383166020830152949350505050565b5f60208083850312156135f1575f80fd5b825167ffffffffffffffff80821115613608575f80fd5b818501915085601f83011261361b575f80fd5b81518181111561362d5761362d6130e0565b8060051b915061363e8483016130f4565b8181529183018401918481019088841115613657575f80fd5b938501935b838510156136755784518252938501939085019061365c565b98975050505050505050565b602081525f611d9f602083018486613585565b5f808335601e198436030181126136a9575f80fd5b830160208101925035905067ffffffffffffffff8111156136c8575f80fd5b8060051b3603821315613208575f80fd5b80356136e481612fa2565b6001600160a01b0316825260208101356bffffffffffffffffffffffff811680821461370e575f80fd5b80602085015250505050565b63ffffffff81168114611c71575f80fd5b8035612fc18161371a565b5f60e083016137458384613694565b60e0865291829052905f9061010086015b8183101561378757833561376981612fa2565b6001600160a01b031681526020938401936001939093019201613756565b6137946020870187613694565b9450925086810360208801526137ab818585613585565b93505050506137bc60408401612fb6565b6001600160a01b031660408501526137da60608086019085016136d9565b6137e660a0840161372b565b63ffffffff1660a08501526137fd60c08401612fb6565b6001600160a01b03811660c0860152509392505050565b602081525f610abd6020830184613736565b5f808335601e1984360301811261383b575f80fd5b83018035915067ffffffffffffffff821115613855575f80fd5b6020019150600581901b3603821315613208575f80fd5b608081525f61387e6080830188613736565b828103602084810191909152868252879181015f5b888110156138c15783356138a681612fa2565b6001600160a01b031682529282019290820190600101613893565b5060408501969096525050509015156060909101529392505050565b5f80858511156138eb575f80fd5b838611156138f7575f80fd5b5050820193919092039150565b6001600160e01b0319813581811691600485101561392c5780818660040360031b1b83161692505b505092915050565b6001600160a01b03841681526040602082018190528101829052818360608301375f818301606090810191909152601f909201601f1916010192915050565b600181815b808511156139ad57815f190482111561399357613993612f05565b808516156139a057918102915b93841c9390800290613978565b509250929050565b5f826139c357506001610a76565b816139cf57505f610a76565b81600181146139e557600281146139ef57613a0b565b6001915050610a76565b60ff841115613a0057613a00612f05565b50506001821b610a76565b5060208310610133831016604e8410600b8410161715613a2e575081810a610a76565b613a388383613973565b805f1904821115613a4b57613a4b612f05565b029392505050565b5f610abd60ff8416836139b5565b5f8251613a72818460208701612f43565b9190910192915050565b80518015158114612fc1575f80fd5b5f8060408385031215613a9c575f80fd5b613aa583613a7c565b915060208301516132bd8161371a565b5f60208284031215613ac5575f80fd5b610abd82613a7c565b634e487b7160e01b5f52601260045260245ffd5b634e487b7160e01b5f52603160045260245ffd5b601f821115611aa157805f5260205f20601f840160051c81016020851015613b1b5750805b601f840160051c820191505b81811015612246575f8155600101613b27565b815167ffffffffffffffff811115613b5457613b546130e0565b613b6881613b6284546134af565b84613af6565b602080601f831160018114613b9b575f8415613b845750858301515b5f19600386901b1c1916600185901b178555610ca5565b5f85815260208120601f198616915b82811015613bc957888601518255948401946001909101908401613baa565b5085821015613be657878501515f19600388901b60f8161c191681555b5050505050600190811b01905550565b634e487b7160e01b5f52602160045260245ffd5b5f60ff831680613c2857634e487b7160e01b5f52601260045260245ffd5b8060ff8416069150509291505056fef3177357ab46d8af007ab3fdb9af81da189e1068fefdc0073dca88a2cab40a00611ea165ca9257827fc43d2954fdae7d825e82c825d9037db9337fa1bfa9310052c63247e1f47db19d5ce0460030c497f067ca4cebf71ba98eeadabe20bace00a16a46d94261c7517cc8ff89f61c0ce93598e3c849801011dee649a6a557d100360894a13ba1a3210667c828492db98dca3e2076cc3735a920a3ca505d382bbc","linkReferences":{}},"methodIdentifiers":{"DOMAIN_SEPARATOR()":"3644e515","UPGRADE_INTERFACE_VERSION()":"ad3cb1cc","allowance(address,address)":"dd62ed3e","approve(address,uint256)":"095ea7b3","asset()":"38d52e0f","authority()":"bf7e214f","balanceOf(address)":"70a08231","claimWithdrawalFromEigenLayer((address[],uint256[],address,(address,uint96),uint32,address),address[],uint256)":"fdcffbac","claimWithdrawalsFromLido(uint256[])":"677a11e9","convertToAssets(uint256)":"07a2d13a","convertToShares(uint256)":"c6e6f592","decimals()":"313ce567","deposit(uint256,address)":"6e553f65","depositToEigenLayer(uint256)":"008e0590","eip712Domain()":"84b0196e","getELBackingEthAmount()":"ed344a22","getPendingLidoETHAmount()":"f7fe1bd1","initialize(address)":"c4d66de8","initiateETHWithdrawalsFromLido(uint256[])":"593961de","initiateStETHWithdrawalFromEigenLayer(uint256)":"402064a7","isConsumingScheduledOp()":"8fb36037","maxDeposit(address)":"402d267d","maxMint(address)":"c63d75b6","maxRedeem(address)":"d905777e","maxWithdraw(address)":"ce96cb77","mint(uint256,address)":"94bf804d","name()":"06fdde03","nonces(address)":"7ecebe00","onERC721Received(address,address,uint256,bytes)":"150b7a02","permit(address,address,uint256,uint256,uint8,bytes32,bytes32)":"d505accf","previewDeposit(uint256)":"ef8b30f7","previewMint(uint256)":"b3d7f6b9","previewRedeem(uint256)":"4cdad506","previewWithdraw(uint256)":"0a28a477","proxiableUUID()":"52d1902d","redeem(uint256,address,address)":"ba087652","setAuthority(address)":"7a9e5e4b","symbol()":"95d89b41","totalAssets()":"01e1d114","totalSupply()":"18160ddd","transfer(address,uint256)":"a9059cbb","transferFrom(address,address,uint256)":"23b872dd","upgradeToAndCall(address,bytes)":"4f1ef286","withdraw(uint256,address,address)":"b460af94"},"id":123}