{"abi":[{"type":"constructor","inputs":[{"name":"pufferVault","type":"address","internalType":"contract PufferVaultV2"},{"name":"guardianModule","type":"address","internalType":"contract IGuardianModule"},{"name":"moduleManager","type":"address","internalType":"address"},{"name":"validatorTicket","type":"address","internalType":"contract ValidatorTicket"},{"name":"oracle","type":"address","internalType":"contract IPufferOracleV2"},{"name":"beaconDepositContract","type":"address","internalType":"address"}],"stateMutability":"nonpayable"},{"type":"function","name":"BEACON_DEPOSIT_CONTRACT","inputs":[],"outputs":[{"name":"","type":"address","internalType":"contract IBeaconDepositContract"}],"stateMutability":"view"},{"type":"function","name":"GUARDIAN_MODULE","inputs":[],"outputs":[{"name":"","type":"address","internalType":"contract IGuardianModule"}],"stateMutability":"view"},{"type":"function","name":"PUFFER_MODULE_MANAGER","inputs":[],"outputs":[{"name":"","type":"address","internalType":"contract IPufferModuleManager"}],"stateMutability":"view"},{"type":"function","name":"PUFFER_ORACLE","inputs":[],"outputs":[{"name":"","type":"address","internalType":"contract IPufferOracleV2"}],"stateMutability":"view"},{"type":"function","name":"PUFFER_VAULT","inputs":[],"outputs":[{"name":"","type":"address","internalType":"contract PufferVaultV2"}],"stateMutability":"view"},{"type":"function","name":"UPGRADE_INTERFACE_VERSION","inputs":[],"outputs":[{"name":"","type":"string","internalType":"string"}],"stateMutability":"view"},{"type":"function","name":"VALIDATOR_TICKET","inputs":[],"outputs":[{"name":"","type":"address","internalType":"contract ValidatorTicket"}],"stateMutability":"view"},{"type":"function","name":"authority","inputs":[],"outputs":[{"name":"","type":"address","internalType":"address"}],"stateMutability":"view"},{"type":"function","name":"batchHandleWithdrawals","inputs":[{"name":"validatorInfos","type":"tuple[]","internalType":"struct StoppedValidatorInfo[]","components":[{"name":"module","type":"address","internalType":"address"},{"name":"startEpoch","type":"uint256","internalType":"uint256"},{"name":"endEpoch","type":"uint256","internalType":"uint256"},{"name":"wasSlashed","type":"bool","internalType":"bool"},{"name":"moduleName","type":"bytes32","internalType":"bytes32"},{"name":"pufferModuleIndex","type":"uint256","internalType":"uint256"},{"name":"withdrawalAmount","type":"uint256","internalType":"uint256"}]},{"name":"guardianEOASignatures","type":"bytes[]","internalType":"bytes[]"}],"outputs":[],"stateMutability":"nonpayable"},{"type":"function","name":"changeMinimumVTAmount","inputs":[{"name":"newMinimumVTAmount","type":"uint256","internalType":"uint256"}],"outputs":[],"stateMutability":"nonpayable"},{"type":"function","name":"createPufferModule","inputs":[{"name":"moduleName","type":"bytes32","internalType":"bytes32"}],"outputs":[{"name":"","type":"address","internalType":"address"}],"stateMutability":"nonpayable"},{"type":"function","name":"depositValidatorTickets","inputs":[{"name":"permit","type":"tuple","internalType":"struct Permit","components":[{"name":"deadline","type":"uint256","internalType":"uint256"},{"name":"amount","type":"uint256","internalType":"uint256"},{"name":"v","type":"uint8","internalType":"uint8"},{"name":"r","type":"bytes32","internalType":"bytes32"},{"name":"s","type":"bytes32","internalType":"bytes32"}]},{"name":"node","type":"address","internalType":"address"}],"outputs":[],"stateMutability":"nonpayable"},{"type":"function","name":"getDepositDataRoot","inputs":[{"name":"pubKey","type":"bytes","internalType":"bytes"},{"name":"signature","type":"bytes","internalType":"bytes"},{"name":"withdrawalCredentials","type":"bytes","internalType":"bytes"}],"outputs":[{"name":"","type":"bytes32","internalType":"bytes32"}],"stateMutability":"pure"},{"type":"function","name":"getMinimumVtAmount","inputs":[],"outputs":[{"name":"","type":"uint256","internalType":"uint256"}],"stateMutability":"view"},{"type":"function","name":"getModuleAddress","inputs":[{"name":"moduleName","type":"bytes32","internalType":"bytes32"}],"outputs":[{"name":"","type":"address","internalType":"address"}],"stateMutability":"view"},{"type":"function","name":"getModuleLimitInformation","inputs":[{"name":"moduleName","type":"bytes32","internalType":"bytes32"}],"outputs":[{"name":"info","type":"tuple","internalType":"struct ModuleLimit","components":[{"name":"allowedLimit","type":"uint128","internalType":"uint128"},{"name":"numberOfRegisteredValidators","type":"uint128","internalType":"uint128"}]}],"stateMutability":"view"},{"type":"function","name":"getModuleSelectIndex","inputs":[],"outputs":[{"name":"","type":"uint256","internalType":"uint256"}],"stateMutability":"view"},{"type":"function","name":"getModuleWeights","inputs":[],"outputs":[{"name":"","type":"bytes32[]","internalType":"bytes32[]"}],"stateMutability":"view"},{"type":"function","name":"getNextValidatorToBeProvisionedIndex","inputs":[{"name":"moduleName","type":"bytes32","internalType":"bytes32"}],"outputs":[{"name":"","type":"uint256","internalType":"uint256"}],"stateMutability":"view"},{"type":"function","name":"getNextValidatorToProvision","inputs":[],"outputs":[{"name":"","type":"bytes32","internalType":"bytes32"},{"name":"","type":"uint256","internalType":"uint256"}],"stateMutability":"view"},{"type":"function","name":"getNodeInfo","inputs":[{"name":"node","type":"address","internalType":"address"}],"outputs":[{"name":"","type":"tuple","internalType":"struct NodeInfo","components":[{"name":"activeValidatorCount","type":"uint64","internalType":"uint64"},{"name":"pendingValidatorCount","type":"uint64","internalType":"uint64"},{"name":"vtBalance","type":"uint96","internalType":"uint96"}]}],"stateMutability":"view"},{"type":"function","name":"getPayload","inputs":[{"name":"moduleName","type":"bytes32","internalType":"bytes32"},{"name":"usingEnclave","type":"bool","internalType":"bool"}],"outputs":[{"name":"","type":"bytes[]","internalType":"bytes[]"},{"name":"","type":"bytes","internalType":"bytes"},{"name":"","type":"uint256","internalType":"uint256"},{"name":"","type":"uint256","internalType":"uint256"}],"stateMutability":"view"},{"type":"function","name":"getPendingValidatorIndex","inputs":[{"name":"moduleName","type":"bytes32","internalType":"bytes32"}],"outputs":[{"name":"","type":"uint256","internalType":"uint256"}],"stateMutability":"view"},{"type":"function","name":"getVTPenalty","inputs":[],"outputs":[{"name":"","type":"uint256","internalType":"uint256"}],"stateMutability":"view"},{"type":"function","name":"getValidatorInfo","inputs":[{"name":"moduleName","type":"bytes32","internalType":"bytes32"},{"name":"pufferModuleIndex","type":"uint256","internalType":"uint256"}],"outputs":[{"name":"","type":"tuple","internalType":"struct Validator","components":[{"name":"node","type":"address","internalType":"address"},{"name":"bond","type":"uint96","internalType":"uint96"},{"name":"module","type":"address","internalType":"address"},{"name":"status","type":"uint8","internalType":"enum Status"},{"name":"pubKey","type":"bytes","internalType":"bytes"}]}],"stateMutability":"view"},{"type":"function","name":"getValidatorTicketsBalance","inputs":[{"name":"owner","type":"address","internalType":"address"}],"outputs":[{"name":"","type":"uint256","internalType":"uint256"}],"stateMutability":"view"},{"type":"function","name":"getValidators","inputs":[{"name":"moduleName","type":"bytes32","internalType":"bytes32"}],"outputs":[{"name":"","type":"tuple[]","internalType":"struct Validator[]","components":[{"name":"node","type":"address","internalType":"address"},{"name":"bond","type":"uint96","internalType":"uint96"},{"name":"module","type":"address","internalType":"address"},{"name":"status","type":"uint8","internalType":"enum Status"},{"name":"pubKey","type":"bytes","internalType":"bytes"}]}],"stateMutability":"view"},{"type":"function","name":"getWithdrawalCredentials","inputs":[{"name":"module","type":"address","internalType":"address"}],"outputs":[{"name":"","type":"bytes","internalType":"bytes"}],"stateMutability":"view"},{"type":"function","name":"initialize","inputs":[{"name":"accessManager","type":"address","internalType":"address"}],"outputs":[],"stateMutability":"nonpayable"},{"type":"function","name":"isConsumingScheduledOp","inputs":[],"outputs":[{"name":"","type":"bytes4","internalType":"bytes4"}],"stateMutability":"view"},{"type":"function","name":"provisionNode","inputs":[{"name":"guardianEnclaveSignatures","type":"bytes[]","internalType":"bytes[]"},{"name":"validatorSignature","type":"bytes","internalType":"bytes"},{"name":"depositRootHash","type":"bytes32","internalType":"bytes32"}],"outputs":[],"stateMutability":"nonpayable"},{"type":"function","name":"proxiableUUID","inputs":[],"outputs":[{"name":"","type":"bytes32","internalType":"bytes32"}],"stateMutability":"view"},{"type":"function","name":"registerValidatorKey","inputs":[{"name":"data","type":"tuple","internalType":"struct ValidatorKeyData","components":[{"name":"blsPubKey","type":"bytes","internalType":"bytes"},{"name":"signature","type":"bytes","internalType":"bytes"},{"name":"depositDataRoot","type":"bytes32","internalType":"bytes32"},{"name":"blsEncryptedPrivKeyShares","type":"bytes[]","internalType":"bytes[]"},{"name":"blsPubKeySet","type":"bytes","internalType":"bytes"},{"name":"raveEvidence","type":"bytes","internalType":"bytes"}]},{"name":"moduleName","type":"bytes32","internalType":"bytes32"},{"name":"pufETHPermit","type":"tuple","internalType":"struct Permit","components":[{"name":"deadline","type":"uint256","internalType":"uint256"},{"name":"amount","type":"uint256","internalType":"uint256"},{"name":"v","type":"uint8","internalType":"uint8"},{"name":"r","type":"bytes32","internalType":"bytes32"},{"name":"s","type":"bytes32","internalType":"bytes32"}]},{"name":"vtPermit","type":"tuple","internalType":"struct Permit","components":[{"name":"deadline","type":"uint256","internalType":"uint256"},{"name":"amount","type":"uint256","internalType":"uint256"},{"name":"v","type":"uint8","internalType":"uint8"},{"name":"r","type":"bytes32","internalType":"bytes32"},{"name":"s","type":"bytes32","internalType":"bytes32"}]}],"outputs":[],"stateMutability":"payable"},{"type":"function","name":"revertIfPaused","inputs":[],"outputs":[],"stateMutability":"nonpayable"},{"type":"function","name":"setAuthority","inputs":[{"name":"newAuthority","type":"address","internalType":"address"}],"outputs":[],"stateMutability":"nonpayable"},{"type":"function","name":"setModuleWeights","inputs":[{"name":"newModuleWeights","type":"bytes32[]","internalType":"bytes32[]"}],"outputs":[],"stateMutability":"nonpayable"},{"type":"function","name":"setVTPenalty","inputs":[{"name":"newPenaltyAmount","type":"uint256","internalType":"uint256"}],"outputs":[],"stateMutability":"nonpayable"},{"type":"function","name":"setValidatorLimitPerModule","inputs":[{"name":"moduleName","type":"bytes32","internalType":"bytes32"},{"name":"limit","type":"uint128","internalType":"uint128"}],"outputs":[],"stateMutability":"nonpayable"},{"type":"function","name":"skipProvisioning","inputs":[{"name":"moduleName","type":"bytes32","internalType":"bytes32"},{"name":"guardianEOASignatures","type":"bytes[]","internalType":"bytes[]"}],"outputs":[],"stateMutability":"nonpayable"},{"type":"function","name":"upgradeToAndCall","inputs":[{"name":"newImplementation","type":"address","internalType":"address"},{"name":"data","type":"bytes","internalType":"bytes"}],"outputs":[],"stateMutability":"payable"},{"type":"function","name":"withdrawValidatorTickets","inputs":[{"name":"amount","type":"uint96","internalType":"uint96"},{"name":"recipient","type":"address","internalType":"address"}],"outputs":[],"stateMutability":"nonpayable"},{"type":"event","name":"AuthorityUpdated","inputs":[{"name":"authority","type":"address","indexed":false,"internalType":"address"}],"anonymous":false},{"type":"event","name":"Initialized","inputs":[{"name":"version","type":"uint64","indexed":false,"internalType":"uint64"}],"anonymous":false},{"type":"event","name":"MinimumVTAmountChanged","inputs":[{"name":"oldMinimumNumberOfDays","type":"uint256","indexed":false,"internalType":"uint256"},{"name":"newMinimumNumberOfDays","type":"uint256","indexed":false,"internalType":"uint256"}],"anonymous":false},{"type":"event","name":"ModuleWeightsChanged","inputs":[{"name":"oldWeights","type":"bytes32[]","indexed":false,"internalType":"bytes32[]"},{"name":"newWeights","type":"bytes32[]","indexed":false,"internalType":"bytes32[]"}],"anonymous":false},{"type":"event","name":"NewPufferModuleCreated","inputs":[{"name":"module","type":"address","indexed":false,"internalType":"address"},{"name":"moduleName","type":"bytes32","indexed":true,"internalType":"bytes32"},{"name":"withdrawalCredentials","type":"bytes32","indexed":false,"internalType":"bytes32"}],"anonymous":false},{"type":"event","name":"NumberOfRegisteredValidatorsChanged","inputs":[{"name":"moduleName","type":"bytes32","indexed":true,"internalType":"bytes32"},{"name":"newNumberOfRegisteredValidators","type":"uint256","indexed":false,"internalType":"uint256"}],"anonymous":false},{"type":"event","name":"SuccessfullyProvisioned","inputs":[{"name":"pubKey","type":"bytes","indexed":false,"internalType":"bytes"},{"name":"pufferModuleIndex","type":"uint256","indexed":true,"internalType":"uint256"},{"name":"moduleName","type":"bytes32","indexed":true,"internalType":"bytes32"}],"anonymous":false},{"type":"event","name":"Upgraded","inputs":[{"name":"implementation","type":"address","indexed":true,"internalType":"address"}],"anonymous":false},{"type":"event","name":"VTPenaltyChanged","inputs":[{"name":"oldPenalty","type":"uint256","indexed":false,"internalType":"uint256"},{"name":"newPenalty","type":"uint256","indexed":false,"internalType":"uint256"}],"anonymous":false},{"type":"event","name":"ValidatorExited","inputs":[{"name":"pubKey","type":"bytes","indexed":false,"internalType":"bytes"},{"name":"pufferModuleIndex","type":"uint256","indexed":true,"internalType":"uint256"},{"name":"moduleName","type":"bytes32","indexed":true,"internalType":"bytes32"},{"name":"pufETHBurnAmount","type":"uint256","indexed":false,"internalType":"uint256"},{"name":"vtBurnAmount","type":"uint256","indexed":false,"internalType":"uint256"}],"anonymous":false},{"type":"event","name":"ValidatorKeyRegistered","inputs":[{"name":"pubKey","type":"bytes","indexed":false,"internalType":"bytes"},{"name":"pufferModuleIndex","type":"uint256","indexed":true,"internalType":"uint256"},{"name":"moduleName","type":"bytes32","indexed":true,"internalType":"bytes32"},{"name":"usingEnclave","type":"bool","indexed":false,"internalType":"bool"}],"anonymous":false},{"type":"event","name":"ValidatorLimitPerModuleChanged","inputs":[{"name":"oldLimit","type":"uint256","indexed":false,"internalType":"uint256"},{"name":"newLimit","type":"uint256","indexed":false,"internalType":"uint256"}],"anonymous":false},{"type":"event","name":"ValidatorSkipped","inputs":[{"name":"pubKey","type":"bytes","indexed":false,"internalType":"bytes"},{"name":"pufferModuleIndex","type":"uint256","indexed":true,"internalType":"uint256"},{"name":"moduleName","type":"bytes32","indexed":true,"internalType":"bytes32"}],"anonymous":false},{"type":"event","name":"ValidatorTicketsDeposited","inputs":[{"name":"node","type":"address","indexed":true,"internalType":"address"},{"name":"depositor","type":"address","indexed":true,"internalType":"address"},{"name":"amount","type":"uint256","indexed":false,"internalType":"uint256"}],"anonymous":false},{"type":"event","name":"ValidatorTicketsWithdrawn","inputs":[{"name":"node","type":"address","indexed":true,"internalType":"address"},{"name":"recipient","type":"address","indexed":true,"internalType":"address"},{"name":"amount","type":"uint256","indexed":false,"internalType":"uint256"}],"anonymous":false},{"type":"error","name":"AccessManagedInvalidAuthority","inputs":[{"name":"authority","type":"address","internalType":"address"}]},{"type":"error","name":"AccessManagedRequiredDelay","inputs":[{"name":"caller","type":"address","internalType":"address"},{"name":"delay","type":"uint32","internalType":"uint32"}]},{"type":"error","name":"AccessManagedUnauthorized","inputs":[{"name":"caller","type":"address","internalType":"address"}]},{"type":"error","name":"ActiveOrPendingValidatorsExist","inputs":[]},{"type":"error","name":"AddressEmptyCode","inputs":[{"name":"target","type":"address","internalType":"address"}]},{"type":"error","name":"ERC1967InvalidImplementation","inputs":[{"name":"implementation","type":"address","internalType":"address"}]},{"type":"error","name":"ERC1967NonPayable","inputs":[]},{"type":"error","name":"Failed","inputs":[]},{"type":"error","name":"FailedInnerCall","inputs":[]},{"type":"error","name":"InvalidAddress","inputs":[]},{"type":"error","name":"InvalidBLSPrivateKeyShares","inputs":[]},{"type":"error","name":"InvalidBLSPubKey","inputs":[]},{"type":"error","name":"InvalidBLSPublicKeySet","inputs":[]},{"type":"error","name":"InvalidDepositRootHash","inputs":[]},{"type":"error","name":"InvalidETHAmount","inputs":[]},{"type":"error","name":"InvalidInitialization","inputs":[]},{"type":"error","name":"InvalidVTAmount","inputs":[]},{"type":"error","name":"InvalidValidatorState","inputs":[{"name":"status","type":"uint8","internalType":"enum Status"}]},{"type":"error","name":"ModuleAlreadyExists","inputs":[]},{"type":"error","name":"NotInitializing","inputs":[]},{"type":"error","name":"SafeCastOverflowedUintDowncast","inputs":[{"name":"bits","type":"uint8","internalType":"uint8"},{"name":"value","type":"uint256","internalType":"uint256"}]},{"type":"error","name":"UUPSUnauthorizedCallContext","inputs":[]},{"type":"error","name":"UUPSUnsupportedProxiableUUID","inputs":[{"name":"slot","type":"bytes32","internalType":"bytes32"}]},{"type":"error","name":"ValidatorLimitForModuleReached","inputs":[]}],"bytecode":{"object":"0x6101606040523060805234801562000015575f80fd5b50604051620055d4380380620055d4833981016040819052620000389162000145565b6001600160a01b0380861660a05286811660e0528481166101005283811660c05282811661012052811661014052620000706200007c565b505050505050620001d5565b7ff0c57e16840df040f15088dc2f81fe391c3923bec73e23a9662efc9c229c6a00805468010000000000000000900460ff1615620000cd5760405163f92ee8a960e01b815260040160405180910390fd5b80546001600160401b03908116146200012d5780546001600160401b0319166001600160401b0390811782556040519081527fc7f505b2f371ae2175ee4913f4499e1f2633a7b5936321eed1cdaeb6115181d29060200160405180910390a15b50565b6001600160a01b03811681146200012d575f80fd5b5f805f805f8060c087890312156200015b575f80fd5b8651620001688162000130565b60208801519096506200017b8162000130565b60408801519095506200018e8162000130565b6060880151909450620001a18162000130565b6080880151909350620001b48162000130565b60a0880151909250620001c78162000130565b809150509295509295509295565b60805160a05160c05160e0516101005161012051610140516152cd620003075f395f818161066301526112b001525f81816102530152818161208c015281816126e001526136e801525f81816102a3015261390101525f818161034201528181610b8501528181610c1701528181610c8f01528181610cd6015281816111b601528181612667015281816127e5015281816128bc015281816136540152613b2c01525f818161073b015281816109fc01528181610a7d01528181610acb0152818161102f015281816114d50152818161151f015281816119fd01526125ed01525f81816105c001528181610faf01528181611f3501528181611fe00152818161218001528181612ccb01528181612d7d015261358e01525f81816131ac015281816131d5015261331501526152cd5ff3fe60806040526004361061023e575f3560e01c80638f4988ef11610134578063c4d66de8116100b3578063daf4d90c11610078578063daf4d90c1461078c578063e241ef8d146107ab578063e29b5da8146107ca578063e3721c52146107e9578063ebb8e03114610808578063faab1dd114610827575f80fd5b8063c4d66de814610699578063c4e23839146106b8578063cd0b1c9c146106fe578063cd8e55c01461072a578063d21816451461075d575f80fd5b8063ad3cb1cc116100f9578063ad3cb1cc146105e2578063ad82e3cd14610612578063b15c7da314610631578063b5b0c6b114610652578063bf7e214f14610685575f80fd5b80638f4988ef146105185780638fb3603714610537578063984ba174146105645780639f23d3eb14610583578063a1873ca5146105af575f80fd5b8063532329ca116101c05780636821ea39116101855780636821ea3914610488578063708ddb4e146104a75780637a4c9767146104bb5780637a9e5e4b146104da5780638e6628fb146104f9575f80fd5b8063532329ca146103d5578063582115fb146103e957806359579342146104415780635de814a61461045557806363f27a0d14610469575f80fd5b80633e68b094116102065780633e68b0941461033157806348c1edf1146103645780634f1ef28614610377578063517379211461038a57806352d1902d146103b3575f80fd5b80630195c505146102425780630575c0a91461029257806322dbefbb146102c55780632c8a54bf146102e45780632ed4446a14610310575b5f80fd5b34801561024d575f80fd5b506102757f000000000000000000000000000000000000000000000000000000000000000081565b6040516001600160a01b0390911681526020015b60405180910390f35b34801561029d575f80fd5b506102757f000000000000000000000000000000000000000000000000000000000000000081565b3480156102d0575f80fd5b506102756102df36600461406d565b610846565b3480156102ef575f80fd5b506103036102fe366004614098565b61086d565b6040516102899190614100565b34801561031b575f80fd5b5061032f61032a366004614112565b6108d7565b005b34801561033c575f80fd5b506102757f000000000000000000000000000000000000000000000000000000000000000081565b61032f610372366004614161565b6108f1565b61032f610385366004614235565b610d62565b348015610395575f80fd5b5061039e610d7d565b60408051928352602083019190915201610289565b3480156103be575f80fd5b506103c7610e7f565b604051908152602001610289565b3480156103e0575f80fd5b5061032f610e9a565b3480156103f4575f80fd5b50610408610403366004614098565b610ea5565b6040805182516001600160401b03908116825260208085015190911690820152918101516001600160601b031690820152606001610289565b34801561044c575f80fd5b506103c7610f2e565b348015610460575f80fd5b506103c7610f42565b348015610474575f80fd5b5061032f610483366004614308565b610f56565b348015610493575f80fd5b5061032f6104a236600461438c565b6112a5565b3480156104b2575f80fd5b506103c761148c565b3480156104c6575f80fd5b5061032f6104d53660046143f9565b6114a0565b3480156104e5575f80fd5b5061032f6104f4366004614098565b61165d565b348015610504575f80fd5b506103c761051336600461406d565b6116e4565b348015610523575f80fd5b506103c7610532366004614424565b611702565b348015610542575f80fd5b5061054b61178f565b6040516001600160e01b03199091168152602001610289565b34801561056f575f80fd5b5061032f61057e36600461406d565b6117c5565b34801561058e575f80fd5b506105a261059d3660046144b6565b6117da565b604051610289919061456c565b3480156105ba575f80fd5b506102757f000000000000000000000000000000000000000000000000000000000000000081565b3480156105ed575f80fd5b50610303604051806040016040528060058152602001640352e302e360dc1b81525081565b34801561061d575f80fd5b5061032f61062c36600461457e565b61193b565b34801561063c575f80fd5b50610645611aed565b60405161028991906145ef565b34801561065d575f80fd5b506102757f000000000000000000000000000000000000000000000000000000000000000081565b348015610690575f80fd5b50610275611b4b565b3480156106a4575f80fd5b5061032f6106b3366004614098565b611b66565b3480156106c3575f80fd5b506106d76106d236600461406d565b611cd8565b6040805182516001600160801b039081168252602093840151169281019290925201610289565b348015610709575f80fd5b5061071d61071836600461406d565b611d30565b6040516102899190614601565b348015610735575f80fd5b506102757f000000000000000000000000000000000000000000000000000000000000000081565b348015610768575f80fd5b5061077c610777366004614670565b611f22565b6040516102899493929190614693565b348015610797575f80fd5b506103c76107a636600461406d565b612142565b3480156107b6575f80fd5b5061032f6107c5366004614713565b612160565b3480156107d5575f80fd5b5061032f6107e43660046147a4565b6129a7565b3480156107f4575f80fd5b5061032f61080336600461406d565b6129eb565b348015610813575f80fd5b506103c7610822366004614098565b6129fd565b348015610832575f80fd5b5061027561084136600461406d565b612a39565b5f80610850612a4c565b5f938452600501602052505060409020546001600160a01b031690565b6060816001600160a01b031663563967156040518163ffffffff1660e01b81526004015f60405180830381865afa1580156108aa573d5f803e3d5ffd5b505050506040513d5f823e601f3d908101601f191682016040526108d19190810190614824565b92915050565b6108e3335b5f36612a70565b6108ed8282612b66565b5050565b6108fa336108dc565b5f610903612a4c565b905060208201351580159061091b5750602083013515155b801561092657505f34115b156109445760405163090ac0d760e21b815260040160405180910390fd5b61094f818686612c45565b5f8061095e60a0880188614855565b90501161097357671bc16d674ec8000061097d565b670de0b6b3a76400005b905060208301351580159061099457506020840135155b80156109a05750803414155b156109be5760405163090ac0d760e21b815260040160405180910390fd5b5f6020850135156109cf57346109d9565b6109d982346148ab565b90505f84602001355f03610a785760405163af03cbd160e01b81523060048201527f00000000000000000000000000000000000000000000000000000000000000006001600160a01b03169063af03cbd190849060240160206040518083038185885af1158015610a4c573d5f803e3d5ffd5b50505050506040513d601f19601f82011682018060405250810190610a7191906148be565b9050610b3f565b610aa27f000000000000000000000000000000000000000000000000000000000000000086612e37565b506040516323b872dd60e01b8152336004820152306024820152602085013560448201819052907f00000000000000000000000000000000000000000000000000000000000000006001600160a01b0316906323b872dd906064016020604051808303815f875af1158015610b19573d5f803e3d5ffd5b505050506040513d601f19601f82011682018060405250810190610b3d91906148d5565b505b8360080154811015610b6457604051634ae00fb160e11b815260040160405180910390fd5b5f86602001355f03610c0157604051631696d40360e11b81523060048201527f00000000000000000000000000000000000000000000000000000000000000006001600160a01b031690632d2da80690869060240160206040518083038185885af1158015610bd5573d5f803e3d5ffd5b50505050506040513d601f19601f82011682018060405250810190610bfa91906148be565b9050610d4a565b6040516363737ac960e11b8152600481018590527f00000000000000000000000000000000000000000000000000000000000000006001600160a01b03169063c6e6f59290602401602060405180830381865afa158015610c64573d5f803e3d5ffd5b505050506040513d601f19601f82011682018060405250810190610c8891906148be565b9050610cb47f000000000000000000000000000000000000000000000000000000000000000088612e37565b6040516323b872dd60e01b8152336004820152306024820152604481018290527f00000000000000000000000000000000000000000000000000000000000000006001600160a01b0316906323b872dd906064016020604051808303815f875af1158015610d24573d5f803e3d5ffd5b505050506040513d601f19601f82011682018060405250810190610d4891906148d5565b505b610d57858a838b86612ee9565b505050505050505050565b610d6a6131a1565b610d7382613245565b6108ed828261324e565b5f805f610d88612a4c565b60018101548154919250905f610d9e82846148f0565b90505f84610dac8486614917565b81548110610dbc57610dbc61492a565b905f5260205f20015490505b81841015610e60575f81815260038601602052604090205460015f83815260048881016020908152604080842086855290915290912060010154600160a01b900460ff1690811115610e1c57610e1c6144d6565b03610e2e579097909650945050505050565b60019094019385610e3f8587614917565b81548110610e4f57610e4f61492a565b905f5260205f200154915050610dc8565b506c4e4f5f56414c494441544f525360981b965f199650945050505050565b5f610e8861330a565b505f805160206152ad83398151915290565b610ea3336108dc565b565b604080516060810182525f8082526020820181905291810182905290610ec9612a4c565b6001600160a01b03939093165f90815260079093016020908152604093849020845160608101865290546001600160401b038082168352600160401b82041692820192909252600160801b9091046001600160601b0316938101939093525090919050565b5f80610f38612a4c565b6009015492915050565b5f80610f4c612a4c565b6001015492915050565b610f5f336108dc565b5f610f68612a4c565b5f858152600382016020908152604080832054600480860184528285208286529093529281902054905163d4feed0160e01b815293945091926001600160a01b03928316927f0000000000000000000000000000000000000000000000000000000000000000169163d4feed0191610fe8918a9187918b918b91016149f7565b5f6040518083038186803b158015610ffe575f80fd5b505afa158015611010573d5f803e3d5ffd5b505050506009830154604051630852cd8d60e31b8152600481018290527f00000000000000000000000000000000000000000000000000000000000000006001600160a01b0316906342966c68906024015f604051808303815f87803b158015611078575f80fd5b505af115801561108a573d5f803e3d5ffd5b5050505061109781613353565b6001600160a01b0383165f908152600786016020526040902080546010906110d0908490600160801b90046001600160601b0316614a20565b82546001600160601b039182166101009390930a9283029190920219909116179055506001600160a01b0382165f9081526007850160205260409020805460089061112b906001600160401b03600160401b90910416614a47565b82546001600160401b039182166101009390930a92830291909202199091161790555f878152600485810160209081526040808420878552825280842060018101805460ff60a01b1916600160a11b17905554815163a9059cbb60e01b81526001600160a01b0388811695820195909552600160a01b9091046001600160601b0316602482015290517f00000000000000000000000000000000000000000000000000000000000000009093169363a9059cbb936044808401949391929183900301908290875af1158015611202573d5f803e3d5ffd5b505050506040513d601f19601f8201168201806040525081019061122691906148d5565b50611231848861338a565b5f878152600385016020908152604080832080546001019055600487018252808320868452909152908190209051889185917f088dc5dc64f3e8df8da5140a284d3018a717d6b009e605513bb28a2b466d38ee9161129491600290910190614b13565b60405180910390a350505050505050565b6112ae336108dc565b7f00000000000000000000000000000000000000000000000000000000000000006001600160a01b031663c5f2892f6040518163ffffffff1660e01b8152600401602060405180830381865afa15801561130a573d5f803e3d5ffd5b505050506040513d601f19601f8201168201806040525081019061132e91906148be565b811461134d5760405163c603177160e01b815260040160405180910390fd5b5f611356612a4c565b90505f80611362610d7d565b90925090506113728160016148f0565b5f83815260038501602052604090205560018084018054909101905561139d8383838b8b8b8b613432565b5f82815260048401602090815260408083208484528252808320546001600160a01b03168084526007870190925290912080546008906113ec90600160401b90046001600160401b0316614a47565b82546101009290920a6001600160401b038181021990931691831602179091556001600160a01b0382165f9081526007860160205260408120805490926114339116614b25565b82546001600160401b039182166101009390930a9283029190920219909116179055505f9182526004929092016020908152604080832093835292905220600101805460ff60a01b1916600360a01b1790555050505050565b5f80611496612a4c565b6008015492915050565b6114a9336108dc565b6001600160a01b0381166114d05760405163e6c4247b60e01b815260040160405180910390fd5b6114fa7f000000000000000000000000000000000000000000000000000000000000000083612e37565b6040516323b872dd60e01b8152336004820152306024820152602083013560448201527f00000000000000000000000000000000000000000000000000000000000000006001600160a01b0316906323b872dd906064016020604051808303815f875af115801561156d573d5f803e3d5ffd5b505050506040513d601f19601f8201168201806040525081019061159191906148d5565b505f61159b612a4c565b90506115aa8360200135613353565b6001600160a01b0383165f908152600783016020526040902080546010906115e3908490600160801b90046001600160601b0316614b4a565b92506101000a8154816001600160601b0302191690836001600160601b03160217905550336001600160a01b0316826001600160a01b03167fd19b9bc208843da6deef01aa6dedd607204c4f8b6d02f79b60e326a8c6e2b6e8856020013560405161165091815260200190565b60405180910390a3505050565b33611666611b4b565b6001600160a01b0316816001600160a01b0316146116a65760405162d1953b60e31b81526001600160a01b03821660048201526024015b60405180910390fd5b816001600160a01b03163b5f036116db576040516361798f2f60e11b81526001600160a01b038316600482015260240161169d565b6108ed826137c0565b5f806116ee612a4c565b5f9384526003016020525050604090205490565b604051638f4988ef60e01b81525f9073654ec611b7de54141d9796b35fe22dfd0634f9f090638f4988ef90611745908a908a908a908a908a908a90600401614b6a565b602060405180830381865af4158015611760573d5f803e3d5ffd5b505050506040513d601f19601f8201168201806040525081019061178491906148be565b979650505050505050565b5f8051602061528d83398151915280545f9190600160a01b900460ff166117b6575f6117bf565b638fb3603760e01b5b91505090565b6117ce336108dc565b6117d781613820565b50565b61180b6040805160a0810182525f808252602082018190529181018290529060608201908152602001606081525090565b5f611814612a4c565b5f858152600482810160209081526040808420888552825292839020835160a08101855281546001600160a01b038082168352600160a01b918290046001600160601b031694830194909452600183015493841695820195909552949550926060850192910460ff169081111561188d5761188d6144d6565b600481111561189e5761189e6144d6565b81526020016002820180546118b290614a68565b80601f01602080910402602001604051908101604052809291908181526020018280546118de90614a68565b80156119295780601f1061190057610100808354040283529160200191611929565b820191905f5260205f20905b81548152906001019060200180831161190c57829003601f168201915b50505050508152505091505092915050565b611944336108dc565b5f61194d612a4c565b335f90815260078201602052604090205490915061197d906001600160401b03600160401b820481169116614bb2565b6001600160401b0316156119a45760405163111212a360e11b815260040160405180910390fd5b335f908152600782016020526040902080548491906010906119d7908490600160801b90046001600160601b0316614a20565b92506101000a8154816001600160601b0302191690836001600160601b031602179055507f00000000000000000000000000000000000000000000000000000000000000006001600160a01b031663a9059cbb83856040518363ffffffff1660e01b8152600401611a669291906001600160a01b039290921682526001600160601b0316602082015260400190565b6020604051808303815f875af1158015611a82573d5f803e3d5ffd5b505050506040513d601f19601f82011682018060405250810190611aa691906148d5565b506040516001600160601b03841681526001600160a01b0383169033907fdf7e884ecac11650e1285647b057fa733a7bb9f1da100e7a8c22aafe4bdf6f4090602001611650565b60605f611af8612a4c565b805460408051602080840282018101909252828152929350839190830182828015611b4057602002820191905f5260205f20905b815481526020019060010190808311611b2c575b505050505091505090565b5f8051602061528d833981519152546001600160a01b031690565b7ff0c57e16840df040f15088dc2f81fe391c3923bec73e23a9662efc9c229c6a008054600160401b810460ff1615906001600160401b03165f81158015611baa5750825b90505f826001600160401b03166001148015611bc55750303b155b905081158015611bd3575080155b15611bf15760405163f92ee8a960e01b815260040160405180910390fd5b845467ffffffffffffffff191660011785558315611c1b57845460ff60401b1916600160401b1785555b6001600160a01b038616611c425760405163e6c4247b60e01b815260040160405180910390fd5b611c4b86613894565b611c666e05055464645525f4d4f44554c455f3608c1b6138a5565b50611c7968018493fba64ef00000613a7c565b611c8a678ac7230489e80000613820565b8315611cd057845460ff60401b19168555604051600181527fc7f505b2f371ae2175ee4913f4499e1f2633a7b5936321eed1cdaeb6115181d29060200160405180910390a15b505050505050565b604080518082019091525f80825260208201525f611cf4612a4c565b5f93845260060160209081526040938490208451808601909552546001600160801b038082168652600160801b90910416908401525090919050565b60605f611d3b612a4c565b5f848152600282016020526040812054919250816001600160401b03811115611d6657611d666141cb565b604051908082528060200260200182016040528015611dc857816020015b611db56040805160a0810182525f808252602082018190529181018290529060608201908152602001606081525090565b815260200190600190039081611d845790505b5090505f5b82811015611f19575f868152600485810160209081526040808420858552825292839020835160a08101855281546001600160a01b038082168352600160a01b918290046001600160601b03169483019490945260018301549384169582019590955293909260608501929190910460ff1690811115611e4f57611e4f6144d6565b6004811115611e6057611e606144d6565b8152602001600282018054611e7490614a68565b80601f0160208091040260200160405190810160405280929190818152602001828054611ea090614a68565b8015611eeb5780601f10611ec257610100808354040283529160200191611eeb565b820191905f5260205f20905b815481529060010190602001808311611ece57829003601f168201915b505050505081525050828281518110611f0657611f0661492a565b6020908102919091010152600101611dcd565b50949350505050565b6060805f805f611f30612a4c565b90505f7f00000000000000000000000000000000000000000000000000000000000000006001600160a01b0316635dfb2a3f6040518163ffffffff1660e01b81526004015f60405180830381865afa158015611f8e573d5f803e3d5ffd5b505050506040513d5f823e601f3d908101601f19168201604052611fb59190810190614bf4565b5f89815260058401602052604081205491925090611fdb906001600160a01b031661086d565b90505f7f00000000000000000000000000000000000000000000000000000000000000006001600160a01b031663e75235b86040518163ffffffff1660e01b8152600401602060405180830381865afa15801561203a573d5f803e3d5ffd5b505050506040513d601f19601f8201168201806040525081019061205e91906148be565b90505f8961207457671bc16d674ec8000061207e565b670de0b6b3a76400005b90505f670de0b6b3a76400007f00000000000000000000000000000000000000000000000000000000000000006001600160a01b031663698c65046040518163ffffffff1660e01b8152600401602060405180830381865afa1580156120e6573d5f803e3d5ffd5b505050506040513d601f19601f8201168201806040525081019061210a91906148be565b87600801546121199190614c9d565b6121239190614cb4565b61212d90836148f0565b949c939b509199509297509095505050505050565b5f8061214c612a4c565b5f9384526002016020525050604090205490565b612169336108dc565b604051630b6a5a6960e41b81526001600160a01b037f0000000000000000000000000000000000000000000000000000000000000000169063b6a5a690906121bb908790879087908790600401614cc7565b5f604051808303815f87803b1580156121d2575f80fd5b505af11580156121e4573d5f803e3d5ffd5b505050505f6121f1612a4c565b905061220e60405180604001604052805f81526020015f81525090565b5f856001600160401b03811115612227576122276141cb565b60405190808252806020026020018201604052801561226b57816020015b604080518082019091525f80825260208201528152602001906001900390816122455790505b5090505f5b868110156125d3575f846004015f8a8a858181106122905761229061492a565b905060e002016080013581526020019081526020015f205f8a8a858181106122ba576122ba61492a565b905060e0020160a0013581526020019081526020015f209050600360048111156122e6576122e66144d6565b6001820154600160a01b900460ff166004811115612306576123066144d6565b14612334576001810154604051630c00564760e21b815261169d91600160a01b900460ff1690600401614d64565b805483516001600160a01b03909116908490849081106123565761235661492a565b6020908102919091018101516001600160a01b0390921691015280546001600160601b03600160a01b909104165f6123ae8b8b868181106123995761239961492a565b905060e00201836001600160601b0316613af0565b90505f6123f0888787815181106123c7576123c761492a565b6020026020010151602001518e8e898181106123e5576123e561492a565b905060e00201613bcc565b9050818760200181815161240491906148f0565b9052508651819088906124189083906148f0565b90525061242e826001600160601b0385166148ab565b8686815181106124405761244061492a565b6020908102919091010151528b8b8681811061245e5761245e61492a565b905060e00201608001358c8c8781811061247a5761247a61492a565b905060e0020160a001357ff435da9e3aeccc40d39fece7829f9941965ceee00d31fa7a89d608a273ea906e8660020185856040516124ba93929190614d72565b60405180910390a36124e7888d8d888181106124d8576124d861492a565b905060e002016080013561338a565b6124f081613353565b84546001600160a01b03165f90815260078a0160205260409020805460109061252a908490600160801b90046001600160601b0316614a20565b82546001600160601b039182166101009390930a92830291909202199091161790555083546001600160a01b03165f9081526007890160205260408120805490919061257e906001600160401b0316614a47565b82546001600160401b039182166101009390930a92830291909202199091161790555f8085556001850180546001600160a81b03191690556125c4906002860190613fe1565b50505050806001019050612270565b508151604051630852cd8d60e31b815260048101919091527f00000000000000000000000000000000000000000000000000000000000000006001600160a01b0316906342966c68906024015f604051808303815f87803b158015612636575f80fd5b505af1158015612648573d5f803e3d5ffd5b5050506020830151604051630852cd8d60e31b81526001600160a01b037f00000000000000000000000000000000000000000000000000000000000000001692506342966c689161269f9160040190815260200190565b5f604051808303815f87803b1580156126b6575f80fd5b505af11580156126c8573d5f803e3d5ffd5b50506040516301d51d9b60e31b8152600481018990527f00000000000000000000000000000000000000000000000000000000000000006001600160a01b03169250630ea8ecd891506024015f604051808303815f87803b15801561272b575f80fd5b505af115801561273d573d5f803e3d5ffd5b505050505f5b8681101561299d575f6801bc16d674ec8000008989848181106127685761276861492a565b905060e0020160c0013511612798578888838181106127895761278961492a565b905060e0020160c001356127a3565b6801bc16d674ec8000005b90505f8989848181106127b8576127b861492a565b6127ce92602060e0909202019081019150614098565b60405163036df97d60e51b81526001600160a01b037f00000000000000000000000000000000000000000000000000000000000000008116600483015260248201859052606060448301525f60648301529190911690636dbf2fa0906084015f604051808303815f875af1158015612848573d5f803e3d5ffd5b505050506040513d5f823e601f3d908101601f1916820160405261286f9190810190614d96565b509050806128905760405163312d207360e11b815260040160405180910390fd5b8383815181106128a2576128a261492a565b60200260200101515f01515f036128ba575050612995565b7f00000000000000000000000000000000000000000000000000000000000000006001600160a01b031663a9059cbb8585815181106128fb576128fb61492a565b6020026020010151602001518686815181106129195761291961492a565b6020908102919091010151516040516001600160e01b031960e085901b1681526001600160a01b03909216600483015260248201526044016020604051808303815f875af115801561296d573d5f803e3d5ffd5b505050506040513d601f19601f8201168201806040525081019061299191906148d5565b5050505b600101612743565b5050505050505050565b6129b0336108dc565b6108ed8282808060200260200160405190810160405280939291908181526020018383602002808284375f92019190915250613c5992505050565b6129f4336108dc565b6117d781613a7c565b5f80612a07612a4c565b6001600160a01b039093165f9081526007909301602052505060409020546001600160601b03600160801b9091041690565b5f612a43336108dc565b6108d1826138a5565b7fb8d3716136db480afe9a80da6be84f994509ecf9515ed14d03024589b5f2bd0090565b5f8051602061528d8339815191525f80612aa8612a8b611b4b565b8730612a9a60045f8a8c614de3565b612aa391614e0a565b613cb1565b9150915081611cd05763ffffffff811615612b4357825460ff60a01b1916600160a01b178355612ad6611b4b565b6001600160a01b03166394c7d7ee8787876040518463ffffffff1660e01b8152600401612b0593929190614e3a565b5f604051808303815f87803b158015612b1c575f80fd5b505af1158015612b2e573d5f803e3d5ffd5b5050845460ff60a01b1916855550611cd09050565b60405162d1953b60e31b81526001600160a01b038716600482015260240161169d565b5f612b6f612a4c565b5f8481526006820160205260409020549091506001600160801b03600160801b90910481169083161015612bb65760405163b75c578160e01b815260040160405180910390fd5b5f8381526006820160209081526040918290205482516001600160801b039182168152908516918101919091527f21e92cbdc47ef718b9c77ea6a6ee50ff4dd6362ee22041ab77a46dacb93f5355910160405180910390a15f928352600601602052604090912080546fffffffffffffffffffffffffffffffff19166001600160801b03909216919091179055565b5f8181526006840160205260409020546001600160801b0380821691612c7591600160801b909104166001614e5e565b6001600160801b03161115612c9d5760405163b75c578160e01b815260040160405180910390fd5b6030612ca98380614855565b905014612cc957604051637eef796760e01b815260040160405180910390fd5b7f00000000000000000000000000000000000000000000000000000000000000006001600160a01b0316630665f04b6040518163ffffffff1660e01b81526004015f60405180830381865afa158015612d24573d5f803e3d5ffd5b505050506040513d5f823e601f3d908101601f19168201604052612d4b9190810190614e7e565b51612d596060840184614f07565b905014612d7957604051632c8f9aa360e01b815260040160405180910390fd5b60307f00000000000000000000000000000000000000000000000000000000000000006001600160a01b031663e75235b86040518163ffffffff1660e01b8152600401602060405180830381865afa158015612dd7573d5f803e3d5ffd5b505050506040513d601f19601f82011682018060405250810190612dfb91906148be565b612e059190614c9d565b612e126080840184614855565b905014612e325760405163466f535360e11b815260040160405180910390fd5b505050565b6001600160a01b03821663d505accf333060208501358535612e5f6060880160408901614f4c565b6040516001600160e01b031960e088901b1681526001600160a01b0395861660048201529490931660248501526044840191909152606483015260ff166084820152606084013560a4820152608084013560c482015260e4015f604051808303815f87803b158015612ecf575f80fd5b505af1925050508015612ee0575060015b156108ed575050565b5f828152600286016020908152604080832054815160a0810183523381526001600160601b0388168185015286855260058a0190935292819020546001600160a01b0316908201526060810160018152602001612f468780614855565b8080601f0160208091040260200160405190810160405280939291908181526020018383808284375f9201829052509390945250508581526004898101602090815260408084208785528252928390208551918601516001600160a01b03928316600160a01b6001600160601b039092168202178255938601516001820180546001600160a01b031981169290941691821781556060880151929650919491936001600160a81b031990931617918490811115613005576130056144d6565b02179055506080820151600282019061301e9082614fb7565b5090505061302b82613353565b335f9081526007880160205260409020805460109061305b908490600160801b90046001600160601b0316614b4a565b82546001600160601b039182166101009390930a928302919092021990911617905550335f908152600787016020908152604080832080546001600160401b03600160401b80830482166001908101909216026fffffffffffffffff0000000000000000199092169190911790915586845260028a01835281842080548201905560068a018352928190208054600160801b8082046001600160801b039081169096018616810291861691909117918290559151919004909216825284917fc06afc2b3c88873a9be580de9bbbcc7fea3027ef0c25fd75d5411ed3195abcec910160405180910390a282817fc73344cf227e056eee8d82aee54078c9b55323b61d17f61587eb570873f8e3196131718880614855565b5f61317f60a08c018c614855565b90501160405161319193929190615072565b60405180910390a3505050505050565b306001600160a01b037f000000000000000000000000000000000000000000000000000000000000000016148061322757507f00000000000000000000000000000000000000000000000000000000000000006001600160a01b031661321b5f805160206152ad833981519152546001600160a01b031690565b6001600160a01b031614155b15610ea35760405163703e46dd60e11b815260040160405180910390fd5b6117d7336108dc565b816001600160a01b03166352d1902d6040518163ffffffff1660e01b8152600401602060405180830381865afa9250505080156132a8575060408051601f3d908101601f191682019092526132a5918101906148be565b60015b6132d057604051634c9c8ce360e01b81526001600160a01b038316600482015260240161169d565b5f805160206152ad833981519152811461330057604051632a87526960e21b81526004810182905260240161169d565b612e328383613db9565b306001600160a01b037f00000000000000000000000000000000000000000000000000000000000000001614610ea35760405163703e46dd60e11b815260040160405180910390fd5b5f6001600160601b03821115613386576040516306dfcc6560e41b8152606060048201526024810183905260440161169d565b5090565b5f81815260068301602052604090208054600191906010906133bd908490600160801b90046001600160801b0316615097565b82546101009290920a6001600160801b038181021990931691831602179091555f838152600685016020908152604091829020549151600160801b90920490921681528392507fc06afc2b3c88873a9be580de9bbbcc7fea3027ef0c25fd75d5411ed3195abcec910160405180910390a25050565b5f86815260048801602090815260408083208884529091528120600201805461345a90614a68565b80601f016020809104026020016040519081016040528092919081815260200182805461348690614a68565b80156134d15780601f106134a8576101008083540402835291602001916134d1565b820191905f5260205f20905b8154815290600101906020018083116134b457829003601f168201915b5050505f8a815260048c01602090815260408083208c84529091528120600101549394509261350b92506001600160a01b0316905061086d565b90505f73654ec611b7de54141d9796b35fe22dfd0634f9f0638f4988ef848787866040518563ffffffff1660e01b815260040161354b94939291906150b7565b602060405180830381865af4158015613566573d5f803e3d5ffd5b505050506040513d601f19601f8201168201806040525081019061358a91906148be565b90507f00000000000000000000000000000000000000000000000000000000000000006001600160a01b031663ae9865b48985888887878e8e6040518963ffffffff1660e01b81526004016135e69897969594939291906150f0565b5f6040518083038186803b1580156135fc575f80fd5b505afa15801561360e573d5f803e3d5ffd5b5050505f8a815260058c01602052604090819020549051637b1a490960e01b81526001600160a01b03918216600482018190526801bc16d674ec800000602483015292507f000000000000000000000000000000000000000000000000000000000000000090911690637b1a4909906044015f604051808303815f87803b158015613697575f80fd5b505af11580156136a9573d5f803e3d5ffd5b5050505089897f96cbbd073e24b0a7d0cab7dc347c239e52be23c1b44ce240b3b929821fed19a4866040516136de9190614100565b60405180910390a37f00000000000000000000000000000000000000000000000000000000000000006001600160a01b0316630f29b8676040518163ffffffff1660e01b81526004015f604051808303815f87803b15801561373e575f80fd5b505af1158015613750573d5f803e3d5ffd5b5050604051630f1a3c7560e01b81526001600160a01b0384169250630f1a3c7591506137869087908a908a908890600401615159565b5f604051808303815f87803b15801561379d575f80fd5b505af11580156137af573d5f803e3d5ffd5b505050505050505050505050505050565b5f8051602061528d83398151915280546001600160a01b0383166001600160a01b03199091168117825560408051918252517f2f658b440c35314f52658ea8a740e05b284cdc84dc9ae01e891f21b8933e7cad9181900360200190a15050565b5f613829612a4c565b9050806008015482111561385057604051634ae00fb160e11b815260040160405180910390fd5b600981015460408051918252602082018490527ffceca97b5d1d1164f9a15e42f38eaf4a6e760d8505f06161a258d4bf21cc4ee7910160405180910390a160090155565b61389c613e0e565b6117d781613e57565b5f806138af612a4c565b5f8481526005820160205260409020549091506001600160a01b0316156138e957604051632157f2d760e01b815260040160405180910390fd5b60405163c7d1f67f60e01b8152600481018490525f907f00000000000000000000000000000000000000000000000000000000000000006001600160a01b03169063c7d1f67f906024016020604051808303815f875af115801561394f573d5f803e3d5ffd5b505050506040513d601f19601f820116820180604052508101906139739190615190565b5f858152600584016020908152604080832080546001600160a01b0319166001600160a01b03861690811790915586546001810188558785529284209092018890558051635639671560e01b8152905193945091929091635639671591600480830192869291908290030181865afa1580156139f1573d5f803e3d5ffd5b505050506040513d5f823e601f3d908101601f19168201604052613a189190810190614824565b613a21906151ab565b604080516001600160a01b03851681526020810183905291925086917f8ad2a9260a8e9a01d1ccd66b3875bcbdf8c4d0c552bc51a7d2125d4146e1d2d6910160405180910390a2613a74856101f4612b66565b509392505050565b5f613a85612a4c565b90508060090154821015613aac57604051634ae00fb160e11b815260040160405180910390fd5b600881015460408051918252602082018490527fc6f97db308054b44394df54aa17699adff6b9996e9cffb4dcbcb127e20b68abc910160405180910390a160080155565b5f613b0160808401606085016151ce565b15613b0d5750806108d1565b6801bc16d674ec8000008360c0013510156108d1576001600160a01b037f00000000000000000000000000000000000000000000000000000000000000001663699beb59613b6860c08601356801bc16d674ec8000006148ab565b6040518263ffffffff1660e01b8152600401613b8691815260200190565b602060405180830381865afa158015613ba1573d5f803e3d5ffd5b505050506040513d601f19601f82011682018060405250810190613bc591906148be565b9392505050565b5f80613be0602084013560408501356148ab565b90505f613bf482660fca32dc55c71d614c9d565b60088701546001600160a01b0387165f90815260078901602052604090205491925090600160801b90046001600160601b031682821115613c4d5781811015613c42579350613bc592505050565b509250613bc5915050565b50909695505050505050565b5f613c62612a4c565b90507fd4c9924bd67ff5bd900dc6b1e03b839c6ffa35386096b0c2a17c03638fa4ebff815f0183604051613c979291906151e9565b60405180910390a18151612e329082906020850190614018565b6040516001600160a01b03848116602483015283811660448301526001600160e01b0319831660648301525f9182918291829189169060840160408051601f198184030181529181526020820180516001600160e01b031663b700961360e01b17905251613d1f919061523c565b5f60405180830381855afa9150503d805f8114613d57576040519150601f19603f3d011682016040523d82523d5f602084013e613d5c565b606091505b50915091508115613dae576040815110613d8e5780806020019051810190613d849190615257565b9094509250613dae565b6020815110613dae5780806020019051810190613dab91906148d5565b93505b505094509492505050565b613dc282613e68565b6040516001600160a01b038316907fbc7cd75a20ee27fd9adebab32041f755214dbc6bffa90cc0225b39da2e5c2d3b905f90a2805115613e0657612e328282613ecb565b6108ed613f3d565b7ff0c57e16840df040f15088dc2f81fe391c3923bec73e23a9662efc9c229c6a0054600160401b900460ff16610ea357604051631afcd79f60e31b815260040160405180910390fd5b613e5f613e0e565b6117d7816137c0565b806001600160a01b03163b5f03613e9d57604051634c9c8ce360e01b81526001600160a01b038216600482015260240161169d565b5f805160206152ad83398151915280546001600160a01b0319166001600160a01b0392909216919091179055565b60605f80846001600160a01b031684604051613ee7919061523c565b5f60405180830381855af49150503d805f8114613f1f576040519150601f19603f3d011682016040523d82523d5f602084013e613f24565b606091505b5091509150613f34858383613f5c565b95945050505050565b3415610ea35760405163b398979f60e01b815260040160405180910390fd5b606082613f7157613f6c82613fb8565b613bc5565b8151158015613f8857506001600160a01b0384163b155b15613fb157604051639996b31560e01b81526001600160a01b038516600482015260240161169d565b5080613bc5565b805115613fc85780518082602001fd5b604051630a12f52160e11b815260040160405180910390fd5b508054613fed90614a68565b5f825580601f10613ffc575050565b601f0160209004905f5260205f20908101906117d79190614059565b828054828255905f5260205f20908101928215614051579160200282015b82811115614051578251825591602001919060010190614036565b506133869291505b5b80821115613386575f815560010161405a565b5f6020828403121561407d575f80fd5b5035919050565b6001600160a01b03811681146117d7575f80fd5b5f602082840312156140a8575f80fd5b8135613bc581614084565b5f5b838110156140cd5781810151838201526020016140b5565b50505f910152565b5f81518084526140ec8160208601602086016140b3565b601f01601f19169290920160200192915050565b602081525f613bc560208301846140d5565b5f8060408385031215614123575f80fd5b8235915060208301356001600160801b0381168114614140575f80fd5b809150509250929050565b5f60a0828403121561415b575f80fd5b50919050565b5f805f806101808587031215614175575f80fd5b84356001600160401b0381111561418a575f80fd5b850160c0818803121561419b575f80fd5b9350602085013592506141b1866040870161414b565b91506141c08660e0870161414b565b905092959194509250565b634e487b7160e01b5f52604160045260245ffd5b604051601f8201601f191681016001600160401b0381118282101715614207576142076141cb565b604052919050565b5f6001600160401b03821115614227576142276141cb565b50601f01601f191660200190565b5f8060408385031215614246575f80fd5b823561425181614084565b915060208301356001600160401b0381111561426b575f80fd5b8301601f8101851361427b575f80fd5b803561428e6142898261420f565b6141df565b8181528660208385010111156142a2575f80fd5b816020840160208301375f602083830101528093505050509250929050565b5f8083601f8401126142d1575f80fd5b5081356001600160401b038111156142e7575f80fd5b6020830191508360208260051b8501011115614301575f80fd5b9250929050565b5f805f6040848603121561431a575f80fd5b8335925060208401356001600160401b03811115614336575f80fd5b614342868287016142c1565b9497909650939450505050565b5f8083601f84011261435f575f80fd5b5081356001600160401b03811115614375575f80fd5b602083019150836020828501011115614301575f80fd5b5f805f805f606086880312156143a0575f80fd5b85356001600160401b03808211156143b6575f80fd5b6143c289838a016142c1565b909750955060208801359150808211156143da575f80fd5b506143e78882890161434f565b96999598509660400135949350505050565b5f8060c0838503121561440a575f80fd5b614414848461414b565b915060a083013561414081614084565b5f805f805f8060608789031215614439575f80fd5b86356001600160401b038082111561444f575f80fd5b61445b8a838b0161434f565b90985096506020890135915080821115614473575f80fd5b61447f8a838b0161434f565b90965094506040890135915080821115614497575f80fd5b506144a489828a0161434f565b979a9699509497509295939492505050565b5f80604083850312156144c7575f80fd5b50508035926020909101359150565b634e487b7160e01b5f52602160045260245ffd5b6005811061450657634e487b7160e01b5f52602160045260245ffd5b9052565b5f60018060a01b038083511684526001600160601b03602084015116602085015280604084015116604085015250606082015161454a60608501826144ea565b50608082015160a0608085015261456460a08501826140d5565b949350505050565b602081525f613bc5602083018461450a565b5f806040838503121561458f575f80fd5b82356001600160601b03811681146145a5575f80fd5b9150602083013561414081614084565b5f815180845260208085019450602084015f5b838110156145e4578151875295820195908201906001016145c8565b509495945050505050565b602081525f613bc560208301846145b5565b5f60208083016020845280855180835260408601915060408160051b8701019250602087015f5b8281101561465657603f1988860301845261464485835161450a565b94509285019290850190600101614628565b5092979650505050505050565b80151581146117d7575f80fd5b5f8060408385031215614681575f80fd5b82359150602083013561414081614663565b5f608082016080835280875180835260a08501915060a08160051b86010192506020808a015f5b838110156146e857609f198887030185526146d68683516140d5565b955093820193908201906001016146ba565b505050505082810360208401526146ff81876140d5565b604084019590955250506060015292915050565b5f805f8060408587031215614726575f80fd5b84356001600160401b038082111561473c575f80fd5b818701915087601f83011261474f575f80fd5b81358181111561475d575f80fd5b88602060e083028501011115614771575f80fd5b60209283019650945090860135908082111561478b575f80fd5b50614798878288016142c1565b95989497509550505050565b5f80602083850312156147b5575f80fd5b82356001600160401b038111156147ca575f80fd5b6147d6858286016142c1565b90969095509350505050565b5f82601f8301126147f1575f80fd5b81516147ff6142898261420f565b818152846020838601011115614813575f80fd5b6145648260208301602087016140b3565b5f60208284031215614834575f80fd5b81516001600160401b03811115614849575f80fd5b614564848285016147e2565b5f808335601e1984360301811261486a575f80fd5b8301803591506001600160401b03821115614883575f80fd5b602001915036819003821315614301575f80fd5b634e487b7160e01b5f52601160045260245ffd5b818103818111156108d1576108d1614897565b5f602082840312156148ce575f80fd5b5051919050565b5f602082840312156148e5575f80fd5b8151613bc581614663565b808201808211156108d1576108d1614897565b634e487b7160e01b5f52601260045260245ffd5b5f8261492557614925614903565b500690565b634e487b7160e01b5f52603260045260245ffd5b81835281816020850137505f828201602090810191909152601f909101601f19169091010190565b5f838385526020808601955060208560051b830101845f5b878110156149ea57848303601f19018952813536889003601e190181126149a3575f80fd5b870184810190356001600160401b038111156149bd575f80fd5b8036038213156149cb575f80fd5b6149d685828461493e565b9a86019a945050509083019060010161497e565b5090979650505050505050565b848152836020820152606060408201525f614a16606083018486614966565b9695505050505050565b6001600160601b03828116828216039080821115614a4057614a40614897565b5092915050565b5f6001600160401b03821680614a5f57614a5f614897565b5f190192915050565b600181811c90821680614a7c57607f821691505b60208210810361415b57634e487b7160e01b5f52602260045260245ffd5b5f8154614aa681614a68565b808552602060018381168015614ac35760018114614add57614b08565b60ff1985168884015283151560051b880183019550614b08565b865f52825f205f5b85811015614b005781548a8201860152908301908401614ae5565b890184019650505b505050505092915050565b602081525f613bc56020830184614a9a565b5f6001600160401b03808316818103614b4057614b40614897565b6001019392505050565b6001600160601b03818116838216019080821115614a4057614a40614897565b606081525f614b7d60608301888a61493e565b8281036020840152614b9081878961493e565b90508281036040840152614ba581858761493e565b9998505050505050505050565b6001600160401b03818116838216019080821115614a4057614a40614897565b5f6001600160401b03821115614bea57614bea6141cb565b5060051b60200190565b5f6020808385031215614c05575f80fd5b82516001600160401b0380821115614c1b575f80fd5b818501915085601f830112614c2e575f80fd5b8151614c3c61428982614bd2565b81815260059190911b83018401908481019088831115614c5a575f80fd5b8585015b83811015614c9057805185811115614c74575f80fd5b614c828b89838a01016147e2565b845250918601918601614c5e565b5098975050505050505050565b80820281158282048414176108d1576108d1614897565b5f82614cc257614cc2614903565b500490565b60408082528181018590525f90606080840188845b89811015614d4f578135614cef81614084565b6001600160a01b0316835260208281013590840152848201358584015283820135614d1981614663565b1515838501526080828101359084015260a0808301359084015260c0808301359084015260e09283019290910190600101614cdc565b50508481036020860152614ba5818789614966565b602081016108d182846144ea565b606081525f614d846060830186614a9a565b60208301949094525060400152919050565b5f8060408385031215614da7575f80fd5b8251614db281614663565b60208401519092506001600160401b03811115614dcd575f80fd5b614dd9858286016147e2565b9150509250929050565b5f8085851115614df1575f80fd5b83861115614dfd575f80fd5b5050820193919092039150565b6001600160e01b03198135818116916004851015614e325780818660040360031b1b83161692505b505092915050565b6001600160a01b03841681526040602082018190525f90613f34908301848661493e565b6001600160801b03818116838216019080821115614a4057614a40614897565b5f6020808385031215614e8f575f80fd5b82516001600160401b03811115614ea4575f80fd5b8301601f81018513614eb4575f80fd5b8051614ec261428982614bd2565b81815260059190911b82018301908381019087831115614ee0575f80fd5b928401925b82841015611784578351614ef881614084565b82529284019290840190614ee5565b5f808335601e19843603018112614f1c575f80fd5b8301803591506001600160401b03821115614f35575f80fd5b6020019150600581901b3603821315614301575f80fd5b5f60208284031215614f5c575f80fd5b813560ff81168114613bc5575f80fd5b601f821115612e3257805f5260205f20601f840160051c81016020851015614f915750805b601f840160051c820191505b81811015614fb0575f8155600101614f9d565b5050505050565b81516001600160401b03811115614fd057614fd06141cb565b614fe481614fde8454614a68565b84614f6c565b602080601f831160018114615017575f84156150005750858301515b5f19600386901b1c1916600185901b178555611cd0565b5f85815260208120601f198616915b8281101561504557888601518255948401946001909101908401615026565b508582101561506257878501515f19600388901b60f8161c191681555b5050505050600190811b01905550565b604081525f61508560408301858761493e565b90508215156020830152949350505050565b6001600160801b03828116828216039080821115614a4057614a40614897565b606081525f6150c960608301876140d5565b82810360208401526150dc81868861493e565b9050828103604084015261178481856140d5565b88815260c060208201525f61510860c083018a6140d5565b828103604084015261511b81898b61493e565b9050828103606084015261512f81886140d5565b905085608084015282810360a084015261514a818587614966565b9b9a5050505050505050505050565b606081525f61516b60608301876140d5565b828103602084015261517e81868861493e565b91505082604083015295945050505050565b5f602082840312156151a0575f80fd5b8151613bc581614084565b8051602080830151919081101561415b575f1960209190910360031b1b16919050565b5f602082840312156151de575f80fd5b8135613bc581614663565b5f6040820160408352808554808352606085019150865f526020925060205f205f5b828110156152275781548452928401926001918201910161520b565b5050508381036020850152614a1681866145b5565b5f825161524d8184602087016140b3565b9190910192915050565b5f8060408385031215615268575f80fd5b825161527381614663565b602084015190925063ffffffff81168114614140575f80fdfef3177357ab46d8af007ab3fdb9af81da189e1068fefdc0073dca88a2cab40a00360894a13ba1a3210667c828492db98dca3e2076cc3735a920a3ca505d382bbc","linkReferences":{}},"methodIdentifiers":{"BEACON_DEPOSIT_CONTRACT()":"b5b0c6b1","GUARDIAN_MODULE()":"a1873ca5","PUFFER_MODULE_MANAGER()":"0575c0a9","PUFFER_ORACLE()":"0195c505","PUFFER_VAULT()":"3e68b094","UPGRADE_INTERFACE_VERSION()":"ad3cb1cc","VALIDATOR_TICKET()":"cd8e55c0","authority()":"bf7e214f","batchHandleWithdrawals((address,uint256,uint256,bool,bytes32,uint256,uint256)[],bytes[])":"e241ef8d","changeMinimumVTAmount(uint256)":"e3721c52","createPufferModule(bytes32)":"faab1dd1","depositValidatorTickets((uint256,uint256,uint8,bytes32,bytes32),address)":"7a4c9767","getDepositDataRoot(bytes,bytes,bytes)":"8f4988ef","getMinimumVtAmount()":"708ddb4e","getModuleAddress(bytes32)":"22dbefbb","getModuleLimitInformation(bytes32)":"c4e23839","getModuleSelectIndex()":"5de814a6","getModuleWeights()":"b15c7da3","getNextValidatorToBeProvisionedIndex(bytes32)":"8e6628fb","getNextValidatorToProvision()":"51737921","getNodeInfo(address)":"582115fb","getPayload(bytes32,bool)":"d2181645","getPendingValidatorIndex(bytes32)":"daf4d90c","getVTPenalty()":"59579342","getValidatorInfo(bytes32,uint256)":"9f23d3eb","getValidatorTicketsBalance(address)":"ebb8e031","getValidators(bytes32)":"cd0b1c9c","getWithdrawalCredentials(address)":"2c8a54bf","initialize(address)":"c4d66de8","isConsumingScheduledOp()":"8fb36037","provisionNode(bytes[],bytes,bytes32)":"6821ea39","proxiableUUID()":"52d1902d","registerValidatorKey((bytes,bytes,bytes32,bytes[],bytes,bytes),bytes32,(uint256,uint256,uint8,bytes32,bytes32),(uint256,uint256,uint8,bytes32,bytes32))":"48c1edf1","revertIfPaused()":"532329ca","setAuthority(address)":"7a9e5e4b","setModuleWeights(bytes32[])":"e29b5da8","setVTPenalty(uint256)":"984ba174","setValidatorLimitPerModule(bytes32,uint128)":"2ed4446a","skipProvisioning(bytes32,bytes[])":"63f27a0d","upgradeToAndCall(address,bytes)":"4f1ef286","withdrawValidatorTickets(uint96,address)":"ad82e3cd"},"id":195}