{"abi":[{"type":"fallback","stateMutability":"payable"},{"type":"receive","stateMutability":"payable"},{"type":"function","name":"allowance","inputs":[{"name":"","type":"address","internalType":"address"},{"name":"","type":"address","internalType":"address"}],"outputs":[{"name":"","type":"uint256","internalType":"uint256"}],"stateMutability":"view"},{"type":"function","name":"approve","inputs":[{"name":"guy","type":"address","internalType":"address"},{"name":"wad","type":"uint256","internalType":"uint256"}],"outputs":[{"name":"","type":"bool","internalType":"bool"}],"stateMutability":"nonpayable"},{"type":"function","name":"balanceOf","inputs":[{"name":"","type":"address","internalType":"address"}],"outputs":[{"name":"","type":"uint256","internalType":"uint256"}],"stateMutability":"view"},{"type":"function","name":"burn","inputs":[{"name":"from","type":"address","internalType":"address"},{"name":"value","type":"uint256","internalType":"uint256"}],"outputs":[],"stateMutability":"nonpayable"},{"type":"function","name":"decimals","inputs":[],"outputs":[{"name":"","type":"uint8","internalType":"uint8"}],"stateMutability":"view"},{"type":"function","name":"deposit","inputs":[],"outputs":[],"stateMutability":"payable"},{"type":"function","name":"forceApproval","inputs":[{"name":"account","type":"address","internalType":"address"},{"name":"spender","type":"address","internalType":"address"},{"name":"amount","type":"uint256","internalType":"uint256"}],"outputs":[],"stateMutability":"nonpayable"},{"type":"function","name":"mint","inputs":[{"name":"to","type":"address","internalType":"address"},{"name":"value","type":"uint256","internalType":"uint256"}],"outputs":[],"stateMutability":"nonpayable"},{"type":"function","name":"name","inputs":[],"outputs":[{"name":"","type":"string","internalType":"string"}],"stateMutability":"view"},{"type":"function","name":"symbol","inputs":[],"outputs":[{"name":"","type":"string","internalType":"string"}],"stateMutability":"view"},{"type":"function","name":"totalSupply","inputs":[],"outputs":[{"name":"","type":"uint256","internalType":"uint256"}],"stateMutability":"view"},{"type":"function","name":"transfer","inputs":[{"name":"dst","type":"address","internalType":"address"},{"name":"wad","type":"uint256","internalType":"uint256"}],"outputs":[{"name":"","type":"bool","internalType":"bool"}],"stateMutability":"nonpayable"},{"type":"function","name":"transferFrom","inputs":[{"name":"src","type":"address","internalType":"address"},{"name":"dst","type":"address","internalType":"address"},{"name":"wad","type":"uint256","internalType":"uint256"}],"outputs":[{"name":"","type":"bool","internalType":"bool"}],"stateMutability":"nonpayable"},{"type":"function","name":"withdraw","inputs":[{"name":"wad","type":"uint256","internalType":"uint256"}],"outputs":[],"stateMutability":"nonpayable"},{"type":"event","name":"Approval","inputs":[{"name":"owner","type":"address","indexed":true,"internalType":"address"},{"name":"spender","type":"address","indexed":true,"internalType":"address"},{"name":"value","type":"uint256","indexed":false,"internalType":"uint256"}],"anonymous":false},{"type":"event","name":"Deposit","inputs":[{"name":"dst","type":"address","indexed":true,"internalType":"address"},{"name":"wad","type":"uint256","indexed":false,"internalType":"uint256"}],"anonymous":false},{"type":"event","name":"Transfer","inputs":[{"name":"from","type":"address","indexed":true,"internalType":"address"},{"name":"to","type":"address","indexed":true,"internalType":"address"},{"name":"value","type":"uint256","indexed":false,"internalType":"uint256"}],"anonymous":false},{"type":"event","name":"Withdrawal","inputs":[{"name":"src","type":"address","indexed":true,"internalType":"address"},{"name":"wad","type":"uint256","indexed":false,"internalType":"uint256"}],"anonymous":false}],"bytecode":{"object":"0x60c0604052600d60809081526c2bb930b83832b21022ba3432b960991b60a0525f9061002b908261010b565b506040805180820190915260048152630ae8aa8960e31b6020820152600190610054908261010b565b506002805460ff1916601217905534801561006d575f80fd5b506101ca565b634e487b7160e01b5f52604160045260245ffd5b600181811c9082168061009b57607f821691505b6020821081036100b957634e487b7160e01b5f52602260045260245ffd5b50919050565b601f82111561010657805f5260205f20601f840160051c810160208510156100e45750805b601f840160051c820191505b81811015610103575f81556001016100f0565b50505b505050565b81516001600160401b0381111561012457610124610073565b610138816101328454610087565b846100bf565b602080601f83116001811461016b575f84156101545750858301515b5f19600386901b1c1916600185901b1785556101c2565b5f85815260208120601f198616915b828110156101995788860151825594840194600190910190840161017a565b50858210156101b657878501515f19600388901b60f8161c191681555b505060018460011b0185555b505050505050565b610957806101d75f395ff3fe6080604052600436106100e0575f3560e01c806351bb10cf1161007e5780639dc29fac116100585780639dc29fac14610252578063a9059cbb14610271578063d0e30db0146100ef578063dd62ed3e14610290576100ef565b806351bb10cf146101f457806370a082311461021357806395d89b411461023e576100ef565b806323b872dd116100ba57806323b872dd1461016c5780632e1a7d4d1461018b578063313ce567146101aa57806340c10f19146101d5576100ef565b806306fdde03146100f7578063095ea7b31461012157806318160ddd14610150576100ef565b366100ef576100ed6102c6565b005b6100ed6102c6565b348015610102575f80fd5b5061010b610320565b60405161011891906107bc565b60405180910390f35b34801561012c575f80fd5b5061014061013b366004610823565b6103ab565b6040519015158152602001610118565b34801561015b575f80fd5b50475b604051908152602001610118565b348015610177575f80fd5b5061014061018636600461084b565b610417565b348015610196575f80fd5b506100ed6101a5366004610884565b6105c2565b3480156101b5575f80fd5b506002546101c39060ff1681565b60405160ff9091168152602001610118565b3480156101e0575f80fd5b506100ed6101ef366004610823565b610662565b3480156101ff575f80fd5b506100ed61020e36600461084b565b6106d3565b34801561021e575f80fd5b5061015e61022d36600461089b565b60036020525f908152604090205481565b348015610249575f80fd5b5061010b610733565b34801561025d575f80fd5b506100ed61026c366004610823565b610740565b34801561027c575f80fd5b5061014061028b366004610823565b6107a9565b34801561029b575f80fd5b5061015e6102aa3660046108b4565b600460209081525f928352604080842090915290825290205481565b335f90815260036020526040812080543492906102e49084906108f9565b909155505060405134815233907fe1fffcc4923d04b559f4d29a8bfc6cda04eb5b0d3c460751c2402c5c5cc9109c9060200160405180910390a2565b5f805461032c9061090c565b80601f01602080910402602001604051908101604052809291908181526020018280546103589061090c565b80156103a35780601f1061037a576101008083540402835291602001916103a3565b820191905f5260205f20905b81548152906001019060200180831161038657829003601f168201915b505050505081565b335f8181526004602090815260408083206001600160a01b038716808552925280832085905551919290917f8c5be1e5ebec7d5bd14f71427d1e84f3dd0314c0f7b2291e5b200ac8c7c3b925906104059086815260200190565b60405180910390a35060015b92915050565b6001600160a01b0383165f9081526003602052604081205482111561046a5760405162461bcd60e51b81526020600482015260056024820152643f3f3f3f3f60d81b604482015260640160405180910390fd5b6001600160a01b03841633148015906104a657506001600160a01b0384165f9081526004602090815260408083203384529091529020545f1914155b15610511576001600160a01b0384165f9081526004602090815260408083203384529091529020548211156104d9575f80fd5b6001600160a01b0384165f9081526004602090815260408083203384529091528120805484929061050b908490610944565b90915550505b6001600160a01b0384165f9081526003602052604081208054849290610538908490610944565b90915550506001600160a01b0383165f90815260036020526040812080548492906105649084906108f9565b92505081905550826001600160a01b0316846001600160a01b03167fddf252ad1be2c89b69c2b068fc378daa952ba7f163c4a11628f55a4df523b3ef846040516105b091815260200190565b60405180910390a35060019392505050565b335f908152600360205260409020548111156105dc575f80fd5b335f90815260036020526040812080548392906105fa908490610944565b9091555050604051339082156108fc029083905f818181858888f19350505050158015610629573d5f803e3d5ffd5b5060405181815233907f7fcf532c15f0a6db0bd6d0e038bea71d30d808c7d98cb3bf7268a95bf5081b659060200160405180910390a250565b6001600160a01b0382165f90815260036020526040812080548392906106899084906108f9565b90915550506040518181526001600160a01b038316905f907fddf252ad1be2c89b69c2b068fc378daa952ba7f163c4a11628f55a4df523b3ef906020015b60405180910390a35050565b6001600160a01b038381165f8181526004602090815260408083209487168084529482529182902085905590518481527f8c5be1e5ebec7d5bd14f71427d1e84f3dd0314c0f7b2291e5b200ac8c7c3b925910160405180910390a3505050565b6001805461032c9061090c565b6001600160a01b0382165f9081526003602052604081208054839290610767908490610944565b90915550506040518181525f906001600160a01b038416907fddf252ad1be2c89b69c2b068fc378daa952ba7f163c4a11628f55a4df523b3ef906020016106c7565b5f6107b5338484610417565b9392505050565b5f602080835283518060208501525f5b818110156107e8578581018301518582016040015282016107cc565b505f604082860101526040601f19601f8301168501019250505092915050565b80356001600160a01b038116811461081e575f80fd5b919050565b5f8060408385031215610834575f80fd5b61083d83610808565b946020939093013593505050565b5f805f6060848603121561085d575f80fd5b61086684610808565b925061087460208501610808565b9150604084013590509250925092565b5f60208284031215610894575f80fd5b5035919050565b5f602082840312156108ab575f80fd5b6107b582610808565b5f80604083850312156108c5575f80fd5b6108ce83610808565b91506108dc60208401610808565b90509250929050565b634e487b7160e01b5f52601160045260245ffd5b80820180821115610411576104116108e5565b600181811c9082168061092057607f821691505b60208210810361093e57634e487b7160e01b5f52602260045260245ffd5b50919050565b81810381811115610411576104116108e556","linkReferences":{}},"methodIdentifiers":{"allowance(address,address)":"dd62ed3e","approve(address,uint256)":"095ea7b3","balanceOf(address)":"70a08231","burn(address,uint256)":"9dc29fac","decimals()":"313ce567","deposit()":"d0e30db0","forceApproval(address,address,uint256)":"51bb10cf","mint(address,uint256)":"40c10f19","name()":"06fdde03","symbol()":"95d89b41","totalSupply()":"18160ddd","transfer(address,uint256)":"a9059cbb","transferFrom(address,address,uint256)":"23b872dd","withdraw(uint256)":"2e1a7d4d"},"id":145}