{"abi":[{"type":"constructor","inputs":[{"name":"guardianModule","type":"address","internalType":"address payable"},{"name":"treasury","type":"address","internalType":"address payable"},{"name":"pufferVault","type":"address","internalType":"address payable"},{"name":"pufferOracle","type":"address","internalType":"contract IPufferOracle"}],"stateMutability":"nonpayable"},{"type":"function","name":"DOMAIN_SEPARATOR","inputs":[],"outputs":[{"name":"","type":"bytes32","internalType":"bytes32"}],"stateMutability":"view"},{"type":"function","name":"GUARDIAN_MODULE","inputs":[],"outputs":[{"name":"","type":"address","internalType":"address payable"}],"stateMutability":"view"},{"type":"function","name":"PUFFER_ORACLE","inputs":[],"outputs":[{"name":"","type":"address","internalType":"contract IPufferOracle"}],"stateMutability":"view"},{"type":"function","name":"PUFFER_VAULT","inputs":[],"outputs":[{"name":"","type":"address","internalType":"address payable"}],"stateMutability":"view"},{"type":"function","name":"TREASURY","inputs":[],"outputs":[{"name":"","type":"address","internalType":"address payable"}],"stateMutability":"view"},{"type":"function","name":"UPGRADE_INTERFACE_VERSION","inputs":[],"outputs":[{"name":"","type":"string","internalType":"string"}],"stateMutability":"view"},{"type":"function","name":"allowance","inputs":[{"name":"owner","type":"address","internalType":"address"},{"name":"spender","type":"address","internalType":"address"}],"outputs":[{"name":"","type":"uint256","internalType":"uint256"}],"stateMutability":"view"},{"type":"function","name":"approve","inputs":[{"name":"spender","type":"address","internalType":"address"},{"name":"value","type":"uint256","internalType":"uint256"}],"outputs":[{"name":"","type":"bool","internalType":"bool"}],"stateMutability":"nonpayable"},{"type":"function","name":"authority","inputs":[],"outputs":[{"name":"","type":"address","internalType":"address"}],"stateMutability":"view"},{"type":"function","name":"balanceOf","inputs":[{"name":"account","type":"address","internalType":"address"}],"outputs":[{"name":"","type":"uint256","internalType":"uint256"}],"stateMutability":"view"},{"type":"function","name":"burn","inputs":[{"name":"amount","type":"uint256","internalType":"uint256"}],"outputs":[],"stateMutability":"nonpayable"},{"type":"function","name":"decimals","inputs":[],"outputs":[{"name":"","type":"uint8","internalType":"uint8"}],"stateMutability":"view"},{"type":"function","name":"eip712Domain","inputs":[],"outputs":[{"name":"fields","type":"bytes1","internalType":"bytes1"},{"name":"name","type":"string","internalType":"string"},{"name":"version","type":"string","internalType":"string"},{"name":"chainId","type":"uint256","internalType":"uint256"},{"name":"verifyingContract","type":"address","internalType":"address"},{"name":"salt","type":"bytes32","internalType":"bytes32"},{"name":"extensions","type":"uint256[]","internalType":"uint256[]"}],"stateMutability":"view"},{"type":"function","name":"getGuardiansFeeRate","inputs":[],"outputs":[{"name":"","type":"uint256","internalType":"uint256"}],"stateMutability":"view"},{"type":"function","name":"getProtocolFeeRate","inputs":[],"outputs":[{"name":"","type":"uint256","internalType":"uint256"}],"stateMutability":"view"},{"type":"function","name":"initialize","inputs":[{"name":"accessManager","type":"address","internalType":"address"},{"name":"treasuryFeeRate","type":"uint256","internalType":"uint256"},{"name":"guardiansFeeRate","type":"uint256","internalType":"uint256"}],"outputs":[],"stateMutability":"nonpayable"},{"type":"function","name":"isConsumingScheduledOp","inputs":[],"outputs":[{"name":"","type":"bytes4","internalType":"bytes4"}],"stateMutability":"view"},{"type":"function","name":"name","inputs":[],"outputs":[{"name":"","type":"string","internalType":"string"}],"stateMutability":"view"},{"type":"function","name":"nonces","inputs":[{"name":"owner","type":"address","internalType":"address"}],"outputs":[{"name":"","type":"uint256","internalType":"uint256"}],"stateMutability":"view"},{"type":"function","name":"permit","inputs":[{"name":"owner","type":"address","internalType":"address"},{"name":"spender","type":"address","internalType":"address"},{"name":"value","type":"uint256","internalType":"uint256"},{"name":"deadline","type":"uint256","internalType":"uint256"},{"name":"v","type":"uint8","internalType":"uint8"},{"name":"r","type":"bytes32","internalType":"bytes32"},{"name":"s","type":"bytes32","internalType":"bytes32"}],"outputs":[],"stateMutability":"nonpayable"},{"type":"function","name":"proxiableUUID","inputs":[],"outputs":[{"name":"","type":"bytes32","internalType":"bytes32"}],"stateMutability":"view"},{"type":"function","name":"purchaseValidatorTicket","inputs":[{"name":"recipient","type":"address","internalType":"address"}],"outputs":[{"name":"mintedAmount","type":"uint256","internalType":"uint256"}],"stateMutability":"payable"},{"type":"function","name":"setAuthority","inputs":[{"name":"newAuthority","type":"address","internalType":"address"}],"outputs":[],"stateMutability":"nonpayable"},{"type":"function","name":"setGuardiansFeeRate","inputs":[{"name":"newGuardiansFeeRate","type":"uint256","internalType":"uint256"}],"outputs":[],"stateMutability":"nonpayable"},{"type":"function","name":"setProtocolFeeRate","inputs":[{"name":"newProtocolFeeRate","type":"uint256","internalType":"uint256"}],"outputs":[],"stateMutability":"nonpayable"},{"type":"function","name":"symbol","inputs":[],"outputs":[{"name":"","type":"string","internalType":"string"}],"stateMutability":"view"},{"type":"function","name":"totalSupply","inputs":[],"outputs":[{"name":"","type":"uint256","internalType":"uint256"}],"stateMutability":"view"},{"type":"function","name":"transfer","inputs":[{"name":"to","type":"address","internalType":"address"},{"name":"value","type":"uint256","internalType":"uint256"}],"outputs":[{"name":"","type":"bool","internalType":"bool"}],"stateMutability":"nonpayable"},{"type":"function","name":"transferFrom","inputs":[{"name":"from","type":"address","internalType":"address"},{"name":"to","type":"address","internalType":"address"},{"name":"value","type":"uint256","internalType":"uint256"}],"outputs":[{"name":"","type":"bool","internalType":"bool"}],"stateMutability":"nonpayable"},{"type":"function","name":"upgradeToAndCall","inputs":[{"name":"newImplementation","type":"address","internalType":"address"},{"name":"data","type":"bytes","internalType":"bytes"}],"outputs":[],"stateMutability":"payable"},{"type":"event","name":"Approval","inputs":[{"name":"owner","type":"address","indexed":true,"internalType":"address"},{"name":"spender","type":"address","indexed":true,"internalType":"address"},{"name":"value","type":"uint256","indexed":false,"internalType":"uint256"}],"anonymous":false},{"type":"event","name":"AuthorityUpdated","inputs":[{"name":"authority","type":"address","indexed":false,"internalType":"address"}],"anonymous":false},{"type":"event","name":"DispersedETH","inputs":[{"name":"treasury","type":"uint256","indexed":false,"internalType":"uint256"},{"name":"guardians","type":"uint256","indexed":false,"internalType":"uint256"},{"name":"vault","type":"uint256","indexed":false,"internalType":"uint256"}],"anonymous":false},{"type":"event","name":"EIP712DomainChanged","inputs":[],"anonymous":false},{"type":"event","name":"GuardiansFeeChanged","inputs":[{"name":"oldGuardiansFee","type":"uint256","indexed":false,"internalType":"uint256"},{"name":"newGuardiansFee","type":"uint256","indexed":false,"internalType":"uint256"}],"anonymous":false},{"type":"event","name":"Initialized","inputs":[{"name":"version","type":"uint64","indexed":false,"internalType":"uint64"}],"anonymous":false},{"type":"event","name":"ProtocolFeeChanged","inputs":[{"name":"oldTreasuryFee","type":"uint256","indexed":false,"internalType":"uint256"},{"name":"newTreasuryFee","type":"uint256","indexed":false,"internalType":"uint256"}],"anonymous":false},{"type":"event","name":"Transfer","inputs":[{"name":"from","type":"address","indexed":true,"internalType":"address"},{"name":"to","type":"address","indexed":true,"internalType":"address"},{"name":"value","type":"uint256","indexed":false,"internalType":"uint256"}],"anonymous":false},{"type":"event","name":"TransferredETH","inputs":[{"name":"to","type":"address","indexed":true,"internalType":"address"},{"name":"amount","type":"uint256","indexed":false,"internalType":"uint256"}],"anonymous":false},{"type":"event","name":"Upgraded","inputs":[{"name":"implementation","type":"address","indexed":true,"internalType":"address"}],"anonymous":false},{"type":"error","name":"AccessManagedInvalidAuthority","inputs":[{"name":"authority","type":"address","internalType":"address"}]},{"type":"error","name":"AccessManagedRequiredDelay","inputs":[{"name":"caller","type":"address","internalType":"address"},{"name":"delay","type":"uint32","internalType":"uint32"}]},{"type":"error","name":"AccessManagedUnauthorized","inputs":[{"name":"caller","type":"address","internalType":"address"}]},{"type":"error","name":"AddressEmptyCode","inputs":[{"name":"target","type":"address","internalType":"address"}]},{"type":"error","name":"AddressInsufficientBalance","inputs":[{"name":"account","type":"address","internalType":"address"}]},{"type":"error","name":"ECDSAInvalidSignature","inputs":[]},{"type":"error","name":"ECDSAInvalidSignatureLength","inputs":[{"name":"length","type":"uint256","internalType":"uint256"}]},{"type":"error","name":"ECDSAInvalidSignatureS","inputs":[{"name":"s","type":"bytes32","internalType":"bytes32"}]},{"type":"error","name":"ERC1967InvalidImplementation","inputs":[{"name":"implementation","type":"address","internalType":"address"}]},{"type":"error","name":"ERC1967NonPayable","inputs":[]},{"type":"error","name":"ERC20InsufficientAllowance","inputs":[{"name":"spender","type":"address","internalType":"address"},{"name":"allowance","type":"uint256","internalType":"uint256"},{"name":"needed","type":"uint256","internalType":"uint256"}]},{"type":"error","name":"ERC20InsufficientBalance","inputs":[{"name":"sender","type":"address","internalType":"address"},{"name":"balance","type":"uint256","internalType":"uint256"},{"name":"needed","type":"uint256","internalType":"uint256"}]},{"type":"error","name":"ERC20InvalidApprover","inputs":[{"name":"approver","type":"address","internalType":"address"}]},{"type":"error","name":"ERC20InvalidReceiver","inputs":[{"name":"receiver","type":"address","internalType":"address"}]},{"type":"error","name":"ERC20InvalidSender","inputs":[{"name":"sender","type":"address","internalType":"address"}]},{"type":"error","name":"ERC20InvalidSpender","inputs":[{"name":"spender","type":"address","internalType":"address"}]},{"type":"error","name":"ERC2612ExpiredSignature","inputs":[{"name":"deadline","type":"uint256","internalType":"uint256"}]},{"type":"error","name":"ERC2612InvalidSigner","inputs":[{"name":"signer","type":"address","internalType":"address"},{"name":"owner","type":"address","internalType":"address"}]},{"type":"error","name":"FailedInnerCall","inputs":[]},{"type":"error","name":"InvalidAccountNonce","inputs":[{"name":"account","type":"address","internalType":"address"},{"name":"currentNonce","type":"uint256","internalType":"uint256"}]},{"type":"error","name":"InvalidAmount","inputs":[]},{"type":"error","name":"InvalidData","inputs":[]},{"type":"error","name":"InvalidInitialization","inputs":[]},{"type":"error","name":"MathOverflowedMulDiv","inputs":[]},{"type":"error","name":"NotInitializing","inputs":[]},{"type":"error","name":"SafeCastOverflowedUintDowncast","inputs":[{"name":"bits","type":"uint8","internalType":"uint8"},{"name":"value","type":"uint256","internalType":"uint256"}]},{"type":"error","name":"UUPSUnauthorizedCallContext","inputs":[]},{"type":"error","name":"UUPSUnsupportedProxiableUUID","inputs":[{"name":"slot","type":"bytes32","internalType":"bytes32"}]}],"bytecode":{"object":"0x6101206040523060805234801562000015575f80fd5b5060405162002a7538038062002a75833981016040819052620000389162000198565b6001600160a01b03841615806200005657506001600160a01b038316155b806200006957506001600160a01b038216155b806200007c57506001600160a01b038116155b156200009b57604051635cb045db60e01b815260040160405180910390fd5b6001600160a01b038082166101005284811660c05282811660e052831660a052620000c5620000cf565b50505050620001fd565b7ff0c57e16840df040f15088dc2f81fe391c3923bec73e23a9662efc9c229c6a00805468010000000000000000900460ff1615620001205760405163f92ee8a960e01b815260040160405180910390fd5b80546001600160401b0390811614620001805780546001600160401b0319166001600160401b0390811782556040519081527fc7f505b2f371ae2175ee4913f4499e1f2633a7b5936321eed1cdaeb6115181d29060200160405180910390a15b50565b6001600160a01b038116811462000180575f80fd5b5f805f8060808587031215620001ac575f80fd5b8451620001b98162000183565b6020860151909450620001cc8162000183565b6040860151909350620001df8162000183565b6060860151909250620001f28162000183565b939692955090935050565b60805160a05160c05160e05161010051612802620002735f395f81816101da01528181610afe0152610ba901525f81816103380152610d4901525f81816104970152610cec01525f81816102d601528181610c390152610caf01525f81816111b0015281816111d9015261131b01526128025ff3fe6080604052600436106101c5575f3560e01c80637ecebe00116100f2578063af03cbd111610092578063dd62ed3e11610062578063dd62ed3e1461056d578063e27d0d7e1461058c578063ec7a9923146105bc578063f7fab94f146105db575f80fd5b8063af03cbd114610508578063b13aa2d61461051b578063bf7e214f1461053a578063d505accf1461054e575f80fd5b806395d89b41116100cd57806395d89b4114610472578063a1873ca514610486578063a9059cbb146104b9578063ad3cb1cc146104d8575f80fd5b80637ecebe00146103ff57806384b0196e1461041e5780638fb3603714610445575f80fd5b80633644e5151161016857806352d1902d1161013857806352d1902d1461038e57806370a08231146103a25780637a1ac61e146103c15780637a9e5e4b146103e0575f80fd5b80633644e515146103135780633e68b0941461032757806342966c681461035a5780634f1ef2861461037b575f80fd5b806318160ddd116101a357806318160ddd1461026957806323b872dd146102a65780632d2c5565146102c5578063313ce567146102f8575f80fd5b80630195c505146101c957806306fdde0314610219578063095ea7b31461023a575b5f80fd5b3480156101d4575f80fd5b506101fc7f000000000000000000000000000000000000000000000000000000000000000081565b6040516001600160a01b0390911681526020015b60405180910390f35b348015610224575f80fd5b5061022d610604565b6040516102109190612161565b348015610245575f80fd5b50610259610254366004612189565b6106a9565b6040519015158152602001610210565b348015610274575f80fd5b507f52c63247e1f47db19d5ce0460030c497f067ca4cebf71ba98eeadabe20bace02545b604051908152602001610210565b3480156102b1575f80fd5b506102596102c03660046121b1565b6106c2565b3480156102d0575f80fd5b506101fc7f000000000000000000000000000000000000000000000000000000000000000081565b348015610303575f80fd5b5060405160128152602001610210565b34801561031e575f80fd5b506102986106e7565b348015610332575f80fd5b506101fc7f000000000000000000000000000000000000000000000000000000000000000081565b348015610365575f80fd5b506103796103743660046121ea565b6106f5565b005b610379610389366004612215565b61070e565b348015610399575f80fd5b5061029861072d565b3480156103ad575f80fd5b506102986103bc3660046122d1565b610748565b3480156103cc575f80fd5b506103796103db3660046122ea565b610778565b3480156103eb575f80fd5b506103796103fa3660046122d1565b610925565b34801561040a575f80fd5b506102986104193660046122d1565b6109ac565b348015610429575f80fd5b506104326109b6565b604051610210979695949392919061231a565b348015610450575f80fd5b50610459610a5f565b6040516001600160e01b03199091168152602001610210565b34801561047d575f80fd5b5061022d610a95565b348015610491575f80fd5b506101fc7f000000000000000000000000000000000000000000000000000000000000000081565b3480156104c4575f80fd5b506102596104d3366004612189565b610ad3565b3480156104e3575f80fd5b5061022d604051806040016040528060058152602001640352e302e360dc1b81525081565b6102986105163660046122d1565b610ae0565b348015610526575f80fd5b506103796105353660046121ea565b610dbb565b348015610545575f80fd5b506101fc610dcd565b348015610559575f80fd5b506103796105683660046123b1565b610de8565b348015610578575f80fd5b5061029861058736600461241e565b610f3d565b348015610597575f80fd5b505f805160206127c283398151915254600160801b90046001600160801b0316610298565b3480156105c7575f80fd5b506103796105d63660046121ea565b610f86565b3480156105e6575f80fd5b505f805160206127c2833981519152546001600160801b0316610298565b60605f5f805160206127828339815191525b90508060030180546106279061244f565b80601f01602080910402602001604051908101604052809291908181526020018280546106539061244f565b801561069e5780601f106106755761010080835404028352916020019161069e565b820191905f5260205f20905b81548152906001019060200180831161068157829003601f168201915b505050505091505090565b5f336106b6818585610f98565b60019150505b92915050565b5f336106cf858285610faa565b6106da85858561100d565b60019150505b9392505050565b5f6106f061106a565b905090565b610701335b5f36611073565b61070b3382611171565b50565b6107166111a5565b61071f8261124b565b6107298282611254565b5050565b5f610736611310565b505f805160206127e283398151915290565b5f805f805160206127828339815191525b6001600160a01b039093165f9081526020939093525050604090205490565b7ff0c57e16840df040f15088dc2f81fe391c3923bec73e23a9662efc9c229c6a008054600160401b810460ff16159067ffffffffffffffff165f811580156107bd5750825b90505f8267ffffffffffffffff1660011480156107d95750303b155b9050811580156107e7575080155b156108055760405163f92ee8a960e01b815260040160405180910390fd5b845467ffffffffffffffff19166001178555831561082f57845460ff60401b1916600160401b1785555b61083888611359565b61088b60405180604001604052806017815260200176141d5999995c8815985b1a59185d1bdc88151a58dad95d604a1b81525060405180604001604052806002815260200161159560f21b81525061136a565b6108c360405180604001604052806017815260200176141d5999995c8815985b1a59185d1bdc88151a58dad95d604a1b81525061137c565b6108cc876113a7565b6108d58661144d565b831561091b57845460ff60401b19168555604051600181527fc7f505b2f371ae2175ee4913f4499e1f2633a7b5936321eed1cdaeb6115181d29060200160405180910390a15b5050505050505050565b3361092e610dcd565b6001600160a01b0316816001600160a01b03161461096e5760405162d1953b60e31b81526001600160a01b03821660048201526024015b60405180910390fd5b816001600160a01b03163b5f036109a3576040516361798f2f60e11b81526001600160a01b0383166004820152602401610965565b610729826114ed565b5f6106bc8261154d565b5f60608082808083815f805160206127a283398151915280549091501580156109e157506001810154155b610a255760405162461bcd60e51b81526020600482015260156024820152741152540dcc4c8e88155b9a5b9a5d1a585b1a5e9959605a1b6044820152606401610965565b610a2d611575565b610a356115b3565b604080515f80825260208201909252600f60f81b9c939b5091995046985030975095509350915050565b5f8051602061276283398151915280545f9190600160a01b900460ff16610a86575f610a8f565b638fb3603760e01b5b91505090565b7f52c63247e1f47db19d5ce0460030c497f067ca4cebf71ba98eeadabe20bace0480546060915f80516020612782833981519152916106279061244f565b5f336106b681858561100d565b5f610aea336106fa565b5f5f805160206127c283398151915290505f7f00000000000000000000000000000000000000000000000000000000000000006001600160a01b031663698c65046040518163ffffffff1660e01b8152600401602060405180830381865afa158015610b58573d5f803e3d5ffd5b505050506040513d601f19601f82011682018060405250810190610b7c9190612487565b905080610b9134670de0b6b3a76400006124b2565b610b9b91906124dd565b9250610ba784846115c9565b7f00000000000000000000000000000000000000000000000000000000000000006001600160a01b031663d3d982aa6040518163ffffffff1660e01b8152600401602060405180830381865afa158015610c03573d5f803e3d5ffd5b505050506040513d601f19601f82011682018060405250810190610c2791906124ff565b15610ca557610c5f6001600160a01b037f000000000000000000000000000000000000000000000000000000000000000016346115fd565b604080513481525f602082018190528183015290517f8476c087a9e2adf34e598e2ef90747a2824cf1bd88e16bdb0ef56d5d6bddff279181900360600190a15050919050565b81545f90610cdf907f00000000000000000000000000000000000000000000000000000000000000009034906001600160801b0316611690565b83549091505f90610d23907f0000000000000000000000000000000000000000000000000000000000000000903490600160801b90046001600160801b0316611690565b90505f610d308284612518565b610d3a903461252b565b9050610d6f6001600160a01b037f000000000000000000000000000000000000000000000000000000000000000016826115fd565b60408051848152602081018490529081018290527f8476c087a9e2adf34e598e2ef90747a2824cf1bd88e16bdb0ef56d5d6bddff279060600160405180910390a150505050505b919050565b610dc4336106fa565b61070b816113a7565b5f80516020612762833981519152546001600160a01b031690565b83421115610e0c5760405163313c898160e11b815260048101859052602401610965565b5f7f6e71edae12b1b97f4d1f60370fef10105fa2faae0126114a169c64845d6126c9888888610e768c6001600160a01b03165f9081527f5ab42ced628888259c08ac98db1eb0cf702fc1501344311d8b100cd1bfe4bb006020526040902080546001810190915590565b6040805160208101969096526001600160a01b0394851690860152929091166060840152608083015260a082015260c0810186905260e0016040516020818303038152906040528051906020012090505f610ed0826116bb565b90505f610edf828787876116e7565b9050896001600160a01b0316816001600160a01b031614610f26576040516325c0072360e11b81526001600160a01b0380831660048301528b166024820152604401610965565b610f318a8a8a610f98565b50505050505050505050565b6001600160a01b039182165f9081527f52c63247e1f47db19d5ce0460030c497f067ca4cebf71ba98eeadabe20bace016020908152604080832093909416825291909152205490565b610f8f336106fa565b61070b8161144d565b610fa58383836001611713565b505050565b5f610fb58484610f3d565b90505f1981146110075781811015610ff957604051637dc7a0d960e11b81526001600160a01b03841660048201526024810182905260448101839052606401610965565b61100784848484035f611713565b50505050565b6001600160a01b03831661103657604051634b637e8f60e11b81525f6004820152602401610965565b6001600160a01b03821661105f5760405163ec442f0560e01b81525f6004820152602401610965565b610fa58383836117f7565b5f6106f0611930565b5f805160206127628339815191525f806110ab61108e610dcd565b873061109d60045f8a8c61253e565b6110a691612565565b6119a3565b91509150816111695763ffffffff81161561114657825460ff60a01b1916600160a01b1783556110d9610dcd565b6001600160a01b03166394c7d7ee8787876040518463ffffffff1660e01b815260040161110893929190612595565b5f604051808303815f87803b15801561111f575f80fd5b505af1158015611131573d5f803e3d5ffd5b5050845460ff60a01b19168555506111699050565b60405162d1953b60e31b81526001600160a01b0387166004820152602401610965565b505050505050565b6001600160a01b03821661119a57604051634b637e8f60e11b81525f6004820152602401610965565b610729825f836117f7565b306001600160a01b037f000000000000000000000000000000000000000000000000000000000000000016148061122b57507f00000000000000000000000000000000000000000000000000000000000000006001600160a01b031661121f5f805160206127e2833981519152546001600160a01b031690565b6001600160a01b031614155b156112495760405163703e46dd60e11b815260040160405180910390fd5b565b61070b336106fa565b816001600160a01b03166352d1902d6040518163ffffffff1660e01b8152600401602060405180830381865afa9250505080156112ae575060408051601f3d908101601f191682019092526112ab91810190612487565b60015b6112d657604051634c9c8ce360e01b81526001600160a01b0383166004820152602401610965565b5f805160206127e2833981519152811461130657604051632a87526960e21b815260048101829052602401610965565b610fa58383611aab565b306001600160a01b037f000000000000000000000000000000000000000000000000000000000000000016146112495760405163703e46dd60e11b815260040160405180910390fd5b611361611b00565b61070b81611b49565b611372611b00565b6107298282611b5a565b611384611b00565b61070b81604051806040016040528060018152602001603160f81b815250611baa565b5f805160206127c28339815191526103e88211156113d857604051635cb045db60e01b815260040160405180910390fd5b8054604080516001600160801b039092168252602082018490527fb51bef650ff5ad43303dbe2e500a74d4fd1bdc9ae05f046bece330e82ae0ba87910160405180910390a161142682611c09565b81546fffffffffffffffffffffffffffffffff19166001600160801b039190911617905550565b5f805160206127c28339815191526103e882111561147e57604051635cb045db60e01b815260040160405180910390fd5b805460408051600160801b9092046001600160801b03168252602082018490527f0a3e0a163d4dfba5f018c5c1e2214007151b3abb0907e3ae402ae447c7e1bc47910160405180910390a16114d282611c09565b81546001600160801b03918216600160801b02911617905550565b5f8051602061276283398151915280546001600160a01b0383166001600160a01b03199091168117825560408051918252517f2f658b440c35314f52658ea8a740e05b284cdc84dc9ae01e891f21b8933e7cad9181900360200190a15050565b5f807f5ab42ced628888259c08ac98db1eb0cf702fc1501344311d8b100cd1bfe4bb00610759565b7fa16a46d94261c7517cc8ff89f61c0ce93598e3c849801011dee649a6a557d10280546060915f805160206127a2833981519152916106279061244f565b60605f5f805160206127a2833981519152610616565b6001600160a01b0382166115f25760405163ec442f0560e01b81525f6004820152602401610965565b6107295f83836117f7565b804710156116205760405163cd78605960e01b8152306004820152602401610965565b5f826001600160a01b0316826040515f6040518083038185875af1925050503d805f8114611669576040519150601f19603f3d011682016040523d82523d5f602084013e61166e565b606091505b5050905080610fa557604051630a12f52160e11b815260040160405180910390fd5b5f6116a083836127106001611c40565b905080156106e0576106e06001600160a01b038516826115fd565b5f6106bc6116c761106a565b8360405161190160f01b8152600281019290925260228201526042902090565b5f805f806116f788888888611c8f565b9250925092506117078282611d57565b50909695505050505050565b5f805160206127828339815191526001600160a01b03851661174a5760405163e602df0560e01b81525f6004820152602401610965565b6001600160a01b03841661177357604051634a1406b160e11b81525f6004820152602401610965565b6001600160a01b038086165f908152600183016020908152604080832093881683529290522083905581156117f057836001600160a01b0316856001600160a01b03167f8c5be1e5ebec7d5bd14f71427d1e84f3dd0314c0f7b2291e5b200ac8c7c3b925856040516117e791815260200190565b60405180910390a35b5050505050565b5f805160206127828339815191526001600160a01b0384166118315781816002015f8282546118269190612518565b909155506118a19050565b6001600160a01b0384165f90815260208290526040902054828110156118835760405163391434e360e21b81526001600160a01b03861660048201526024810182905260448101849052606401610965565b6001600160a01b0385165f9081526020839052604090209083900390555b6001600160a01b0383166118bf5760028101805483900390556118dd565b6001600160a01b0383165f9081526020829052604090208054830190555b826001600160a01b0316846001600160a01b03167fddf252ad1be2c89b69c2b068fc378daa952ba7f163c4a11628f55a4df523b3ef8460405161192291815260200190565b60405180910390a350505050565b5f7f8b73c3c69bb8fe3d512ecc4cf759cc79239f7b179b0ffacaa9a75d522b39400f61195a611e0f565b611962611e77565b60408051602081019490945283019190915260608201524660808201523060a082015260c00160405160208183030381529060405280519060200120905090565b6040516001600160a01b03848116602483015283811660448301526001600160e01b0319831660648301525f9182918291829189169060840160408051601f198184030181529181526020820180516001600160e01b031663b700961360e01b17905251611a1191906125d4565b5f60405180830381855afa9150503d805f8114611a49576040519150601f19603f3d011682016040523d82523d5f602084013e611a4e565b606091505b50915091508115611aa0576040815110611a805780806020019051810190611a7691906125ef565b9094509250611aa0565b6020815110611aa05780806020019051810190611a9d91906124ff565b93505b505094509492505050565b611ab482611eb9565b6040516001600160a01b038316907fbc7cd75a20ee27fd9adebab32041f755214dbc6bffa90cc0225b39da2e5c2d3b905f90a2805115611af857610fa58282611f1c565b610729611f85565b7ff0c57e16840df040f15088dc2f81fe391c3923bec73e23a9662efc9c229c6a0054600160401b900460ff1661124957604051631afcd79f60e31b815260040160405180910390fd5b611b51611b00565b61070b816114ed565b611b62611b00565b5f805160206127828339815191527f52c63247e1f47db19d5ce0460030c497f067ca4cebf71ba98eeadabe20bace03611b9b8482612670565b50600481016110078382612670565b611bb2611b00565b5f805160206127a28339815191527fa16a46d94261c7517cc8ff89f61c0ce93598e3c849801011dee649a6a557d102611beb8482612670565b5060038101611bfa8382612670565b505f8082556001909101555050565b5f6001600160801b03821115611c3c576040516306dfcc6560e41b81526080600482015260248101839052604401610965565b5090565b5f80611c4d868686611fa4565b9050611c5883612063565b8015611c7357505f8480611c6e57611c6e6124c9565b868809115b15611c8657611c83600182612518565b90505b95945050505050565b5f80807f7fffffffffffffffffffffffffffffff5d576e7357a4501ddfe92f46681b20a0841115611cc857505f91506003905082611d4d565b604080515f808252602082018084528a905260ff891692820192909252606081018790526080810186905260019060a0016020604051602081039080840390855afa158015611d19573d5f803e3d5ffd5b5050604051601f1901519150506001600160a01b038116611d4457505f925060019150829050611d4d565b92505f91508190505b9450945094915050565b5f826003811115611d6a57611d6a61272c565b03611d73575050565b6001826003811115611d8757611d8761272c565b03611da55760405163f645eedf60e01b815260040160405180910390fd5b6002826003811115611db957611db961272c565b03611dda5760405163fce698f760e01b815260048101829052602401610965565b6003826003811115611dee57611dee61272c565b03610729576040516335e2f38360e21b815260048101829052602401610965565b5f5f805160206127a283398151915281611e27611575565b805190915015611e3f57805160209091012092915050565b81548015611e4e579392505050565b7fc5d2460186f7233c927e7db2dcc703c0e500b653ca82273b7bfad8045d85a470935050505090565b5f5f805160206127a283398151915281611e8f6115b3565b805190915015611ea757805160209091012092915050565b60018201548015611e4e579392505050565b806001600160a01b03163b5f03611eee57604051634c9c8ce360e01b81526001600160a01b0382166004820152602401610965565b5f805160206127e283398151915280546001600160a01b0319166001600160a01b0392909216919091179055565b60605f80846001600160a01b031684604051611f3891906125d4565b5f60405180830381855af49150503d805f8114611f70576040519150601f19603f3d011682016040523d82523d5f602084013e611f75565b606091505b5091509150611c8685838361208f565b34156112495760405163b398979f60e01b815260040160405180910390fd5b5f838302815f1985870982811083820303915050805f03611fd857838281611fce57611fce6124c9565b04925050506106e0565b808411611ff85760405163227bc15360e01b815260040160405180910390fd5b5f848688095f868103871696879004966002600389028118808a02820302808a02820302808a02820302808a02820302808a02820302808a02909103029181900381900460010186841190950394909402919094039290920491909117919091029150509392505050565b5f60028260038111156120785761207861272c565b6120829190612740565b60ff166001149050919050565b6060826120a45761209f826120eb565b6106e0565b81511580156120bb57506001600160a01b0384163b155b156120e457604051639996b31560e01b81526001600160a01b0385166004820152602401610965565b50806106e0565b8051156120fb5780518082602001fd5b604051630a12f52160e11b815260040160405180910390fd5b5f5b8381101561212e578181015183820152602001612116565b50505f910152565b5f815180845261214d816020860160208601612114565b601f01601f19169290920160200192915050565b602081525f6106e06020830184612136565b80356001600160a01b0381168114610db6575f80fd5b5f806040838503121561219a575f80fd5b6121a383612173565b946020939093013593505050565b5f805f606084860312156121c3575f80fd5b6121cc84612173565b92506121da60208501612173565b9150604084013590509250925092565b5f602082840312156121fa575f80fd5b5035919050565b634e487b7160e01b5f52604160045260245ffd5b5f8060408385031215612226575f80fd5b61222f83612173565b9150602083013567ffffffffffffffff8082111561224b575f80fd5b818501915085601f83011261225e575f80fd5b81358181111561227057612270612201565b604051601f8201601f19908116603f0116810190838211818310171561229857612298612201565b816040528281528860208487010111156122b0575f80fd5b826020860160208301375f6020848301015280955050505050509250929050565b5f602082840312156122e1575f80fd5b6106e082612173565b5f805f606084860312156122fc575f80fd5b61230584612173565b95602085013595506040909401359392505050565b60ff60f81b881681525f602060e0602084015261233a60e084018a612136565b838103604085015261234c818a612136565b606085018990526001600160a01b038816608086015260a0850187905284810360c0860152855180825260208088019350909101905f5b8181101561239f57835183529284019291840191600101612383565b50909c9b505050505050505050505050565b5f805f805f805f60e0888a0312156123c7575f80fd5b6123d088612173565b96506123de60208901612173565b95506040880135945060608801359350608088013560ff81168114612401575f80fd5b9699959850939692959460a0840135945060c09093013592915050565b5f806040838503121561242f575f80fd5b61243883612173565b915061244660208401612173565b90509250929050565b600181811c9082168061246357607f821691505b60208210810361248157634e487b7160e01b5f52602260045260245ffd5b50919050565b5f60208284031215612497575f80fd5b5051919050565b634e487b7160e01b5f52601160045260245ffd5b80820281158282048414176106bc576106bc61249e565b634e487b7160e01b5f52601260045260245ffd5b5f826124eb576124eb6124c9565b500490565b80518015158114610db6575f80fd5b5f6020828403121561250f575f80fd5b6106e0826124f0565b808201808211156106bc576106bc61249e565b818103818111156106bc576106bc61249e565b5f808585111561254c575f80fd5b83861115612558575f80fd5b5050820193919092039150565b6001600160e01b0319813581811691600485101561258d5780818660040360031b1b83161692505b505092915050565b6001600160a01b03841681526040602082018190528101829052818360608301375f818301606090810191909152601f909201601f1916010192915050565b5f82516125e5818460208701612114565b9190910192915050565b5f8060408385031215612600575f80fd5b612609836124f0565b9150602083015163ffffffff81168114612621575f80fd5b809150509250929050565b601f821115610fa557805f5260205f20601f840160051c810160208510156126515750805b601f840160051c820191505b818110156117f0575f815560010161265d565b815167ffffffffffffffff81111561268a5761268a612201565b61269e81612698845461244f565b8461262c565b602080601f8311600181146126d1575f84156126ba5750858301515b5f19600386901b1c1916600185901b178555611169565b5f85815260208120601f198616915b828110156126ff578886015182559484019460019091019084016126e0565b508582101561271c57878501515f19600388901b60f8161c191681555b5050505050600190811b01905550565b634e487b7160e01b5f52602160045260245ffd5b5f60ff831680612752576127526124c9565b8060ff8416069150509291505056fef3177357ab46d8af007ab3fdb9af81da189e1068fefdc0073dca88a2cab40a0052c63247e1f47db19d5ce0460030c497f067ca4cebf71ba98eeadabe20bace00a16a46d94261c7517cc8ff89f61c0ce93598e3c849801011dee649a6a557d100522b25b4b3844af9be07fc1b83a538fd31925481b968b15976cafed863007000360894a13ba1a3210667c828492db98dca3e2076cc3735a920a3ca505d382bbc","linkReferences":{}},"methodIdentifiers":{"DOMAIN_SEPARATOR()":"3644e515","GUARDIAN_MODULE()":"a1873ca5","PUFFER_ORACLE()":"0195c505","PUFFER_VAULT()":"3e68b094","TREASURY()":"2d2c5565","UPGRADE_INTERFACE_VERSION()":"ad3cb1cc","allowance(address,address)":"dd62ed3e","approve(address,uint256)":"095ea7b3","authority()":"bf7e214f","balanceOf(address)":"70a08231","burn(uint256)":"42966c68","decimals()":"313ce567","eip712Domain()":"84b0196e","getGuardiansFeeRate()":"e27d0d7e","getProtocolFeeRate()":"f7fab94f","initialize(address,uint256,uint256)":"7a1ac61e","isConsumingScheduledOp()":"8fb36037","name()":"06fdde03","nonces(address)":"7ecebe00","permit(address,address,uint256,uint256,uint8,bytes32,bytes32)":"d505accf","proxiableUUID()":"52d1902d","purchaseValidatorTicket(address)":"af03cbd1","setAuthority(address)":"7a9e5e4b","setGuardiansFeeRate(uint256)":"ec7a9923","setProtocolFeeRate(uint256)":"b13aa2d6","symbol()":"95d89b41","totalSupply()":"18160ddd","transfer(address,uint256)":"a9059cbb","transferFrom(address,address,uint256)":"23b872dd","upgradeToAndCall(address,bytes)":"4f1ef286"},"id":198}