{"abi":[{"type":"function","name":"notExpired","inputs":[{"name":"","type":"bytes","internalType":"bytes"}],"outputs":[{"name":"","type":"bool","internalType":"bool"}],"stateMutability":"pure"},{"type":"function","name":"verifyChildCert","inputs":[{"name":"childCertBody","type":"bytes","internalType":"bytes"},{"name":"certSig","type":"bytes","internalType":"bytes"},{"name":"parentMod","type":"bytes","internalType":"bytes"},{"name":"parentExp","type":"bytes","internalType":"bytes"}],"outputs":[{"name":"","type":"bool","internalType":"bool"}],"stateMutability":"view"},{"type":"function","name":"verifySignedX509","inputs":[{"name":"cert","type":"bytes","internalType":"bytes"},{"name":"parentMod","type":"bytes","internalType":"bytes"},{"name":"parentExp","type":"bytes","internalType":"bytes"}],"outputs":[{"name":"","type":"bytes","internalType":"bytes"},{"name":"","type":"bytes","internalType":"bytes"}],"stateMutability":"view"}],"bytecode":{"object":"0x610cb5610035600b8282823980515f1a60731461002957634e487b7160e01b5f525f60045260245ffd5b305f52607381538281f3fe730000000000000000000000000000000000000000301460806040526004361061004a575f3560e01c806322defae51461004e5780632e7792fb14610076578063a21f157a14610089575b5f80fd5b61006161005c3660046108ee565b6100aa565b60405190151581526020015b60405180910390f35b6100616100843660046109f7565b6100b3565b61009c610097366004610a9d565b610145565b60405161006d929190610b6c565b60015b92915050565b5f805f6100c18585886102ec565b915091505f6100de602083516100d79190610bad565b8390610306565b905082801561013957506002886040516100f89190610bc0565b602060405180830381855afa158015610113573d5f803e3d5ffd5b5050506040513d601f19601f820116820180604052508101906101369190610bdb565b81145b98975050505050505050565b6060805f61015286610328565b90505f61015f8783610333565b90505f61016c88836103c5565b90505f6101798984610400565b90505f6101868a83610400565b90505f6101938b8361041d565b90506101a184828c8c6100b3565b6101e95760405162461bcd60e51b81526020600482015260146024820152731d995c9a599e50da1a5b1910d95c9d0819985a5b60621b60448201526064015b60405180910390fd5b5f6101f48c87610333565b90508b6001600160501b0382168151811061021157610211610bf2565b01602001516001600160f81b031916600560fd1b03610237576102348c82610400565b90505b6102418c82610400565b905061024d8c82610400565b90506102598c82610400565b90506102658c82610400565b90506102718c82610400565b905061027d8c82610333565b90506102898c82610400565b90505f6102968d83610436565b90505f6102a282610328565b90506102ae8282610333565b90505f6102bb838361041d565b90506102c78383610400565b91505f6102d4848461041d565b919c50909a5050505050505050505050935093915050565b5f60606102fa83858761054c565b91509150935093915050565b81515f90610315836020610c06565b111561031f575f80fd5b50016020015190565b5f6100ad825f6105e1565b5f826001600160501b0383168151811061034f5761034f610bf2565b0160200151600160fd1b908116146103a25760405162461bcd60e51b81526020600482015260166024820152754e6f74206120636f6e7374727563746564207479706560501b60448201526064016101e0565b6103be83605084901c6001600160501b03166105e1565b6105e1565b9392505050565b60606103be6001600160501b038316805b6103ee6001600160501b0360a087901c166001610c06565b6103f89190610bad565b859190610793565b5f6103be836103b96001600160501b0360a086901c166001610c06565b60606103be6001600160501b03605084901c16806103d6565b6060826001600160501b0383168151811061045357610453610bf2565b6020910101516001600160f81b031916600360f81b146104ab5760405162461bcd60e51b81526020600482015260136024820152724e6f7420747970652042495420535452494e4760681b60448201526064016101e0565b82605083901c6001600160501b0316815181106104ca576104ca610bf2565b01602001516001600160f81b031916156104e2575f80fd5b5f605083901c6001600160501b031660a084901c6001600160501b031661050a906001610c06565b6105149190610bad565b90506105446105316001600160501b03605086901c166001610c06565b61053c600184610bad565b869190610793565b949350505050565b5f60605f85518551855188888860405160200161056e96959493929190610c19565b6040516020818303038152906040529050835167ffffffffffffffff8111156105995761059961095a565b6040519080825280601f01601f1916602001820160405280156105c3576020820181803683370190505b50915083516020830182516020840160055afa925050935093915050565b5f808080856105f1866001610c06565b8151811061060157610601610bf2565b0160200151600160ff1b165f0361066b578561061e866001610c06565b8151811061062e5761062e610bf2565b016020015160f81c9250610643856002610c06565b9150600161065a846001600160501b038516610c06565b6106649190610bad565b905061075e565b5f86610678876001610c06565b8151811061068857610688610bf2565b60209101015160f81c607f16905060018190036106be576106b46106ad876002610c06565b8890610813565b60ff169350610720565b8060ff166002036106e9576106de6106d7876002610c06565b8890610836565b61ffff169350610720565b6106f4816020610c79565b6106ff906008610c92565b60ff1661071b610710886002610c06565b899060ff851661085c565b901c93505b60ff811661072f876002610c06565b6107399190610c06565b92506001610750856001600160501b038616610c06565b61075a9190610bad565b9150505b69ffffffffffffffffffff60a01b60a082901b1669ffffffffffffffffffff60501b605084901b168617179695505050505050565b82516060906107a28385610c06565b11156107ac575f80fd5b5f8267ffffffffffffffff8111156107c6576107c661095a565b6040519080825280601f01601f1916602001820160405280156107f0576020820181803683370190505b50905060208082019086860101610808828287610899565b509095945050505050565b5f82828151811061082657610826610bf2565b016020015160f81c905092915050565b81515f90610845836002610c06565b111561084f575f80fd5b50016002015161ffff1690565b5f602082111561086a575f80fd5b83516108768385610c06565b1115610880575f80fd5b506020919092018101519190036101000a5f1901191690565b602081106108d157815183526108b0602084610c06565b92506108bd602083610c06565b91506108ca602082610bad565b9050610899565b905182516020929092036101000a5f190180199091169116179052565b5f80602083850312156108ff575f80fd5b823567ffffffffffffffff80821115610916575f80fd5b818501915085601f830112610929575f80fd5b813581811115610937575f80fd5b866020828501011115610948575f80fd5b60209290920196919550909350505050565b634e487b7160e01b5f52604160045260245ffd5b5f82601f83011261097d575f80fd5b813567ffffffffffffffff808211156109985761099861095a565b604051601f8301601f19908116603f011681019082821181831017156109c0576109c061095a565b816040528381528660208588010111156109d8575f80fd5b836020870160208301375f602085830101528094505050505092915050565b5f805f8060808587031215610a0a575f80fd5b843567ffffffffffffffff80821115610a21575f80fd5b610a2d8883890161096e565b95506020870135915080821115610a42575f80fd5b610a4e8883890161096e565b94506040870135915080821115610a63575f80fd5b610a6f8883890161096e565b93506060870135915080821115610a84575f80fd5b50610a918782880161096e565b91505092959194509250565b5f805f60608486031215610aaf575f80fd5b833567ffffffffffffffff80821115610ac6575f80fd5b610ad28783880161096e565b94506020860135915080821115610ae7575f80fd5b610af38783880161096e565b93506040860135915080821115610b08575f80fd5b50610b158682870161096e565b9150509250925092565b5f5b83811015610b39578181015183820152602001610b21565b50505f910152565b5f8151808452610b58816020860160208601610b1f565b601f01601f19169290920160200192915050565b604081525f610b7e6040830185610b41565b8281036020840152610b908185610b41565b95945050505050565b634e487b7160e01b5f52601160045260245ffd5b818103818111156100ad576100ad610b99565b5f8251610bd1818460208701610b1f565b9190910192915050565b5f60208284031215610beb575f80fd5b5051919050565b634e487b7160e01b5f52603260045260245ffd5b808201808211156100ad576100ad610b99565b8681528560208201528460408201525f8451610c3c816060850160208901610b1f565b845190830190610c53816060840160208901610b1f565b8451910190610c69816060840160208801610b1f565b0160600198975050505050505050565b60ff82811682821603908111156100ad576100ad610b99565b60ff8181168382160290811690818114610cae57610cae610b99565b509291505056","linkReferences":{}},"methodIdentifiers":{"notExpired(bytes)":"22defae5","verifyChildCert(bytes,bytes,bytes,bytes)":"2e7792fb","verifySignedX509(bytes,bytes,bytes)":"a21f157a"},"id":156}