{"abi":[{"type":"constructor","inputs":[{"name":"stETH","type":"address","internalType":"contract IStETH"},{"name":"weth","type":"address","internalType":"contract IWETH"},{"name":"lidoWithdrawalQueue","type":"address","internalType":"contract ILidoWithdrawalQueue"},{"name":"stETHStrategy","type":"address","internalType":"contract IStrategy"},{"name":"eigenStrategyManager","type":"address","internalType":"contract IEigenLayer"},{"name":"oracle","type":"address","internalType":"contract IPufferOracle"},{"name":"delegationManager","type":"address","internalType":"contract IDelegationManager"}],"stateMutability":"nonpayable"},{"type":"receive","stateMutability":"payable"},{"type":"function","name":"DOMAIN_SEPARATOR","inputs":[],"outputs":[{"name":"","type":"bytes32","internalType":"bytes32"}],"stateMutability":"view"},{"type":"function","name":"PUFFER_ORACLE","inputs":[],"outputs":[{"name":"","type":"address","internalType":"contract IPufferOracle"}],"stateMutability":"view"},{"type":"function","name":"UPGRADE_INTERFACE_VERSION","inputs":[],"outputs":[{"name":"","type":"string","internalType":"string"}],"stateMutability":"view"},{"type":"function","name":"allowance","inputs":[{"name":"owner","type":"address","internalType":"address"},{"name":"spender","type":"address","internalType":"address"}],"outputs":[{"name":"","type":"uint256","internalType":"uint256"}],"stateMutability":"view"},{"type":"function","name":"approve","inputs":[{"name":"spender","type":"address","internalType":"address"},{"name":"value","type":"uint256","internalType":"uint256"}],"outputs":[{"name":"","type":"bool","internalType":"bool"}],"stateMutability":"nonpayable"},{"type":"function","name":"asset","inputs":[],"outputs":[{"name":"","type":"address","internalType":"address"}],"stateMutability":"view"},{"type":"function","name":"authority","inputs":[],"outputs":[{"name":"","type":"address","internalType":"address"}],"stateMutability":"view"},{"type":"function","name":"balanceOf","inputs":[{"name":"account","type":"address","internalType":"address"}],"outputs":[{"name":"","type":"uint256","internalType":"uint256"}],"stateMutability":"view"},{"type":"function","name":"burn","inputs":[{"name":"shares","type":"uint256","internalType":"uint256"}],"outputs":[],"stateMutability":"nonpayable"},{"type":"function","name":"claimWithdrawalFromEigenLayer","inputs":[{"name":"queuedWithdrawal","type":"tuple","internalType":"struct IEigenLayer.QueuedWithdrawal","components":[{"name":"strategies","type":"address[]","internalType":"contract IStrategy[]"},{"name":"shares","type":"uint256[]","internalType":"uint256[]"},{"name":"depositor","type":"address","internalType":"address"},{"name":"withdrawerAndNonce","type":"tuple","internalType":"struct IEigenLayer.WithdrawerAndNonce","components":[{"name":"withdrawer","type":"address","internalType":"address"},{"name":"nonce","type":"uint96","internalType":"uint96"}]},{"name":"withdrawalStartBlock","type":"uint32","internalType":"uint32"},{"name":"delegatedAddress","type":"address","internalType":"address"}]},{"name":"tokens","type":"address[]","internalType":"contract IERC20[]"},{"name":"middlewareTimesIndex","type":"uint256","internalType":"uint256"}],"outputs":[],"stateMutability":"nonpayable"},{"type":"function","name":"claimWithdrawalFromEigenLayerM2","inputs":[{"name":"queuedWithdrawal","type":"tuple","internalType":"struct IEigenLayer.QueuedWithdrawal","components":[{"name":"strategies","type":"address[]","internalType":"contract IStrategy[]"},{"name":"shares","type":"uint256[]","internalType":"uint256[]"},{"name":"depositor","type":"address","internalType":"address"},{"name":"withdrawerAndNonce","type":"tuple","internalType":"struct IEigenLayer.WithdrawerAndNonce","components":[{"name":"withdrawer","type":"address","internalType":"address"},{"name":"nonce","type":"uint96","internalType":"uint96"}]},{"name":"withdrawalStartBlock","type":"uint32","internalType":"uint32"},{"name":"delegatedAddress","type":"address","internalType":"address"}]},{"name":"tokens","type":"address[]","internalType":"contract IERC20[]"},{"name":"middlewareTimesIndex","type":"uint256","internalType":"uint256"},{"name":"nonce","type":"uint256","internalType":"uint256"}],"outputs":[],"stateMutability":"nonpayable"},{"type":"function","name":"claimWithdrawalsFromLido","inputs":[{"name":"requestIds","type":"uint256[]","internalType":"uint256[]"}],"outputs":[],"stateMutability":"nonpayable"},{"type":"function","name":"convertToAssets","inputs":[{"name":"shares","type":"uint256","internalType":"uint256"}],"outputs":[{"name":"","type":"uint256","internalType":"uint256"}],"stateMutability":"view"},{"type":"function","name":"convertToShares","inputs":[{"name":"assets","type":"uint256","internalType":"uint256"}],"outputs":[{"name":"","type":"uint256","internalType":"uint256"}],"stateMutability":"view"},{"type":"function","name":"convertToSharesUp","inputs":[{"name":"assets","type":"uint256","internalType":"uint256"}],"outputs":[{"name":"","type":"uint256","internalType":"uint256"}],"stateMutability":"view"},{"type":"function","name":"decimals","inputs":[],"outputs":[{"name":"","type":"uint8","internalType":"uint8"}],"stateMutability":"pure"},{"type":"function","name":"deposit","inputs":[{"name":"assets","type":"uint256","internalType":"uint256"},{"name":"receiver","type":"address","internalType":"address"}],"outputs":[{"name":"","type":"uint256","internalType":"uint256"}],"stateMutability":"nonpayable"},{"type":"function","name":"depositETH","inputs":[{"name":"receiver","type":"address","internalType":"address"}],"outputs":[{"name":"","type":"uint256","internalType":"uint256"}],"stateMutability":"payable"},{"type":"function","name":"depositStETH","inputs":[{"name":"stETHSharesAmount","type":"uint256","internalType":"uint256"},{"name":"receiver","type":"address","internalType":"address"}],"outputs":[{"name":"","type":"uint256","internalType":"uint256"}],"stateMutability":"nonpayable"},{"type":"function","name":"depositToEigenLayer","inputs":[{"name":"amount","type":"uint256","internalType":"uint256"}],"outputs":[],"stateMutability":"nonpayable"},{"type":"function","name":"eip712Domain","inputs":[],"outputs":[{"name":"fields","type":"bytes1","internalType":"bytes1"},{"name":"name","type":"string","internalType":"string"},{"name":"version","type":"string","internalType":"string"},{"name":"chainId","type":"uint256","internalType":"uint256"},{"name":"verifyingContract","type":"address","internalType":"address"},{"name":"salt","type":"bytes32","internalType":"bytes32"},{"name":"extensions","type":"uint256[]","internalType":"uint256[]"}],"stateMutability":"view"},{"type":"function","name":"getELBackingEthAmount","inputs":[],"outputs":[{"name":"ethAmount","type":"uint256","internalType":"uint256"}],"stateMutability":"view"},{"type":"function","name":"getExitFeeBasisPoints","inputs":[],"outputs":[{"name":"","type":"uint256","internalType":"uint256"}],"stateMutability":"view"},{"type":"function","name":"getPendingLidoETHAmount","inputs":[],"outputs":[{"name":"","type":"uint256","internalType":"uint256"}],"stateMutability":"view"},{"type":"function","name":"getRemainingAssetsDailyWithdrawalLimit","inputs":[],"outputs":[{"name":"","type":"uint256","internalType":"uint256"}],"stateMutability":"view"},{"type":"function","name":"initialize","inputs":[],"outputs":[],"stateMutability":"nonpayable"},{"type":"function","name":"initialize","inputs":[{"name":"accessManager","type":"address","internalType":"address"}],"outputs":[],"stateMutability":"nonpayable"},{"type":"function","name":"initiateETHWithdrawalsFromLido","inputs":[{"name":"amounts","type":"uint256[]","internalType":"uint256[]"}],"outputs":[{"name":"requestIds","type":"uint256[]","internalType":"uint256[]"}],"stateMutability":"nonpayable"},{"type":"function","name":"initiateStETHWithdrawalFromEigenLayer","inputs":[{"name":"sharesToWithdraw","type":"uint256","internalType":"uint256"}],"outputs":[],"stateMutability":"nonpayable"},{"type":"function","name":"isConsumingScheduledOp","inputs":[],"outputs":[{"name":"","type":"bytes4","internalType":"bytes4"}],"stateMutability":"view"},{"type":"function","name":"maxDeposit","inputs":[{"name":"","type":"address","internalType":"address"}],"outputs":[{"name":"","type":"uint256","internalType":"uint256"}],"stateMutability":"view"},{"type":"function","name":"maxMint","inputs":[{"name":"","type":"address","internalType":"address"}],"outputs":[{"name":"","type":"uint256","internalType":"uint256"}],"stateMutability":"view"},{"type":"function","name":"maxRedeem","inputs":[{"name":"owner","type":"address","internalType":"address"}],"outputs":[{"name":"maxShares","type":"uint256","internalType":"uint256"}],"stateMutability":"view"},{"type":"function","name":"maxWithdraw","inputs":[{"name":"owner","type":"address","internalType":"address"}],"outputs":[{"name":"maxAssets","type":"uint256","internalType":"uint256"}],"stateMutability":"view"},{"type":"function","name":"mint","inputs":[{"name":"shares","type":"uint256","internalType":"uint256"},{"name":"receiver","type":"address","internalType":"address"}],"outputs":[{"name":"","type":"uint256","internalType":"uint256"}],"stateMutability":"nonpayable"},{"type":"function","name":"name","inputs":[],"outputs":[{"name":"","type":"string","internalType":"string"}],"stateMutability":"view"},{"type":"function","name":"nonces","inputs":[{"name":"owner","type":"address","internalType":"address"}],"outputs":[{"name":"","type":"uint256","internalType":"uint256"}],"stateMutability":"view"},{"type":"function","name":"onERC721Received","inputs":[{"name":"","type":"address","internalType":"address"},{"name":"","type":"address","internalType":"address"},{"name":"","type":"uint256","internalType":"uint256"},{"name":"","type":"bytes","internalType":"bytes"}],"outputs":[{"name":"","type":"bytes4","internalType":"bytes4"}],"stateMutability":"nonpayable"},{"type":"function","name":"permit","inputs":[{"name":"owner","type":"address","internalType":"address"},{"name":"spender","type":"address","internalType":"address"},{"name":"value","type":"uint256","internalType":"uint256"},{"name":"deadline","type":"uint256","internalType":"uint256"},{"name":"v","type":"uint8","internalType":"uint8"},{"name":"r","type":"bytes32","internalType":"bytes32"},{"name":"s","type":"bytes32","internalType":"bytes32"}],"outputs":[],"stateMutability":"nonpayable"},{"type":"function","name":"previewDeposit","inputs":[{"name":"assets","type":"uint256","internalType":"uint256"}],"outputs":[{"name":"","type":"uint256","internalType":"uint256"}],"stateMutability":"view"},{"type":"function","name":"previewMint","inputs":[{"name":"shares","type":"uint256","internalType":"uint256"}],"outputs":[{"name":"","type":"uint256","internalType":"uint256"}],"stateMutability":"view"},{"type":"function","name":"previewRedeem","inputs":[{"name":"shares","type":"uint256","internalType":"uint256"}],"outputs":[{"name":"","type":"uint256","internalType":"uint256"}],"stateMutability":"view"},{"type":"function","name":"previewWithdraw","inputs":[{"name":"assets","type":"uint256","internalType":"uint256"}],"outputs":[{"name":"","type":"uint256","internalType":"uint256"}],"stateMutability":"view"},{"type":"function","name":"proxiableUUID","inputs":[],"outputs":[{"name":"","type":"bytes32","internalType":"bytes32"}],"stateMutability":"view"},{"type":"function","name":"redeem","inputs":[{"name":"shares","type":"uint256","internalType":"uint256"},{"name":"receiver","type":"address","internalType":"address"},{"name":"owner","type":"address","internalType":"address"}],"outputs":[{"name":"","type":"uint256","internalType":"uint256"}],"stateMutability":"nonpayable"},{"type":"function","name":"setAuthority","inputs":[{"name":"newAuthority","type":"address","internalType":"address"}],"outputs":[],"stateMutability":"nonpayable"},{"type":"function","name":"setDailyWithdrawalLimit","inputs":[{"name":"newLimit","type":"uint96","internalType":"uint96"}],"outputs":[],"stateMutability":"nonpayable"},{"type":"function","name":"setExitFeeBasisPoints","inputs":[{"name":"newExitFeeBasisPoints","type":"uint256","internalType":"uint256"}],"outputs":[],"stateMutability":"nonpayable"},{"type":"function","name":"symbol","inputs":[],"outputs":[{"name":"","type":"string","internalType":"string"}],"stateMutability":"view"},{"type":"function","name":"totalAssets","inputs":[],"outputs":[{"name":"","type":"uint256","internalType":"uint256"}],"stateMutability":"view"},{"type":"function","name":"totalSupply","inputs":[],"outputs":[{"name":"","type":"uint256","internalType":"uint256"}],"stateMutability":"view"},{"type":"function","name":"transfer","inputs":[{"name":"to","type":"address","internalType":"address"},{"name":"value","type":"uint256","internalType":"uint256"}],"outputs":[{"name":"","type":"bool","internalType":"bool"}],"stateMutability":"nonpayable"},{"type":"function","name":"transferETH","inputs":[{"name":"to","type":"address","internalType":"address"},{"name":"ethAmount","type":"uint256","internalType":"uint256"}],"outputs":[],"stateMutability":"nonpayable"},{"type":"function","name":"transferFrom","inputs":[{"name":"from","type":"address","internalType":"address"},{"name":"to","type":"address","internalType":"address"},{"name":"value","type":"uint256","internalType":"uint256"}],"outputs":[{"name":"","type":"bool","internalType":"bool"}],"stateMutability":"nonpayable"},{"type":"function","name":"upgradeToAndCall","inputs":[{"name":"newImplementation","type":"address","internalType":"address"},{"name":"data","type":"bytes","internalType":"bytes"}],"outputs":[],"stateMutability":"payable"},{"type":"function","name":"withdraw","inputs":[{"name":"assets","type":"uint256","internalType":"uint256"},{"name":"receiver","type":"address","internalType":"address"},{"name":"owner","type":"address","internalType":"address"}],"outputs":[{"name":"","type":"uint256","internalType":"uint256"}],"stateMutability":"nonpayable"},{"type":"event","name":"Approval","inputs":[{"name":"owner","type":"address","indexed":true,"internalType":"address"},{"name":"spender","type":"address","indexed":true,"internalType":"address"},{"name":"value","type":"uint256","indexed":false,"internalType":"uint256"}],"anonymous":false},{"type":"event","name":"AssetsWithdrawnToday","inputs":[{"name":"withdrawalAmount","type":"uint256","indexed":false,"internalType":"uint256"}],"anonymous":false},{"type":"event","name":"AuthorityUpdated","inputs":[{"name":"authority","type":"address","indexed":false,"internalType":"address"}],"anonymous":false},{"type":"event","name":"ClaimedWithdrawals","inputs":[{"name":"requestIds","type":"uint256[]","indexed":false,"internalType":"uint256[]"}],"anonymous":false},{"type":"event","name":"DailyWithdrawalLimitReset","inputs":[],"anonymous":false},{"type":"event","name":"DailyWithdrawalLimitSet","inputs":[{"name":"oldLimit","type":"uint96","indexed":false,"internalType":"uint96"},{"name":"newLimit","type":"uint96","indexed":false,"internalType":"uint96"}],"anonymous":false},{"type":"event","name":"Deposit","inputs":[{"name":"sender","type":"address","indexed":true,"internalType":"address"},{"name":"owner","type":"address","indexed":true,"internalType":"address"},{"name":"assets","type":"uint256","indexed":false,"internalType":"uint256"},{"name":"shares","type":"uint256","indexed":false,"internalType":"uint256"}],"anonymous":false},{"type":"event","name":"EIP712DomainChanged","inputs":[],"anonymous":false},{"type":"event","name":"ExitFeeBasisPointsSet","inputs":[{"name":"previousFee","type":"uint256","indexed":false,"internalType":"uint256"},{"name":"newFee","type":"uint256","indexed":false,"internalType":"uint256"}],"anonymous":false},{"type":"event","name":"Initialized","inputs":[{"name":"version","type":"uint64","indexed":false,"internalType":"uint64"}],"anonymous":false},{"type":"event","name":"LidoWithdrawal","inputs":[{"name":"expectedWithdrawal","type":"uint256","indexed":false,"internalType":"uint256"},{"name":"actualWithdrawal","type":"uint256","indexed":false,"internalType":"uint256"}],"anonymous":false},{"type":"event","name":"RequestedWithdrawals","inputs":[{"name":"requestIds","type":"uint256[]","indexed":false,"internalType":"uint256[]"}],"anonymous":false},{"type":"event","name":"Transfer","inputs":[{"name":"from","type":"address","indexed":true,"internalType":"address"},{"name":"to","type":"address","indexed":true,"internalType":"address"},{"name":"value","type":"uint256","indexed":false,"internalType":"uint256"}],"anonymous":false},{"type":"event","name":"TransferredETH","inputs":[{"name":"to","type":"address","indexed":true,"internalType":"address"},{"name":"amount","type":"uint256","indexed":false,"internalType":"uint256"}],"anonymous":false},{"type":"event","name":"Upgraded","inputs":[{"name":"implementation","type":"address","indexed":true,"internalType":"address"}],"anonymous":false},{"type":"event","name":"Withdraw","inputs":[{"name":"sender","type":"address","indexed":true,"internalType":"address"},{"name":"receiver","type":"address","indexed":true,"internalType":"address"},{"name":"owner","type":"address","indexed":true,"internalType":"address"},{"name":"assets","type":"uint256","indexed":false,"internalType":"uint256"},{"name":"shares","type":"uint256","indexed":false,"internalType":"uint256"}],"anonymous":false},{"type":"error","name":"AccessManagedInvalidAuthority","inputs":[{"name":"authority","type":"address","internalType":"address"}]},{"type":"error","name":"AccessManagedRequiredDelay","inputs":[{"name":"caller","type":"address","internalType":"address"},{"name":"delay","type":"uint32","internalType":"uint32"}]},{"type":"error","name":"AccessManagedUnauthorized","inputs":[{"name":"caller","type":"address","internalType":"address"}]},{"type":"error","name":"AddressEmptyCode","inputs":[{"name":"target","type":"address","internalType":"address"}]},{"type":"error","name":"AddressInsufficientBalance","inputs":[{"name":"account","type":"address","internalType":"address"}]},{"type":"error","name":"DepositAndWithdrawalForbidden","inputs":[]},{"type":"error","name":"ECDSAInvalidSignature","inputs":[]},{"type":"error","name":"ECDSAInvalidSignatureLength","inputs":[{"name":"length","type":"uint256","internalType":"uint256"}]},{"type":"error","name":"ECDSAInvalidSignatureS","inputs":[{"name":"s","type":"bytes32","internalType":"bytes32"}]},{"type":"error","name":"ERC1967InvalidImplementation","inputs":[{"name":"implementation","type":"address","internalType":"address"}]},{"type":"error","name":"ERC1967NonPayable","inputs":[]},{"type":"error","name":"ERC20InsufficientAllowance","inputs":[{"name":"spender","type":"address","internalType":"address"},{"name":"allowance","type":"uint256","internalType":"uint256"},{"name":"needed","type":"uint256","internalType":"uint256"}]},{"type":"error","name":"ERC20InsufficientBalance","inputs":[{"name":"sender","type":"address","internalType":"address"},{"name":"balance","type":"uint256","internalType":"uint256"},{"name":"needed","type":"uint256","internalType":"uint256"}]},{"type":"error","name":"ERC20InvalidApprover","inputs":[{"name":"approver","type":"address","internalType":"address"}]},{"type":"error","name":"ERC20InvalidReceiver","inputs":[{"name":"receiver","type":"address","internalType":"address"}]},{"type":"error","name":"ERC20InvalidSender","inputs":[{"name":"sender","type":"address","internalType":"address"}]},{"type":"error","name":"ERC20InvalidSpender","inputs":[{"name":"spender","type":"address","internalType":"address"}]},{"type":"error","name":"ERC2612ExpiredSignature","inputs":[{"name":"deadline","type":"uint256","internalType":"uint256"}]},{"type":"error","name":"ERC2612InvalidSigner","inputs":[{"name":"signer","type":"address","internalType":"address"},{"name":"owner","type":"address","internalType":"address"}]},{"type":"error","name":"ERC4626ExceededMaxDeposit","inputs":[{"name":"receiver","type":"address","internalType":"address"},{"name":"assets","type":"uint256","internalType":"uint256"},{"name":"max","type":"uint256","internalType":"uint256"}]},{"type":"error","name":"ERC4626ExceededMaxMint","inputs":[{"name":"receiver","type":"address","internalType":"address"},{"name":"shares","type":"uint256","internalType":"uint256"},{"name":"max","type":"uint256","internalType":"uint256"}]},{"type":"error","name":"ERC4626ExceededMaxRedeem","inputs":[{"name":"owner","type":"address","internalType":"address"},{"name":"shares","type":"uint256","internalType":"uint256"},{"name":"max","type":"uint256","internalType":"uint256"}]},{"type":"error","name":"ERC4626ExceededMaxWithdraw","inputs":[{"name":"owner","type":"address","internalType":"address"},{"name":"assets","type":"uint256","internalType":"uint256"},{"name":"max","type":"uint256","internalType":"uint256"}]},{"type":"error","name":"ETHTransferFailed","inputs":[]},{"type":"error","name":"EnumerableMapNonexistentKey","inputs":[{"name":"key","type":"bytes32","internalType":"bytes32"}]},{"type":"error","name":"FailedInnerCall","inputs":[]},{"type":"error","name":"InvalidAccountNonce","inputs":[{"name":"account","type":"address","internalType":"address"},{"name":"currentNonce","type":"uint256","internalType":"uint256"}]},{"type":"error","name":"InvalidExitFeeBasisPoints","inputs":[]},{"type":"error","name":"InvalidInitialization","inputs":[]},{"type":"error","name":"InvalidWithdrawal","inputs":[]},{"type":"error","name":"MathOverflowedMulDiv","inputs":[]},{"type":"error","name":"NotInitializing","inputs":[]},{"type":"error","name":"SafeERC20FailedOperation","inputs":[{"name":"token","type":"address","internalType":"address"}]},{"type":"error","name":"UUPSUnauthorizedCallContext","inputs":[]},{"type":"error","name":"UUPSUnsupportedProxiableUUID","inputs":[{"name":"slot","type":"bytes32","internalType":"bytes32"}]},{"type":"error","name":"WithdrawalsAreDisabled","inputs":[]}],"bytecode":{"object":"0x6101806040523060805234801562000015575f80fd5b50604051620055aa380380620055aa833981016040819052620000389162000432565b6001600160a01b0380881660e0528086166101005280851660a052831660c0528685858562000066620000fe565b505050506001600160a01b0386811661012081905283821661014052908216610160527f0773e532dfede91f04b12a73d3d2acd361424f41f76b4fb79f090161e36b4e0080546001600160a01b0319169091178155620000cf68056bc75e2d63100000620001b2565b620000da5f6200024b565b620000e6606462000327565b620000f0620000fe565b50505050505050506200052c565b7ff0c57e16840df040f15088dc2f81fe391c3923bec73e23a9662efc9c229c6a00805468010000000000000000900460ff16156200014f5760405163f92ee8a960e01b815260040160405180910390fd5b80546001600160401b0390811614620001af5780546001600160401b0319166001600160401b0390811782556040519081527fc7f505b2f371ae2175ee4913f4499e1f2633a7b5936321eed1cdaeb6115181d29060200160405180910390a15b50565b7f611ea165ca9257827fc43d2954fdae7d825e82c825d9037db9337fa1bfa9310a54604080516001600160601b039283168152918316602083015280515f805160206200558a833981519152927f8d5f7487ce1fd25059bd15204a55ea2c293160362b849a6f9244aec7d5a3700b92908290030190a1600a0180546001600160601b0319166001600160601b0392909216919091179055565b5f805160206200558a833981519152620002696201518042620004d8565b600a820154600160c01b90046001600160401b031610156200028f576200028f6200039d565b8181600a01600c8282829054906101000a90046001600160601b0316620002b79190620004f8565b82546101009290920a6001600160601b03818102199093169183160217909155600a8301546040516c0100000000000000000000000090910490911681527f139f9ee0762f3b0c92a4b8c7b8fe8be6b12aaece4b9b22de6bf1ba1094dcd998915060200160405180910390a15050565b5f805160206200558a83398151915260c88211156200035957604051634af6f05f60e11b815260040160405180910390fd5b600b81015460408051918252602082018490527fb10a745484e9798f0014ea028d76169706f92e7eea5d5bb66001c1400769785d910160405180910390a1600b0155565b5f805160206200558a833981519152620003bb6201518042620004d8565b600a820180546001600160601b0316600160c01b6001600160401b039390931692909202600160601b600160c01b0319169190911790556040517f190567136e3dd93d29bef98a7c7c87cff34ee88e71d634b52f5fb3b531085f40905f90a150565b6001600160a01b0381168114620001af575f80fd5b5f805f805f805f60e0888a03121562000449575f80fd5b875162000456816200041d565b602089015190975062000469816200041d565b60408901519096506200047c816200041d565b60608901519095506200048f816200041d565b6080890151909450620004a2816200041d565b60a0890151909350620004b5816200041d565b60c0890151909250620004c8816200041d565b8091505092959891949750929550565b5f82620004f357634e487b7160e01b5f52601260045260245ffd5b500490565b6001600160601b038181168382160190808211156200052557634e487b7160e01b5f52601160045260245ffd5b5092915050565b60805160a05160c05160e05161010051610120516101405161016051614f8e620005fc5f395f8181610eda01528181610fd101526111e301525f81816103980152610a3601525f8181610ad30152818161181a01528181611a0301528181612e710152612ef601525f81816113db0152818161141701526115dd01525f8181610b70015281816113ba01528181611fe60152818161241601526124d701525f50505f81816110f9015281816122c4015261233201525f81816128660152818161288f01526129d10152614f8e5ff3fe60806040526004361061035d575f3560e01c80637b1a4909116101bd578063ba087652116100f2578063d905777e11610092578063ef8b30f71161006d578063ef8b30f714610921578063f6dbd16f146109d0578063f7fe1bd1146109ef578063fdcffbac14610a0f575f80fd5b8063d905777e1461097e578063dd62ed3e1461099d578063ed344a22146109bc575f80fd5b8063c63d75b6116100cd578063c63d75b6146105b1578063c6e6f59214610921578063ce96cb7714610940578063d505accf1461095f575f80fd5b8063ba087652146108cf578063bf7e214f146108ee578063c4d66de814610902575f80fd5b806395d89b411161015d578063ad3cb1cc11610138578063ad3cb1cc1461084d578063af24278c1461087d578063b3d7f6b914610891578063b460af94146108b0575f80fd5b806395d89b41146107fb5780639e9406dc1461080f578063a9059cbb1461082e575f80fd5b806384b0196e1161019857806384b0196e1461076e5780638fb36037146107955780638fd356ff146107a957806394bf804d146107dc575f80fd5b80637b1a49091461071c5780637ecebe001461073b5780638129fc1c1461075a575f80fd5b806338d52e0f11610293578063593961de11610233578063699beb591161020e578063699beb59146106a05780636e553f65146106bf57806370a08231146106de5780637a9e5e4b146106fd575f80fd5b8063593961de146106365780635b63b05c14610662578063677a11e914610681575f80fd5b806342966c681161026e57806342966c68146105d15780634cdad506146105f05780634f1ef2861461060f57806352d1902d14610622575f80fd5b806338d52e0f1461057e578063402064a714610592578063402d267d146105b1575f80fd5b8063150b7a02116102fe5780632d2da806116102d95780632d2da8061461051d578063313ce5671461053057806334201a641461054b5780633644e5151461056a575f80fd5b8063150b7a021461048757806318160ddd146104cb57806323b872dd146104fe575f80fd5b806306fdde031161033957806306fdde03146103f957806307a2d13a1461041a578063095ea7b3146104395780630a28a47714610468575f80fd5b80628e0590146103685780630195c5051461038757806301e1d114146103d7575f80fd5b3661036457005b5f80fd5b348015610373575f80fd5b50610385610382366004614110565b50565b005b348015610392575f80fd5b506103ba7f000000000000000000000000000000000000000000000000000000000000000081565b6040516001600160a01b0390911681526020015b60405180910390f35b3480156103e2575f80fd5b506103eb610a2f565b6040519081526020016103ce565b348015610404575f80fd5b5061040d610c19565b6040516103ce9190614174565b348015610425575f80fd5b506103eb610434366004614110565b610cbe565b348015610444575f80fd5b5061045861045336600461419a565b610ccf565b60405190151581526020016103ce565b348015610473575f80fd5b506103eb610482366004614110565b610ce6565b348015610492575f80fd5b506104b26104a13660046141c4565b630a85bd0160e11b95945050505050565b6040516001600160e01b031990911681526020016103ce565b3480156104d6575f80fd5b507f52c63247e1f47db19d5ce0460030c497f067ca4cebf71ba98eeadabe20bace02546103eb565b348015610509575f80fd5b5061045861051836600461425a565b610d2f565b6103eb61052b366004614298565b610d52565b34801561053b575f80fd5b50604051601281526020016103ce565b348015610556575f80fd5b50610385610565366004614310565b610de5565b348015610575575f80fd5b506103eb611047565b348015610589575f80fd5b506103ba611055565b34801561059d575f80fd5b506103856105ac366004614110565b611076565b3480156105bc575f80fd5b506103eb6105cb366004614298565b505f1990565b3480156105dc575f80fd5b506103856105eb366004614110565b6112a9565b3480156105fb575f80fd5b506103eb61060a366004614110565b6112bc565b61038561061d3660046143c8565b611304565b34801561062d575f80fd5b506103eb611323565b348015610641575f80fd5b50610655610650366004614469565b61133e565b6040516103ce91906144e1565b34801561066d575f80fd5b5061038561067c366004614110565b611531565b34801561068c575f80fd5b5061038561069b366004614469565b611543565b3480156106ab575f80fd5b506103eb6106ba366004614110565b61171b565b3480156106ca575f80fd5b506103eb6106d93660046144f3565b611727565b3480156106e9575f80fd5b506103eb6106f8366004614298565b61174c565b348015610708575f80fd5b50610385610717366004614298565b61177c565b348015610727575f80fd5b5061038561073636600461419a565b6117fe565b348015610746575f80fd5b506103eb610755366004614298565b61194e565b348015610765575f80fd5b50610385611958565b348015610779575f80fd5b50610782611bbe565b6040516103ce9796959493929190614521565b3480156107a0575f80fd5b506104b2611c67565b3480156107b4575f80fd5b507f611ea165ca9257827fc43d2954fdae7d825e82c825d9037db9337fa1bfa9310b546103eb565b3480156107e7575f80fd5b506103eb6107f63660046144f3565b611c9c565b348015610806575f80fd5b5061040d611cc1565b34801561081a575f80fd5b50610385610829366004614590565b611cff565b348015610839575f80fd5b5061045861084836600461419a565b611d19565b348015610858575f80fd5b5061040d604051806040016040528060058152602001640352e302e360dc1b81525081565b348015610888575f80fd5b506103eb611d26565b34801561089c575f80fd5b506103eb6108ab366004614110565b611dc0565b3480156108bb575f80fd5b506103eb6108ca3660046145b6565b611dcc565b3480156108da575f80fd5b506103eb6108e93660046145b6565b611e5e565b3480156108f9575f80fd5b506103ba611ee7565b34801561090d575f80fd5b5061038561091c366004614298565b611efc565b34801561092c575f80fd5b506103eb61093b366004614110565b61209e565b34801561094b575f80fd5b506103eb61095a366004614298565b6120a9565b34801561096a575f80fd5b506103856109793660046145f5565b6120db565b348015610989575f80fd5b506103eb610998366004614298565b612230565b3480156109a8575f80fd5b506103eb6109b7366004614666565b612249565b3480156109c7575f80fd5b506103eb612292565b3480156109db575f80fd5b506103eb6109ea3660046144f3565b6123d5565b3480156109fa575f80fd5b505f80516020614eee833981519152546103eb565b348015610a1a575f80fd5b50610385610a29366004614692565b50505050565b5f803490507f00000000000000000000000000000000000000000000000000000000000000006001600160a01b03166313673ccd6040518163ffffffff1660e01b8152600401602060405180830381865afa158015610a90573d5f803e3d5ffd5b505050506040513d601f19601f82011682018060405250810190610ab491906146fc565b610abe8247614727565b6040516370a0823160e01b81523060048201527f00000000000000000000000000000000000000000000000000000000000000006001600160a01b0316906370a0823190602401602060405180830381865afa158015610b20573d5f803e3d5ffd5b505050506040513d601f19601f82011682018060405250810190610b4491906146fc565b610b4c612292565b5f80516020614eee833981519152546040516370a0823160e01b81523060048201527f00000000000000000000000000000000000000000000000000000000000000006001600160a01b0316906370a0823190602401602060405180830381865afa158015610bbd573d5f803e3d5ffd5b505050506040513d601f19601f82011682018060405250810190610be191906146fc565b610beb919061473a565b610bf5919061473a565b610bff919061473a565b610c09919061473a565b610c13919061473a565b91505090565b60605f5f80516020614f0e8339815191525b9050806003018054610c3c9061474d565b80601f0160208091040260200160405190810160405280929190818152602001828054610c689061474d565b8015610cb35780601f10610c8a57610100808354040283529160200191610cb3565b820191905f5260205f20905b815481529060010190602001808311610c9657829003601f168201915b505050505091505090565b5f610cc9825f6125a3565b92915050565b5f33610cdc8185856125fa565b5060019392505050565b5f80610d1983610d147f611ea165ca9257827fc43d2954fdae7d825e82c825d9037db9337fa1bfa9310b5490565b61260c565b9050610d286106ba828561473a565b9392505050565b5f33610d3c85828561261c565b610d47858585612666565b506001949350505050565b5f60015f80516020614ece8339815191525d610d70335b5f366126c3565b5f19610d80565b60405180910390fd5b5f610d8a3461209e565b9050610d9684826127b9565b60408051348152602081018390526001600160a01b0386169133917fdcbc1c05240f31ff3ad067ef1ee35ce4997762752e3a095284754544f4c709d7910160405180910390a39150505b919050565b610dee33610d69565b6040805160e081018252308082525f6020830181905292820152606081018390525f80516020614eee833981519152919060808101610e3360c08a0160a08b016147b1565b63ffffffff168152602001610e4889806147cc565b808060200260200160405190810160405280939291908181526020018383602002808284375f92019190915250505090825250602090810190610e8d908a018a6147cc565b808060200260200160405190810160405280939291908181526020018383602002808284375f920182905250939094525050604051632cbd9b6d60e11b8152929350916001600160a01b037f000000000000000000000000000000000000000000000000000000000000000016915063597b36da90610f109085906004016148bc565b602060405180830381865afa158015610f2b573d5f803e3d5ffd5b505050506040513d601f19601f82011682018060405250810190610f4f91906146fc565b90505f610f5f60058501836127ed565b905080610f7f5760405163c945242d60e01b815260040160405180910390fd5b610f8c60208a018a6147cc565b5f818110610f9c57610f9c6148ce565b90506020020135846001015f828254610fb59190614727565b90915550506040516360d7faed60e01b81526001600160a01b037f000000000000000000000000000000000000000000000000000000000000000016906360d7faed9061100f9086908c908c908c906001906004016148e2565b5f604051808303815f87803b158015611026575f80fd5b505af1158015611038573d5f803e3d5ffd5b50505050505050505050505050565b5f6110506127f8565b905090565b5f805f80516020614f6e8339815191525b546001600160a01b031692915050565b61107f33610d69565b6040805160018082528183019092525f80516020614eee833981519152915f9190602082015b604080516060808201835280825260208201525f918101919091528152602001906001900390816110a55750506040805160018082528183019092529192505f9190602080830190803683370190505090507f0000000000000000000000000000000000000000000000000000000000000000815f8151811061112a5761112a6148ce565b6001600160a01b0392909216602092830291909101909101526040805160018082528183019092525f9181602001602082028036833701905050905084815f81518110611179576111796148ce565b60200260200101818152505084846001015f828254611198919061473a565b925050819055506040518060600160405280838152602001828152602001306001600160a01b0316815250835f815181106111d5576111d56148ce565b60200260200101819052505f7f00000000000000000000000000000000000000000000000000000000000000006001600160a01b0316630dd8dd02856040518263ffffffff1660e01b815260040161122d9190614953565b5f604051808303815f875af1158015611248573d5f803e3d5ffd5b505050506040513d5f823e601f3d908101601f1916820160405261126f9190810190614a0f565b5f81518110611280576112806148ce565b602002602001015190506112a0818660050161280190919063ffffffff16565b50505050505050565b6112b233610d69565b610382338261280c565b5f806112c783610cbe565b90506112fa816112f57f611ea165ca9257827fc43d2954fdae7d825e82c825d9037db9337fa1bfa9310b5490565b612840565b610d289082614727565b61130c61285b565b61131582612901565b61131f828261290a565b5050565b5f61132c6129c6565b505f80516020614f4e83398151915290565b606061134933610d69565b5f829003611355575f80fd5b5f80516020614eee8339815191525f805b8481101561139c57858582818110611380576113806148ce565b9050602002013582611392919061473a565b9150600101611366565b5080825f015f8282546113af919061473a565b9091555061140090507f00000000000000000000000000000000000000000000000000000000000000007f000000000000000000000000000000000000000000000000000000000000000083612a0f565b604051636b34082160e11b81526001600160a01b037f0000000000000000000000000000000000000000000000000000000000000000169063d66810429061145090889088903090600401614acf565b5f604051808303815f875af115801561146b573d5f803e3d5ffd5b505050506040513d5f823e601f3d908101601f191682016040526114929190810190614a0f565b92505f5b83518110156114f1576114e88482815181106114b4576114b46148ce565b60200260200101518787848181106114ce576114ce6148ce565b9050602002013585600701612a969092919063ffffffff16565b50600101611496565b507f7dac5a8ab4fe1710dfba58441ca15750a9c71877b358e90aac49fc80b293e6178360405161152191906144e1565b60405180910390a1505092915050565b61153a33610d69565b61038281612aa2565b61154c33610d69565b5f819003611558575f80fd5b5f80516020614eee833981519152475f805b84811015611679576115a0868683818110611587576115876148ce565b9050602002013585600701612b1690919063ffffffff16565b6115aa908361473a565b91506115da8686838181106115c1576115c16148ce565b9050602002013585600701612b2190919063ffffffff16565b507f00000000000000000000000000000000000000000000000000000000000000006001600160a01b031663f844443687878481811061161c5761161c6148ce565b905060200201356040518263ffffffff1660e01b815260040161164191815260200190565b5f604051808303815f87803b158015611658575f80fd5b505af115801561166a573d5f803e3d5ffd5b5050505080600101905061156a565b50475f6116868483614727565b905082855f015f82825461169a9190614727565b90915550506040517ffe1f3a60946e634f858dc1f2f911c04cba9dc419a19abcb1bb1ce905ed79e325906116d19089908990614afa565b60405180910390a160408051848152602081018390527fb5cd6ba4df0e50a9991fc91db91ea56e2f134e498a70fc7224ad61d123e5bbb0910160405180910390a150505050505050565b5f610cc9826001612b2c565b5f60015f80516020614ece8339815191525d61174233610d69565b610d288383612b7a565b5f805f80516020614f0e8339815191525b6001600160a01b039093165f9081526020939093525050604090205490565b33611785611ee7565b6001600160a01b0316816001600160a01b0316146117c05760405162d1953b60e31b81526001600160a01b0382166004820152602401610d77565b816001600160a01b03163b5f036117f5576040516361798f2f60e11b81526001600160a01b0383166004820152602401610d77565b61131f82612b8e565b61180733610d69565b4781811015611895576001600160a01b037f000000000000000000000000000000000000000000000000000000000000000016632e1a7d4d6118498385614727565b6040518263ffffffff1660e01b815260040161186791815260200190565b5f604051808303815f87803b15801561187e575f80fd5b505af1158015611890573d5f803e3d5ffd5b505050505b5f836001600160a01b0316836040515f6040518083038185875af1925050503d805f81146118de576040519150601f19603f3d011682016040523d82523d5f602084013e6118e3565b606091505b50509050806119055760405163b12d13eb60e01b815260040160405180910390fd5b836001600160a01b03167fba7bb5aa419c34d8776b86cc0e9d41e72d74a893a511f361a11af6c05e920c3d8460405161194091815260200190565b60405180910390a250505050565b5f610cc982612be7565b7ff0c57e16840df040f15088dc2f81fe391c3923bec73e23a9662efc9c229c6a00805460029190600160401b900460ff16806119a1575080546001600160401b03808416911610155b156119bf5760405163f92ee8a960e01b815260040160405180910390fd5b805468ffffffffffffffffff19166001600160401b03831617600160401b1781555f6119f55f80516020614f6e83398151915290565b80546001600160a01b0319167f00000000000000000000000000000000000000000000000000000000000000006001600160a01b03161781559050611a4268056bc75e2d63100000612c0f565b611a4b5f612cac565b611a556064612aa2565b6810357563d481cc0000611a683061174c565b1115611b715760405163a9059cbb60e01b815273e6957d9b493b2f2634c8898ac09dc14cb24be222600482015268104173f45e755c127a6024820152309063a9059cbb906044016020604051808303815f875af1158015611acb573d5f803e3d5ffd5b505050506040513d601f19601f82011682018060405250810190611aef9190614b1c565b5060405163a9059cbb60e01b81527334c912c13de7953530dbe4c32f597d1baf77889b6004820152665a54ea63ce573a6024820152309063a9059cbb906044016020604051808303815f875af1158015611b4b573d5f803e3d5ffd5b505050506040513d601f19601f82011682018060405250810190611b6f9190614b1c565b505b50805460ff60401b191681556040516001600160401b03831681527fc7f505b2f371ae2175ee4913f4499e1f2633a7b5936321eed1cdaeb6115181d2906020015b60405180910390a15050565b5f60608082808083815f80516020614f2e8339815191528054909150158015611be957506001810154155b611c2d5760405162461bcd60e51b81526020600482015260156024820152741152540dcc4c8e88155b9a5b9a5d1a585b1a5e9959605a1b6044820152606401610d77565b611c35612d70565b611c3d612dae565b604080515f80825260208201909252600f60f81b9c939b5091995046985030975095509350915050565b5f80516020614eae83398151915280545f9190600160a01b900460ff16611c8e575f610c13565b638fb3603760e01b91505090565b5f60015f80516020614ece8339815191525d611cb733610d69565b610d288383612dc4565b7f52c63247e1f47db19d5ce0460030c497f067ca4cebf71ba98eeadabe20bace0480546060915f80516020614f0e83398151915291610c3c9061474d565b611d0833610d69565b611d1181612c0f565b610382612dd8565b5f33610cdc818585612666565b7f611ea165ca9257827fc43d2954fdae7d825e82c825d9037db9337fa1bfa9310a545f905f80516020614eee833981519152906001600160601b0380821691600160601b900416611d7a6201518042614b49565b600a840154600160c01b90046001600160401b03161015611da557506001600160601b031692915050565b611daf8183614b5c565b6001600160601b0316935050505090565b5f610cc98260016125a3565b5f5f80516020614ece8339815191525c15611dee576339b79d115f526004601cfd5b611df733610d69565b5f611e01836120a9565b905080851115611e2a57828582604051633fa733bb60e21b8152600401610d779392919061477f565b611e3385612cac565b611e3c85612e5a565b5f611e4686610ce6565b9050611e553386868985612f60565b95945050505050565b5f5f80516020614ece8339815191525c15611e80576339b79d115f526004601cfd5b611e8933610d69565b5f611e9383612230565b905080851115611ebc57828582604051632e52afbb60e21b8152600401610d779392919061477f565b5f611ec6866112bc565b9050611ed181612cac565b611eda81612e5a565b611e55338686848a612f60565b5f805f80516020614eae833981519152611066565b7ff0c57e16840df040f15088dc2f81fe391c3923bec73e23a9662efc9c229c6a008054600160401b810460ff1615906001600160401b03165f81158015611f405750825b90505f826001600160401b03166001148015611f5b5750303b155b905081158015611f69575080155b15611f875760405163f92ee8a960e01b815260040160405180910390fd5b845467ffffffffffffffff191660011785558315611fb157845460ff60401b1916600160401b1785555b611fba86613014565b611fe1604051806040016040528060068152602001650e0eacc8aa8960d31b815250613025565b61200a7f0000000000000000000000000000000000000000000000000000000000000000613050565b612050604051806040016040528060068152602001650e0eacc8aa8960d31b815250604051806040016040528060068152602001650e0eacc8aa8960d31b815250613061565b831561209657845460ff60401b19168555604051600181527fc7f505b2f371ae2175ee4913f4499e1f2633a7b5936321eed1cdaeb6115181d29060200160405180910390a15b505050505050565b5f610cc9825f612b2c565b5f806120b3611d26565b90505f6120c261060a8561174c565b90508082106120d157806120d3565b815b949350505050565b834211156120ff5760405163313c898160e11b815260048101859052602401610d77565b5f7f6e71edae12b1b97f4d1f60370fef10105fa2faae0126114a169c64845d6126c98888886121698c6001600160a01b03165f9081527f5ab42ced628888259c08ac98db1eb0cf702fc1501344311d8b100cd1bfe4bb006020526040902080546001810190915590565b6040805160208101969096526001600160a01b0394851690860152929091166060840152608083015260a082015260c0810186905260e0016040516020818303038152906040528051906020012090505f6121c382613073565b90505f6121d28287878761309f565b9050896001600160a01b0316816001600160a01b031614612219576040516325c0072360e11b81526001600160a01b0380831660048301528b166024820152604401610d77565b6122248a8a8a6125fa565b50505050505050505050565b5f8061223d610482611d26565b90505f6120c28461174c565b6001600160a01b039182165f9081527f52c63247e1f47db19d5ce0460030c497f067ca4cebf71ba98eeadabe20bace016020908152604080832093909416825291909152205490565b5f805f80516020614eee833981519152604051630aa794bf60e31b81523060048201529091505f906001600160a01b037f0000000000000000000000000000000000000000000000000000000000000000169063553ca5f890602401602060405180830381865afa158015612309573d5f803e3d5ffd5b505050506040513d601f19601f8201168201806040525081019061232d91906146fc565b90505f7f00000000000000000000000000000000000000000000000000000000000000006001600160a01b0316637a8b263784600101546040518263ffffffff1660e01b815260040161238291815260200190565b602060405180830381865afa15801561239d573d5f803e3d5ffd5b505050506040513d601f19601f820116820180604052508101906123c191906146fc565b90506123cd818361473a565b935050505090565b5f60015f80516020614ece8339815191525d6123f033610d69565b5f5f19604051630f451f7160e31b8152600481018690529091505f906001600160a01b037f00000000000000000000000000000000000000000000000000000000000000001690637a28fb8890602401602060405180830381865afa15801561245b573d5f803e3d5ffd5b505050506040513d601f19601f8201168201806040525081019061247f91906146fc565b9050818111156124a857838183604051633c8097d960e11b8152600401610d779392919061477f565b5f6124b28261209e565b604051636d78045960e01b8152336004820152306024820152604481018890529091507f00000000000000000000000000000000000000000000000000000000000000006001600160a01b031690636d780459906064016020604051808303815f875af1158015612525573d5f803e3d5ffd5b505050506040513d601f19601f8201168201806040525081019061254991906146fc565b5061255485826127b9565b60408051838152602081018390526001600160a01b0387169133917fdcbc1c05240f31ff3ad067ef1ee35ce4997762752e3a095284754544f4c709d7910160405180910390a395945050505050565b5f610d286125af610a2f565b6125ba90600161473a565b6125c55f600a614c5c565b7f52c63247e1f47db19d5ce0460030c497f067ca4cebf71ba98eeadabe20bace02546125f1919061473a565b859190856130cb565b6126078383836001613118565b505050565b5f610d28838361271060016130cb565b5f6126278484612249565b90505f198114610a29578181101561265857828183604051637dc7a0d960e11b8152600401610d779392919061477f565b610a2984848484035f613118565b6001600160a01b03831661268f57604051634b637e8f60e11b81525f6004820152602401610d77565b6001600160a01b0382166126b85760405163ec442f0560e01b81525f6004820152602401610d77565b6126078383836131fc565b5f80516020614eae8339815191525f806126fb6126de611ee7565b87306126ed60045f8a8c614c6a565b6126f691614c91565b613322565b91509150816120965763ffffffff81161561279657825460ff60a01b1916600160a01b178355612729611ee7565b6001600160a01b03166394c7d7ee8787876040518463ffffffff1660e01b815260040161275893929190614cc1565b5f604051808303815f87803b15801561276f575f80fd5b505af1158015612781573d5f803e3d5ffd5b5050845460ff60a01b19168555506120969050565b60405162d1953b60e31b81526001600160a01b0387166004820152602401610d77565b6001600160a01b0382166127e25760405163ec442f0560e01b81525f6004820152602401610d77565b61131f5f83836131fc565b5f610d28838361342a565b5f611050613514565b5f610d288383613587565b6001600160a01b03821661283557604051634b637e8f60e11b81525f6004820152602401610d77565b61131f825f836131fc565b5f610d28826128516127108261473a565b85919060016130cb565b306001600160a01b037f00000000000000000000000000000000000000000000000000000000000000001614806128e157507f00000000000000000000000000000000000000000000000000000000000000006001600160a01b03166128d55f80516020614f4e833981519152546001600160a01b031690565b6001600160a01b031614155b156128ff5760405163703e46dd60e11b815260040160405180910390fd5b565b61038233610d69565b816001600160a01b03166352d1902d6040518163ffffffff1660e01b8152600401602060405180830381865afa925050508015612964575060408051601f3d908101601f19168201909252612961918101906146fc565b60015b61298c57604051634c9c8ce360e01b81526001600160a01b0383166004820152602401610d77565b5f80516020614f4e83398151915281146129bc57604051632a87526960e21b815260048101829052602401610d77565b61260783836135d3565b306001600160a01b037f000000000000000000000000000000000000000000000000000000000000000016146128ff5760405163703e46dd60e11b815260040160405180910390fd5b604051636eb1769f60e11b81523060048201526001600160a01b0383811660248301525f919085169063dd62ed3e90604401602060405180830381865afa158015612a5c573d5f803e3d5ffd5b505050506040513d601f19601f82011682018060405250810190612a8091906146fc565b9050610a298484612a91858561473a565b613628565b5f6120d38484846136e5565b5f80516020614eee83398151915260c8821115612ad257604051634af6f05f60e11b815260040160405180910390fd5b600b81015460408051918252602082018490527fb10a745484e9798f0014ea028d76169706f92e7eea5d5bb66001c1400769785d910160405180910390a1600b0155565b5f610d288383613701565b5f610d288383613747565b5f610d28612b3b82600a614c5c565b7f52c63247e1f47db19d5ce0460030c497f067ca4cebf71ba98eeadabe20bace0254612b67919061473a565b612b6f610a2f565b6125f190600161473a565b5f612b8433610d69565b610d288383613763565b5f80516020614eae83398151915280546001600160a01b0319166001600160a01b03831690811782556040519081527f2f658b440c35314f52658ea8a740e05b284cdc84dc9ae01e891f21b8933e7cad90602001611bb2565b5f807f5ab42ced628888259c08ac98db1eb0cf702fc1501344311d8b100cd1bfe4bb0061175d565b7f611ea165ca9257827fc43d2954fdae7d825e82c825d9037db9337fa1bfa9310a54604080516001600160601b039283168152918316602083015280515f80516020614eee833981519152927f8d5f7487ce1fd25059bd15204a55ea2c293160362b849a6f9244aec7d5a3700b92908290030190a1600a0180546bffffffffffffffffffffffff19166001600160601b0392909216919091179055565b5f80516020614eee833981519152612cc76201518042614b49565b600a820154600160c01b90046001600160401b03161015612cea57612cea612dd8565b8181600a01600c8282829054906101000a90046001600160601b0316612d109190614d00565b82546101009290920a6001600160601b03818102199093169183160217909155600a830154604051600160601b90910490911681527f139f9ee0762f3b0c92a4b8c7b8fe8be6b12aaece4b9b22de6bf1ba1094dcd9989150602001611bb2565b7fa16a46d94261c7517cc8ff89f61c0ce93598e3c849801011dee649a6a557d10280546060915f80516020614f2e83398151915291610c3c9061474d565b60605f5f80516020614f2e833981519152610c2b565b5f612dce33610d69565b610d28838361377e565b5f80516020614eee833981519152612df36201518042614b49565b600a820180546001600160601b0316600160c01b6001600160401b0393909316929092026bffffffffffffffffffffffff60601b19169190911790556040517f190567136e3dd93d29bef98a7c7c87cff34ee88e71d634b52f5fb3b531085f40905f90a150565b6040516370a0823160e01b81523060048201525f907f00000000000000000000000000000000000000000000000000000000000000006001600160a01b0316906370a0823190602401602060405180830381865afa158015612ebe573d5f803e3d5ffd5b505050506040513d601f19601f82011682018060405250810190612ee291906146fc565b90508181101561131f576001600160a01b037f00000000000000000000000000000000000000000000000000000000000000001663d0e30db0612f258385614727565b6040518263ffffffff1660e01b81526004015f604051808303818588803b158015612f4e575f80fd5b505af11580156112a0573d5f803e3d5ffd5b5f80516020614f6e8339815191526001600160a01b0386811690851614612f8c57612f8c84878461261c565b612f96848361280c565b8054612fac906001600160a01b03168685613799565b836001600160a01b0316856001600160a01b0316876001600160a01b03167ffbde797d201c681b91056529119e0b02407c7bb96a4a2c75c01fc9667232c8db8686604051613004929190918252602082015260400190565b60405180910390a4505050505050565b61301c6137ca565b61038281613813565b61302d6137ca565b61038281604051806040016040528060018152602001603160f81b815250613824565b6130586137ca565b61038281613883565b6130696137ca565b61131f82826138f3565b5f610cc961307f6127f8565b8360405161190160f01b8152600281019290925260228201526042902090565b5f805f806130af88888888613943565b9250925092506130bf8282613a0b565b50909695505050505050565b5f806130d8868686613ac3565b90506130e383613b82565b80156130fe57505f84806130f9576130f9614b35565b868809115b15611e555761310e60018261473a565b9695505050505050565b5f80516020614f0e8339815191526001600160a01b03851661314f5760405163e602df0560e01b81525f6004820152602401610d77565b6001600160a01b03841661317857604051634a1406b160e11b81525f6004820152602401610d77565b6001600160a01b038086165f908152600183016020908152604080832093881683529290522083905581156131f557836001600160a01b0316856001600160a01b03167f8c5be1e5ebec7d5bd14f71427d1e84f3dd0314c0f7b2291e5b200ac8c7c3b925856040516131ec91815260200190565b60405180910390a35b5050505050565b5f80516020614f0e8339815191526001600160a01b0384166132365781816002015f82825461322b919061473a565b909155506132939050565b6001600160a01b0384165f90815260208290526040902054828110156132755784818460405163391434e360e21b8152600401610d779392919061477f565b6001600160a01b0385165f9081526020839052604090209083900390555b6001600160a01b0383166132b15760028101805483900390556132cf565b6001600160a01b0383165f9081526020829052604090208054830190555b826001600160a01b0316846001600160a01b03167fddf252ad1be2c89b69c2b068fc378daa952ba7f163c4a11628f55a4df523b3ef8460405161331491815260200190565b60405180910390a350505050565b6040516001600160a01b03848116602483015283811660448301526001600160e01b0319831660648301525f9182918291829189169060840160408051601f198184030181529181526020820180516001600160e01b031663b700961360e01b179052516133909190614d20565b5f60405180830381855afa9150503d805f81146133c8576040519150601f19603f3d011682016040523d82523d5f602084013e6133cd565b606091505b5091509150811561341f5760408151106133ff57808060200190518101906133f59190614d3b565b909450925061341f565b602081511061341f578080602001905181019061341c9190614b1c565b93505b505094509492505050565b5f8181526001830160205260408120548015613504575f61344c600183614727565b85549091505f9061345f90600190614727565b90508082146134be575f865f01828154811061347d5761347d6148ce565b905f5260205f200154905080875f01848154811061349d5761349d6148ce565b5f918252602080832090910192909255918252600188019052604090208390555b85548690806134cf576134cf614d65565b600190038181905f5260205f20015f90559055856001015f8681526020019081526020015f205f905560019350505050610cc9565b5f915050610cc9565b5092915050565b5f7f8b73c3c69bb8fe3d512ecc4cf759cc79239f7b179b0ffacaa9a75d522b39400f61353e613bae565b613546613c16565b60408051602081019490945283019190915260608201524660808201523060a082015260c00160405160208183030381529060405280519060200120905090565b5f8181526001830160205260408120546135cc57508154600181810184555f848152602080822090930184905584548482528286019093526040902091909155610cc9565b505f610cc9565b6135dc82613c58565b6040516001600160a01b038316907fbc7cd75a20ee27fd9adebab32041f755214dbc6bffa90cc0225b39da2e5c2d3b905f90a2805115613620576126078282613cbb565b61131f613d24565b604080516001600160a01b038416602482015260448082018490528251808303909101815260649091019091526020810180516001600160e01b031663095ea7b360e01b1790526136798482613d43565b610a29576040516001600160a01b0384811660248301525f60448301526136db91869182169063095ea7b3906064015b604051602081830303815290604052915060e01b6020820180516001600160e01b038381831617835250505050613de0565b610a298482613de0565b5f82815260028401602052604081208290556120d38484612801565b5f8181526002830160205260408120548015801561372657506137248484613e41565b155b15610d285760405163015ab34360e11b815260048101849052602401610d77565b5f8181526002830160205260408120819055610d2883836127ed565b5f5f195f6137708561209e565b90506120d333858784613e4c565b5f5f195f61378b85611dc0565b90506120d333858388613e4c565b6040516001600160a01b0383811660248301526044820183905261260791859182169063a9059cbb906064016136a9565b7ff0c57e16840df040f15088dc2f81fe391c3923bec73e23a9662efc9c229c6a0054600160401b900460ff166128ff57604051631afcd79f60e31b815260040160405180910390fd5b61381b6137ca565b61038281612b8e565b61382c6137ca565b5f80516020614f2e8339815191527fa16a46d94261c7517cc8ff89f61c0ce93598e3c849801011dee649a6a557d1026138658482614dbd565b50600381016138748382614dbd565b505f8082556001909101555050565b61388b6137ca565b5f80516020614f6e8339815191525f806138a484613ec9565b91509150816138b45760126138b6565b805b83546001600160a81b031916600160a01b60ff92909216919091026001600160a01b031916176001600160a01b0394909416939093179091555050565b6138fb6137ca565b5f80516020614f0e8339815191527f52c63247e1f47db19d5ce0460030c497f067ca4cebf71ba98eeadabe20bace036139348482614dbd565b5060048101610a298382614dbd565b5f80807f7fffffffffffffffffffffffffffffff5d576e7357a4501ddfe92f46681b20a084111561397c57505f91506003905082613a01565b604080515f808252602082018084528a905260ff891692820192909252606081018790526080810186905260019060a0016020604051602081039080840390855afa1580156139cd573d5f803e3d5ffd5b5050604051601f1901519150506001600160a01b0381166139f857505f925060019150829050613a01565b92505f91508190505b9450945094915050565b5f826003811115613a1e57613a1e614e78565b03613a27575050565b6001826003811115613a3b57613a3b614e78565b03613a595760405163f645eedf60e01b815260040160405180910390fd5b6002826003811115613a6d57613a6d614e78565b03613a8e5760405163fce698f760e01b815260048101829052602401610d77565b6003826003811115613aa257613aa2614e78565b0361131f576040516335e2f38360e21b815260048101829052602401610d77565b5f838302815f1985870982811083820303915050805f03613af757838281613aed57613aed614b35565b0492505050610d28565b808411613b175760405163227bc15360e01b815260040160405180910390fd5b5f848688095f868103871696879004966002600389028118808a02820302808a02820302808a02820302808a02820302808a02820302808a02909103029181900381900460010186841190950394909402919094039290920491909117919091029150509392505050565b5f6002826003811115613b9757613b97614e78565b613ba19190614e8c565b60ff166001149050919050565b5f5f80516020614f2e83398151915281613bc6612d70565b805190915015613bde57805160209091012092915050565b81548015613bed579392505050565b7fc5d2460186f7233c927e7db2dcc703c0e500b653ca82273b7bfad8045d85a470935050505090565b5f5f80516020614f2e83398151915281613c2e612dae565b805190915015613c4657805160209091012092915050565b60018201548015613bed579392505050565b806001600160a01b03163b5f03613c8d57604051634c9c8ce360e01b81526001600160a01b0382166004820152602401610d77565b5f80516020614f4e83398151915280546001600160a01b0319166001600160a01b0392909216919091179055565b60605f80846001600160a01b031684604051613cd79190614d20565b5f60405180830381855af49150503d805f8114613d0f576040519150601f19603f3d011682016040523d82523d5f602084013e613d14565b606091505b5091509150611e55858383613f9f565b34156128ff5760405163b398979f60e01b815260040160405180910390fd5b5f805f846001600160a01b031684604051613d5e9190614d20565b5f604051808303815f865af19150503d805f8114613d97576040519150601f19603f3d011682016040523d82523d5f602084013e613d9c565b606091505b5091509150818015613dc6575080511580613dc6575080806020019051810190613dc69190614b1c565b8015611e555750505050506001600160a01b03163b151590565b5f613df46001600160a01b03841683613ffb565b905080515f14158015613e18575080806020019051810190613e169190614b1c565b155b1561260757604051635274afe760e01b81526001600160a01b0384166004820152602401610d77565b5f610d288383614008565b5f80516020614f6e8339815191528054613e71906001600160a01b031686308661401f565b613e7b84836127b9565b836001600160a01b0316856001600160a01b03167fdcbc1c05240f31ff3ad067ef1ee35ce4997762752e3a095284754544f4c709d785856040516131ec929190918252602082015260400190565b60408051600481526024810182526020810180516001600160e01b031663313ce56760e01b17905290515f918291829182916001600160a01b03871691613f0f91614d20565b5f60405180830381855afa9150503d805f8114613f47576040519150601f19603f3d011682016040523d82523d5f602084013e613f4c565b606091505b5091509150818015613f6057506020815110155b15613f93575f81806020019051810190613f7a91906146fc565b905060ff8111613f91576001969095509350505050565b505b505f9485945092505050565b606082613fb457613faf82614058565b610d28565b8151158015613fcb57506001600160a01b0384163b155b15613ff457604051639996b31560e01b81526001600160a01b0385166004820152602401610d77565b5080610d28565b6060610d2883835f614081565b5f8181526001830160205260408120541515610d28565b6040516001600160a01b038481166024830152838116604483015260648201839052610a299186918216906323b872dd906084016136a9565b8051156140685780518082602001fd5b604051630a12f52160e11b815260040160405180910390fd5b6060814710156140a65760405163cd78605960e01b8152306004820152602401610d77565b5f80856001600160a01b031684866040516140c19190614d20565b5f6040518083038185875af1925050503d805f81146140fb576040519150601f19603f3d011682016040523d82523d5f602084013e614100565b606091505b509150915061310e868383613f9f565b5f60208284031215614120575f80fd5b5035919050565b5f5b83811015614141578181015183820152602001614129565b50505f910152565b5f8151808452614160816020860160208601614127565b601f01601f19169290920160200192915050565b602081525f610d286020830184614149565b6001600160a01b0381168114610382575f80fd5b5f80604083850312156141ab575f80fd5b82356141b681614186565b946020939093013593505050565b5f805f805f608086880312156141d8575f80fd5b85356141e381614186565b945060208601356141f381614186565b93506040860135925060608601356001600160401b0380821115614215575f80fd5b818801915088601f830112614228575f80fd5b813581811115614236575f80fd5b896020828501011115614247575f80fd5b9699959850939650602001949392505050565b5f805f6060848603121561426c575f80fd5b833561427781614186565b9250602084013561428781614186565b929592945050506040919091013590565b5f602082840312156142a8575f80fd5b8135610d2881614186565b5f60e082840312156142c3575f80fd5b50919050565b5f8083601f8401126142d9575f80fd5b5081356001600160401b038111156142ef575f80fd5b6020830191508360208260051b8501011115614309575f80fd5b9250929050565b5f805f805f60808688031215614324575f80fd5b85356001600160401b038082111561433a575f80fd5b61434689838a016142b3565b9650602088013591508082111561435b575f80fd5b50614368888289016142c9565b9699909850959660408101359660609091013595509350505050565b634e487b7160e01b5f52604160045260245ffd5b604051601f8201601f191681016001600160401b03811182821017156143c0576143c0614384565b604052919050565b5f80604083850312156143d9575f80fd5b82356143e481614186565b91506020838101356001600160401b0380821115614400575f80fd5b818601915086601f830112614413575f80fd5b81358181111561442557614425614384565b614437601f8201601f19168501614398565b9150808252878482850101111561444c575f80fd5b80848401858401375f848284010152508093505050509250929050565b5f806020838503121561447a575f80fd5b82356001600160401b0381111561448f575f80fd5b61449b858286016142c9565b90969095509350505050565b5f815180845260208085019450602084015f5b838110156144d6578151875295820195908201906001016144ba565b509495945050505050565b602081525f610d2860208301846144a7565b5f8060408385031215614504575f80fd5b82359150602083013561451681614186565b809150509250929050565b60ff60f81b8816815260e060208201525f61453f60e0830189614149565b82810360408401526145518189614149565b606084018890526001600160a01b038716608085015260a0840186905283810360c0850152905061458281856144a7565b9a9950505050505050505050565b5f602082840312156145a0575f80fd5b81356001600160601b0381168114610d28575f80fd5b5f805f606084860312156145c8575f80fd5b8335925060208401356145da81614186565b915060408401356145ea81614186565b809150509250925092565b5f805f805f805f60e0888a03121561460b575f80fd5b873561461681614186565b9650602088013561462681614186565b95506040880135945060608801359350608088013560ff81168114614649575f80fd5b9699959850939692959460a0840135945060c09093013592915050565b5f8060408385031215614677575f80fd5b823561468281614186565b9150602083013561451681614186565b5f805f80606085870312156146a5575f80fd5b84356001600160401b03808211156146bb575f80fd5b6146c7888389016142b3565b955060208701359150808211156146dc575f80fd5b506146e9878288016142c9565b9598909750949560400135949350505050565b5f6020828403121561470c575f80fd5b5051919050565b634e487b7160e01b5f52601160045260245ffd5b81810381811115610cc957610cc9614713565b80820180821115610cc957610cc9614713565b600181811c9082168061476157607f821691505b6020821081036142c357634e487b7160e01b5f52602260045260245ffd5b6001600160a01b039390931683526020830191909152604082015260600190565b63ffffffff81168114610382575f80fd5b5f602082840312156147c1575f80fd5b8135610d28816147a0565b5f808335601e198436030181126147e1575f80fd5b8301803591506001600160401b038211156147fa575f80fd5b6020019150600581901b3603821315614309575f80fd5b5f815180845260208085019450602084015f5b838110156144d65781516001600160a01b031687529582019590820190600101614824565b5f60018060a01b03808351168452806020840151166020850152806040840151166040850152506060820151606084015263ffffffff608083015116608084015260a082015160e060a08501526148a360e0850182614811565b905060c083015184820360c0860152611e5582826144a7565b602081525f610d286020830184614849565b634e487b7160e01b5f52603260045260245ffd5b608081525f6148f46080830188614849565b828103602084810191909152868252879181015f5b8881101561493757833561491c81614186565b6001600160a01b031682529282019290820190600101614909565b5060408501969096525050509015156060909101529392505050565b5f60208083018184528085518083526040925060408601915060408160051b8701018488015f5b838110156149df57603f198984030185528151606081518186526149a082870182614811565b915050888201518582038a8701526149b882826144a7565b928901516001600160a01b031695890195909552509487019492509086019060010161497a565b509098975050505050505050565b5f6001600160401b03821115614a0557614a05614384565b5060051b60200190565b5f6020808385031215614a20575f80fd5b82516001600160401b03811115614a35575f80fd5b8301601f81018513614a45575f80fd5b8051614a58614a53826149ed565b614398565b81815260059190911b82018301908381019087831115614a76575f80fd5b928401925b82841015614a9457835182529284019290840190614a7b565b979650505050505050565b8183525f6001600160fb1b03831115614ab6575f80fd5b8260051b80836020870137939093016020019392505050565b604081525f614ae2604083018587614a9f565b905060018060a01b0383166020830152949350505050565b602081525f6120d3602083018486614a9f565b80518015158114610de0575f80fd5b5f60208284031215614b2c575f80fd5b610d2882614b0d565b634e487b7160e01b5f52601260045260245ffd5b5f82614b5757614b57614b35565b500490565b6001600160601b0382811682821603908082111561350d5761350d614713565b600181815b80851115614bb657815f1904821115614b9c57614b9c614713565b80851615614ba957918102915b93841c9390800290614b81565b509250929050565b5f82614bcc57506001610cc9565b81614bd857505f610cc9565b8160018114614bee5760028114614bf857614c14565b6001915050610cc9565b60ff841115614c0957614c09614713565b50506001821b610cc9565b5060208310610133831016604e8410600b8410161715614c37575081810a610cc9565b614c418383614b7c565b805f1904821115614c5457614c54614713565b029392505050565b5f610d2860ff841683614bbe565b5f8085851115614c78575f80fd5b83861115614c84575f80fd5b5050820193919092039150565b6001600160e01b03198135818116916004851015614cb95780818660040360031b1b83161692505b505092915050565b6001600160a01b03841681526040602082018190528101829052818360608301375f818301606090810191909152601f909201601f1916010192915050565b6001600160601b0381811683821601908082111561350d5761350d614713565b5f8251614d31818460208701614127565b9190910192915050565b5f8060408385031215614d4c575f80fd5b614d5583614b0d565b91506020830151614516816147a0565b634e487b7160e01b5f52603160045260245ffd5b601f82111561260757805f5260205f20601f840160051c81016020851015614d9e5750805b601f840160051c820191505b818110156131f5575f8155600101614daa565b81516001600160401b03811115614dd657614dd6614384565b614dea81614de4845461474d565b84614d79565b602080601f831160018114614e1d575f8415614e065750858301515b5f19600386901b1c1916600185901b178555612096565b5f85815260208120601f198616915b82811015614e4b57888601518255948401946001909101908401614e2c565b5085821015614e6857878501515f19600388901b60f8161c191681555b5050505050600190811b01905550565b634e487b7160e01b5f52602160045260245ffd5b5f60ff831680614e9e57614e9e614b35565b8060ff8416069150509291505056fef3177357ab46d8af007ab3fdb9af81da189e1068fefdc0073dca88a2cab40a0078b7b410d94d33094d5b8a71f1c003e2cbb9e212054d2df1984e3dabc3b25e00611ea165ca9257827fc43d2954fdae7d825e82c825d9037db9337fa1bfa9310052c63247e1f47db19d5ce0460030c497f067ca4cebf71ba98eeadabe20bace00a16a46d94261c7517cc8ff89f61c0ce93598e3c849801011dee649a6a557d100360894a13ba1a3210667c828492db98dca3e2076cc3735a920a3ca505d382bbc0773e532dfede91f04b12a73d3d2acd361424f41f76b4fb79f090161e36b4e00611ea165ca9257827fc43d2954fdae7d825e82c825d9037db9337fa1bfa93100","linkReferences":{}},"methodIdentifiers":{"DOMAIN_SEPARATOR()":"3644e515","PUFFER_ORACLE()":"0195c505","UPGRADE_INTERFACE_VERSION()":"ad3cb1cc","allowance(address,address)":"dd62ed3e","approve(address,uint256)":"095ea7b3","asset()":"38d52e0f","authority()":"bf7e214f","balanceOf(address)":"70a08231","burn(uint256)":"42966c68","claimWithdrawalFromEigenLayer((address[],uint256[],address,(address,uint96),uint32,address),address[],uint256)":"fdcffbac","claimWithdrawalFromEigenLayerM2((address[],uint256[],address,(address,uint96),uint32,address),address[],uint256,uint256)":"34201a64","claimWithdrawalsFromLido(uint256[])":"677a11e9","convertToAssets(uint256)":"07a2d13a","convertToShares(uint256)":"c6e6f592","convertToSharesUp(uint256)":"699beb59","decimals()":"313ce567","deposit(uint256,address)":"6e553f65","depositETH(address)":"2d2da806","depositStETH(uint256,address)":"f6dbd16f","depositToEigenLayer(uint256)":"008e0590","eip712Domain()":"84b0196e","getELBackingEthAmount()":"ed344a22","getExitFeeBasisPoints()":"8fd356ff","getPendingLidoETHAmount()":"f7fe1bd1","getRemainingAssetsDailyWithdrawalLimit()":"af24278c","initialize()":"8129fc1c","initialize(address)":"c4d66de8","initiateETHWithdrawalsFromLido(uint256[])":"593961de","initiateStETHWithdrawalFromEigenLayer(uint256)":"402064a7","isConsumingScheduledOp()":"8fb36037","maxDeposit(address)":"402d267d","maxMint(address)":"c63d75b6","maxRedeem(address)":"d905777e","maxWithdraw(address)":"ce96cb77","mint(uint256,address)":"94bf804d","name()":"06fdde03","nonces(address)":"7ecebe00","onERC721Received(address,address,uint256,bytes)":"150b7a02","permit(address,address,uint256,uint256,uint8,bytes32,bytes32)":"d505accf","previewDeposit(uint256)":"ef8b30f7","previewMint(uint256)":"b3d7f6b9","previewRedeem(uint256)":"4cdad506","previewWithdraw(uint256)":"0a28a477","proxiableUUID()":"52d1902d","redeem(uint256,address,address)":"ba087652","setAuthority(address)":"7a9e5e4b","setDailyWithdrawalLimit(uint96)":"9e9406dc","setExitFeeBasisPoints(uint256)":"5b63b05c","symbol()":"95d89b41","totalAssets()":"01e1d114","totalSupply()":"18160ddd","transfer(address,uint256)":"a9059cbb","transferETH(address,uint256)":"7b1a4909","transferFrom(address,address,uint256)":"23b872dd","upgradeToAndCall(address,bytes)":"4f1ef286","withdraw(uint256,address,address)":"b460af94"},"id":125}