{"abi":[{"type":"constructor","inputs":[{"name":"pufferVault","type":"address","internalType":"contract PufferVault"},{"name":"stETH","type":"address","internalType":"contract IStETH"}],"stateMutability":"payable"},{"type":"function","name":"PUFFER_VAULT","inputs":[],"outputs":[{"name":"","type":"address","internalType":"contract PufferVault"}],"stateMutability":"view"},{"type":"function","name":"UPGRADE_INTERFACE_VERSION","inputs":[],"outputs":[{"name":"","type":"string","internalType":"string"}],"stateMutability":"view"},{"type":"function","name":"authority","inputs":[],"outputs":[{"name":"","type":"address","internalType":"address"}],"stateMutability":"view"},{"type":"function","name":"depositStETH","inputs":[{"name":"permitData","type":"tuple","internalType":"struct Permit","components":[{"name":"deadline","type":"uint256","internalType":"uint256"},{"name":"amount","type":"uint256","internalType":"uint256"},{"name":"v","type":"uint8","internalType":"uint8"},{"name":"r","type":"bytes32","internalType":"bytes32"},{"name":"s","type":"bytes32","internalType":"bytes32"}]}],"outputs":[{"name":"pufETHAmount","type":"uint256","internalType":"uint256"}],"stateMutability":"nonpayable"},{"type":"function","name":"depositWstETH","inputs":[{"name":"permitData","type":"tuple","internalType":"struct Permit","components":[{"name":"deadline","type":"uint256","internalType":"uint256"},{"name":"amount","type":"uint256","internalType":"uint256"},{"name":"v","type":"uint8","internalType":"uint8"},{"name":"r","type":"bytes32","internalType":"bytes32"},{"name":"s","type":"bytes32","internalType":"bytes32"}]}],"outputs":[{"name":"pufETHAmount","type":"uint256","internalType":"uint256"}],"stateMutability":"nonpayable"},{"type":"function","name":"initialize","inputs":[{"name":"accessManager","type":"address","internalType":"address"}],"outputs":[],"stateMutability":"nonpayable"},{"type":"function","name":"isConsumingScheduledOp","inputs":[],"outputs":[{"name":"","type":"bytes4","internalType":"bytes4"}],"stateMutability":"view"},{"type":"function","name":"proxiableUUID","inputs":[],"outputs":[{"name":"","type":"bytes32","internalType":"bytes32"}],"stateMutability":"view"},{"type":"function","name":"setAuthority","inputs":[{"name":"newAuthority","type":"address","internalType":"address"}],"outputs":[],"stateMutability":"nonpayable"},{"type":"function","name":"swapAndDeposit","inputs":[{"name":"tokenIn","type":"address","internalType":"address"},{"name":"amountIn","type":"uint256","internalType":"uint256"},{"name":"amountOutMin","type":"uint256","internalType":"uint256"},{"name":"routeCode","type":"bytes","internalType":"bytes"}],"outputs":[{"name":"pufETHAmount","type":"uint256","internalType":"uint256"}],"stateMutability":"payable"},{"type":"function","name":"swapAndDeposit1Inch","inputs":[{"name":"tokenIn","type":"address","internalType":"address"},{"name":"amountIn","type":"uint256","internalType":"uint256"},{"name":"callData","type":"bytes","internalType":"bytes"}],"outputs":[{"name":"pufETHAmount","type":"uint256","internalType":"uint256"}],"stateMutability":"payable"},{"type":"function","name":"swapAndDepositWithPermit","inputs":[{"name":"tokenIn","type":"address","internalType":"address"},{"name":"amountOutMin","type":"uint256","internalType":"uint256"},{"name":"permitData","type":"tuple","internalType":"struct Permit","components":[{"name":"deadline","type":"uint256","internalType":"uint256"},{"name":"amount","type":"uint256","internalType":"uint256"},{"name":"v","type":"uint8","internalType":"uint8"},{"name":"r","type":"bytes32","internalType":"bytes32"},{"name":"s","type":"bytes32","internalType":"bytes32"}]},{"name":"routeCode","type":"bytes","internalType":"bytes"}],"outputs":[{"name":"pufETHAmount","type":"uint256","internalType":"uint256"}],"stateMutability":"payable"},{"type":"function","name":"swapAndDepositWithPermit1Inch","inputs":[{"name":"tokenIn","type":"address","internalType":"address"},{"name":"permitData","type":"tuple","internalType":"struct Permit","components":[{"name":"deadline","type":"uint256","internalType":"uint256"},{"name":"amount","type":"uint256","internalType":"uint256"},{"name":"v","type":"uint8","internalType":"uint8"},{"name":"r","type":"bytes32","internalType":"bytes32"},{"name":"s","type":"bytes32","internalType":"bytes32"}]},{"name":"callData","type":"bytes","internalType":"bytes"}],"outputs":[{"name":"pufETHAmount","type":"uint256","internalType":"uint256"}],"stateMutability":"payable"},{"type":"function","name":"upgradeToAndCall","inputs":[{"name":"newImplementation","type":"address","internalType":"address"},{"name":"data","type":"bytes","internalType":"bytes"}],"outputs":[],"stateMutability":"payable"},{"type":"event","name":"AuthorityUpdated","inputs":[{"name":"authority","type":"address","indexed":false,"internalType":"address"}],"anonymous":false},{"type":"event","name":"Initialized","inputs":[{"name":"version","type":"uint64","indexed":false,"internalType":"uint64"}],"anonymous":false},{"type":"event","name":"TokenAllowed","inputs":[{"name":"token","type":"address","indexed":false,"internalType":"contract IERC20"}],"anonymous":false},{"type":"event","name":"TokenDisallowed","inputs":[{"name":"token","type":"address","indexed":false,"internalType":"contract IERC20"}],"anonymous":false},{"type":"event","name":"Upgraded","inputs":[{"name":"implementation","type":"address","indexed":true,"internalType":"address"}],"anonymous":false},{"type":"error","name":"AccessManagedInvalidAuthority","inputs":[{"name":"authority","type":"address","internalType":"address"}]},{"type":"error","name":"AccessManagedRequiredDelay","inputs":[{"name":"caller","type":"address","internalType":"address"},{"name":"delay","type":"uint32","internalType":"uint32"}]},{"type":"error","name":"AccessManagedUnauthorized","inputs":[{"name":"caller","type":"address","internalType":"address"}]},{"type":"error","name":"AddressEmptyCode","inputs":[{"name":"target","type":"address","internalType":"address"}]},{"type":"error","name":"AddressInsufficientBalance","inputs":[{"name":"account","type":"address","internalType":"address"}]},{"type":"error","name":"ERC1967InvalidImplementation","inputs":[{"name":"implementation","type":"address","internalType":"address"}]},{"type":"error","name":"ERC1967NonPayable","inputs":[]},{"type":"error","name":"FailedInnerCall","inputs":[]},{"type":"error","name":"InvalidInitialization","inputs":[]},{"type":"error","name":"NotInitializing","inputs":[]},{"type":"error","name":"SafeERC20FailedOperation","inputs":[{"name":"token","type":"address","internalType":"address"}]},{"type":"error","name":"SwapFailed","inputs":[{"name":"token","type":"address","internalType":"address"},{"name":"amount","type":"uint256","internalType":"uint256"}]},{"type":"error","name":"TokenNotAllowed","inputs":[{"name":"token","type":"address","internalType":"address"}]},{"type":"error","name":"UUPSUnauthorizedCallContext","inputs":[]},{"type":"error","name":"UUPSUnsupportedProxiableUUID","inputs":[{"name":"slot","type":"bytes32","internalType":"bytes32"}]}],"bytecode":{"object":"0x60e060408190523060805262001ddf38819003908190833981016040819052620000299162000117565b6001600160a01b0380831660c052811660a052620000466200004e565b505062000154565b7ff0c57e16840df040f15088dc2f81fe391c3923bec73e23a9662efc9c229c6a00805468010000000000000000900460ff16156200009f5760405163f92ee8a960e01b815260040160405180910390fd5b80546001600160401b0390811614620000ff5780546001600160401b0319166001600160401b0390811782556040519081527fc7f505b2f371ae2175ee4913f4499e1f2633a7b5936321eed1cdaeb6115181d29060200160405180910390a15b50565b6001600160a01b0381168114620000ff575f80fd5b5f806040838503121562000129575f80fd5b8251620001368162000102565b6020840151909250620001498162000102565b809150509250929050565b60805160a05160c051611c1a620001c55f395f818161011401528181610560015281816107600152818161093c01528181610b500152610cc901525f81816104a001528181610a6e01528181610b060152610ca801525f8181610e3e01528181610e670152610fb10152611c1a5ff3fe6080604052600436106100d9575f3560e01c806392242db21161007c578063ad3cb1cc11610057578063ad3cb1cc1461021b578063ba3598ce14610258578063bf7e214f14610277578063c4d66de81461028b575f80fd5b806392242db2146101d65780639b207f4a146101f5578063ad24272e14610208575f80fd5b806352d1902d116100b757806352d1902d146101635780637a9e5e4b14610177578063874262a4146101965780638fb36037146101a9575f80fd5b80631eac48b2146100dd5780633e68b094146101035780634f1ef2861461014e575b5f80fd5b6100f06100eb36600461171c565b6102aa565b6040519081526020015b60405180910390f35b34801561010e575f80fd5b506101367f000000000000000000000000000000000000000000000000000000000000000081565b6040516001600160a01b0390911681526020016100fa565b61016161015c36600461179c565b61034f565b005b34801561016e575f80fd5b506100f061036e565b348015610182575f80fd5b50610161610191366004611858565b610389565b6100f06101a4366004611871565b610410565b3480156101b4575f80fd5b506101bd6105dd565b6040516001600160e01b031990911681526020016100fa565b3480156101e1575f80fd5b506100f06101f03660046118b7565b610613565b6100f06102033660046118d1565b6107db565b6100f0610216366004611927565b6109ba565b348015610226575f80fd5b5061024b604051806040016040528060058152602001640352e302e360dc1b81525081565b6040516100fa919061198f565b348015610263575f80fd5b506100f06102723660046118b7565b610a5a565b348015610282575f80fd5b50610136610bc8565b348015610296575f80fd5b506101616102a5366004611858565b610be3565b5f6102b7335b5f36610d3d565b6001600160a01b03861663d505accf3330602088013588356102df60608b0160408c016119c1565b8a606001358b608001356040518863ffffffff1660e01b815260040161030b97969594939291906119e1565b5f604051808303815f87803b158015610322575f80fd5b505af1925050508015610333575060015b50610345868560200135878686610410565b9695505050505050565b610357610e33565b61036082610ed9565b61036a8282610ee5565b5050565b5f610377610fa6565b505f80516020611bfa83398151915290565b33610392610bc8565b6001600160a01b0316816001600160a01b0316146103d25760405162d1953b60e31b81526001600160a01b03821660048201526024015b60405180910390fd5b816001600160a01b03163b5f03610407576040516361798f2f60e11b81526001600160a01b03831660048201526024016103c9565b61036a82610fef565b5f61041a336102b0565b6001600160a01b03861673eeeeeeeeeeeeeeeeeeeeeeeeeeeeeeeeeeeeeeee146104695761044a8633308861104f565b61046986735550d13389bb70f45fcef58f19f6b6e87f6e747d876110bc565b604051632646478b60e01b81525f90735550d13389bb70f45fcef58f19f6b6e87f6e747d90632646478b9034906104d0908b908b907f0000000000000000000000000000000000000000000000000000000000000000908c9030908d908d90600401611a4a565b60206040518083038185885af11580156104ec573d5f803e3d5ffd5b50505050506040513d601f19601f820116820180604052508101906105119190611a99565b9050805f03610544576040516264998560e11b81526001600160a01b0388166004820152602481018790526044016103c9565b604051636e553f6560e01b8152600481018290523360248201527f00000000000000000000000000000000000000000000000000000000000000006001600160a01b031690636e553f65906044016020604051808303815f875af11580156105ae573d5f803e3d5ffd5b505050506040513d601f19601f820116820180604052508101906105d29190611a99565b979650505050505050565b5f80516020611bda83398151915280545f9190600160a01b900460ff16610604575f61060d565b638fb3603760e01b5b91505090565b5f61061d336102b0565b737f39c581f595b53c5cb19bd0b3f8da6c935e2ca063d505accf3330602086013586356106506060890160408a016119c1565b886060013589608001356040518863ffffffff1660e01b815260040161067c97969594939291906119e1565b5f604051808303815f87803b158015610693575f80fd5b505af19250505080156106a4575060015b506106c9737f39c581f595b53c5cb19bd0b3f8da6c935e2ca03330856020013561104f565b604051636f074d1f60e11b8152602083013560048201525f90737f39c581f595b53c5cb19bd0b3f8da6c935e2ca09063de0e9a3e906024016020604051808303815f875af115801561071d573d5f803e3d5ffd5b505050506040513d601f19601f820116820180604052508101906107419190611a99565b604051636e553f6560e01b8152600481018290523360248201529091507f00000000000000000000000000000000000000000000000000000000000000006001600160a01b031690636e553f65906044016020604051808303815f875af11580156107ae573d5f803e3d5ffd5b505050506040513d601f19601f820116820180604052508101906107d29190611a99565b9150505b919050565b5f6107e5336102b0565b6001600160a01b03851673eeeeeeeeeeeeeeeeeeeeeeeeeeeeeeeeeeeeeeee14610834576108158533308761104f565b61083485731111111254eeb25477b68fb85ed929f73a960582866110bc565b5f80731111111254eeb25477b68fb85ed929f73a9605826001600160a01b0316348686604051610865929190611ab0565b5f6040518083038185875af1925050503d805f811461089f576040519150601f19603f3d011682016040523d82523d5f602084013e6108a4565b606091505b5091509150816108d8576040516264998560e11b81526001600160a01b0388166004820152602481018790526044016103c9565b5f818060200190518101906108ed9190611a99565b9050805f03610920576040516264998560e11b81526001600160a01b0389166004820152602481018890526044016103c9565b604051636e553f6560e01b8152600481018290523360248201527f00000000000000000000000000000000000000000000000000000000000000006001600160a01b031690636e553f65906044016020604051808303815f875af115801561098a573d5f803e3d5ffd5b505050506040513d601f19601f820116820180604052508101906109ae9190611a99565b98975050505050505050565b5f6109c4336102b0565b6001600160a01b03851663d505accf3330602088013588356109ec60608b0160408c016119c1565b8a606001358b608001356040518863ffffffff1660e01b8152600401610a1897969594939291906119e1565b5f604051808303815f87803b158015610a2f575f80fd5b505af1925050508015610a40575060015b50610a5185856020013585856107db565b95945050505050565b5f610a64336102b0565b6001600160a01b037f00000000000000000000000000000000000000000000000000000000000000001663d505accf333060208601358635610aac6060890160408a016119c1565b886060013589608001356040518863ffffffff1660e01b8152600401610ad897969594939291906119e1565b5f604051808303815f87803b158015610aef575f80fd5b505af1925050508015610b00575060015b50610b317f00000000000000000000000000000000000000000000000000000000000000003330856020013561104f565b604051636e553f6560e01b8152602083013560048201523360248201527f00000000000000000000000000000000000000000000000000000000000000006001600160a01b031690636e553f65906044016020604051808303815f875af1158015610b9e573d5f803e3d5ffd5b505050506040513d601f19601f82011682018060405250810190610bc29190611a99565b92915050565b5f80516020611bda833981519152546001600160a01b031690565b7ff0c57e16840df040f15088dc2f81fe391c3923bec73e23a9662efc9c229c6a008054600160401b810460ff16159067ffffffffffffffff165f81158015610c285750825b90505f8267ffffffffffffffff166001148015610c445750303b155b905081158015610c52575080155b15610c705760405163f92ee8a960e01b815260040160405180910390fd5b845467ffffffffffffffff191660011785558315610c9a57845460ff60401b1916600160401b1785555b610ca386611143565b610cef7f00000000000000000000000000000000000000000000000000000000000000007f00000000000000000000000000000000000000000000000000000000000000005f196110bc565b8315610d3557845460ff60401b19168555604051600181527fc7f505b2f371ae2175ee4913f4499e1f2633a7b5936321eed1cdaeb6115181d29060200160405180910390a15b505050505050565b5f80516020611bda8339815191525f80610d75610d58610bc8565b8730610d6760045f8a8c611abf565b610d7091611ae6565b611154565b9150915081610d355763ffffffff811615610e1057825460ff60a01b1916600160a01b178355610da3610bc8565b6001600160a01b03166394c7d7ee8787876040518463ffffffff1660e01b8152600401610dd293929190611b16565b5f604051808303815f87803b158015610de9575f80fd5b505af1158015610dfb573d5f803e3d5ffd5b5050845460ff60a01b1916855550610d359050565b60405162d1953b60e31b81526001600160a01b03871660048201526024016103c9565b306001600160a01b037f0000000000000000000000000000000000000000000000000000000000000000161480610eb957507f00000000000000000000000000000000000000000000000000000000000000006001600160a01b0316610ead5f80516020611bfa833981519152546001600160a01b031690565b6001600160a01b031614155b15610ed75760405163703e46dd60e11b815260040160405180910390fd5b565b610ee2336102b0565b50565b816001600160a01b03166352d1902d6040518163ffffffff1660e01b8152600401602060405180830381865afa925050508015610f3f575060408051601f3d908101601f19168201909252610f3c91810190611a99565b60015b610f6757604051634c9c8ce360e01b81526001600160a01b03831660048201526024016103c9565b5f80516020611bfa8339815191528114610f9757604051632a87526960e21b8152600481018290526024016103c9565b610fa1838361125c565b505050565b306001600160a01b037f00000000000000000000000000000000000000000000000000000000000000001614610ed75760405163703e46dd60e11b815260040160405180910390fd5b5f80516020611bda83398151915280546001600160a01b0383166001600160a01b03199091168117825560408051918252517f2f658b440c35314f52658ea8a740e05b284cdc84dc9ae01e891f21b8933e7cad9181900360200190a15050565b6040516001600160a01b0384811660248301528381166044830152606482018390526110b69186918216906323b872dd906084015b604051602081830303815290604052915060e01b6020820180516001600160e01b0383818316178352505050506112b1565b50505050565b604051636eb1769f60e11b81523060048201526001600160a01b0383811660248301525f919085169063dd62ed3e90604401602060405180830381865afa158015611109573d5f803e3d5ffd5b505050506040513d601f19601f8201168201806040525081019061112d9190611a99565b90506110b6848461113e8585611b3a565b611312565b61114b6113a1565b610ee2816113ea565b6040516001600160a01b03848116602483015283811660448301526001600160e01b0319831660648301525f9182918291829189169060840160408051601f198184030181529181526020820180516001600160e01b031663b700961360e01b179052516111c29190611b59565b5f60405180830381855afa9150503d805f81146111fa576040519150601f19603f3d011682016040523d82523d5f602084013e6111ff565b606091505b5091509150811561125157604081511061123157808060200190518101906112279190611b83565b9094509250611251565b6020815110611251578080602001905181019061124e9190611bc0565b93505b505094509492505050565b611265826113fb565b6040516001600160a01b038316907fbc7cd75a20ee27fd9adebab32041f755214dbc6bffa90cc0225b39da2e5c2d3b905f90a28051156112a957610fa1828261145e565b61036a6114c7565b5f6112c56001600160a01b038416836114e6565b905080515f141580156112e95750808060200190518101906112e79190611bc0565b155b15610fa157604051635274afe760e01b81526001600160a01b03841660048201526024016103c9565b604080516001600160a01b038416602482015260448082018490528251808303909101815260649091019091526020810180516001600160e01b031663095ea7b360e01b17905261136384826114fa565b6110b6576040516001600160a01b0384811660248301525f604483015261139791869182169063095ea7b390606401611084565b6110b684826112b1565b7ff0c57e16840df040f15088dc2f81fe391c3923bec73e23a9662efc9c229c6a0054600160401b900460ff16610ed757604051631afcd79f60e31b815260040160405180910390fd5b6113f26113a1565b610ee281610fef565b806001600160a01b03163b5f0361143057604051634c9c8ce360e01b81526001600160a01b03821660048201526024016103c9565b5f80516020611bfa83398151915280546001600160a01b0319166001600160a01b0392909216919091179055565b60605f80846001600160a01b03168460405161147a9190611b59565b5f60405180830381855af49150503d805f81146114b2576040519150601f19603f3d011682016040523d82523d5f602084013e6114b7565b606091505b5091509150610a51858383611597565b3415610ed75760405163b398979f60e01b815260040160405180910390fd5b60606114f383835f6115f3565b9392505050565b5f805f846001600160a01b0316846040516115159190611b59565b5f604051808303815f865af19150503d805f811461154e576040519150601f19603f3d011682016040523d82523d5f602084013e611553565b606091505b509150915081801561157d57508051158061157d57508080602001905181019061157d9190611bc0565b8015610a515750505050506001600160a01b03163b151590565b6060826115ac576115a782611682565b6114f3565b81511580156115c357506001600160a01b0384163b155b156115ec57604051639996b31560e01b81526001600160a01b03851660048201526024016103c9565b5092915050565b6060814710156116185760405163cd78605960e01b81523060048201526024016103c9565b5f80856001600160a01b031684866040516116339190611b59565b5f6040518083038185875af1925050503d805f811461166d576040519150601f19603f3d011682016040523d82523d5f602084013e611672565b606091505b5091509150610345868383611597565b8051156116925780518082602001fd5b604051630a12f52160e11b815260040160405180910390fd5b80356001600160a01b03811681146107d6575f80fd5b5f60a082840312156116d1575f80fd5b50919050565b5f8083601f8401126116e7575f80fd5b50813567ffffffffffffffff8111156116fe575f80fd5b602083019150836020828501011115611715575f80fd5b9250929050565b5f805f805f6101008688031215611731575f80fd5b61173a866116ab565b94506020860135935061175087604088016116c1565b925060e086013567ffffffffffffffff81111561176b575f80fd5b611777888289016116d7565b969995985093965092949392505050565b634e487b7160e01b5f52604160045260245ffd5b5f80604083850312156117ad575f80fd5b6117b6836116ab565b9150602083013567ffffffffffffffff808211156117d2575f80fd5b818501915085601f8301126117e5575f80fd5b8135818111156117f7576117f7611788565b604051601f8201601f19908116603f0116810190838211818310171561181f5761181f611788565b81604052828152886020848701011115611837575f80fd5b826020860160208301375f6020848301015280955050505050509250929050565b5f60208284031215611868575f80fd5b6114f3826116ab565b5f805f805f60808688031215611885575f80fd5b61188e866116ab565b94506020860135935060408601359250606086013567ffffffffffffffff81111561176b575f80fd5b5f60a082840312156118c7575f80fd5b6114f383836116c1565b5f805f80606085870312156118e4575f80fd5b6118ed856116ab565b935060208501359250604085013567ffffffffffffffff81111561190f575f80fd5b61191b878288016116d7565b95989497509550505050565b5f805f8060e0858703121561193a575f80fd5b611943856116ab565b935061195286602087016116c1565b925060c085013567ffffffffffffffff81111561190f575f80fd5b5f5b8381101561198757818101518382015260200161196f565b50505f910152565b602081525f82518060208401526119ad81604085016020870161196d565b601f01601f19169190910160400192915050565b5f602082840312156119d1575f80fd5b813560ff811681146114f3575f80fd5b6001600160a01b0397881681529590961660208601526040850193909352606084019190915260ff16608083015260a082015260c081019190915260e00190565b81835281816020850137505f828201602090810191909152601f909101601f19169091010190565b6001600160a01b038881168252602082018890528681166040830152606082018690528416608082015260c060a082018190525f90611a8c9083018486611a22565b9998505050505050505050565b5f60208284031215611aa9575f80fd5b5051919050565b818382375f9101908152919050565b5f8085851115611acd575f80fd5b83861115611ad9575f80fd5b5050820193919092039150565b6001600160e01b03198135818116916004851015611b0e5780818660040360031b1b83161692505b505092915050565b6001600160a01b03841681526040602082018190525f90610a519083018486611a22565b80820180821115610bc257634e487b7160e01b5f52601160045260245ffd5b5f8251611b6a81846020870161196d565b9190910192915050565b805180151581146107d6575f80fd5b5f8060408385031215611b94575f80fd5b611b9d83611b74565b9150602083015163ffffffff81168114611bb5575f80fd5b809150509250929050565b5f60208284031215611bd0575f80fd5b6114f382611b7456fef3177357ab46d8af007ab3fdb9af81da189e1068fefdc0073dca88a2cab40a00360894a13ba1a3210667c828492db98dca3e2076cc3735a920a3ca505d382bbc","linkReferences":{}},"methodIdentifiers":{"PUFFER_VAULT()":"3e68b094","UPGRADE_INTERFACE_VERSION()":"ad3cb1cc","authority()":"bf7e214f","depositStETH((uint256,uint256,uint8,bytes32,bytes32))":"ba3598ce","depositWstETH((uint256,uint256,uint8,bytes32,bytes32))":"92242db2","initialize(address)":"c4d66de8","isConsumingScheduledOp()":"8fb36037","proxiableUUID()":"52d1902d","setAuthority(address)":"7a9e5e4b","swapAndDeposit(address,uint256,uint256,bytes)":"874262a4","swapAndDeposit1Inch(address,uint256,bytes)":"9b207f4a","swapAndDepositWithPermit(address,uint256,(uint256,uint256,uint8,bytes32,bytes32),bytes)":"1eac48b2","swapAndDepositWithPermit1Inch(address,(uint256,uint256,uint8,bytes32,bytes32),bytes)":"ad24272e","upgradeToAndCall(address,bytes)":"4f1ef286"},"id":120}