{"abi":[{"type":"constructor","inputs":[],"stateMutability":"nonpayable"},{"type":"function","name":"buildJSON","inputs":[{"name":"values","type":"tuple","internalType":"struct JSONBuilder.Values","components":[{"name":"id","type":"bytes","internalType":"bytes"},{"name":"timestamp","type":"bytes","internalType":"bytes"},{"name":"version","type":"bytes","internalType":"bytes"},{"name":"epidPseudonym","type":"bytes","internalType":"bytes"},{"name":"advisoryURL","type":"bytes","internalType":"bytes"},{"name":"advisoryIDs","type":"bytes","internalType":"bytes"},{"name":"isvEnclaveQuoteStatus","type":"bytes","internalType":"bytes"},{"name":"isvEnclaveQuoteBody","type":"bytes","internalType":"bytes"}]}],"outputs":[{"name":"json","type":"string","internalType":"string"}],"stateMutability":"pure"},{"type":"function","name":"rave","inputs":[{"name":"report","type":"bytes","internalType":"bytes"},{"name":"sig","type":"bytes","internalType":"bytes"},{"name":"leafX509Cert","type":"bytes","internalType":"bytes"},{"name":"signingMod","type":"bytes","internalType":"bytes"},{"name":"signingExp","type":"bytes","internalType":"bytes"},{"name":"mrenclave","type":"bytes32","internalType":"bytes32"},{"name":"mrsigner","type":"bytes32","internalType":"bytes32"}],"outputs":[{"name":"payload","type":"bytes","internalType":"bytes"}],"stateMutability":"view"},{"type":"function","name":"verifyRemoteAttestation","inputs":[{"name":"report","type":"bytes","internalType":"bytes"},{"name":"sig","type":"bytes","internalType":"bytes"},{"name":"signingMod","type":"bytes","internalType":"bytes"},{"name":"signingExp","type":"bytes","internalType":"bytes"},{"name":"mrenclave","type":"bytes32","internalType":"bytes32"},{"name":"mrsigner","type":"bytes32","internalType":"bytes32"}],"outputs":[{"name":"payload","type":"bytes","internalType":"bytes"}],"stateMutability":"view"},{"type":"function","name":"verifyReportSignature","inputs":[{"name":"report","type":"bytes","internalType":"bytes"},{"name":"sig","type":"bytes","internalType":"bytes"},{"name":"signingMod","type":"bytes","internalType":"bytes"},{"name":"signingExp","type":"bytes","internalType":"bytes"}],"outputs":[{"name":"","type":"bool","internalType":"bool"}],"stateMutability":"view"},{"type":"error","name":"BadReportSignature","inputs":[]}],"bytecode":{"object":"0x608060405234801561000f575f80fd5b506112858061001d5f395ff3fe608060405234801561000f575f80fd5b506004361061004a575f3560e01c80633549c40e1461004e57806354a2da361461007657806361bb035514610096578063fe4e6aee146100a9575b5f80fd5b61006161005c366004610931565b6100bc565b60405190151581526020015b60405180910390f35b6100896100843660046109db565b610184565b60405161006d9190610ae9565b6100896100a4366004610b02565b61020e565b6100896100b7366004610be5565b6102b2565b5f805f6100ff858589898080601f0160208091040260200160405190810160405280939291908181526020018383808284375f9201919091525061032792505050565b915091505f61011c602083516101159190610d56565b8390610341565b905082801561017757506002896040516101369190610d6f565b602060405180830381855afa158015610151573d5f803e3d5ffd5b5050506040513d601f19601f820116820180604052508101906101749190610d8a565b81145b9998505050505050505050565b60605f806101c68b8b8080601f0160208091040260200160405190810160405280939291908181526020018383808284375f9201919091525061036392505050565b915091506101d7818a8a8a8a6100bc565b6101f457604051633f1a65c760e21b815260040160405180910390fd5b6101ff828686610442565b9b9a5050505050505050505050565b60605f8073__$f3adf7c7352a784d1737852c3f8f0a4c62$__63a21f157a8989896040518463ffffffff1660e01b815260040161024d93929190610da1565b5f60405180830381865af4158015610267573d5f803e3d5ffd5b505050506040513d5f823e601f3d908101601f1916820160405261028e9190810190610e2d565b915091506102a28c8c8c8c86868b8b610184565b9c9b505050505050505050505050565b6060815f01518260200151836040015184606001516040516020016102da9493929190610e8c565b60408051601f1981840301815290829052608084015160a085015160c086015160e087015193955061031194869490602001610f4b565b6040516020818303038152906040529050919050565b5f6060610335838587610552565b91509150935093915050565b81515f90610350836020611055565b111561035a575f80fd5b50016020015190565b6103ab60405180610100016040528060608152602001606081526020016060815260200160608152602001606081526020016060815260200160608152602001606081525090565b60605f805f805f805f808a8060200190518101906103c99190611068565b975097509750975097509750975097505f6103e3826105e6565b90506040518061010001604052808a8152602001898152602001888152602001878152602001868152602001858152602001848152602001828152509a5061042a8b6102b2565b60e08c019290925250989a9899505050505050505050565b60c083015180516020909101206060907fdaa4f5d475c02455977059e29f0bd4c2f7e92e8cfa8026b3dcd2c374e8a520e681148061049f57507f174348b9c1e9ee5c57cffc36f0797c45d85e5ec45e51b2b17433eb33f56a215081145b6104ef5760405162461bcd60e51b815260206004820152601960248201527f62616420697376456e636c61766551756f746553746174757300000000000000604482015260640160405180910390fd5b60e085015180516101b0146105065761050661119a565b5f610512826070610341565b905085811461051f575f80fd5b5f61052b8360b0610341565b9050858114610538575f80fd5b610546836101706040610734565b98975050505050505050565b5f60605f855185518551888888604051602001610574969594939291906111ae565b604051602081830303815290604052905083516001600160401b0381111561059e5761059e610808565b6040519080825280601f01601f1916602001820160405280156105c8576020820181803683370190505b50915083516020830182516020840160055afa925050935093915050565b606081515f0361060357505060408051602081019091525f815290565b5f6040518060600160405280604081526020016112456040913990505f6003845160026106309190611055565b61063a919061120e565b61064590600461122d565b6001600160401b0381111561065c5761065c610808565b6040519080825280601f01601f191660200182016040528015610686576020820181803683370190505b509050600182016020820185865187015b808210156106f2576003820191508151603f8160121c168501518453600184019350603f81600c1c168501518453600184019350603f8160061c168501518453600184019350603f8116850151845350600183019250610697565b505060038651066001811461070e576002811461072157610729565b603d6001830353603d6002830353610729565b603d60018303535b509195945050505050565b82516060906107438385611055565b111561074d575f80fd5b5f826001600160401b0381111561076657610766610808565b6040519080825280601f01601f191660200182016040528015610790576020820181803683370190505b509050602080820190868601016107a88282876107b3565b509095945050505050565b602081106107eb57815183526107ca602084611055565b92506107d7602083611055565b91506107e4602082610d56565b90506107b3565b905182516020929092036101000a5f190180199091169116179052565b634e487b7160e01b5f52604160045260245ffd5b60405161010081016001600160401b038111828210171561083f5761083f610808565b60405290565b604051601f8201601f191681016001600160401b038111828210171561086d5761086d610808565b604052919050565b5f6001600160401b0382111561088d5761088d610808565b50601f01601f191660200190565b5f82601f8301126108aa575f80fd5b81356108bd6108b882610875565b610845565b8181528460208386010111156108d1575f80fd5b816020850160208301375f918101602001919091529392505050565b5f8083601f8401126108fd575f80fd5b5081356001600160401b03811115610913575f80fd5b60208301915083602082850101111561092a575f80fd5b9250929050565b5f805f805f60808688031215610945575f80fd5b85356001600160401b038082111561095b575f80fd5b61096789838a0161089b565b9650602088013591508082111561097c575f80fd5b61098889838a016108ed565b909650945060408801359150808211156109a0575f80fd5b6109ac89838a0161089b565b935060608801359150808211156109c1575f80fd5b506109ce8882890161089b565b9150509295509295909350565b5f805f805f805f8060c0898b0312156109f2575f80fd5b88356001600160401b0380821115610a08575f80fd5b610a148c838d016108ed565b909a50985060208b0135915080821115610a2c575f80fd5b610a388c838d016108ed565b909850965060408b0135915080821115610a50575f80fd5b610a5c8c838d0161089b565b955060608b0135915080821115610a71575f80fd5b50610a7e8b828c0161089b565b9350506080890135915060a089013590509295985092959890939650565b5f5b83811015610ab6578181015183820152602001610a9e565b50505f910152565b5f8151808452610ad5816020860160208601610a9c565b601f01601f19169290920160200192915050565b602081525f610afb6020830184610abe565b9392505050565b5f805f805f805f805f60e08a8c031215610b1a575f80fd5b89356001600160401b0380821115610b30575f80fd5b610b3c8d838e016108ed565b909b50995060208c0135915080821115610b54575f80fd5b610b608d838e016108ed565b909950975060408c0135915080821115610b78575f80fd5b610b848d838e0161089b565b965060608c0135915080821115610b99575f80fd5b610ba58d838e0161089b565b955060808c0135915080821115610bba575f80fd5b50610bc78c828d0161089b565b93505060a08a0135915060c08a013590509295985092959850929598565b5f60208284031215610bf5575f80fd5b81356001600160401b0380821115610c0b575f80fd5b908301906101008286031215610c1f575f80fd5b610c2761081c565b823582811115610c35575f80fd5b610c418782860161089b565b825250602083013582811115610c55575f80fd5b610c618782860161089b565b602083015250604083013582811115610c78575f80fd5b610c848782860161089b565b604083015250606083013582811115610c9b575f80fd5b610ca78782860161089b565b606083015250608083013582811115610cbe575f80fd5b610cca8782860161089b565b60808301525060a083013582811115610ce1575f80fd5b610ced8782860161089b565b60a08301525060c083013582811115610d04575f80fd5b610d108782860161089b565b60c08301525060e083013582811115610d27575f80fd5b610d338782860161089b565b60e08301525095945050505050565b634e487b7160e01b5f52601160045260245ffd5b81810381811115610d6957610d69610d42565b92915050565b5f8251610d80818460208701610a9c565b9190910192915050565b5f60208284031215610d9a575f80fd5b5051919050565b606081525f610db36060830186610abe565b8281036020840152610dc58186610abe565b90508281036040840152610dd98185610abe565b9695505050505050565b5f82601f830112610df2575f80fd5b8151610e006108b882610875565b818152846020838601011115610e14575f80fd5b610e25826020830160208701610a9c565b949350505050565b5f8060408385031215610e3e575f80fd5b82516001600160401b0380821115610e54575f80fd5b610e6086838701610de3565b93506020850151915080821115610e75575f80fd5b50610e8285828601610de3565b9150509250929050565b663d9134b2111d1160c91b815284515f90610eae816007850160208a01610a9c565b6e1116113a34b6b2b9ba30b6b8111d1160891b6007918401918201528551610edd816016840160208a01610a9c565b6b1116113b32b939b4b7b7111d60a11b601692909101918201528451610f0a816022840160208901610a9c565b71161132b834b22839b2bab237b73cb6911d1160711b602292909101918201528351610f3d816034840160208801610a9c565b016034019695505050505050565b5f8651610f5c818460208b01610a9c565b7011161130b23b34b9b7b93caaa926111d1160791b9083019081528651610f8a816011840160208b01610a9c565b6f11161130b23b34b9b7b93ca4a239911d60811b601192909101918201528551610fbb816021840160208a01610a9c565b7f2c22697376456e636c61766551756f7465537461747573223a22000000000000602192909101918201528451610ff981603b840160208901610a9c565b7f222c22697376456e636c61766551756f7465426f6479223a2200000000000000603b92909101918201528351611037816054840160208801610a9c565b61227d60f01b60549290910191820152605601979650505050505050565b80820180821115610d6957610d69610d42565b5f805f805f805f80610100898b031215611080575f80fd5b88516001600160401b0380821115611096575f80fd5b6110a28c838d01610de3565b995060208b01519150808211156110b7575f80fd5b6110c38c838d01610de3565b985060408b01519150808211156110d8575f80fd5b6110e48c838d01610de3565b975060608b01519150808211156110f9575f80fd5b6111058c838d01610de3565b965060808b015191508082111561111a575f80fd5b6111268c838d01610de3565b955060a08b015191508082111561113b575f80fd5b6111478c838d01610de3565b945060c08b015191508082111561115c575f80fd5b6111688c838d01610de3565b935060e08b015191508082111561117d575f80fd5b5061118a8b828c01610de3565b9150509295985092959890939650565b634e487b7160e01b5f52600160045260245ffd5b8681528560208201528460408201525f84516111d1816060850160208901610a9c565b8451908301906111e8816060840160208901610a9c565b84519101906111fe816060840160208801610a9c565b0160600198975050505050505050565b5f8261122857634e487b7160e01b5f52601260045260245ffd5b500490565b8082028115828204841417610d6957610d69610d4256fe4142434445464748494a4b4c4d4e4f505152535455565758595a6162636465666768696a6b6c6d6e6f707172737475767778797a303132333435363738392b2f","linkReferences":{"lib/rave/src/X509Verifier.sol":{"X509Verifier":[{"start":561,"length":20}]}}},"methodIdentifiers":{"buildJSON((bytes,bytes,bytes,bytes,bytes,bytes,bytes,bytes))":"fe4e6aee","rave(bytes,bytes,bytes,bytes,bytes,bytes32,bytes32)":"61bb0355","verifyRemoteAttestation(bytes,bytes,bytes,bytes,bytes32,bytes32)":"54a2da36","verifyReportSignature(bytes,bytes,bytes,bytes)":"3549c40e"},"id":154}