{"abi":[{"type":"constructor","inputs":[{"name":"protocol","type":"address","internalType":"contract IPufferProtocol"},{"name":"eigenPodManager","type":"address","internalType":"address"},{"name":"eigenWithdrawalRouter","type":"address","internalType":"contract IDelayedWithdrawalRouter"},{"name":"delegationManager","type":"address","internalType":"contract IDelegationManager"},{"name":"moduleManager","type":"address","internalType":"contract IPufferModuleManager"}],"stateMutability":"payable"},{"type":"receive","stateMutability":"payable"},{"type":"function","name":"EIGEN_DELEGATION_MANAGER","inputs":[],"outputs":[{"name":"","type":"address","internalType":"contract IDelegationManager"}],"stateMutability":"view"},{"type":"function","name":"EIGEN_POD_MANAGER","inputs":[],"outputs":[{"name":"","type":"address","internalType":"contract IEigenPodManager"}],"stateMutability":"view"},{"type":"function","name":"EIGEN_WITHDRAWAL_ROUTER","inputs":[],"outputs":[{"name":"","type":"address","internalType":"contract IDelayedWithdrawalRouter"}],"stateMutability":"view"},{"type":"function","name":"NAME","inputs":[],"outputs":[{"name":"","type":"bytes32","internalType":"bytes32"}],"stateMutability":"view"},{"type":"function","name":"PUFFER_MODULE_MANAGER","inputs":[],"outputs":[{"name":"","type":"address","internalType":"contract IPufferModuleManager"}],"stateMutability":"view"},{"type":"function","name":"PUFFER_PROTOCOL","inputs":[],"outputs":[{"name":"","type":"address","internalType":"contract IPufferProtocol"}],"stateMutability":"view"},{"type":"function","name":"authority","inputs":[],"outputs":[{"name":"","type":"address","internalType":"address"}],"stateMutability":"view"},{"type":"function","name":"call","inputs":[{"name":"to","type":"address","internalType":"address"},{"name":"amount","type":"uint256","internalType":"uint256"},{"name":"data","type":"bytes","internalType":"bytes"}],"outputs":[{"name":"success","type":"bool","internalType":"bool"},{"name":"","type":"bytes","internalType":"bytes"}],"stateMutability":"nonpayable"},{"type":"function","name":"callDelegateTo","inputs":[{"name":"operator","type":"address","internalType":"address"},{"name":"approverSignatureAndExpiry","type":"tuple","internalType":"struct ISignatureUtils.SignatureWithExpiry","components":[{"name":"signature","type":"bytes","internalType":"bytes"},{"name":"expiry","type":"uint256","internalType":"uint256"}]},{"name":"approverSalt","type":"bytes32","internalType":"bytes32"}],"outputs":[],"stateMutability":"nonpayable"},{"type":"function","name":"callStake","inputs":[{"name":"pubKey","type":"bytes","internalType":"bytes"},{"name":"signature","type":"bytes","internalType":"bytes"},{"name":"depositDataRoot","type":"bytes32","internalType":"bytes32"}],"outputs":[],"stateMutability":"payable"},{"type":"function","name":"callUndelegate","inputs":[],"outputs":[{"name":"withdrawalRoot","type":"bytes32[]","internalType":"bytes32[]"}],"stateMutability":"nonpayable"},{"type":"function","name":"collectRewards","inputs":[{"name":"node","type":"address","internalType":"address"},{"name":"blockNumbers","type":"uint256[]","internalType":"uint256[]"},{"name":"amounts","type":"uint256[]","internalType":"uint256[]"},{"name":"merkleProofs","type":"bytes32[][]","internalType":"bytes32[][]"}],"outputs":[],"stateMutability":"nonpayable"},{"type":"function","name":"completeQueuedWithdrawals","inputs":[{"name":"withdrawals","type":"tuple[]","internalType":"struct IDelegationManager.Withdrawal[]","components":[{"name":"staker","type":"address","internalType":"address"},{"name":"delegatedTo","type":"address","internalType":"address"},{"name":"withdrawer","type":"address","internalType":"address"},{"name":"nonce","type":"uint256","internalType":"uint256"},{"name":"startBlock","type":"uint32","internalType":"uint32"},{"name":"strategies","type":"address[]","internalType":"contract IStrategy[]"},{"name":"shares","type":"uint256[]","internalType":"uint256[]"}]},{"name":"tokens","type":"address[][]","internalType":"contract IERC20[][]"},{"name":"middlewareTimesIndexes","type":"uint256[]","internalType":"uint256[]"},{"name":"receiveAsTokens","type":"bool[]","internalType":"bool[]"}],"outputs":[],"stateMutability":"nonpayable"},{"type":"function","name":"getEigenPod","inputs":[],"outputs":[{"name":"","type":"address","internalType":"address"}],"stateMutability":"view"},{"type":"function","name":"getLastProofOfRewardsBlock","inputs":[],"outputs":[{"name":"","type":"uint256","internalType":"uint256"}],"stateMutability":"view"},{"type":"function","name":"getWithdrawalCredentials","inputs":[],"outputs":[{"name":"","type":"bytes","internalType":"bytes"}],"stateMutability":"view"},{"type":"function","name":"initialize","inputs":[{"name":"moduleName","type":"bytes32","internalType":"bytes32"},{"name":"initialAuthority","type":"address","internalType":"address"}],"outputs":[],"stateMutability":"nonpayable"},{"type":"function","name":"isConsumingScheduledOp","inputs":[],"outputs":[{"name":"","type":"bytes4","internalType":"bytes4"}],"stateMutability":"view"},{"type":"function","name":"postRewardsRoot","inputs":[{"name":"root","type":"bytes32","internalType":"bytes32"},{"name":"blockNumber","type":"uint256","internalType":"uint256"},{"name":"guardianSignatures","type":"bytes[]","internalType":"bytes[]"}],"outputs":[],"stateMutability":"nonpayable"},{"type":"function","name":"queueWithdrawals","inputs":[{"name":"shareAmount","type":"uint256","internalType":"uint256"}],"outputs":[{"name":"","type":"bytes32[]","internalType":"bytes32[]"}],"stateMutability":"nonpayable"},{"type":"function","name":"setAuthority","inputs":[{"name":"newAuthority","type":"address","internalType":"address"}],"outputs":[],"stateMutability":"nonpayable"},{"type":"function","name":"verifyAndProcessWithdrawals","inputs":[{"name":"oracleTimestamp","type":"uint64","internalType":"uint64"},{"name":"stateRootProof","type":"tuple","internalType":"struct BeaconChainProofs.StateRootProof","components":[{"name":"beaconStateRoot","type":"bytes32","internalType":"bytes32"},{"name":"proof","type":"bytes","internalType":"bytes"}]},{"name":"withdrawalProofs","type":"tuple[]","internalType":"struct BeaconChainProofs.WithdrawalProof[]","components":[{"name":"withdrawalProof","type":"bytes","internalType":"bytes"},{"name":"slotProof","type":"bytes","internalType":"bytes"},{"name":"executionPayloadProof","type":"bytes","internalType":"bytes"},{"name":"timestampProof","type":"bytes","internalType":"bytes"},{"name":"historicalSummaryBlockRootProof","type":"bytes","internalType":"bytes"},{"name":"blockRootIndex","type":"uint64","internalType":"uint64"},{"name":"historicalSummaryIndex","type":"uint64","internalType":"uint64"},{"name":"withdrawalIndex","type":"uint64","internalType":"uint64"},{"name":"blockRoot","type":"bytes32","internalType":"bytes32"},{"name":"slotRoot","type":"bytes32","internalType":"bytes32"},{"name":"timestampRoot","type":"bytes32","internalType":"bytes32"},{"name":"executionPayloadRoot","type":"bytes32","internalType":"bytes32"}]},{"name":"validatorFieldsProofs","type":"bytes[]","internalType":"bytes[]"},{"name":"validatorFields","type":"bytes32[][]","internalType":"bytes32[][]"},{"name":"withdrawalFields","type":"bytes32[][]","internalType":"bytes32[][]"}],"outputs":[],"stateMutability":"nonpayable"},{"type":"function","name":"verifyWithdrawalCredentials","inputs":[{"name":"oracleTimestamp","type":"uint64","internalType":"uint64"},{"name":"stateRootProof","type":"tuple","internalType":"struct BeaconChainProofs.StateRootProof","components":[{"name":"beaconStateRoot","type":"bytes32","internalType":"bytes32"},{"name":"proof","type":"bytes","internalType":"bytes"}]},{"name":"validatorIndices","type":"uint40[]","internalType":"uint40[]"},{"name":"validatorFieldsProofs","type":"bytes[]","internalType":"bytes[]"},{"name":"validatorFields","type":"bytes32[][]","internalType":"bytes32[][]"}],"outputs":[],"stateMutability":"nonpayable"},{"type":"function","name":"withdrawNonBeaconChainETHBalanceWei","inputs":[{"name":"amountToWithdraw","type":"uint256","internalType":"uint256"}],"outputs":[],"stateMutability":"nonpayable"},{"type":"event","name":"AuthorityUpdated","inputs":[{"name":"authority","type":"address","indexed":false,"internalType":"address"}],"anonymous":false},{"type":"event","name":"Initialized","inputs":[{"name":"version","type":"uint64","indexed":false,"internalType":"uint64"}],"anonymous":false},{"type":"event","name":"RewardsClaimed","inputs":[{"name":"node","type":"address","indexed":true,"internalType":"address"},{"name":"amount","type":"uint256","indexed":false,"internalType":"uint256"}],"anonymous":false},{"type":"event","name":"RewardsRootPosted","inputs":[{"name":"blockNumber","type":"uint256","indexed":true,"internalType":"uint256"},{"name":"root","type":"bytes32","indexed":false,"internalType":"bytes32"}],"anonymous":false},{"type":"error","name":"AccessManagedInvalidAuthority","inputs":[{"name":"authority","type":"address","internalType":"address"}]},{"type":"error","name":"AccessManagedRequiredDelay","inputs":[{"name":"caller","type":"address","internalType":"address"},{"name":"delay","type":"uint32","internalType":"uint32"}]},{"type":"error","name":"AccessManagedUnauthorized","inputs":[{"name":"caller","type":"address","internalType":"address"}]},{"type":"error","name":"AddressInsufficientBalance","inputs":[{"name":"account","type":"address","internalType":"address"}]},{"type":"error","name":"AlreadyClaimed","inputs":[{"name":"blockNumber","type":"uint256","internalType":"uint256"},{"name":"node","type":"address","internalType":"address"}]},{"type":"error","name":"FailedInnerCall","inputs":[]},{"type":"error","name":"InvalidBlockNumber","inputs":[{"name":"blockNumber","type":"uint256","internalType":"uint256"}]},{"type":"error","name":"InvalidInitialization","inputs":[]},{"type":"error","name":"NotInitializing","inputs":[]},{"type":"error","name":"NothingToClaim","inputs":[{"name":"node","type":"address","internalType":"address"}]},{"type":"error","name":"Unauthorized","inputs":[]}],"bytecode":{"object":"0x61012060405260405162002be738038062002be783398101604081905262000027916200012b565b6001600160a01b0380851660805283811660a05282811660c05285811660e0528116610100526200005762000062565b5050505050620001a7565b7ff0c57e16840df040f15088dc2f81fe391c3923bec73e23a9662efc9c229c6a00805468010000000000000000900460ff1615620000b35760405163f92ee8a960e01b815260040160405180910390fd5b80546001600160401b0390811614620001135780546001600160401b0319166001600160401b0390811782556040519081527fc7f505b2f371ae2175ee4913f4499e1f2633a7b5936321eed1cdaeb6115181d29060200160405180910390a15b50565b6001600160a01b038116811462000113575f80fd5b5f805f805f60a0868803121562000140575f80fd5b85516200014d8162000116565b6020870151909550620001608162000116565b6040870151909450620001738162000116565b6060870151909350620001868162000116565b6080870151909250620001998162000116565b809150509295509295909350565b60805160a05160c05160e05161010051612976620002715f395f818161016601528181610635015281816107640152818161084f01528181610b5901528181610f2f015281816111c701526115d501525f81816103c501528181610559015281816106f60152818161091d015281816109cf01528181610de10152818161115901526112ad01525f81816104f901528181610689015281816107ca0152818161109f015261162701525f61042201525f81816101b6015281816105ad0152610cf401526129765ff3fe60806040526004361061014a575f3560e01c8063852aa33d116100b3578063bf7e214f1161006d578063bf7e214f1461046d578063e251ef5214610496578063e5704a2a146104b5578063eff7c503146104d4578063f2251b0f146104e8578063feadcf981461051b575f80fd5b8063852aa33d1461035b5780638fb3603714610387578063972546f8146103b4578063a3f4df7e146103e7578063adda272414610411578063bcbb073a14610444575f80fd5b806349867c831161010457806349867c831461024a5780635639671514610269578063594204a6146102d15780636910e334146102f05780636dbf2fa01461030f5780637a9e5e4b1461033c575f80fd5b80630575c0a9146101555780630a732358146101a55780630f1a3c75146101d85780632fb403e4146101ed578063334043961461020c5780633f65cf191461022b575f80fd5b3661015157005b5f80fd5b348015610160575f80fd5b506101887f000000000000000000000000000000000000000000000000000000000000000081565b6040516001600160a01b0390911681526020015b60405180910390f35b3480156101b0575f80fd5b506101887f000000000000000000000000000000000000000000000000000000000000000081565b6101eb6101e6366004611946565b61054e565b005b3480156101f8575f80fd5b506101eb6102073660046119e8565b61062a565b348015610217575f80fd5b506101eb610226366004611a7c565b6106f4565b348015610236575f80fd5b506101eb610245366004611b4c565b610844565b348015610255575f80fd5b506101eb610264366004611bf0565b61091b565b348015610274575f80fd5b505f805160206129368339815191525460408051600160f81b6020808301919091525f602183015260609390931b6bffffffffffffffffffffffff1916602c820152815180820390930183528101905260405161019c9190611c81565b3480156102dc575f80fd5b506101eb6102eb366004611c93565b610b4e565b3480156102fb575f80fd5b506101eb61030a366004611caa565b610c0b565b34801561031a575f80fd5b5061032e610329366004611cd8565b610dd3565b60405161019c929190611d23565b348015610347575f80fd5b506101eb610356366004611d3d565b610e86565b348015610366575f80fd5b5061037a610375366004611c93565b610f22565b60405161019c9190611d5f565b348015610392575f80fd5b5061039b611121565b6040516001600160e01b0319909116815260200161019c565b3480156103bf575f80fd5b506101887f000000000000000000000000000000000000000000000000000000000000000081565b3480156103f2575f80fd5b505f80516020612956833981519152545b60405190815260200161019c565b34801561041c575f80fd5b506101887f000000000000000000000000000000000000000000000000000000000000000081565b34801561044f575f80fd5b505f80516020612936833981519152546001600160a01b0316610188565b348015610478575f80fd5b505f80516020612916833981519152546001600160a01b0316610188565b3480156104a1575f80fd5b506101eb6104b0366004611da2565b611157565b3480156104c0575f80fd5b506101eb6104cf366004611e92565b6112ab565b3480156104df575f80fd5b5061037a6115c8565b3480156104f3575f80fd5b506101887f000000000000000000000000000000000000000000000000000000000000000081565b348015610526575f80fd5b507f501caad7d5b9c1542c99d193b659cbf5c57571609bcfc93d65f1e159821d620354610403565b336001600160a01b037f00000000000000000000000000000000000000000000000000000000000000001614610596576040516282b42960e81b815260040160405180910390fd5b6040516326d3918d60e21b81526001600160a01b037f00000000000000000000000000000000000000000000000000000000000000001690639b4e4634906801bc16d674ec800000906105f59089908990899089908990600401611f5e565b5f604051808303818588803b15801561060c575f80fd5b505af115801561061e573d5f803e3d5ffd5b50505050505050505050565b336001600160a01b037f00000000000000000000000000000000000000000000000000000000000000001614610672576040516282b42960e81b815260040160405180910390fd5b60405163eea9064b60e01b81526001600160a01b037f0000000000000000000000000000000000000000000000000000000000000000169063eea9064b906106c290869086908690600401611fd8565b5f604051808303815f87803b1580156106d9575f80fd5b505af11580156106eb573d5f803e3d5ffd5b50505050505050565b7f00000000000000000000000000000000000000000000000000000000000000006001600160a01b031663532329ca6040518163ffffffff1660e01b81526004015f604051808303815f87803b15801561074c575f80fd5b505af115801561075e573d5f803e3d5ffd5b505050507f00000000000000000000000000000000000000000000000000000000000000006001600160a01b0316336001600160a01b0316146107b3576040516282b42960e81b815260040160405180910390fd5b6040516319a021cb60e11b81526001600160a01b037f0000000000000000000000000000000000000000000000000000000000000000169063334043969061080d908b908b908b908b908b908b908b908b906004016121bd565b5f604051808303815f87803b158015610824575f80fd5b505af1158015610836573d5f803e3d5ffd5b505050505050505050505050565b336001600160a01b037f0000000000000000000000000000000000000000000000000000000000000000161461088c576040516282b42960e81b815260040160405180910390fd5b5f8051602061293683398151915254604051633f65cf1960e01b81525f80516020612956833981519152916001600160a01b031690633f65cf19906108e3908c908c908c908c908c908c908c908c906004016123ef565b5f604051808303815f87803b1580156108fa575f80fd5b505af115801561090c573d5f803e3d5ffd5b50505050505050505050505050565b7f00000000000000000000000000000000000000000000000000000000000000006001600160a01b031663532329ca6040518163ffffffff1660e01b81526004015f604051808303815f87803b158015610973575f80fd5b505af1158015610985573d5f803e3d5ffd5b505050505f61099e5f8051602061295683398151915290565b9050806003015484116109cc57604051634fa557df60e11b8152600481018590526024015b60405180910390fd5b5f7f00000000000000000000000000000000000000000000000000000000000000006001600160a01b031663a1873ca56040518163ffffffff1660e01b8152600401602060405180830381865afa158015610a29573d5f803e3d5ffd5b505050506040513d601f19601f82011682018060405250810190610a4d919061247f565b90505f610a5e835f015488886116a0565b90505f826001600160a01b0316638609c88a8787856040518463ffffffff1660e01b8152600401610a919392919061249a565b602060405180830381865afa158015610aac573d5f803e3d5ffd5b505050506040513d601f19601f82011682018060405250810190610ad091906124bd565b905080610aef576040516282b42960e81b815260040160405180910390fd5b600384018790555f878152600485016020526040908190208990555187907f8a5fc0f13e215cc10f6779108881484ba256b013a1288f97b75f7ca770bc6d0790610b3c908b815260200190565b60405180910390a25050505050505050565b336001600160a01b037f00000000000000000000000000000000000000000000000000000000000000001614610b96576040516282b42960e81b815260040160405180910390fd5b5f5f80516020612956833981519152600181015460405163e2c8344560e01b8152306004820152602481018590529192506001600160a01b03169063e2c83445906044015f604051808303815f87803b158015610bf1575f80fd5b505af1158015610c03573d5f803e3d5ffd5b505050505050565b7ff0c57e16840df040f15088dc2f81fe391c3923bec73e23a9662efc9c229c6a008054600160401b810460ff1615906001600160401b03165f81158015610c4f5750825b90505f826001600160401b03166001148015610c6a5750303b155b905081158015610c78575080155b15610c965760405163f92ee8a960e01b815260040160405180910390fd5b845467ffffffffffffffff191660011785558315610cc057845460ff60401b1916600160401b1785555b610cc986611711565b5f805160206129568339815191528781556040805163426c083160e11b815290516001600160a01b037f000000000000000000000000000000000000000000000000000000000000000016916384d8106291600480830192602092919082900301815f875af1158015610d3e573d5f803e3d5ffd5b505050506040513d601f19601f82011682018060405250810190610d62919061247f565b60019190910180546001600160a01b0319166001600160a01b0390921691909117905583156106eb57845460ff60401b19168555604051600181527fc7f505b2f371ae2175ee4913f4499e1f2633a7b5936321eed1cdaeb6115181d29060200160405180910390a150505050505050565b5f6060336001600160a01b037f00000000000000000000000000000000000000000000000000000000000000001614610e1e576040516282b42960e81b815260040160405180910390fd5b856001600160a01b0316858585604051610e399291906124d8565b5f6040518083038185875af1925050503d805f8114610e73576040519150601f19603f3d011682016040523d82523d5f602084013e610e78565b606091505b509150915094509492505050565b33610ea55f80516020612916833981519152546001600160a01b031690565b6001600160a01b0316816001600160a01b031614610ee05760405162d1953b60e31b81526001600160a01b03821660048201526024016109c3565b816001600160a01b03163b5f03610f15576040516361798f2f60e11b81526001600160a01b03831660048201526024016109c3565b610f1e82611725565b5050565b6060336001600160a01b037f00000000000000000000000000000000000000000000000000000000000000001614610f6c576040516282b42960e81b815260040160405180910390fd5b6040805160018082528183019092525f91816020015b604080516060808201835280825260208201525f91810191909152815260200190600190039081610f825750506040805160018082528183019092529192505f91906020808301908036833701905050905083815f81518110610fe757610fe76124fb565b60209081029190910101526040805160018082528183019092525f9181602001602082028036833701905050905073beac0eeeeeeeeeeeeeeeeeeeeeeeeeeeeeebeac0815f8151811061103c5761103c6124fb565b6001600160a01b03909216602092830291909101820152604080516060810182528381529182018490523090820152835184905f9061107d5761107d6124fb565b60209081029190910101526040516306ec6e8160e11b81526001600160a01b037f00000000000000000000000000000000000000000000000000000000000000001690630dd8dd02906110d490869060040161250f565b5f604051808303815f875af11580156110ef573d5f803e3d5ffd5b505050506040513d5f823e601f3d908101601f191682016040526111169190810190612602565b93505050505b919050565b5f8051602061291683398151915280545f9190600160a01b900460ff16611148575f611151565b638fb3603760e01b5b91505090565b7f00000000000000000000000000000000000000000000000000000000000000006001600160a01b031663532329ca6040518163ffffffff1660e01b81526004015f604051808303815f87803b1580156111af575f80fd5b505af11580156111c1573d5f803e3d5ffd5b505050507f00000000000000000000000000000000000000000000000000000000000000006001600160a01b0316336001600160a01b031614611216576040516282b42960e81b815260040160405180910390fd5b5f8051602061293683398151915254604051637128f7a960e11b81525f80516020612956833981519152916001600160a01b03169063e251ef5290611271908e908e908e908e908e908e908e908e908e908e906004016126ba565b5f604051808303815f87803b158015611288575f80fd5b505af115801561129a573d5f803e3d5ffd5b505050505050505050505050505050565b7f00000000000000000000000000000000000000000000000000000000000000006001600160a01b031663532329ca6040518163ffffffff1660e01b81526004015f604051808303815f87803b158015611303575f80fd5b505af1158015611315573d5f803e3d5ffd5b505050505f61132e5f8051602061295683398151915290565b90505f805b8581101561153b57826005015f8a8a84818110611352576113526124fb565b602090810292909201358352508181019290925260409081015f9081206001600160a01b038e16825290925290205460ff16156113cf5788888281811061139b5761139b6124fb565b6040516302a4851560e61b8152602090910292909201356004830152506001600160a01b038b1660248201526044016109c3565b5f836004015f8b8b858181106113e7576113e76124fb565b9050602002013581526020019081526020015f205490505f8b898985818110611412576114126124fb565b9050602002013560405160200161143e9291906001600160a01b03929092168252602082015260400190565b60408051601f19818403018152828252805160209182012090830152016040516020818303038152906040528051906020012090506114a1878785818110611488576114886124fb565b905060200281019061149a91906128b1565b8484611785565b15611531576001856005015f8d8d878181106114bf576114bf6124fb565b9050602002013581526020019081526020015f205f8e6001600160a01b03166001600160a01b031681526020019081526020015f205f6101000a81548160ff02191690831515021790555088888481811061151c5761151c6124fb565b905060200201358461152e91906128f6565b93505b5050600101611333565b50805f03611567576040516332559a3360e11b81526001600160a01b038a1660048201526024016109c3565b61157a6001600160a01b038a168261179c565b886001600160a01b03167ffc30cddea38e2bf4d6ea7d3f9ed3b6ad7f176419f4963bd81318067a4aee73fe826040516115b591815260200190565b60405180910390a2505050505050505050565b6060336001600160a01b037f00000000000000000000000000000000000000000000000000000000000000001614611612576040516282b42960e81b815260040160405180910390fd5b6040516336a2fa1960e21b81523060048201527f00000000000000000000000000000000000000000000000000000000000000006001600160a01b03169063da8be864906024015f604051808303815f875af1158015611674573d5f803e3d5ffd5b505050506040513d5f823e601f3d908101601f1916820160405261169b9190810190612602565b905090565b6040805160208101859052908101839052606081018290525f9061170990608001604051602081830303815290604052805190602001207f19457468657265756d205369676e6564204d6573736167653a0a3332000000005f908152601c91909152603c902090565b949350505050565b611719611834565b6117228161187f565b50565b5f8051602061291683398151915280546001600160a01b0383166001600160a01b03199091168117825560408051918252517f2f658b440c35314f52658ea8a740e05b284cdc84dc9ae01e891f21b8933e7cad9181900360200190a15050565b5f82611792868685611890565b1495945050505050565b804710156117bf5760405163cd78605960e01b81523060048201526024016109c3565b5f826001600160a01b0316826040515f6040518083038185875af1925050503d805f8114611808576040519150601f19603f3d011682016040523d82523d5f602084013e61180d565b606091505b505090508061182f57604051630a12f52160e11b815260040160405180910390fd5b505050565b7ff0c57e16840df040f15088dc2f81fe391c3923bec73e23a9662efc9c229c6a0054600160401b900460ff1661187d57604051631afcd79f60e31b815260040160405180910390fd5b565b611887611834565b61172281611725565b5f81815b848110156118c8576118be828787848181106118b2576118b26124fb565b905060200201356118d1565b9150600101611894565b50949350505050565b5f8183106118eb575f8281526020849052604090206118f9565b5f8381526020839052604090205b90505b92915050565b5f8083601f840112611912575f80fd5b5081356001600160401b03811115611928575f80fd5b60208301915083602082850101111561193f575f80fd5b9250929050565b5f805f805f6060868803121561195a575f80fd5b85356001600160401b0380821115611970575f80fd5b61197c89838a01611902565b90975095506020880135915080821115611994575f80fd5b506119a188828901611902565b96999598509660400135949350505050565b6001600160a01b0381168114611722575f80fd5b803561111c816119b3565b5f604082840312156119e2575f80fd5b50919050565b5f805f606084860312156119fa575f80fd5b8335611a05816119b3565b925060208401356001600160401b03811115611a1f575f80fd5b611a2b868287016119d2565b925050604084013590509250925092565b5f8083601f840112611a4c575f80fd5b5081356001600160401b03811115611a62575f80fd5b6020830191508360208260051b850101111561193f575f80fd5b5f805f805f805f806080898b031215611a93575f80fd5b88356001600160401b0380821115611aa9575f80fd5b611ab58c838d01611a3c565b909a50985060208b0135915080821115611acd575f80fd5b611ad98c838d01611a3c565b909850965060408b0135915080821115611af1575f80fd5b611afd8c838d01611a3c565b909650945060608b0135915080821115611b15575f80fd5b50611b228b828c01611a3c565b999c989b5096995094979396929594505050565b80356001600160401b038116811461111c575f80fd5b5f805f805f805f8060a0898b031215611b63575f80fd5b611b6c89611b36565b975060208901356001600160401b0380821115611b87575f80fd5b611b938c838d016119d2565b985060408b0135915080821115611ba8575f80fd5b611bb48c838d01611a3c565b909850965060608b0135915080821115611bcc575f80fd5b611bd88c838d01611a3c565b909650945060808b0135915080821115611b15575f80fd5b5f805f8060608587031215611c03575f80fd5b843593506020850135925060408501356001600160401b03811115611c26575f80fd5b611c3287828801611a3c565b95989497509550505050565b5f81518084525f5b81811015611c6257602081850181015186830182015201611c46565b505f602082860101526020601f19601f83011685010191505092915050565b602081525f6118f96020830184611c3e565b5f60208284031215611ca3575f80fd5b5035919050565b5f8060408385031215611cbb575f80fd5b823591506020830135611ccd816119b3565b809150509250929050565b5f805f8060608587031215611ceb575f80fd5b8435611cf6816119b3565b93506020850135925060408501356001600160401b03811115611d17575f80fd5b611c3287828801611902565b8215158152604060208201525f6117096040830184611c3e565b5f60208284031215611d4d575f80fd5b8135611d58816119b3565b9392505050565b602080825282518282018190525f9190848201906040850190845b81811015611d9657835183529284019291840191600101611d7a565b50909695505050505050565b5f805f805f805f805f8060c08b8d031215611dbb575f80fd5b611dc48b611b36565b995060208b01356001600160401b0380821115611ddf575f80fd5b611deb8e838f016119d2565b9a5060408d0135915080821115611e00575f80fd5b611e0c8e838f01611a3c565b909a50985060608d0135915080821115611e24575f80fd5b611e308e838f01611a3c565b909850965060808d0135915080821115611e48575f80fd5b611e548e838f01611a3c565b909650945060a08d0135915080821115611e6c575f80fd5b50611e798d828e01611a3c565b915080935050809150509295989b9194979a5092959850565b5f805f805f805f6080888a031215611ea8575f80fd5b8735611eb3816119b3565b965060208801356001600160401b0380821115611ece575f80fd5b611eda8b838c01611a3c565b909850965060408a0135915080821115611ef2575f80fd5b611efe8b838c01611a3c565b909650945060608a0135915080821115611f16575f80fd5b50611f238a828b01611a3c565b989b979a50959850939692959293505050565b81835281816020850137505f828201602090810191909152601f909101601f19169091010190565b606081525f611f71606083018789611f36565b8281036020840152611f84818688611f36565b9150508260408301529695505050505050565b5f808335601e19843603018112611fac575f80fd5b83016020810192503590506001600160401b03811115611fca575f80fd5b80360382131561193f575f80fd5b6001600160a01b0384168152606060208201525f611ff68480611f97565b6040606085015261200b60a085018284611f36565b60209690960135608085015250505060400152919050565b803563ffffffff8116811461111c575f80fd5b5f808335601e1984360301811261204b575f80fd5b83016020810192503590506001600160401b03811115612069575f80fd5b8060051b360382131561193f575f80fd5b8183525f60208085019450825f5b858110156120b657813561209b816119b3565b6001600160a01b031687529582019590820190600101612088565b509495945050505050565b8183525f6001600160fb1b038311156120d8575f80fd5b8260051b80836020870137939093016020019392505050565b5f8383855260208086019550808560051b830101845f5b8781101561216e57848303601f190189526121238288612036565b8085528585015f5b8281101561215957833561213e816119b3565b6001600160a01b03168252928701929087019060010161212b565b509a86019a9450505090830190600101612108565b5090979650505050505050565b8015158114611722575f80fd5b8183525f60208085019450825f5b858110156120b65781356121a98161217b565b151587529582019590820190600101612196565b608080825281018890525f60a060058a901b830181019083018b835b8c8110156122cc57858403609f190183528135368f900360de190181126121fe575f80fd5b8e0160e0813561220d816119b3565b6001600160a01b03168652602082810135612227816119b3565b6001600160a01b03168188015260406122418482016119c7565b6001600160a01b0316908801526060838101359088015261226460808401612023565b63ffffffff16608088015261227c60a0840184612036565b8360a08a015261228f848a01828461207a565b9350505060c06122a181850185612036565b9450888403828a01526122b58486836120c1565b9850505094850194939093019250506001016121d9565b50505082810360208401526122e281898b6120f1565b905082810360408401526122f78187896120c1565b9050828103606084015261230c818587612188565b9b9a5050505050505050505050565b803582525f61232d6020830183611f97565b60406020860152612342604086018284611f36565b95945050505050565b5f838385526020808601955060208560051b830101845f5b8781101561216e57848303601f1901895261237e8288611f97565b612389858284611f36565b9a86019a9450505090830190600101612363565b5f838385526020808601955060208560051b830101845f5b8781101561216e57848303601f190189526123d08288612036565b6123db8582846120c1565b9a86019a94505050908301906001016123b5565b6001600160401b03891681525f602060a0602084015261241260a084018b61231b565b838103604085015288815289906020015f5b8a81101561245457823564ffffffffff8116808214612441575f80fd5b8352509183019190830190600101612424565b50848103606086015261246881898b61234b565b92505050828103608084015261230c81858761239d565b5f6020828403121561248f575f80fd5b8151611d58816119b3565b604081525f6124ad60408301858761234b565b9050826020830152949350505050565b5f602082840312156124cd575f80fd5b8151611d588161217b565b818382375f9101908152919050565b634e487b7160e01b5f52604160045260245ffd5b634e487b7160e01b5f52603260045260245ffd5b5f60208083018184528085518083526040925060408601915060408160051b8701018488015f5b838110156125f457888303603f19018552815180516060808652815190860181905260808601918a01905f905b8082101561258e5782516001600160a01b031684526020840193508b83019250600182019150612563565b50505081890151858203868b01528051808352908a01915f91908b01905b808310156125cc5783518252928b019260019290920191908b01906125ac565b50928901516001600160a01b0316958901959095525094870194925090860190600101612536565b509098975050505050505050565b5f6020808385031215612613575f80fd5b82516001600160401b0380821115612629575f80fd5b818501915085601f83011261263c575f80fd5b81518181111561264e5761264e6124e7565b8060051b604051601f19603f83011681018181108582111715612673576126736124e7565b604052918252848201925083810185019188831115612690575f80fd5b938501935b828510156126ae57845184529385019392850192612695565b98975050505050505050565b6001600160401b038b16815260c060208201525f6126db60c083018c61231b565b828103604084015289815260208082019060058c901b8301018c5f5b8d81101561285f57848303601f19018452368f900361017e190182351261271c575f80fd5b8e82350161272a8182611f97565b610180865261273e61018087018284611f36565b91505061274e6020830183611f97565b8683036020880152612761838284611f36565b925050506127726040830183611f97565b8683036040880152612785838284611f36565b925050506127966060830183611f97565b86830360608801526127a9838284611f36565b925050506127ba6080830183611f97565b86830360808801526127cd838284611f36565b925050506127dd60a08301611b36565b6001600160401b031660a08601526127f760c08301611b36565b6001600160401b031660c086015261281160e08301611b36565b6001600160401b031660e086015261010082810135908601526101208083013590860152610140808301359086015261016091820135919094015260209384019391909101906001016126f7565b50508481036060860152612874818b8d61234b565b92505050828103608084015261288b81878961239d565b905082810360a08401526128a081858761239d565b9d9c50505050505050505050505050565b5f808335601e198436030181126128c6575f80fd5b8301803591506001600160401b038211156128df575f80fd5b6020019150600581901b360382131561193f575f80fd5b808201808211156118fc57634e487b7160e01b5f52601160045260245ffdfef3177357ab46d8af007ab3fdb9af81da189e1068fefdc0073dca88a2cab40a00501caad7d5b9c1542c99d193b659cbf5c57571609bcfc93d65f1e159821d6201501caad7d5b9c1542c99d193b659cbf5c57571609bcfc93d65f1e159821d6200","linkReferences":{}},"methodIdentifiers":{"EIGEN_DELEGATION_MANAGER()":"f2251b0f","EIGEN_POD_MANAGER()":"0a732358","EIGEN_WITHDRAWAL_ROUTER()":"adda2724","NAME()":"a3f4df7e","PUFFER_MODULE_MANAGER()":"0575c0a9","PUFFER_PROTOCOL()":"972546f8","authority()":"bf7e214f","call(address,uint256,bytes)":"6dbf2fa0","callDelegateTo(address,(bytes,uint256),bytes32)":"2fb403e4","callStake(bytes,bytes,bytes32)":"0f1a3c75","callUndelegate()":"eff7c503","collectRewards(address,uint256[],uint256[],bytes32[][])":"e5704a2a","completeQueuedWithdrawals((address,address,address,uint256,uint32,address[],uint256[])[],address[][],uint256[],bool[])":"33404396","getEigenPod()":"bcbb073a","getLastProofOfRewardsBlock()":"feadcf98","getWithdrawalCredentials()":"56396715","initialize(bytes32,address)":"6910e334","isConsumingScheduledOp()":"8fb36037","postRewardsRoot(bytes32,uint256,bytes[])":"49867c83","queueWithdrawals(uint256)":"852aa33d","setAuthority(address)":"7a9e5e4b","verifyAndProcessWithdrawals(uint64,(bytes32,bytes),(bytes,bytes,bytes,bytes,bytes,uint64,uint64,uint64,bytes32,bytes32,bytes32,bytes32)[],bytes[],bytes32[][],bytes32[][])":"e251ef52","verifyWithdrawalCredentials(uint64,(bytes32,bytes),uint40[],bytes[],bytes32[][])":"3f65cf19","withdrawNonBeaconChainETHBalanceWei(uint256)":"594204a6"},"id":191}