{"abi":[{"type":"constructor","inputs":[{"name":"accessManager","type":"address","internalType":"address"}],"stateMutability":"nonpayable"},{"type":"function","name":"authority","inputs":[],"outputs":[{"name":"","type":"address","internalType":"address"}],"stateMutability":"view"},{"type":"function","name":"getLockedEthAmount","inputs":[],"outputs":[{"name":"","type":"uint256","internalType":"uint256"}],"stateMutability":"pure"},{"type":"function","name":"getValidatorTicketPrice","inputs":[],"outputs":[{"name":"pricePerVT","type":"uint256","internalType":"uint256"}],"stateMutability":"view"},{"type":"function","name":"isConsumingScheduledOp","inputs":[],"outputs":[{"name":"","type":"bytes4","internalType":"bytes4"}],"stateMutability":"view"},{"type":"function","name":"isOverBurstThreshold","inputs":[],"outputs":[{"name":"","type":"bool","internalType":"bool"}],"stateMutability":"pure"},{"type":"function","name":"setAuthority","inputs":[{"name":"newAuthority","type":"address","internalType":"address"}],"outputs":[],"stateMutability":"nonpayable"},{"type":"function","name":"setMintPrice","inputs":[{"name":"newPrice","type":"uint256","internalType":"uint256"}],"outputs":[],"stateMutability":"nonpayable"},{"type":"event","name":"AuthorityUpdated","inputs":[{"name":"authority","type":"address","indexed":false,"internalType":"address"}],"anonymous":false},{"type":"event","name":"ValidatorTicketMintPriceUpdated","inputs":[{"name":"oldPrice","type":"uint256","indexed":false,"internalType":"uint256"},{"name":"newPrice","type":"uint256","indexed":false,"internalType":"uint256"}],"anonymous":false},{"type":"error","name":"AccessManagedInvalidAuthority","inputs":[{"name":"authority","type":"address","internalType":"address"}]},{"type":"error","name":"AccessManagedRequiredDelay","inputs":[{"name":"caller","type":"address","internalType":"address"},{"name":"delay","type":"uint32","internalType":"uint32"}]},{"type":"error","name":"AccessManagedUnauthorized","inputs":[{"name":"caller","type":"address","internalType":"address"}]},{"type":"error","name":"InvalidValidatorTicketPrice","inputs":[]}],"bytecode":{"object":"0x608060405234801561000f575f80fd5b5060405161074538038061074583398101604081905261002e91610115565b806100388161004f565b50610049662386f26fc100006100a2565b50610142565b5f80546001600160a01b0319166001600160a01b0383169081179091556040519081527f2f658b440c35314f52658ea8a740e05b284cdc84dc9ae01e891f21b8933e7cad9060200160405180910390a150565b8015806100b6575067016345785d8a000081115b156100d45760405163309fd38960e01b815260040160405180910390fd5b60015460408051918252602082018390527ff76811fec27423d0853e6bf49d7ea78c666629c2f67e29647d689954021ae0ea910160405180910390a1600155565b5f60208284031215610125575f80fd5b81516001600160a01b038116811461013b575f80fd5b9392505050565b6105f68061014f5f395ff3fe608060405234801561000f575f80fd5b506004361061007a575f3560e01c80638fb36037116100585780638fb36037146100b0578063bf7e214f146100d1578063d3d982aa146100eb578063f4a0a528146100f9575f80fd5b806313673ccd1461007e578063698c6504146100935780637a9e5e4b1461009b575b5f80fd5b5f5b6040519081526020015b60405180910390f35b600154610080565b6100ae6100a9366004610486565b61010c565b005b6100b8610189565b6040516001600160e01b0319909116815260200161008a565b5f546040516001600160a01b03909116815260200161008a565b6040515f815260200161008a565b6100ae6101073660046104b3565b6101ab565b5f5433906001600160a01b031681146101475760405162d1953b60e31b81526001600160a01b03821660048201526024015b60405180910390fd5b816001600160a01b03163b5f0361017c576040516361798f2f60e11b81526001600160a01b038316600482015260240161013e565b610185826101c2565b5050565b5f8054600160a01b900460ff1661019f57505f90565b50638fb3603760e01b90565b6101b6335f36610215565b6101bf8161030b565b50565b5f80546001600160a01b0319166001600160a01b0383169081179091556040519081527f2f658b440c35314f52658ea8a740e05b284cdc84dc9ae01e891f21b8933e7cad9060200160405180910390a150565b5f8061024861022b5f546001600160a01b031690565b863061023a60045f898b6104ca565b610243916104f1565b61037e565b91509150816103045763ffffffff8116156102e1575f805460ff60a01b198116600160a01b17909155604051634a63ebf760e11b81526001600160a01b03909116906394c7d7ee906102a290889088908890600401610521565b5f604051808303815f87803b1580156102b9575f80fd5b505af11580156102cb573d5f803e3d5ffd5b50505f805460ff60a01b19169055506103049050565b60405162d1953b60e31b81526001600160a01b038616600482015260240161013e565b5050505050565b80158061031f575067016345785d8a000081115b1561033d5760405163309fd38960e01b815260040160405180910390fd5b60015460408051918252602082018390527ff76811fec27423d0853e6bf49d7ea78c666629c2f67e29647d689954021ae0ea910160405180910390a1600155565b6040516001600160a01b03848116602483015283811660448301526001600160e01b0319831660648301525f9182918291829189169060840160408051601f198184030181529181526020820180516001600160e01b031663b700961360e01b179052516103ec9190610560565b5f60405180830381855afa9150503d805f8114610424576040519150601f19603f3d011682016040523d82523d5f602084013e610429565b606091505b5091509150811561047b57604081511061045b578080602001905181019061045191906105a0565b909450925061047b565b602081511061047b578080602001905181019061047891906105dd565b93505b505094509492505050565b5f60208284031215610496575f80fd5b81356001600160a01b03811681146104ac575f80fd5b9392505050565b5f602082840312156104c3575f80fd5b5035919050565b5f80858511156104d8575f80fd5b838611156104e4575f80fd5b5050820193919092039150565b6001600160e01b031981358181169160048510156105195780818660040360031b1b83161692505b505092915050565b6001600160a01b03841681526040602082018190528101829052818360608301375f818301606090810191909152601f909201601f1916010192915050565b5f82515f5b8181101561057f5760208186018101518583015201610565565b505f920191825250919050565b8051801515811461059b575f80fd5b919050565b5f80604083850312156105b1575f80fd5b6105ba8361058c565b9150602083015163ffffffff811681146105d2575f80fd5b809150509250929050565b5f602082840312156105ed575f80fd5b6104ac8261058c56","linkReferences":{}},"methodIdentifiers":{"authority()":"bf7e214f","getLockedEthAmount()":"13673ccd","getValidatorTicketPrice()":"698c6504","isConsumingScheduledOp()":"8fb36037","isOverBurstThreshold()":"d3d982aa","setAuthority(address)":"7a9e5e4b","setMintPrice(uint256)":"f4a0a528"},"id":193}