{"abi":[{"type":"function","name":"getRate","inputs":[],"outputs":[{"name":"","type":"uint256","internalType":"uint256"}],"stateMutability":"view"},{"type":"function","name":"pufETH","inputs":[],"outputs":[{"name":"","type":"address","internalType":"contract IPufETH"}],"stateMutability":"view"},{"type":"function","name":"wstETH","inputs":[],"outputs":[{"name":"","type":"address","internalType":"contract IWstETH"}],"stateMutability":"view"}],"bytecode":{"object":"0x608060405234801561000f575f80fd5b5061021b8061001d5f395ff3fe608060405234801561000f575f80fd5b506004361061003f575f3560e01c80634aa07e6414610043578063679aefce1461007b578063f2aac2aa14610091575b5f80fd5b61005e737f39c581f595b53c5cb19bd0b3f8da6c935e2ca081565b6040516001600160a01b0390911681526020015b60405180910390f35b6100836100ac565b604051908152602001610072565b61005e73d9a442856c234a39a81a089c06451ebaa4306a7281565b6040516303d1689d60e11b8152670de0b6b3a764000060048201525f9073d9a442856c234a39a81a089c06451ebaa4306a72906307a2d13a90602401602060405180830381865afa158015610103573d5f803e3d5ffd5b505050506040513d601f19601f8201168201806040525081019061012791906101bc565b737f39c581f595b53c5cb19bd0b3f8da6c935e2ca06001600160a01b031663035faf826040518163ffffffff1660e01b8152600401602060405180830381865afa158015610177573d5f803e3d5ffd5b505050506040513d601f19601f8201168201806040525081019061019b91906101bc565b6101ad90670de0b6b3a76400006101d3565b6101b791906101fc565b905090565b5f602082840312156101cc575f80fd5b5051919050565b80820281158282048414176101f657634e487b7160e01b5f52601160045260245ffd5b92915050565b5f8261021657634e487b7160e01b5f52601260045260245ffd5b50049056","linkReferences":{}},"methodIdentifiers":{"getRate()":"679aefce","pufETH()":"f2aac2aa","wstETH()":"4aa07e64"},"id":200}