{"abi":[{"type":"constructor","inputs":[{"name":"pufferModuleBeacon","type":"address","internalType":"address"},{"name":"restakingOperatorBeacon","type":"address","internalType":"address"},{"name":"pufferProtocol","type":"address","internalType":"address"},{"name":"avsContractsRegistry","type":"address","internalType":"contract AVSContractsRegistry"}],"stateMutability":"nonpayable"},{"type":"function","name":"AVS_CONTRACTS_REGISTRY","inputs":[],"outputs":[{"name":"","type":"address","internalType":"contract AVSContractsRegistry"}],"stateMutability":"view"},{"type":"function","name":"PUFFER_MODULE_BEACON","inputs":[],"outputs":[{"name":"","type":"address","internalType":"address"}],"stateMutability":"view"},{"type":"function","name":"PUFFER_PROTOCOL","inputs":[],"outputs":[{"name":"","type":"address","internalType":"address"}],"stateMutability":"view"},{"type":"function","name":"RESTAKING_OPERATOR_BEACON","inputs":[],"outputs":[{"name":"","type":"address","internalType":"address"}],"stateMutability":"view"},{"type":"function","name":"UPGRADE_INTERFACE_VERSION","inputs":[],"outputs":[{"name":"","type":"string","internalType":"string"}],"stateMutability":"view"},{"type":"function","name":"authority","inputs":[],"outputs":[{"name":"","type":"address","internalType":"address"}],"stateMutability":"view"},{"type":"function","name":"callCompleteQueuedWithdrawals","inputs":[{"name":"moduleName","type":"bytes32","internalType":"bytes32"},{"name":"withdrawals","type":"tuple[]","internalType":"struct IDelegationManager.Withdrawal[]","components":[{"name":"staker","type":"address","internalType":"address"},{"name":"delegatedTo","type":"address","internalType":"address"},{"name":"withdrawer","type":"address","internalType":"address"},{"name":"nonce","type":"uint256","internalType":"uint256"},{"name":"startBlock","type":"uint32","internalType":"uint32"},{"name":"strategies","type":"address[]","internalType":"contract IStrategy[]"},{"name":"shares","type":"uint256[]","internalType":"uint256[]"}]},{"name":"tokens","type":"address[][]","internalType":"contract IERC20[][]"},{"name":"middlewareTimesIndexes","type":"uint256[]","internalType":"uint256[]"},{"name":"receiveAsTokens","type":"bool[]","internalType":"bool[]"}],"outputs":[],"stateMutability":"nonpayable"},{"type":"function","name":"callDelegateTo","inputs":[{"name":"moduleName","type":"bytes32","internalType":"bytes32"},{"name":"operator","type":"address","internalType":"address"},{"name":"approverSignatureAndExpiry","type":"tuple","internalType":"struct ISignatureUtils.SignatureWithExpiry","components":[{"name":"signature","type":"bytes","internalType":"bytes"},{"name":"expiry","type":"uint256","internalType":"uint256"}]},{"name":"approverSalt","type":"bytes32","internalType":"bytes32"}],"outputs":[],"stateMutability":"nonpayable"},{"type":"function","name":"callDeregisterOperatorFromAVS","inputs":[{"name":"restakingOperator","type":"address","internalType":"contract IRestakingOperator"},{"name":"avsRegistryCoordinator","type":"address","internalType":"address"},{"name":"quorumNumbers","type":"bytes","internalType":"bytes"}],"outputs":[],"stateMutability":"nonpayable"},{"type":"function","name":"callModifyOperatorDetails","inputs":[{"name":"restakingOperator","type":"address","internalType":"contract IRestakingOperator"},{"name":"newOperatorDetails","type":"tuple","internalType":"struct IDelegationManager.OperatorDetails","components":[{"name":"earningsReceiver","type":"address","internalType":"address"},{"name":"delegationApprover","type":"address","internalType":"address"},{"name":"stakerOptOutWindowBlocks","type":"uint32","internalType":"uint32"}]}],"outputs":[],"stateMutability":"nonpayable"},{"type":"function","name":"callOptIntoSlashing","inputs":[{"name":"restakingOperator","type":"address","internalType":"contract IRestakingOperator"},{"name":"slasher","type":"address","internalType":"address"}],"outputs":[],"stateMutability":"nonpayable"},{"type":"function","name":"callQueueWithdrawals","inputs":[{"name":"moduleName","type":"bytes32","internalType":"bytes32"},{"name":"sharesAmount","type":"uint256","internalType":"uint256"}],"outputs":[],"stateMutability":"nonpayable"},{"type":"function","name":"callRegisterOperatorToAVS","inputs":[{"name":"restakingOperator","type":"address","internalType":"contract IRestakingOperator"},{"name":"avsRegistryCoordinator","type":"address","internalType":"address"},{"name":"quorumNumbers","type":"bytes","internalType":"bytes"},{"name":"socket","type":"string","internalType":"string"},{"name":"params","type":"tuple","internalType":"struct IBLSApkRegistry.PubkeyRegistrationParams","components":[{"name":"pubkeyRegistrationSignature","type":"tuple","internalType":"struct BN254.G1Point","components":[{"name":"X","type":"uint256","internalType":"uint256"},{"name":"Y","type":"uint256","internalType":"uint256"}]},{"name":"pubkeyG1","type":"tuple","internalType":"struct BN254.G1Point","components":[{"name":"X","type":"uint256","internalType":"uint256"},{"name":"Y","type":"uint256","internalType":"uint256"}]},{"name":"pubkeyG2","type":"tuple","internalType":"struct BN254.G2Point","components":[{"name":"X","type":"uint256[2]","internalType":"uint256[2]"},{"name":"Y","type":"uint256[2]","internalType":"uint256[2]"}]}]},{"name":"operatorSignature","type":"tuple","internalType":"struct ISignatureUtils.SignatureWithSaltAndExpiry","components":[{"name":"signature","type":"bytes","internalType":"bytes"},{"name":"salt","type":"bytes32","internalType":"bytes32"},{"name":"expiry","type":"uint256","internalType":"uint256"}]}],"outputs":[],"stateMutability":"nonpayable"},{"type":"function","name":"callRegisterOperatorToAVSWithChurn","inputs":[{"name":"restakingOperator","type":"address","internalType":"contract IRestakingOperator"},{"name":"avsRegistryCoordinator","type":"address","internalType":"address"},{"name":"quorumNumbers","type":"bytes","internalType":"bytes"},{"name":"socket","type":"string","internalType":"string"},{"name":"params","type":"tuple","internalType":"struct IBLSApkRegistry.PubkeyRegistrationParams","components":[{"name":"pubkeyRegistrationSignature","type":"tuple","internalType":"struct BN254.G1Point","components":[{"name":"X","type":"uint256","internalType":"uint256"},{"name":"Y","type":"uint256","internalType":"uint256"}]},{"name":"pubkeyG1","type":"tuple","internalType":"struct BN254.G1Point","components":[{"name":"X","type":"uint256","internalType":"uint256"},{"name":"Y","type":"uint256","internalType":"uint256"}]},{"name":"pubkeyG2","type":"tuple","internalType":"struct BN254.G2Point","components":[{"name":"X","type":"uint256[2]","internalType":"uint256[2]"},{"name":"Y","type":"uint256[2]","internalType":"uint256[2]"}]}]},{"name":"operatorKickParams","type":"tuple[]","internalType":"struct IRegistryCoordinator.OperatorKickParam[]","components":[{"name":"quorumNumber","type":"uint8","internalType":"uint8"},{"name":"operator","type":"address","internalType":"address"}]},{"name":"churnApproverSignature","type":"tuple","internalType":"struct ISignatureUtils.SignatureWithSaltAndExpiry","components":[{"name":"signature","type":"bytes","internalType":"bytes"},{"name":"salt","type":"bytes32","internalType":"bytes32"},{"name":"expiry","type":"uint256","internalType":"uint256"}]},{"name":"operatorSignature","type":"tuple","internalType":"struct ISignatureUtils.SignatureWithSaltAndExpiry","components":[{"name":"signature","type":"bytes","internalType":"bytes"},{"name":"salt","type":"bytes32","internalType":"bytes32"},{"name":"expiry","type":"uint256","internalType":"uint256"}]}],"outputs":[],"stateMutability":"nonpayable"},{"type":"function","name":"callUndelegate","inputs":[{"name":"moduleName","type":"bytes32","internalType":"bytes32"}],"outputs":[{"name":"withdrawalRoot","type":"bytes32[]","internalType":"bytes32[]"}],"stateMutability":"nonpayable"},{"type":"function","name":"callUpdateMetadataURI","inputs":[{"name":"restakingOperator","type":"address","internalType":"contract IRestakingOperator"},{"name":"metadataURI","type":"string","internalType":"string"}],"outputs":[],"stateMutability":"nonpayable"},{"type":"function","name":"callUpdateOperatorAVSSocket","inputs":[{"name":"restakingOperator","type":"address","internalType":"contract IRestakingOperator"},{"name":"avsRegistryCoordinator","type":"address","internalType":"address"},{"name":"socket","type":"string","internalType":"string"}],"outputs":[],"stateMutability":"nonpayable"},{"type":"function","name":"callVerifyAndProcessWithdrawals","inputs":[{"name":"moduleName","type":"bytes32","internalType":"bytes32"},{"name":"oracleTimestamp","type":"uint64","internalType":"uint64"},{"name":"stateRootProof","type":"tuple","internalType":"struct BeaconChainProofs.StateRootProof","components":[{"name":"beaconStateRoot","type":"bytes32","internalType":"bytes32"},{"name":"proof","type":"bytes","internalType":"bytes"}]},{"name":"withdrawalProofs","type":"tuple[]","internalType":"struct BeaconChainProofs.WithdrawalProof[]","components":[{"name":"withdrawalProof","type":"bytes","internalType":"bytes"},{"name":"slotProof","type":"bytes","internalType":"bytes"},{"name":"executionPayloadProof","type":"bytes","internalType":"bytes"},{"name":"timestampProof","type":"bytes","internalType":"bytes"},{"name":"historicalSummaryBlockRootProof","type":"bytes","internalType":"bytes"},{"name":"blockRootIndex","type":"uint64","internalType":"uint64"},{"name":"historicalSummaryIndex","type":"uint64","internalType":"uint64"},{"name":"withdrawalIndex","type":"uint64","internalType":"uint64"},{"name":"blockRoot","type":"bytes32","internalType":"bytes32"},{"name":"slotRoot","type":"bytes32","internalType":"bytes32"},{"name":"timestampRoot","type":"bytes32","internalType":"bytes32"},{"name":"executionPayloadRoot","type":"bytes32","internalType":"bytes32"}]},{"name":"validatorFieldsProofs","type":"bytes[]","internalType":"bytes[]"},{"name":"validatorFields","type":"bytes32[][]","internalType":"bytes32[][]"},{"name":"withdrawalFields","type":"bytes32[][]","internalType":"bytes32[][]"}],"outputs":[],"stateMutability":"nonpayable"},{"type":"function","name":"callVerifyWithdrawalCredentials","inputs":[{"name":"moduleName","type":"bytes32","internalType":"bytes32"},{"name":"oracleTimestamp","type":"uint64","internalType":"uint64"},{"name":"stateRootProof","type":"tuple","internalType":"struct BeaconChainProofs.StateRootProof","components":[{"name":"beaconStateRoot","type":"bytes32","internalType":"bytes32"},{"name":"proof","type":"bytes","internalType":"bytes"}]},{"name":"validatorIndices","type":"uint40[]","internalType":"uint40[]"},{"name":"validatorFieldsProofs","type":"bytes[]","internalType":"bytes[]"},{"name":"validatorFields","type":"bytes32[][]","internalType":"bytes32[][]"}],"outputs":[],"stateMutability":"nonpayable"},{"type":"function","name":"callWithdrawNonBeaconChainETHBalanceWei","inputs":[{"name":"moduleName","type":"bytes32","internalType":"bytes32"},{"name":"amountToWithdraw","type":"uint256","internalType":"uint256"}],"outputs":[],"stateMutability":"nonpayable"},{"type":"function","name":"createNewPufferModule","inputs":[{"name":"moduleName","type":"bytes32","internalType":"bytes32"}],"outputs":[{"name":"","type":"address","internalType":"contract IPufferModule"}],"stateMutability":"nonpayable"},{"type":"function","name":"createNewRestakingOperator","inputs":[{"name":"metadataURI","type":"string","internalType":"string"},{"name":"delegationApprover","type":"address","internalType":"address"},{"name":"stakerOptOutWindowBlocks","type":"uint32","internalType":"uint32"}],"outputs":[{"name":"","type":"address","internalType":"contract IRestakingOperator"}],"stateMutability":"nonpayable"},{"type":"function","name":"customExternalCall","inputs":[{"name":"restakingOperator","type":"address","internalType":"contract IRestakingOperator"},{"name":"target","type":"address","internalType":"address"},{"name":"customCalldata","type":"bytes","internalType":"bytes"}],"outputs":[],"stateMutability":"nonpayable"},{"type":"function","name":"initialize","inputs":[{"name":"accessManager","type":"address","internalType":"address"}],"outputs":[],"stateMutability":"nonpayable"},{"type":"function","name":"isConsumingScheduledOp","inputs":[],"outputs":[{"name":"","type":"bytes4","internalType":"bytes4"}],"stateMutability":"view"},{"type":"function","name":"proxiableUUID","inputs":[],"outputs":[{"name":"","type":"bytes32","internalType":"bytes32"}],"stateMutability":"view"},{"type":"function","name":"setAuthority","inputs":[{"name":"newAuthority","type":"address","internalType":"address"}],"outputs":[],"stateMutability":"nonpayable"},{"type":"function","name":"updateAVSRegistrationSignatureProof","inputs":[{"name":"restakingOperator","type":"address","internalType":"contract IRestakingOperator"},{"name":"digestHash","type":"bytes32","internalType":"bytes32"},{"name":"signer","type":"address","internalType":"address"}],"outputs":[],"stateMutability":"nonpayable"},{"type":"function","name":"upgradeToAndCall","inputs":[{"name":"newImplementation","type":"address","internalType":"address"},{"name":"data","type":"bytes","internalType":"bytes"}],"outputs":[],"stateMutability":"payable"},{"type":"event","name":"AVSRegistrationSignatureProofUpdated","inputs":[{"name":"restakingOperator","type":"address","indexed":true,"internalType":"address"},{"name":"digestHash","type":"bytes32","indexed":false,"internalType":"bytes32"},{"name":"signer","type":"address","indexed":false,"internalType":"address"}],"anonymous":false},{"type":"event","name":"AuthorityUpdated","inputs":[{"name":"authority","type":"address","indexed":false,"internalType":"address"}],"anonymous":false},{"type":"event","name":"CompletedQueuedWithdrawals","inputs":[{"name":"moduleName","type":"bytes32","indexed":true,"internalType":"bytes32"},{"name":"sharesWithdrawn","type":"uint256","indexed":false,"internalType":"uint256"}],"anonymous":false},{"type":"event","name":"CustomCallSucceeded","inputs":[{"name":"restakingOperator","type":"address","indexed":true,"internalType":"address"},{"name":"target","type":"address","indexed":false,"internalType":"address"},{"name":"customCalldata","type":"bytes","indexed":false,"internalType":"bytes"},{"name":"response","type":"bytes","indexed":false,"internalType":"bytes"}],"anonymous":false},{"type":"event","name":"Initialized","inputs":[{"name":"version","type":"uint64","indexed":false,"internalType":"uint64"}],"anonymous":false},{"type":"event","name":"NonBeaconChainETHBalanceWithdrawn","inputs":[{"name":"moduleName","type":"bytes32","indexed":true,"internalType":"bytes32"},{"name":"amountToWithdraw","type":"uint256","indexed":false,"internalType":"uint256"}],"anonymous":false},{"type":"event","name":"PufferModuleDelegated","inputs":[{"name":"moduleName","type":"bytes32","indexed":true,"internalType":"bytes32"},{"name":"operator","type":"address","indexed":false,"internalType":"address"}],"anonymous":false},{"type":"event","name":"PufferModuleUndelegated","inputs":[{"name":"moduleName","type":"bytes32","indexed":true,"internalType":"bytes32"}],"anonymous":false},{"type":"event","name":"RestakingOperatorAVSSocketUpdated","inputs":[{"name":"restakingOperator","type":"address","indexed":false,"internalType":"contract IRestakingOperator"},{"name":"avsRegistryCoordinator","type":"address","indexed":false,"internalType":"address"},{"name":"socket","type":"string","indexed":false,"internalType":"string"}],"anonymous":false},{"type":"event","name":"RestakingOperatorCreated","inputs":[{"name":"restakingOperator","type":"address","indexed":true,"internalType":"address"},{"name":"operatorDetails","type":"tuple","indexed":false,"internalType":"struct IDelegationManager.OperatorDetails","components":[{"name":"earningsReceiver","type":"address","internalType":"address"},{"name":"delegationApprover","type":"address","internalType":"address"},{"name":"stakerOptOutWindowBlocks","type":"uint32","internalType":"uint32"}]}],"anonymous":false},{"type":"event","name":"RestakingOperatorDeregisteredFromAVS","inputs":[{"name":"restakingOperator","type":"address","indexed":false,"internalType":"contract IRestakingOperator"},{"name":"avsRegistryCoordinator","type":"address","indexed":false,"internalType":"address"},{"name":"quorumNumbers","type":"bytes","indexed":false,"internalType":"bytes"}],"anonymous":false},{"type":"event","name":"RestakingOperatorMetadataURIUpdated","inputs":[{"name":"restakingOperator","type":"address","indexed":true,"internalType":"address"},{"name":"metadataURI","type":"string","indexed":false,"internalType":"string"}],"anonymous":false},{"type":"event","name":"RestakingOperatorModified","inputs":[{"name":"restakingOperator","type":"address","indexed":true,"internalType":"address"},{"name":"newOperatorDetails","type":"tuple","indexed":false,"internalType":"struct IDelegationManager.OperatorDetails","components":[{"name":"earningsReceiver","type":"address","internalType":"address"},{"name":"delegationApprover","type":"address","internalType":"address"},{"name":"stakerOptOutWindowBlocks","type":"uint32","internalType":"uint32"}]}],"anonymous":false},{"type":"event","name":"RestakingOperatorOptedInSlasher","inputs":[{"name":"restakingOperator","type":"address","indexed":true,"internalType":"address"},{"name":"slasher","type":"address","indexed":true,"internalType":"address"}],"anonymous":false},{"type":"event","name":"RestakingOperatorRegisteredToAVS","inputs":[{"name":"restakingOperator","type":"address","indexed":false,"internalType":"contract IRestakingOperator"},{"name":"avsRegistryCoordinator","type":"address","indexed":false,"internalType":"address"},{"name":"quorumNumbers","type":"bytes","indexed":false,"internalType":"bytes"},{"name":"socket","type":"string","indexed":false,"internalType":"string"}],"anonymous":false},{"type":"event","name":"RestakingOperatorRegisteredToAVSWithChurn","inputs":[{"name":"restakingOperator","type":"address","indexed":false,"internalType":"contract IRestakingOperator"},{"name":"avsRegistryCoordinator","type":"address","indexed":false,"internalType":"address"},{"name":"quorumNumbers","type":"bytes","indexed":false,"internalType":"bytes"},{"name":"socket","type":"string","indexed":false,"internalType":"string"},{"name":"operatorKickParams","type":"tuple[]","indexed":false,"internalType":"struct IRegistryCoordinator.OperatorKickParam[]","components":[{"name":"quorumNumber","type":"uint8","internalType":"uint8"},{"name":"operator","type":"address","internalType":"address"}]}],"anonymous":false},{"type":"event","name":"Upgraded","inputs":[{"name":"implementation","type":"address","indexed":true,"internalType":"address"}],"anonymous":false},{"type":"event","name":"ValidatorCredentialsVerified","inputs":[{"name":"moduleName","type":"bytes32","indexed":true,"internalType":"bytes32"},{"name":"validatorIndices","type":"uint40[]","indexed":false,"internalType":"uint40[]"}],"anonymous":false},{"type":"event","name":"VerifiedAndProcessedWithdrawals","inputs":[{"name":"moduleName","type":"bytes32","indexed":true,"internalType":"bytes32"},{"name":"validatorFields","type":"bytes32[][]","indexed":false,"internalType":"bytes32[][]"},{"name":"withdrawalFields","type":"bytes32[][]","indexed":false,"internalType":"bytes32[][]"}],"anonymous":false},{"type":"event","name":"WithdrawalsQueued","inputs":[{"name":"moduleName","type":"bytes32","indexed":true,"internalType":"bytes32"},{"name":"shareAmount","type":"uint256","indexed":false,"internalType":"uint256"},{"name":"withdrawalRoot","type":"bytes32","indexed":false,"internalType":"bytes32"}],"anonymous":false},{"type":"error","name":"AccessManagedInvalidAuthority","inputs":[{"name":"authority","type":"address","internalType":"address"}]},{"type":"error","name":"AccessManagedRequiredDelay","inputs":[{"name":"caller","type":"address","internalType":"address"},{"name":"delay","type":"uint32","internalType":"uint32"}]},{"type":"error","name":"AccessManagedUnauthorized","inputs":[{"name":"caller","type":"address","internalType":"address"}]},{"type":"error","name":"AddressEmptyCode","inputs":[{"name":"target","type":"address","internalType":"address"}]},{"type":"error","name":"Create2EmptyBytecode","inputs":[]},{"type":"error","name":"Create2FailedDeployment","inputs":[]},{"type":"error","name":"Create2InsufficientBalance","inputs":[{"name":"balance","type":"uint256","internalType":"uint256"},{"name":"needed","type":"uint256","internalType":"uint256"}]},{"type":"error","name":"ERC1967InvalidImplementation","inputs":[{"name":"implementation","type":"address","internalType":"address"}]},{"type":"error","name":"ERC1967NonPayable","inputs":[]},{"type":"error","name":"FailedInnerCall","inputs":[]},{"type":"error","name":"ForbiddenModuleName","inputs":[]},{"type":"error","name":"InvalidInitialization","inputs":[]},{"type":"error","name":"NotInitializing","inputs":[]},{"type":"error","name":"UUPSUnauthorizedCallContext","inputs":[]},{"type":"error","name":"UUPSUnsupportedProxiableUUID","inputs":[{"name":"slot","type":"bytes32","internalType":"bytes32"}]},{"type":"error","name":"Unauthorized","inputs":[]}],"bytecode":{"object":"0x6101206040523060805234801562000015575f80fd5b506040516200455a3803806200455a833981016040819052620000389162000135565b6001600160a01b0380851660a05283811660c05282811660e052811661010052620000626200006c565b505050506200019a565b7ff0c57e16840df040f15088dc2f81fe391c3923bec73e23a9662efc9c229c6a00805468010000000000000000900460ff1615620000bd5760405163f92ee8a960e01b815260040160405180910390fd5b80546001600160401b03908116146200011d5780546001600160401b0319166001600160401b0390811782556040519081527fc7f505b2f371ae2175ee4913f4499e1f2633a7b5936321eed1cdaeb6115181d29060200160405180910390a15b50565b6001600160a01b03811681146200011d575f80fd5b5f805f806080858703121562000149575f80fd5b8451620001568162000120565b6020860151909450620001698162000120565b60408601519093506200017c8162000120565b60608601519092506200018f8162000120565b939692955090935050565b60805160a05160c05160e05161010051614327620002335f395f81816104da0152610e2c01525f81816103f8015281816106a1015281816107f801528181610aea01528181611075015281816112a7015281816115a9015281816117da01526119ab01525f81816102c90152611b9301525f81816103c3015261164501525f8181611d7201528181611d9c0152611ef501526143275ff3fe608060405260043610620001df575f3560e01c8063a6cee53d1162000106578063c4d66de8116200009e578063cf5fd70f116200006a578063cf5fd70f14620005eb578063d82752c8146200060f578063e78eeca21462000633578063eb7883291462000657575f80fd5b8063c4d66de8146200055b578063c53e89a8146200057f578063c7d1f67f14620005a3578063ceb0a65c14620005c7575f80fd5b8063b3bc669411620000de578063b3bc669414620004c7578063b9a2977714620004fc578063bf7e214f1462000520578063c14093291462000537575f80fd5b8063a6cee53d146200043e578063aba326d81462000462578063ad3cb1cc1462000486575f80fd5b806358d539e1116200017a5780638fb3603711620001525780638fb36037146200037f57806396b4515714620003b0578063972546f814620003e5578063988fb458146200041a575f80fd5b806358d539e11462000304578063649f2e1314620003375780637a9e5e4b146200035b575f80fd5b80633d0c4a3111620001ba5780633d0c4a3114620002515780634f1ef286146200027557806352d1902d146200028c5780635648c46114620002b6575f80fd5b8063092e6f1014620001e35780630e4304b61462000209578063335d2ffc146200022d575b5f80fd5b348015620001ef575f80fd5b50620002076200020136600462002416565b6200067b565b005b34801562000215575f80fd5b50620002076200022736600462002526565b620007d5565b34801562000239575f80fd5b50620002076200024b36600462002667565b62000922565b3480156200025d575f80fd5b50620002076200026f366004620026e0565b620009d3565b6200020762000286366004620027c9565b62000a82565b34801562000298575f80fd5b50620002a362000aa7565b6040519081526020015b60405180910390f35b348015620002c2575f80fd5b50620002eb7f000000000000000000000000000000000000000000000000000000000000000081565b6040516001600160a01b039091168152602001620002ad565b34801562000310575f80fd5b5062000328620003223660046200282f565b62000ac5565b604051620002ad919062002847565b34801562000343575f80fd5b5062000207620003553660046200288c565b62000bf9565b34801562000367575f80fd5b506200020762000379366004620028c8565b62000c97565b3480156200038b575f80fd5b506200039662000d25565b6040516001600160e01b03199091168152602001620002ad565b348015620003bc575f80fd5b50620002eb7f000000000000000000000000000000000000000000000000000000000000000081565b348015620003f1575f80fd5b50620002eb7f000000000000000000000000000000000000000000000000000000000000000081565b34801562000426575f80fd5b506200020762000438366004620028e6565b62000d5e565b3480156200044a575f80fd5b50620002076200045c36600462002667565b62000e0a565b3480156200046e575f80fd5b50620002076200048036600462002971565b62000f91565b34801562000492575f80fd5b50620004b8604051806040016040528060058152602001640352e302e360dc1b81525081565b604051620002ad919062002a98565b348015620004d3575f80fd5b50620002eb7f000000000000000000000000000000000000000000000000000000000000000081565b34801562000508575f80fd5b50620002076200051a36600462002aac565b62001052565b3480156200052c575f80fd5b50620002eb62001268565b34801562000543575f80fd5b50620002076200055536600462002b58565b62001284565b34801562000567575f80fd5b506200020762000579366004620028c8565b620013bb565b3480156200058b575f80fd5b50620002076200059d36600462002bfd565b620014cf565b348015620005af575f80fd5b50620002eb620005c13660046200282f565b6200159d565b348015620005d3575f80fd5b5062000207620005e536600462002d28565b62001703565b348015620005f7575f80fd5b50620002076200060936600462002d7e565b620017b7565b3480156200061b575f80fd5b50620002076200062d36600462002d9f565b620018db565b3480156200063f575f80fd5b50620002076200065136600462002d7e565b62001988565b34801562000663575f80fd5b50620002eb6200067536600462002e02565b62001af9565b62000689335b5f3662001c5e565b6040516322dbefbb60e01b8152600481018c90525f907f00000000000000000000000000000000000000000000000000000000000000006001600160a01b0316906322dbefbb90602401602060405180830381865afa158015620006ef573d5f803e3d5ffd5b505050506040513d601f19601f8201168201806040525081019062000715919062002e6d565b604051637128f7a960e11b81529091506001600160a01b0382169063e251ef529062000758908e908e908e908e908e908e908e908e908e908e9060040162003057565b5f604051808303815f87803b15801562000770575f80fd5b505af115801562000783573d5f803e3d5ffd5b505050508b7f3f91dfbadd893521ffbbd43362750081af349f220002e6bfb4ffb3c00735f8ac86868686604051620007bf949392919062003273565b60405180910390a2505050505050505050505050565b620007e03362000681565b6040516322dbefbb60e01b8152600481018a90525f907f00000000000000000000000000000000000000000000000000000000000000006001600160a01b0316906322dbefbb90602401602060405180830381865afa15801562000846573d5f803e3d5ffd5b505050506040513d601f19601f820116820180604052508101906200086c919062002e6d565b604051633f65cf1960e01b81529091506001600160a01b03821690633f65cf1990620008ab908c908c908c908c908c908c908c908c90600401620032f4565b5f604051808303815f87803b158015620008c3575f80fd5b505af1158015620008d6573d5f803e3d5ffd5b50505050897f6722c9fd02a30e38d993af1ef931e54d0c24d0eae5eba68982773ce120b8ddee88886040516200090e92919062003369565b60405180910390a250505050505050505050565b6200092d3362000681565b60405163d3da608960e01b81526001600160a01b0385169063d3da6089906200095f9086908690869060040162003386565b5f604051808303815f87803b15801562000977575f80fd5b505af11580156200098a573d5f803e3d5ffd5b505050507f27db4fa232a48e1d8036200baf35b28cfeb67b68b78eb93656c499210354bcb184848484604051620009c59493929190620033b5565b60405180910390a150505050565b620009de3362000681565b604051630f16172b60e41b81526001600160a01b0383169063f16172b09062000a0c908490600401620033ed565b5f604051808303815f87803b15801562000a24575f80fd5b505af115801562000a37573d5f803e3d5ffd5b50505050816001600160a01b03167fb7a983123d29e62fc833cd4a787325e090bbe76c09634c46403c3521f40c28878260405162000a769190620033ed565b60405180910390a25050565b62000a8c62001d67565b62000a978262001e11565b62000aa3828262001e1f565b5050565b5f62000ab262001eea565b505f805160206200430783398151915290565b606062000ad23362000681565b6040516322dbefbb60e01b8152600481018390525f907f00000000000000000000000000000000000000000000000000000000000000006001600160a01b0316906322dbefbb90602401602060405180830381865afa15801562000b38573d5f803e3d5ffd5b505050506040513d601f19601f8201168201806040525081019062000b5e919062002e6d565b9050806001600160a01b031663eff7c5036040518163ffffffff1660e01b81526004015f604051808303815f875af115801562000b9d573d5f803e3d5ffd5b505050506040513d5f823e601f3d908101601f1916820160405262000bc6919081019062003445565b60405190925083907f4651591b511cac27601595cefbb19b2f0a04ec7b9348230f44a1309b9d70a8c9905f90a250919050565b62000c043362000681565b60405163f73b751960e01b81526001600160a01b03828116600483015283169063f73b7519906024015f604051808303815f87803b15801562000c45575f80fd5b505af115801562000c58573d5f803e3d5ffd5b50506040516001600160a01b038085169350851691507ffaf85fa92e9a913f582def722d9da998852ef6cd2fc7715266e3c3b16495c7ac905f90a35050565b3362000ca262001268565b6001600160a01b0316816001600160a01b03161462000ce35760405162d1953b60e31b81526001600160a01b03821660048201526024015b60405180910390fd5b816001600160a01b03163b5f0362000d1a576040516361798f2f60e11b81526001600160a01b038316600482015260240162000cda565b62000aa38262001f34565b5f80516020620042e783398151915280545f9190600160a01b900460ff1662000d4f575f62000d58565b638fb3603760e01b5b91505090565b62000d693362000681565b60405163160f61a760e01b81526001600160a01b0384169063160f61a79062000d999085908590600401620034f0565b5f604051808303815f87803b15801562000db1575f80fd5b505af115801562000dc4573d5f803e3d5ffd5b505050507f3ffb7bac615a6339a8520562e9abe014bf9a36578e15f4bd3e5567447883616383838360405162000dfd9392919062003515565b60405180910390a1505050565b62000e153362000681565b604051630d39c25360e21b81526001600160a01b037f000000000000000000000000000000000000000000000000000000000000000016906334e7094c9062000e679086908690869060040162003386565b602060405180830381865afa15801562000e83573d5f803e3d5ffd5b505050506040513d601f19601f8201168201806040525081019062000ea9919062003550565b62000ec6576040516282b42960e81b815260040160405180910390fd5b60405163163e908360e21b81525f906001600160a01b038616906358fa420c9062000efa9087908790879060040162003386565b5f604051808303815f875af115801562000f16573d5f803e3d5ffd5b505050506040513d5f823e601f3d908101601f1916820160405262000f3f91908101906200356e565b9050846001600160a01b03167fb7733a8fd1263c835b901d11878a19c9a8cba9ba7db83ccd7f7a42364071509f8585858560405162000f829493929190620035df565b60405180910390a25050505050565b62000f9c3362000681565b604051630f36a23b60e11b81526001600160a01b03891690631e6d44769062000fd6908a908a908a908a908a908a908a906004016200369e565b5f604051808303815f87803b15801562000fee575f80fd5b505af115801562001001573d5f803e3d5ffd5b505050507f5a71dfeab9efc3eea838ac5918e1e95f9d0175242766a5a993a1d7ba89ef097d888888888888604051620010409695949392919062003710565b60405180910390a15050505050505050565b6200105d3362000681565b6040516322dbefbb60e01b8152600481018a90525f907f00000000000000000000000000000000000000000000000000000000000000006001600160a01b0316906322dbefbb90602401602060405180830381865afa158015620010c3573d5f803e3d5ffd5b505050506040513d601f19601f82011682018060405250810190620010e9919062002e6d565b6040516319a021cb60e11b81529091506001600160a01b0382169063334043969062001128908c908c908c908c908c908c908c908c906004016200385e565b5f604051808303815f87803b15801562001140575f80fd5b505af115801562001153573d5f803e3d5ffd5b505f9250829150505b898110156200121f575f5b8b8b838181106200117c576200117c620039c6565b9050602002810190620011909190620039da565b620011a09060c0810190620039f9565b905081101562001215578b8b83818110620011bf57620011bf620039c6565b9050602002810190620011d39190620039da565b620011e39060c0810190620039f9565b82818110620011f657620011f6620039c6565b90506020020135836200120a919062003a41565b925060010162001167565b506001016200115c565b508a7f46ca5934f7ca805e7fbdc05e90e3ecbea495c41e35ba48e24f053c0c3d25af1e826040516200125391815260200190565b60405180910390a25050505050505050505050565b5f80516020620042e7833981519152546001600160a01b031690565b6200128f3362000681565b6040516322dbefbb60e01b8152600481018590525f907f00000000000000000000000000000000000000000000000000000000000000006001600160a01b0316906322dbefbb90602401602060405180830381865afa158015620012f5573d5f803e3d5ffd5b505050506040513d601f19601f820116820180604052508101906200131b919062002e6d565b604051630bed00f960e21b81529091506001600160a01b03821690632fb403e490620013509087908790879060040162003a61565b5f604051808303815f87803b15801562001368575f80fd5b505af11580156200137b573d5f803e3d5ffd5b50506040516001600160a01b03871681528792507ffa610363b3f4985bba03612919e946ac0bccf11c8e067255de41e530f8cc0997915060200162000f82565b7ff0c57e16840df040f15088dc2f81fe391c3923bec73e23a9662efc9c229c6a008054600160401b810460ff1615906001600160401b03165f81158015620014005750825b90505f826001600160401b031660011480156200141c5750303b155b9050811580156200142b575080155b156200144a5760405163f92ee8a960e01b815260040160405180910390fd5b845467ffffffffffffffff1916600117855583156200147557845460ff60401b1916600160401b1785555b620014808662001f95565b8315620014c757845460ff60401b19168555604051600181527fc7f505b2f371ae2175ee4913f4499e1f2633a7b5936321eed1cdaeb6115181d29060200160405180910390a15b505050505050565b620014da3362000681565b604051630742ab8960e41b81526001600160a01b038c169063742ab890906200151a908d908d908d908d908d908d908d908d908d908d9060040162003b0c565b5f604051808303815f87803b15801562001532575f80fd5b505af115801562001545573d5f803e3d5ffd5b505050507f2355b89a7cda879f4b4edc7eed03e6c85cb945b16756d34597e2bd8e445c6e3d8b8b8b8b8b8b8a8a6040516200158898979695949392919062003b9f565b60405180910390a15050505050505050505050565b5f336001600160a01b037f00000000000000000000000000000000000000000000000000000000000000001614620015e7576040516282b42960e81b815260040160405180910390fd5b6c4e4f5f56414c494441544f525360981b8203620016185760405163d6cccd9b60e01b815260040160405180910390fd5b620016fb5f8360405180602001620016309062002390565b601f1982820381018352601f909101166040527f0000000000000000000000000000000000000000000000000000000000000000866200166f62001268565b60405160248101929092526001600160a01b0316604482015260640160408051601f19818403018152918152602080830180516001600160e01b0316631a4438cd60e21b1790529051620016c693929101620034f0565b60408051601f1981840301815290829052620016e6929160200162003bf9565b60405160208183030381529060405262001faa565b90505b919050565b6200170e3362000681565b604051631337d03960e31b81526001600160a01b038416906399be81c8906200173e908590859060040162003c2b565b5f604051808303815f87803b15801562001756575f80fd5b505af115801562001769573d5f803e3d5ffd5b50505050826001600160a01b03167f4cb1b839d29c7a6f051ae51c7b439f2f8f991de54a4b5906503a06a0892ba2c48383604051620017aa92919062003c2b565b60405180910390a2505050565b620017c23362000681565b6040516322dbefbb60e01b8152600481018390525f907f00000000000000000000000000000000000000000000000000000000000000006001600160a01b0316906322dbefbb90602401602060405180830381865afa15801562001828573d5f803e3d5ffd5b505050506040513d601f19601f820116820180604052508101906200184e919062002e6d565b604051632ca1025360e11b8152600481018490529091506001600160a01b0382169063594204a6906024015f604051808303815f87803b15801562001891575f80fd5b505af1158015620018a4573d5f803e3d5ffd5b50505050827fcc72a3059fae624886e4da6e0b98e575d8cb4f7ea47e3986b5b60182621b7e2283604051620017aa91815260200190565b620018e63362000681565b604051633801a64360e11b8152600481018390526001600160a01b0382811660248301528416906370034c86906044015f604051808303815f87803b1580156200192e575f80fd5b505af115801562001941573d5f803e3d5ffd5b5050604080518581526001600160a01b038581166020830152871693507f3a6a179c72e503b78f992c3aa1a8d451c366c446c086cee5a811a3d03445a62f925001620017aa565b620019933362000681565b6040516322dbefbb60e01b8152600481018390525f907f00000000000000000000000000000000000000000000000000000000000000006001600160a01b0316906322dbefbb90602401602060405180830381865afa158015620019f9573d5f803e3d5ffd5b505050506040513d601f19601f8201168201806040525081019062001a1f919062002e6d565b60405163852aa33d60e01b8152600481018490529091505f906001600160a01b0383169063852aa33d906024015f604051808303815f875af115801562001a68573d5f803e3d5ffd5b505050506040513d5f823e601f3d908101601f1916820160405262001a91919081019062003445565b9050837ffa1bd67700189b28b5a9085170838266813878ca3237b31a33358644a22a2f0e84835f8151811062001acb5762001acb620039c6565b602002602001015160405162001aeb929190918252602082015260400190565b60405180910390a250505050565b5f62001b053362000681565b5f6040518060600160405280306001600160a01b03168152602001856001600160a01b031681526020018463ffffffff1681525090505f62001c0f5f888860405160200162001b5692919062003c2b565b604051602081830303815290604052805190602001206040518060200162001b7e9062002390565b601f1982820381018352601f909101166040527f000000000000000000000000000000000000000000000000000000000000000062001bbc62001268565b878d8d60405160240162001bd4949392919062003c40565b60408051601f19818403018152918152602080830180516001600160e01b031663d7e5499960e01b1790529051620016c693929101620034f0565b9050806001600160a01b03167fe6d2ef00fd0a5954fa31f9490b80fdef8567f96514930552ec737131eb85a1c78360405162001c4c919062003c9a565b60405180910390a29695505050505050565b5f80516020620042e78339815191525f8062001c9f62001c7d62001268565b873062001c8e60045f8a8c62003cd0565b62001c999162003cf9565b62002033565b9150915081620014c75763ffffffff81161562001d4357825460ff60a01b1916600160a01b17835562001cd162001268565b6001600160a01b03166394c7d7ee8787876040518463ffffffff1660e01b815260040162001d029392919062003386565b5f604051808303815f87803b15801562001d1a575f80fd5b505af115801562001d2d573d5f803e3d5ffd5b5050845460ff60a01b1916855550620014c79050565b60405162d1953b60e31b81526001600160a01b038716600482015260240162000cda565b306001600160a01b037f000000000000000000000000000000000000000000000000000000000000000016148062001df057507f00000000000000000000000000000000000000000000000000000000000000006001600160a01b031662001de45f8051602062004307833981519152546001600160a01b031690565b6001600160a01b031614155b1562001e0f5760405163703e46dd60e11b815260040160405180910390fd5b565b62001e1c3362000681565b50565b816001600160a01b03166352d1902d6040518163ffffffff1660e01b8152600401602060405180830381865afa92505050801562001e7c575060408051601f3d908101601f1916820190925262001e799181019062003d2a565b60015b62001ea657604051634c9c8ce360e01b81526001600160a01b038316600482015260240162000cda565b5f8051602062004307833981519152811462001ed957604051632a87526960e21b81526004810182905260240162000cda565b62001ee5838362002147565b505050565b306001600160a01b037f0000000000000000000000000000000000000000000000000000000000000000161462001e0f5760405163703e46dd60e11b815260040160405180910390fd5b5f80516020620042e783398151915280546001600160a01b0383166001600160a01b03199091168117825560408051918252517f2f658b440c35314f52658ea8a740e05b284cdc84dc9ae01e891f21b8933e7cad9181900360200190a15050565b62001f9f620021a3565b62001e1c81620021ed565b5f8347101562001fd75760405163392efb2b60e21b81524760048201526024810185905260440162000cda565b81515f0362001ff957604051631328927760e21b815260040160405180910390fd5b8282516020840186f590506001600160a01b0381166200202c57604051633a0ba96160e11b815260040160405180910390fd5b9392505050565b6040516001600160a01b03848116602483015283811660448301526001600160e01b0319831660648301525f9182918291829189169060840160408051601f198184030181529181526020820180516001600160e01b031663b700961360e01b17905251620020a3919062003d42565b5f60405180830381855afa9150503d805f8114620020dd576040519150601f19603f3d011682016040523d82523d5f602084013e620020e2565b606091505b509150915081156200213c5760408151106200211957808060200190518101906200210e919062003d55565b90945092506200213c565b60208151106200213c578080602001905181019062002139919062003550565b93505b505094509492505050565b620021528262002202565b6040516001600160a01b038316907fbc7cd75a20ee27fd9adebab32041f755214dbc6bffa90cc0225b39da2e5c2d3b905f90a2805115620021995762001ee5828262002268565b62000aa3620022e2565b7ff0c57e16840df040f15088dc2f81fe391c3923bec73e23a9662efc9c229c6a0054600160401b900460ff1662001e0f57604051631afcd79f60e31b815260040160405180910390fd5b620021f7620021a3565b62001e1c8162001f34565b806001600160a01b03163b5f036200223957604051634c9c8ce360e01b81526001600160a01b038216600482015260240162000cda565b5f805160206200430783398151915280546001600160a01b0319166001600160a01b0392909216919091179055565b60605f80846001600160a01b03168460405162002286919062003d42565b5f60405180830381855af49150503d805f8114620022c0576040519150601f19603f3d011682016040523d82523d5f602084013e620022c5565b606091505b5091509150620022d785838362002302565b925050505b92915050565b341562001e0f5760405163b398979f60e01b815260040160405180910390fd5b6060826200231b57620023158262002366565b6200202c565b81511580156200233357506001600160a01b0384163b155b156200235e57604051639996b31560e01b81526001600160a01b038516600482015260240162000cda565b50806200202c565b805115620023775780518082602001fd5b604051630a12f52160e11b815260040160405180910390fd5b61055f8062003d8883390190565b80356001600160401b0381168114620016fe575f80fd5b5f60408284031215620023c6575f80fd5b50919050565b5f8083601f840112620023dd575f80fd5b5081356001600160401b03811115620023f4575f80fd5b6020830191508360208260051b85010111156200240f575f80fd5b9250929050565b5f805f805f805f805f805f60e08c8e03121562002431575f80fd5b8b359a506200244360208d016200239e565b99506001600160401b038060408e013511156200245e575f80fd5b620024708e60408f01358f01620023b5565b99508060608e0135111562002483575f80fd5b620024958e60608f01358f01620023cc565b909950975060808d0135811015620024ab575f80fd5b620024bd8e60808f01358f01620023cc565b909750955060a08d0135811015620024d3575f80fd5b620024e58e60a08f01358f01620023cc565b909550935060c08d0135811015620024fb575f80fd5b506200250e8d60c08e01358e01620023cc565b81935080925050509295989b509295989b9093969950565b5f805f805f805f805f60c08a8c0312156200253f575f80fd5b893598506200255160208b016200239e565b975060408a01356001600160401b03808211156200256d575f80fd5b6200257b8d838e01620023b5565b985060608c013591508082111562002591575f80fd5b6200259f8d838e01620023cc565b909850965060808c0135915080821115620025b8575f80fd5b620025c68d838e01620023cc565b909650945060a08c0135915080821115620025df575f80fd5b50620025ee8c828d01620023cc565b915080935050809150509295985092959850929598565b6001600160a01b038116811462001e1c575f80fd5b8035620016fe8162002605565b5f8083601f84011262002638575f80fd5b5081356001600160401b038111156200264f575f80fd5b6020830191508360208285010111156200240f575f80fd5b5f805f80606085870312156200267b575f80fd5b8435620026888162002605565b935060208501356200269a8162002605565b925060408501356001600160401b03811115620026b5575f80fd5b620026c38782880162002627565b95989497509550505050565b5f60608284031215620023c6575f80fd5b5f8060808385031215620026f2575f80fd5b8235620026ff8162002605565b9150620027108460208501620026cf565b90509250929050565b634e487b7160e01b5f52604160045260245ffd5b604051601f8201601f191681016001600160401b038111828210171562002758576200275862002719565b604052919050565b5f6001600160401b038211156200277b576200277b62002719565b50601f01601f191660200190565b5f6200279f620027998462002760565b6200272d565b9050828152838383011115620027b3575f80fd5b828260208301375f602084830101529392505050565b5f8060408385031215620027db575f80fd5b8235620027e88162002605565b915060208301356001600160401b0381111562002803575f80fd5b8301601f8101851362002814575f80fd5b620028258582356020840162002789565b9150509250929050565b5f6020828403121562002840575f80fd5b5035919050565b602080825282518282018190525f9190848201906040850190845b81811015620028805783518352928401929184019160010162002862565b50909695505050505050565b5f80604083850312156200289e575f80fd5b8235620028ab8162002605565b91506020830135620028bd8162002605565b809150509250929050565b5f60208284031215620028d9575f80fd5b81356200202c8162002605565b5f805f60608486031215620028f9575f80fd5b8335620029068162002605565b92506020840135620029188162002605565b915060408401356001600160401b0381111562002933575f80fd5b8401601f8101861362002944575f80fd5b620029558682356020840162002789565b9150509250925092565b5f6101008284031215620023c6575f80fd5b5f805f805f805f806101a0898b0312156200298a575f80fd5b8835620029978162002605565b97506020890135620029a98162002605565b965060408901356001600160401b0380821115620029c5575f80fd5b620029d38c838d0162002627565b909850965060608b0135915080821115620029ec575f80fd5b620029fa8c838d0162002627565b909650945084915062002a118c60808d016200295f565b93506101808b013591508082111562002a28575f80fd5b5062002a378b828c01620026cf565b9150509295985092959890939650565b5f5b8381101562002a6357818101518382015260200162002a49565b50505f910152565b5f815180845262002a8481602086016020860162002a47565b601f01601f19169290920160200192915050565b602081525f6200202c602083018462002a6b565b5f805f805f805f805f60a08a8c03121562002ac5575f80fd5b8935985060208a01356001600160401b038082111562002ae3575f80fd5b62002af18d838e01620023cc565b909a50985060408c013591508082111562002b0a575f80fd5b62002b188d838e01620023cc565b909850965060608c013591508082111562002b31575f80fd5b62002b3f8d838e01620023cc565b909650945060808c0135915080821115620025df575f80fd5b5f805f806080858703121562002b6c575f80fd5b84359350602085013562002b808162002605565b925060408501356001600160401b0381111562002b9b575f80fd5b62002ba987828801620023b5565b949793965093946060013593505050565b5f8083601f84011262002bcb575f80fd5b5081356001600160401b0381111562002be2575f80fd5b6020830191508360208260061b85010111156200240f575f80fd5b5f805f805f805f805f805f6101e08c8e03121562002c19575f80fd5b62002c248c6200261a565b9a5062002c3460208d016200261a565b99506001600160401b038060408e0135111562002c4f575f80fd5b62002c618e60408f01358f0162002627565b909a50985060608d013581101562002c77575f80fd5b62002c898e60608f01358f0162002627565b909850965062002c9d8e60808f016200295f565b9550806101808e0135111562002cb1575f80fd5b62002cc48e6101808f01358f0162002bba565b90955093506101a08d013581101562002cdb575f80fd5b62002cee8e6101a08f01358f01620026cf565b9250806101c08e0135111562002d02575f80fd5b5062002d168d6101c08e01358e01620026cf565b90509295989b509295989b9093969950565b5f805f6040848603121562002d3b575f80fd5b833562002d488162002605565b925060208401356001600160401b0381111562002d63575f80fd5b62002d718682870162002627565b9497909650939450505050565b5f806040838503121562002d90575f80fd5b50508035926020909101359150565b5f805f6060848603121562002db2575f80fd5b833562002dbf8162002605565b925060208401359150604084013562002dd88162002605565b809150509250925092565b63ffffffff8116811462001e1c575f80fd5b8035620016fe8162002de3565b5f805f806060858703121562002e16575f80fd5b84356001600160401b0381111562002e2c575f80fd5b62002e3a8782880162002627565b909550935050602085013562002e508162002605565b9150604085013562002e628162002de3565b939692955090935050565b5f6020828403121562002e7e575f80fd5b81516200202c8162002605565b5f808335601e1984360301811262002ea1575f80fd5b83016020810192503590506001600160401b0381111562002ec0575f80fd5b8036038213156200240f575f80fd5b81835281816020850137505f828201602090810191909152601f909101601f19169091010190565b803582525f62002f0b602083018362002e8b565b60406020860152620022d760408601828462002ecf565b5f838385526020808601955060208560051b830101845f5b8781101562002f7a57848303601f1901895262002f58828862002e8b565b62002f6585828462002ecf565b9a86019a945050509083019060010162002f3a565b5090979650505050505050565b8183525f6001600160fb1b0383111562002f9f575f80fd5b8260051b80836020870137939093016020019392505050565b5f808335601e1984360301811262002fce575f80fd5b83016020810192503590506001600160401b0381111562002fed575f80fd5b8060051b36038213156200240f575f80fd5b5f838385526020808601955060208560051b830101845f5b8781101562002f7a57848303601f1901895262003035828862002fb8565b6200304285828462002f87565b9a86019a945050509083019060010162003017565b6001600160401b038b16815260c060208201525f6200307a60c083018c62002ef7565b828103604084015289815260208082019060058c901b8301018c5f5b8d8110156200321b57848303601f19018452368f900361017e1901823512620030bd575f80fd5b8e823501620030cd818262002e8b565b6101808652620030e36101808701828462002ecf565b915050620030f5602083018362002e8b565b86830360208801526200310a83828462002ecf565b925050506200311d604083018362002e8b565b86830360408801526200313283828462002ecf565b9250505062003145606083018362002e8b565b86830360608801526200315a83828462002ecf565b925050506200316d608083018362002e8b565b86830360808801526200318283828462002ecf565b925050506200319460a083016200239e565b6001600160401b031660a0860152620031b060c083016200239e565b6001600160401b031660c0860152620031cc60e083016200239e565b6001600160401b031660e0860152610100828101359086015261012080830135908601526101408083013590860152610160918201359190940152602093840193919091019060010162003096565b5050848103606086015262003232818b8d62002f22565b9250505082810360808401526200324b81878962002fff565b905082810360a08401526200326281858762002fff565b9d9c50505050505050505050505050565b604081525f6200328860408301868862002fff565b82810360208401526200329d81858762002fff565b979650505050505050565b8183525f60208085019450825f5b85811015620032e957813564ffffffffff8116808214620032d5575f80fd5b8852509582019590820190600101620032b6565b509495945050505050565b6001600160401b038916815260a060208201525f6200331760a083018a62002ef7565b82810360408401526200332c81898b620032a8565b905082810360608401526200334381878962002f22565b905082810360808401526200335a81858762002fff565b9b9a5050505050505050505050565b602081525f6200337e602083018486620032a8565b949350505050565b6001600160a01b03841681526040602082018190525f90620033ac908301848662002ecf565b95945050505050565b6001600160a01b038581168252841660208201526060604082018190525f90620033e3908301848662002ecf565b9695505050505050565b606081018235620033fe8162002605565b6001600160a01b0390811683526020840135906200341c8262002605565b1660208301526040830135620034328162002de3565b63ffffffff811660408401525092915050565b5f602080838503121562003457575f80fd5b82516001600160401b03808211156200346e575f80fd5b818501915085601f83011262003482575f80fd5b81518181111562003497576200349762002719565b8060051b9150620034aa8483016200272d565b8181529183018401918481019088841115620034c4575f80fd5b938501935b83851015620034e457845182529385019390850190620034c9565b98975050505050505050565b6001600160a01b03831681526040602082018190525f906200337e9083018462002a6b565b6001600160a01b038481168252831660208201526060604082018190525f90620033ac9083018462002a6b565b801515811462001e1c575f80fd5b5f6020828403121562003561575f80fd5b81516200202c8162003542565b5f602082840312156200357f575f80fd5b81516001600160401b0381111562003595575f80fd5b8201601f81018413620035a6575f80fd5b8051620035b7620027998262002760565b818152856020838501011115620035cc575f80fd5b620033ac82602083016020860162002a47565b6001600160a01b03851681526060602082018190525f9062003605908301858762002ecf565b82810360408401526200329d818562002a6b565b803582526020808201359083015262003642604083016040830180358252602090810135910152565b6040608082016080840137604060c0820160c08401375050565b5f62003669828362002e8b565b606085526200367d60608601828462002ecf565b91505060208301356020850152604083013560408501528091505092915050565b6001600160a01b0388168152610180602082018190525f90620036c5838201898b62002ecf565b90508281036040840152620036dc81878962002ecf565b9050620036ed606084018662003619565b8281036101608401526200370281856200365c565b9a9950505050505050505050565b6001600160a01b038781168252861660208201526080604082018190525f906200373e908301868862002ecf565b82810360608401526200375381858762002ecf565b9998505050505050505050565b8183525f60208085019450825f5b85811015620032e9578135620037848162002605565b6001600160a01b0316875295820195908201906001016200376e565b5f8383855260208086019550808560051b830101845f5b8781101562002f7a57848303601f19018952620037d5828862002fb8565b8085528585015f5b828110156200380f578335620037f38162002605565b6001600160a01b031682529287019290870190600101620037dd565b509a86019a9450505090830190600101620037b7565b8183525f60208085019450825f5b85811015620032e9578135620038498162003542565b15158752958201959082019060010162003833565b608080825281018890525f60a060058a901b830181019083018b835b8c8110156200398057858403609f190183528135368f900360de19018112620038a1575f80fd5b8e0160e08135620038b28162002605565b6001600160a01b03168652602082810135620038ce8162002605565b6001600160a01b0316818801526040620038ea8482016200261a565b6001600160a01b031690880152606083810135908801526200390f6080840162002df5565b63ffffffff1660808801526200392960a084018462002fb8565b8360a08a01526200393e848a01828462003760565b9350505060c0620039528185018562002fb8565b9450888403828a01526200396884868362002f87565b9850505094850194939093019250506001016200387a565b50505082810360208401526200399881898b620037a0565b90508281036040840152620039af81878962002f87565b905082810360608401526200335a81858762003825565b634e487b7160e01b5f52603260045260245ffd5b5f823560de19833603018112620039ef575f80fd5b9190910192915050565b5f808335601e1984360301811262003a0f575f80fd5b8301803591506001600160401b0382111562003a29575f80fd5b6020019150600581901b36038213156200240f575f80fd5b80820180821115620022dc57634e487b7160e01b5f52601160045260245ffd5b6001600160a01b0384168152606060208201525f62003a81848062002e8b565b6040606085015262003a9860a08501828462002ecf565b60209690960135608085015250505060400152919050565b8183525f60208085019450825f5b85811015620032e957813560ff811680821462003ad9575f80fd5b8852508183013562003aeb8162002605565b6001600160a01b031687840152604096870196919091019060010162003abe565b6001600160a01b038b1681526101c0602082018190525f9062003b338382018c8e62002ecf565b9050828103604084015262003b4a818a8c62002ecf565b905062003b5b606084018962003619565b82810361016084015262003b7181878962003ab0565b905082810361018084015262003b8881866200365c565b90508281036101a08401526200326281856200365c565b6001600160a01b0389811682528816602082015260a0604082018190525f9062003bcd908301888a62002ecf565b828103606084015262003be281878962002ecf565b905082810360808401526200335a81858762003ab0565b5f835162003c0c81846020880162002a47565b83519083019062003c2281836020880162002a47565b01949350505050565b602081525f6200337e60208301848662002ecf565b6001600160a01b038516815262003c82602082018580516001600160a01b0390811683526020808301519091169083015260409081015163ffffffff16910152565b60a060808201525f620033e360a08301848662002ecf565b81516001600160a01b0390811682526020808401519091169082015260408083015163ffffffff169082015260608101620022dc565b5f808585111562003cdf575f80fd5b8386111562003cec575f80fd5b5050820193919092039150565b6001600160e01b0319813581811691600485101562003d225780818660040360031b1b83161692505b505092915050565b5f6020828403121562003d3b575f80fd5b5051919050565b5f8251620039ef81846020870162002a47565b5f806040838503121562003d67575f80fd5b825162003d748162003542565b6020840151909250620028bd8162002de356fe60a060405260405161055f38038061055f83398101604081905261002291610376565b61002c828261003e565b506001600160a01b0316608052610465565b610047826100fb565b6040516001600160a01b038316907f1cf3b03a6cf19fa2baba4df148e9dcabedea7f8a5c07840e207e5c089be95d3e905f90a28051156100ef576100ea826001600160a01b0316635c60da1b6040518163ffffffff1660e01b8152600401602060405180830381865afa1580156100c0573d5f803e3d5ffd5b505050506040513d601f19601f820116820180604052508101906100e49190610431565b82610209565b505050565b6100f761027c565b5050565b806001600160a01b03163b5f0361013557604051631933b43b60e21b81526001600160a01b03821660048201526024015b60405180910390fd5b807fa3f0ad74e5423aebfd80d3ef4346578335a9a72aeaee59ff6cb3582b35133d5080546001600160a01b0319166001600160a01b0392831617905560408051635c60da1b60e01b815290515f92841691635c60da1b9160048083019260209291908290030181865afa1580156101ae573d5f803e3d5ffd5b505050506040513d601f19601f820116820180604052508101906101d29190610431565b9050806001600160a01b03163b5f036100f757604051634c9c8ce360e01b81526001600160a01b038216600482015260240161012c565b60605f80846001600160a01b031684604051610225919061044a565b5f60405180830381855af49150503d805f811461025d576040519150601f19603f3d011682016040523d82523d5f602084013e610262565b606091505b50909250905061027385838361029d565b95945050505050565b341561029b5760405163b398979f60e01b815260040160405180910390fd5b565b6060826102b2576102ad826102fc565b6102f5565b81511580156102c957506001600160a01b0384163b155b156102f257604051639996b31560e01b81526001600160a01b038516600482015260240161012c565b50805b9392505050565b80511561030c5780518082602001fd5b604051630a12f52160e11b815260040160405180910390fd5b80516001600160a01b038116811461033b575f80fd5b919050565b634e487b7160e01b5f52604160045260245ffd5b5f5b8381101561036e578181015183820152602001610356565b50505f910152565b5f8060408385031215610387575f80fd5b61039083610325565b60208401519092506001600160401b03808211156103ac575f80fd5b818501915085601f8301126103bf575f80fd5b8151818111156103d1576103d1610340565b604051601f8201601f19908116603f011681019083821181831017156103f9576103f9610340565b81604052828152886020848701011115610411575f80fd5b610422836020830160208801610354565b80955050505050509250929050565b5f60208284031215610441575f80fd5b6102f582610325565b5f825161045b818460208701610354565b9190910192915050565b60805160e561047a5f395f601d015260e55ff3fe6080604052600a600c565b005b60186014601a565b609d565b565b5f7f00000000000000000000000000000000000000000000000000000000000000006001600160a01b0316635c60da1b6040518163ffffffff1660e01b8152600401602060405180830381865afa1580156076573d5f803e3d5ffd5b505050506040513d601f19601f820116820180604052508101906098919060ba565b905090565b365f80375f80365f845af43d5f803e80801560b6573d5ff35b3d5ffd5b5f6020828403121560c9575f80fd5b81516001600160a01b038116811460de575f80fd5b939250505056f3177357ab46d8af007ab3fdb9af81da189e1068fefdc0073dca88a2cab40a00360894a13ba1a3210667c828492db98dca3e2076cc3735a920a3ca505d382bbc","linkReferences":{}},"methodIdentifiers":{"AVS_CONTRACTS_REGISTRY()":"b3bc6694","PUFFER_MODULE_BEACON()":"96b45157","PUFFER_PROTOCOL()":"972546f8","RESTAKING_OPERATOR_BEACON()":"5648c461","UPGRADE_INTERFACE_VERSION()":"ad3cb1cc","authority()":"bf7e214f","callCompleteQueuedWithdrawals(bytes32,(address,address,address,uint256,uint32,address[],uint256[])[],address[][],uint256[],bool[])":"b9a29777","callDelegateTo(bytes32,address,(bytes,uint256),bytes32)":"c1409329","callDeregisterOperatorFromAVS(address,address,bytes)":"335d2ffc","callModifyOperatorDetails(address,(address,address,uint32))":"3d0c4a31","callOptIntoSlashing(address,address)":"649f2e13","callQueueWithdrawals(bytes32,uint256)":"e78eeca2","callRegisterOperatorToAVS(address,address,bytes,string,((uint256,uint256),(uint256,uint256),(uint256[2],uint256[2])),(bytes,bytes32,uint256))":"aba326d8","callRegisterOperatorToAVSWithChurn(address,address,bytes,string,((uint256,uint256),(uint256,uint256),(uint256[2],uint256[2])),(uint8,address)[],(bytes,bytes32,uint256),(bytes,bytes32,uint256))":"c53e89a8","callUndelegate(bytes32)":"58d539e1","callUpdateMetadataURI(address,string)":"ceb0a65c","callUpdateOperatorAVSSocket(address,address,string)":"988fb458","callVerifyAndProcessWithdrawals(bytes32,uint64,(bytes32,bytes),(bytes,bytes,bytes,bytes,bytes,uint64,uint64,uint64,bytes32,bytes32,bytes32,bytes32)[],bytes[],bytes32[][],bytes32[][])":"092e6f10","callVerifyWithdrawalCredentials(bytes32,uint64,(bytes32,bytes),uint40[],bytes[],bytes32[][])":"0e4304b6","callWithdrawNonBeaconChainETHBalanceWei(bytes32,uint256)":"cf5fd70f","createNewPufferModule(bytes32)":"c7d1f67f","createNewRestakingOperator(string,address,uint32)":"eb788329","customExternalCall(address,address,bytes)":"a6cee53d","initialize(address)":"c4d66de8","isConsumingScheduledOp()":"8fb36037","proxiableUUID()":"52d1902d","setAuthority(address)":"7a9e5e4b","updateAVSRegistrationSignatureProof(address,bytes32,address)":"d82752c8","upgradeToAndCall(address,bytes)":"4f1ef286"},"id":192}