{"abi":[{"type":"constructor","inputs":[{"name":"authority","type":"address","internalType":"address"}],"stateMutability":"nonpayable"},{"type":"function","name":"authority","inputs":[],"outputs":[{"name":"","type":"address","internalType":"address"}],"stateMutability":"view"},{"type":"function","name":"isAllowedRegistryCoordinator","inputs":[{"name":"avsRegistryCoordinator","type":"address","internalType":"address"},{"name":"customCalldata","type":"bytes","internalType":"bytes"}],"outputs":[{"name":"","type":"bool","internalType":"bool"}],"stateMutability":"view"},{"type":"function","name":"isConsumingScheduledOp","inputs":[],"outputs":[{"name":"","type":"bytes4","internalType":"bytes4"}],"stateMutability":"view"},{"type":"function","name":"setAuthority","inputs":[{"name":"newAuthority","type":"address","internalType":"address"}],"outputs":[],"stateMutability":"nonpayable"},{"type":"function","name":"setAvsRegistryCoordinator","inputs":[{"name":"avsRegistryCoordinator","type":"address","internalType":"address"},{"name":"selector","type":"bytes4","internalType":"bytes4"},{"name":"isAllowed","type":"bool","internalType":"bool"}],"outputs":[],"stateMutability":"nonpayable"},{"type":"event","name":"AuthorityUpdated","inputs":[{"name":"authority","type":"address","indexed":false,"internalType":"address"}],"anonymous":false},{"type":"event","name":"AvsRegistryCoordinatorSet","inputs":[{"name":"avsRegistryCoordinator","type":"address","indexed":true,"internalType":"address"},{"name":"selector","type":"bytes4","indexed":false,"internalType":"bytes4"},{"name":"isAllowed","type":"bool","indexed":false,"internalType":"bool"}],"anonymous":false},{"type":"error","name":"AccessManagedInvalidAuthority","inputs":[{"name":"authority","type":"address","internalType":"address"}]},{"type":"error","name":"AccessManagedRequiredDelay","inputs":[{"name":"caller","type":"address","internalType":"address"},{"name":"delay","type":"uint32","internalType":"uint32"}]},{"type":"error","name":"AccessManagedUnauthorized","inputs":[{"name":"caller","type":"address","internalType":"address"}]},{"type":"error","name":"FunctionSelectorAlreadySet","inputs":[{"name":"registryCoordinator","type":"address","internalType":"address"},{"name":"selector","type":"bytes4","internalType":"bytes4"}]}],"bytecode":{"object":"0x608060405234801561000f575f80fd5b5060405161081d38038061081d83398101604081905261002e91610092565b806100388161003f565b50506100bf565b5f80546001600160a01b0319166001600160a01b0383169081179091556040519081527f2f658b440c35314f52658ea8a740e05b284cdc84dc9ae01e891f21b8933e7cad9060200160405180910390a150565b5f602082840312156100a2575f80fd5b81516001600160a01b03811681146100b8575f80fd5b9392505050565b610751806100cc5f395ff3fe608060405234801561000f575f80fd5b5060043610610055575f3560e01c80632e23da5b1461005957806334e7094c1461006e5780637a9e5e4b146100965780638fb36037146100a9578063bf7e214f146100ca575b5f80fd5b61006c610067366004610546565b6100e4565b005b61008161007c366004610598565b6101de565b60405190151581526020015b60405180910390f35b61006c6100a4366004610614565b610230565b6100b16102a8565b6040516001600160e01b0319909116815260200161008d565b5f546040516001600160a01b03909116815260200161008d565b6100ef335f366102ca565b6001600160a01b0383165f9081526001602090815260408083206001600160e01b03198616845290915290205481151560ff9091161515036101645760405163888297c360e01b81526001600160a01b03841660048201526001600160e01b0319831660248201526044015b60405180910390fd5b6001600160a01b0383165f8181526001602090815260408083206001600160e01b0319871680855290835292819020805460ff19168615159081179091558151938452918301919091527f5d01bf15a69c8ac220c1e8ecb284db2650e5898d547e839d9278467f97119c27910160405180910390a2505050565b5f806101ed6004828587610634565b6101f69161065b565b6001600160a01b0386165f9081526001602090815260408083206001600160e01b03199094168352929052205460ff169150509392505050565b5f5433906001600160a01b031681146102665760405162d1953b60e31b81526001600160a01b038216600482015260240161015b565b816001600160a01b03163b5f0361029b576040516361798f2f60e11b81526001600160a01b038316600482015260240161015b565b6102a4826103c0565b5050565b5f8054600160a01b900460ff166102be57505f90565b50638fb3603760e01b90565b5f806102fd6102e05f546001600160a01b031690565b86306102ef60045f898b610634565b6102f89161065b565b610413565b91509150816103b95763ffffffff811615610396575f805460ff60a01b198116600160a01b17909155604051634a63ebf760e11b81526001600160a01b03909116906394c7d7ee906103579088908890889060040161068b565b5f604051808303815f87803b15801561036e575f80fd5b505af1158015610380573d5f803e3d5ffd5b50505f805460ff60a01b19169055506103b99050565b60405162d1953b60e31b81526001600160a01b038616600482015260240161015b565b5050505050565b5f80546001600160a01b0319166001600160a01b0383169081179091556040519081527f2f658b440c35314f52658ea8a740e05b284cdc84dc9ae01e891f21b8933e7cad9060200160405180910390a150565b6040516001600160a01b03848116602483015283811660448301526001600160e01b0319831660648301525f9182918291829189169060840160408051601f198184030181529181526020820180516001600160e01b031663b700961360e01b1790525161048191906106ca565b5f60405180830381855afa9150503d805f81146104b9576040519150601f19603f3d011682016040523d82523d5f602084013e6104be565b606091505b509150915081156105105760408151106104f057808060200190518101906104e691906106f6565b9094509250610510565b6020815110610510578080602001905181019061050d9190610736565b93505b505094509492505050565b80356001600160a01b0381168114610531575f80fd5b919050565b8015158114610543575f80fd5b50565b5f805f60608486031215610558575f80fd5b6105618461051b565b925060208401356001600160e01b03198116811461057d575f80fd5b9150604084013561058d81610536565b809150509250925092565b5f805f604084860312156105aa575f80fd5b6105b38461051b565b9250602084013567ffffffffffffffff808211156105cf575f80fd5b818601915086601f8301126105e2575f80fd5b8135818111156105f0575f80fd5b876020828501011115610601575f80fd5b6020830194508093505050509250925092565b5f60208284031215610624575f80fd5b61062d8261051b565b9392505050565b5f8085851115610642575f80fd5b8386111561064e575f80fd5b5050820193919092039150565b6001600160e01b031981358181169160048510156106835780818660040360031b1b83161692505b505092915050565b6001600160a01b03841681526040602082018190528101829052818360608301375f818301606090810191909152601f909201601f1916010192915050565b5f82515f5b818110156106e957602081860181015185830152016106cf565b505f920191825250919050565b5f8060408385031215610707575f80fd5b825161071281610536565b602084015190925063ffffffff8116811461072b575f80fd5b809150509250929050565b5f60208284031215610746575f80fd5b815161062d8161053656","linkReferences":{}},"methodIdentifiers":{"authority()":"bf7e214f","isAllowedRegistryCoordinator(address,bytes)":"34e7094c","isConsumingScheduledOp()":"8fb36037","setAuthority(address)":"7a9e5e4b","setAvsRegistryCoordinator(address,bytes4,bool)":"2e23da5b"},"id":184}