{"abi":[{"type":"constructor","inputs":[{"name":"verifier","type":"address","internalType":"contract IEnclaveVerifier"},{"name":"guardians","type":"address[]","internalType":"address[]"},{"name":"threshold","type":"uint256","internalType":"uint256"},{"name":"pufferAuthority","type":"address","internalType":"address"}],"stateMutability":"payable"},{"type":"receive","stateMutability":"payable"},{"type":"function","name":"ENCLAVE_VERIFIER","inputs":[],"outputs":[{"name":"","type":"address","internalType":"contract IEnclaveVerifier"}],"stateMutability":"view"},{"type":"function","name":"addGuardian","inputs":[{"name":"newGuardian","type":"address","internalType":"address"}],"outputs":[],"stateMutability":"nonpayable"},{"type":"function","name":"authority","inputs":[],"outputs":[{"name":"","type":"address","internalType":"address"}],"stateMutability":"view"},{"type":"function","name":"getEjectionThreshold","inputs":[],"outputs":[{"name":"","type":"uint256","internalType":"uint256"}],"stateMutability":"view"},{"type":"function","name":"getGuardians","inputs":[],"outputs":[{"name":"","type":"address[]","internalType":"address[]"}],"stateMutability":"view"},{"type":"function","name":"getGuardiansEnclaveAddress","inputs":[{"name":"guardian","type":"address","internalType":"address"}],"outputs":[{"name":"","type":"address","internalType":"address"}],"stateMutability":"view"},{"type":"function","name":"getGuardiansEnclaveAddresses","inputs":[],"outputs":[{"name":"","type":"address[]","internalType":"address[]"}],"stateMutability":"view"},{"type":"function","name":"getGuardiansEnclavePubkeys","inputs":[],"outputs":[{"name":"","type":"bytes[]","internalType":"bytes[]"}],"stateMutability":"view"},{"type":"function","name":"getMrenclave","inputs":[],"outputs":[{"name":"","type":"bytes32","internalType":"bytes32"}],"stateMutability":"view"},{"type":"function","name":"getMrsigner","inputs":[],"outputs":[{"name":"","type":"bytes32","internalType":"bytes32"}],"stateMutability":"view"},{"type":"function","name":"getThreshold","inputs":[],"outputs":[{"name":"","type":"uint256","internalType":"uint256"}],"stateMutability":"view"},{"type":"function","name":"isConsumingScheduledOp","inputs":[],"outputs":[{"name":"","type":"bytes4","internalType":"bytes4"}],"stateMutability":"view"},{"type":"function","name":"isGuardian","inputs":[{"name":"account","type":"address","internalType":"address"}],"outputs":[{"name":"","type":"bool","internalType":"bool"}],"stateMutability":"view"},{"type":"function","name":"removeGuardian","inputs":[{"name":"guardian","type":"address","internalType":"address"}],"outputs":[],"stateMutability":"nonpayable"},{"type":"function","name":"rotateGuardianKey","inputs":[{"name":"blockNumber","type":"uint256","internalType":"uint256"},{"name":"pubKey","type":"bytes","internalType":"bytes"},{"name":"evidence","type":"tuple","internalType":"struct RaveEvidence","components":[{"name":"report","type":"bytes","internalType":"bytes"},{"name":"signature","type":"bytes","internalType":"bytes"},{"name":"leafX509CertDigest","type":"bytes32","internalType":"bytes32"}]}],"outputs":[],"stateMutability":"nonpayable"},{"type":"function","name":"setAuthority","inputs":[{"name":"newAuthority","type":"address","internalType":"address"}],"outputs":[],"stateMutability":"nonpayable"},{"type":"function","name":"setEjectionThreshold","inputs":[{"name":"newThreshold","type":"uint256","internalType":"uint256"}],"outputs":[],"stateMutability":"nonpayable"},{"type":"function","name":"setGuardianEnclaveMeasurements","inputs":[{"name":"newMrEnclave","type":"bytes32","internalType":"bytes32"},{"name":"newMrSigner","type":"bytes32","internalType":"bytes32"}],"outputs":[],"stateMutability":"nonpayable"},{"type":"function","name":"setThreshold","inputs":[{"name":"newThreshold","type":"uint256","internalType":"uint256"}],"outputs":[],"stateMutability":"nonpayable"},{"type":"function","name":"splitGuardianFunds","inputs":[],"outputs":[],"stateMutability":"nonpayable"},{"type":"function","name":"validateBatchWithdrawals","inputs":[{"name":"validatorInfos","type":"tuple[]","internalType":"struct StoppedValidatorInfo[]","components":[{"name":"module","type":"address","internalType":"address"},{"name":"startEpoch","type":"uint256","internalType":"uint256"},{"name":"endEpoch","type":"uint256","internalType":"uint256"},{"name":"wasSlashed","type":"bool","internalType":"bool"},{"name":"moduleName","type":"bytes32","internalType":"bytes32"},{"name":"pufferModuleIndex","type":"uint256","internalType":"uint256"},{"name":"withdrawalAmount","type":"uint256","internalType":"uint256"}]},{"name":"eoaSignatures","type":"bytes[]","internalType":"bytes[]"}],"outputs":[],"stateMutability":"view"},{"type":"function","name":"validateGuardiansEOASignatures","inputs":[{"name":"eoaSignatures","type":"bytes[]","internalType":"bytes[]"},{"name":"signedMessageHash","type":"bytes32","internalType":"bytes32"}],"outputs":[{"name":"","type":"bool","internalType":"bool"}],"stateMutability":"view"},{"type":"function","name":"validateGuardiansEnclaveSignatures","inputs":[{"name":"enclaveSignatures","type":"bytes[]","internalType":"bytes[]"},{"name":"signedMessageHash","type":"bytes32","internalType":"bytes32"}],"outputs":[{"name":"","type":"bool","internalType":"bool"}],"stateMutability":"view"},{"type":"function","name":"validateProvisionNode","inputs":[{"name":"pufferModuleIndex","type":"uint256","internalType":"uint256"},{"name":"pubKey","type":"bytes","internalType":"bytes"},{"name":"signature","type":"bytes","internalType":"bytes"},{"name":"withdrawalCredentials","type":"bytes","internalType":"bytes"},{"name":"depositDataRoot","type":"bytes32","internalType":"bytes32"},{"name":"enclaveSignatures","type":"bytes[]","internalType":"bytes[]"}],"outputs":[],"stateMutability":"view"},{"type":"function","name":"validateSkipProvisioning","inputs":[{"name":"moduleName","type":"bytes32","internalType":"bytes32"},{"name":"skippedIndex","type":"uint256","internalType":"uint256"},{"name":"eoaSignatures","type":"bytes[]","internalType":"bytes[]"}],"outputs":[],"stateMutability":"view"},{"type":"function","name":"validateTotalNumberOfValidators","inputs":[{"name":"newNumberOfValidators","type":"uint256","internalType":"uint256"},{"name":"epochNumber","type":"uint256","internalType":"uint256"},{"name":"eoaSignatures","type":"bytes[]","internalType":"bytes[]"}],"outputs":[],"stateMutability":"view"},{"type":"event","name":"AuthorityUpdated","inputs":[{"name":"authority","type":"address","indexed":false,"internalType":"address"}],"anonymous":false},{"type":"event","name":"EjectionThresholdChanged","inputs":[{"name":"oldThreshold","type":"uint256","indexed":false,"internalType":"uint256"},{"name":"newThreshold","type":"uint256","indexed":false,"internalType":"uint256"}],"anonymous":false},{"type":"event","name":"GuardianAdded","inputs":[{"name":"guardian","type":"address","indexed":false,"internalType":"address"}],"anonymous":false},{"type":"event","name":"GuardianRemoved","inputs":[{"name":"guardian","type":"address","indexed":false,"internalType":"address"}],"anonymous":false},{"type":"event","name":"MrEnclaveChanged","inputs":[{"name":"oldMrEnclave","type":"bytes32","indexed":false,"internalType":"bytes32"},{"name":"newMrEnclave","type":"bytes32","indexed":false,"internalType":"bytes32"}],"anonymous":false},{"type":"event","name":"MrSignerChanged","inputs":[{"name":"oldMrSigner","type":"bytes32","indexed":false,"internalType":"bytes32"},{"name":"newMrSigner","type":"bytes32","indexed":false,"internalType":"bytes32"}],"anonymous":false},{"type":"event","name":"RotatedGuardianKey","inputs":[{"name":"guardian","type":"address","indexed":false,"internalType":"address"},{"name":"guardianEnclave","type":"address","indexed":false,"internalType":"address"},{"name":"pubKey","type":"bytes","indexed":false,"internalType":"bytes"}],"anonymous":false},{"type":"event","name":"ThresholdChanged","inputs":[{"name":"oldThreshold","type":"uint256","indexed":false,"internalType":"uint256"},{"name":"newThreshold","type":"uint256","indexed":false,"internalType":"uint256"}],"anonymous":false},{"type":"error","name":"AccessManagedInvalidAuthority","inputs":[{"name":"authority","type":"address","internalType":"address"}]},{"type":"error","name":"AccessManagedRequiredDelay","inputs":[{"name":"caller","type":"address","internalType":"address"},{"name":"delay","type":"uint32","internalType":"uint32"}]},{"type":"error","name":"AccessManagedUnauthorized","inputs":[{"name":"caller","type":"address","internalType":"address"}]},{"type":"error","name":"AddressInsufficientBalance","inputs":[{"name":"account","type":"address","internalType":"address"}]},{"type":"error","name":"FailedInnerCall","inputs":[]},{"type":"error","name":"InvalidAddress","inputs":[]},{"type":"error","name":"InvalidECDSAPubKey","inputs":[]},{"type":"error","name":"InvalidRAVE","inputs":[]},{"type":"error","name":"InvalidThreshold","inputs":[{"name":"threshold","type":"uint256","internalType":"uint256"}]},{"type":"error","name":"Unauthorized","inputs":[]}],"bytecode":{"object":"0x60a060405260405162002538380380620025388339810160408190526200002691620003a6565b806200003281620000fc565b506001600160a01b0384166200005b5760405163e6c4247b60e01b815260040160405180910390fd5b6001600160a01b038116620000835760405163e6c4247b60e01b815260040160405180910390fd5b6001600160a01b0384166080525f5b8351811015620000d257620000c9848281518110620000b557620000b5620004a7565b60200260200101516200014f60201b60201c565b60010162000092565b50620000e76801b89ea8c802a70000620001e6565b620000f28262000259565b50505050620004bb565b5f80546001600160a01b0319166001600160a01b0383169081179091556040519081527f2f658b440c35314f52658ea8a740e05b284cdc84dc9ae01e891f21b8933e7cad9060200160405180910390a150565b6001600160a01b038116620001775760405163e6c4247b60e01b815260040160405180910390fd5b5f62000185600183620002f0565b905080620001a65760405163e6c4247b60e01b815260040160405180910390fd5b6040516001600160a01b03831681527f038596bb31e2e7d3d9f184d4c98b310103f6d7f5830e5eec32bffe6f1728f9699060200160405180910390a15050565b6801bc16d674ec8000008110620002185760405163651a749b60e01b8152600481018290526024015b60405180910390fd5b60065460408051918252602082018390527f4ae5122a691bf14917d273c6a81956e1f521b3e39f2d0c6d963117bf9c820e83910160405180910390a1600655565b6200026560016200030f565b8111156200028a5760405163651a749b60e01b8152600481018290526024016200020f565b805f03620002af5760405163651a749b60e01b8152600481018290526024016200020f565b60035460408051918252602082018390527f3164947cf0f49f08dd0cd80e671535b1e11590d347c55dcaa97ba3c24a96b33a910160405180910390a1600355565b5f62000306836001600160a01b03841662000319565b90505b92915050565b5f62000309825490565b5f8181526001830160205260408120546200036057508154600181810184555f84815260208082209093018490558454848252828601909352604090209190915562000309565b505f62000309565b6001600160a01b03811681146200037d575f80fd5b50565b634e487b7160e01b5f52604160045260245ffd5b8051620003a18162000368565b919050565b5f805f8060808587031215620003ba575f80fd5b8451620003c78162000368565b602086810151919550906001600160401b0380821115620003e6575f80fd5b818801915088601f830112620003fa575f80fd5b8151818111156200040f576200040f62000380565b8060051b604051601f19603f8301168101818110858211171562000437576200043762000380565b60405291825284820192508381018501918b83111562000455575f80fd5b938501935b828510156200047e576200046e8562000394565b845293850193928501926200045a565b809850505050505050604085015191506200049c6060860162000394565b905092959194509250565b634e487b7160e01b5f52603260045260245ffd5b60805161205d620004db5f395f818161044c0152610a9e015261205d5ff3fe60806040526004361061017e575f3560e01c8063960bfe04116100cd578063bf7e214f11610087578063e75235b811610062578063e75235b81461046e578063ef91c96414610482578063f07c1b6414610496578063f0aff00a146104aa575f80fd5b8063bf7e214f1461041f578063cadbea661461043b578063d4feed0114610203575f80fd5b8063960bfe0414610370578063a526d83b1461038f578063ae9865b4146103ae578063af933df3146103cd578063b1ba85ab146103ec578063b6a5a69014610400575f80fd5b80635dfb2a3f116101385780637a9e5e4b116101135780637a9e5e4b146102e75780638609c88a1461030657806386fef0a2146103255780638fb3603714610343575f80fd5b80635dfb2a3f146102555780637140415614610276578063728b722d14610295575f80fd5b80630665f04b146101895780630c68ba21146101b357806314e0a357146101e2578063292369cd146102035780633f84cc71146102225780634f79014814610236575f80fd5b3661018557005b5f80fd5b348015610194575f80fd5b5061019d6104c9565b6040516101aa91906115dd565b60405180910390f35b3480156101be575f80fd5b506101d26101cd366004611644565b6104da565b60405190151581526020016101aa565b3480156101ed575f80fd5b506102016101fc36600461165d565b6104fb565b005b34801561020e575f80fd5b5061020161021d3660046116c4565b61058a565b34801561022d575f80fd5b5061019d6105ca565b348015610241575f80fd5b50610201610250366004611712565b6106cf565b348015610260575f80fd5b506102696106e4565b6040516101aa9190611776565b348015610281575f80fd5b50610201610290366004611644565b61081e565b3480156102a0575f80fd5b506102cf6102af366004611644565b6001600160a01b039081165f908152600760205260409020600101541690565b6040516001600160a01b0390911681526020016101aa565b3480156102f2575f80fd5b50610201610301366004611644565b6108bf565b348015610311575f80fd5b506101d26103203660046117d8565b610933565b348015610330575f80fd5b506005545b6040519081526020016101aa565b34801561034e575f80fd5b50610357610951565b6040516001600160e01b031990911681526020016101aa565b34801561037b575f80fd5b5061020161038a366004611712565b610973565b34801561039a575f80fd5b506102016103a9366004611644565b610985565b3480156103b9575f80fd5b506102016103c83660046118f8565b61099f565b3480156103d8575f80fd5b506102016103e73660046119c1565b610a4f565b3480156103f7575f80fd5b50600654610335565b34801561040b575f80fd5b5061020161041a366004611a32565b610c17565b34801561042a575f80fd5b505f546001600160a01b03166102cf565b348015610446575f80fd5b506102cf7f000000000000000000000000000000000000000000000000000000000000000081565b348015610479575f80fd5b50600354610335565b34801561048d575f80fd5b50600454610335565b3480156104a1575f80fd5b50610201610c72565b3480156104b5575f80fd5b506101d26104c43660046117d8565b610cc1565b60606104d56001610ccd565b905090565b6001600160a01b0381165f9081526002602052604081205415155b92915050565b610507335b5f36610ce0565b60055460408051918252602082018490527f1ff2c57ef9a384cea0c482d61fec8d708967d266f03266e301c6786f7209904a910160405180910390a160045460408051918252602082018390527f1a1fe271c5533136fccd1c6df515ca1f227d95822bfe78b9dd93debf3d709ae6910160405180910390a1600591909155600455565b5f6105958585610dd6565b90505f6105a3848484610933565b9050806105c2576040516282b42960e81b815260040160405180910390fd5b505050505050565b60605f6105d76001610e3e565b90505f816001600160401b038111156105f2576105f261181f565b60405190808252806020026020018201604052801561061b578160200160208202803683370190505b5090505f5b828110156106c8575f80600781610638600186610e47565b6001600160a01b03908116825260208201929092526040015f2060010154161461068e5760075f61066a600185610e47565b6001600160a01b03908116825260208201929092526040015f206001015416610692565b61dead5b9050808383815181106106a7576106a7611ab7565b6001600160a01b039092166020928302919091019091015250600101610620565b5092915050565b6106d833610500565b6106e181610e52565b50565b60605f6106f16001610e3e565b90505f816001600160401b0381111561070c5761070c61181f565b60405190808252806020026020018201604052801561073f57816020015b606081526020019060019003908161072a5790505b5090505f5b828110156106c85760075f61075a600184610e47565b6001600160a01b0316815260208101919091526040015f20805461077d90611acb565b80601f01602080910402602001604051908101604052809291908181526020018280546107a990611acb565b80156107f45780601f106107cb576101008083540402835291602001916107f4565b820191905f5260205f20905b8154815290600101906020018083116107d757829003601f168201915b505050505082828151811061080b5761080b611ab7565b6020908102919091010152600101610744565b61082733610500565b61082f610c72565b5f61083b600183610ebf565b90508015610880576040516001600160a01b03831681527fb8107d0c6b40be480ce3172ee66ba6d64b71f6b1685a851340036e6e2e3e3c529060200160405180910390a15b60035461088d6001610e3e565b10156108bb5760035460405163651a749b60e01b81526004016108b291815260200190565b60405180910390fd5b5050565b5f5433906001600160a01b031681146108f55760405162d1953b60e31b81526001600160a01b03821660048201526024016108b2565b816001600160a01b03163b5f0361092a576040516361798f2f60e11b81526001600160a01b03831660048201526024016108b2565b6108bb82610ed3565b5f6109496109416001610ccd565b858585610f26565b949350505050565b5f8054600160a01b900460ff1661096757505f90565b50638fb3603760e01b90565b61097c33610500565b6106e181611019565b61098e33610500565b610996610c72565b6106e1816110aa565b5f610a158a8a8a8a8080601f0160208091040260200160405190810160405280939291908181526020018383808284375f9201919091525050604080516020601f8e018190048102820181019092528c815292508c91508b90819084018382808284375f920191909152508b925061113d915050565b90505f610a23848484610cc1565b905080610a42576040516282b42960e81b815260040160405180910390fd5b5050505050505050505050565b335f81815260026020526040902054610a7a576040516282b42960e81b815260040160405180910390fd5b60418314610a9b576040516371f7672d60e11b815260040160405180910390fd5b5f7f00000000000000000000000000000000000000000000000000000000000000006001600160a01b0316638c1c9085878787604051610adc929190611b03565b604051908190038120600554600480546001600160e01b031960e088901b168552610b0b95948b939201611b7b565b602060405180830381865afa158015610b26573d5f803e3d5ffd5b505050506040513d601f19601f82011682018060405250810190610b4a9190611c04565b905080610b6a57604051632b3c629b60e01b815260040160405180910390fd5b5f610b788560018189611c1f565b604051610b86929190611b03565b60408051918290039091206001600160a01b038581165f9081526007602052929092206001810180546001600160a01b031916938316939093179092559150610bd0868883611c8a565b507f14720919b20fceff2a396c4973d37c6087e4619d40c8f4003d8e44ee127461a283828888604051610c069493929190611d43565b60405180910390a150505050505050565b5f6105958585808060200260200160405190810160405280939291908181526020015f905b82821015610c6857610c5960e08302860136819003810190611d6f565b81526020019060010190610c3c565b505050505061115a565b5f610c7d6001610e3e565b90505f610c8a8247611e14565b90505f5b82811015610cbc57610cb482610ca5600184610e47565b6001600160a01b03169061116f565b600101610c8e565b505050565b5f6109496109416105ca565b60605f610cd983611202565b9392505050565b5f80610d13610cf65f546001600160a01b031690565b8630610d0560045f898b611c1f565b610d0e91611e33565b61125b565b9150915081610dcf5763ffffffff811615610dac575f805460ff60a01b198116600160a01b17909155604051634a63ebf760e11b81526001600160a01b03909116906394c7d7ee90610d6d90889088908890600401611e63565b5f604051808303815f87803b158015610d84575f80fd5b505af1158015610d96573d5f803e3d5ffd5b50505f805460ff60a01b1916905550610dcf9050565b60405162d1953b60e31b81526001600160a01b03861660048201526024016108b2565b5050505050565b5f610cd98383604051602001610df6929190918252602082015260400190565b604051602081830303815290604052805190602001207f19457468657265756d205369676e6564204d6573736167653a0a3332000000005f908152601c91909152603c902090565b5f6104f5825490565b5f610cd98383611363565b6801bc16d674ec8000008110610e7e5760405163651a749b60e01b8152600481018290526024016108b2565b60065460408051918252602082018390527f4ae5122a691bf14917d273c6a81956e1f521b3e39f2d0c6d963117bf9c820e83910160405180910390a1600655565b5f610cd9836001600160a01b038416611389565b5f80546001600160a01b0319166001600160a01b0383169081179091556040519081527f2f658b440c35314f52658ea8a740e05b284cdc84dc9ae01e891f21b8933e7cad9060200160405180910390a150565b5f805f5b8651811015610ffc575f80610f9686898986818110610f4b57610f4b611ab7565b9050602002810190610f5d9190611e90565b8080601f0160208091040260200160405190810160405280939291908181526020018383808284375f9201919091525061146c92505050565b5090925090505f816003811115610faf57610faf611ed2565b03610ff257888381518110610fc657610fc6611ab7565b60200260200101516001600160a01b0316826001600160a01b031603610ff257610fef84611ee6565b93505b5050600101610f2a565b50600354811061100d57600161100f565b5f5b9695505050505050565b6110236001610e3e565b8111156110465760405163651a749b60e01b8152600481018290526024016108b2565b805f036110695760405163651a749b60e01b8152600481018290526024016108b2565b60035460408051918252602082018390527f3164947cf0f49f08dd0cd80e671535b1e11590d347c55dcaa97ba3c24a96b33a910160405180910390a1600355565b6001600160a01b0381166110d15760405163e6c4247b60e01b815260040160405180910390fd5b5f6110dd6001836114b5565b9050806110fd5760405163e6c4247b60e01b815260040160405180910390fd5b6040516001600160a01b03831681527f038596bb31e2e7d3d9f184d4c98b310103f6d7f5830e5eec32bffe6f1728f9699060200160405180910390a15050565b5f61100f8686858786604051602001610df6959493929190611efe565b5f6104f582604051602001610df69190611f4f565b804710156111925760405163cd78605960e01b81523060048201526024016108b2565b5f826001600160a01b0316826040515f6040518083038185875af1925050503d805f81146111db576040519150601f19603f3d011682016040523d82523d5f602084013e6111e0565b606091505b5050905080610cbc57604051630a12f52160e11b815260040160405180910390fd5b6060815f0180548060200260200160405190810160405280929190818152602001828054801561124f57602002820191905f5260205f20905b81548152602001906001019080831161123b575b50505050509050919050565b6040516001600160a01b03848116602483015283811660448301526001600160e01b0319831660648301525f9182918291829189169060840160408051601f198184030181529181526020820180516001600160e01b031663b700961360e01b179052516112c99190611fdb565b5f60405180830381855afa9150503d805f8114611301576040519150601f19603f3d011682016040523d82523d5f602084013e611306565b606091505b50915091508115611358576040815110611338578080602001905181019061132e9190611ff6565b9094509250611358565b602081511061135857808060200190518101906113559190611c04565b93505b505094509492505050565b5f825f01828154811061137857611378611ab7565b905f5260205f200154905092915050565b5f8181526001830160205260408120548015611463575f6113ab600183612036565b85549091505f906113be90600190612036565b905080821461141d575f865f0182815481106113dc576113dc611ab7565b905f5260205f200154905080875f0184815481106113fc576113fc611ab7565b5f918252602080832090910192909255918252600188019052604090208390555b855486908061142e5761142e612049565b600190038181905f5260205f20015f90559055856001015f8681526020019081526020015f205f9055600193505050506104f5565b5f9150506104f5565b5f805f83516041036114a3576020840151604085015160608601515f1a611495888285856114c9565b9550955095505050506114ae565b505081515f91506002905b9250925092565b5f610cd9836001600160a01b038416611591565b5f80807f7fffffffffffffffffffffffffffffff5d576e7357a4501ddfe92f46681b20a084111561150257505f91506003905082611587565b604080515f808252602082018084528a905260ff891692820192909252606081018790526080810186905260019060a0016020604051602081039080840390855afa158015611553573d5f803e3d5ffd5b5050604051601f1901519150506001600160a01b03811661157e57505f925060019150829050611587565b92505f91508190505b9450945094915050565b5f8181526001830160205260408120546115d657508154600181810184555f8481526020808220909301849055845484825282860190935260409020919091556104f5565b505f6104f5565b602080825282518282018190525f9190848201906040850190845b8181101561161d5783516001600160a01b0316835292840192918401916001016115f8565b50909695505050505050565b80356001600160a01b038116811461163f575f80fd5b919050565b5f60208284031215611654575f80fd5b610cd982611629565b5f806040838503121561166e575f80fd5b50508035926020909101359150565b5f8083601f84011261168d575f80fd5b5081356001600160401b038111156116a3575f80fd5b6020830191508360208260051b85010111156116bd575f80fd5b9250929050565b5f805f80606085870312156116d7575f80fd5b843593506020850135925060408501356001600160401b038111156116fa575f80fd5b6117068782880161167d565b95989497509550505050565b5f60208284031215611722575f80fd5b5035919050565b5f5b8381101561174357818101518382015260200161172b565b50505f910152565b5f8151808452611762816020860160208601611729565b601f01601f19169290920160200192915050565b5f60208083016020845280855180835260408601915060408160051b8701019250602087015f5b828110156117cb57603f198886030184526117b985835161174b565b9450928501929085019060010161179d565b5092979650505050505050565b5f805f604084860312156117ea575f80fd5b83356001600160401b038111156117ff575f80fd5b61180b8682870161167d565b909790965060209590950135949350505050565b634e487b7160e01b5f52604160045260245ffd5b5f82601f830112611842575f80fd5b81356001600160401b038082111561185c5761185c61181f565b604051601f8301601f19908116603f011681019082821181831017156118845761188461181f565b8160405283815286602085880101111561189c575f80fd5b836020870160208301375f602085830101528094505050505092915050565b5f8083601f8401126118cb575f80fd5b5081356001600160401b038111156118e1575f80fd5b6020830191508360208285010111156116bd575f80fd5b5f805f805f805f805f60c08a8c031215611910575f80fd5b8935985060208a01356001600160401b038082111561192d575f80fd5b6119398d838e01611833565b995060408c013591508082111561194e575f80fd5b61195a8d838e016118bb565b909950975060608c0135915080821115611972575f80fd5b61197e8d838e016118bb565b909750955060808c0135945060a08c013591508082111561199d575f80fd5b506119aa8c828d0161167d565b915080935050809150509295985092959850929598565b5f805f80606085870312156119d4575f80fd5b8435935060208501356001600160401b03808211156119f1575f80fd5b6119fd888389016118bb565b90955093506040870135915080821115611a15575f80fd5b50850160608188031215611a27575f80fd5b939692955090935050565b5f805f8060408587031215611a45575f80fd5b84356001600160401b0380821115611a5b575f80fd5b818701915087601f830112611a6e575f80fd5b813581811115611a7c575f80fd5b88602060e083028501011115611a90575f80fd5b602092830196509450908601359080821115611aaa575f80fd5b506117068782880161167d565b634e487b7160e01b5f52603260045260245ffd5b600181811c90821680611adf57607f821691505b602082108103611afd57634e487b7160e01b5f52602260045260245ffd5b50919050565b818382375f9101908152919050565b5f808335601e19843603018112611b27575f80fd5b83016020810192503590506001600160401b03811115611b45575f80fd5b8036038213156116bd575f80fd5b81835281816020850137505f828201602090810191909152601f909101601f19169091010190565b85815284602082015260a060408201525f611b968586611b12565b606060a0850152611bac61010085018284611b53565b915050611bbc6020870187611b12565b848303609f190160c0860152611bd3838284611b53565b6040989098013560e086015250505050606081019290925260809091015292915050565b80151581146106e1575f80fd5b5f60208284031215611c14575f80fd5b8151610cd981611bf7565b5f8085851115611c2d575f80fd5b83861115611c39575f80fd5b5050820193919092039150565b601f821115610cbc57805f5260205f20601f840160051c81016020851015611c6b5750805b601f840160051c820191505b81811015610dcf575f8155600101611c77565b6001600160401b03831115611ca157611ca161181f565b611cb583611caf8354611acb565b83611c46565b5f601f841160018114611ce6575f8515611ccf5750838201355b5f19600387901b1c1916600186901b178355610dcf565b5f83815260208120601f198716915b82811015611d155786850135825560209485019460019092019101611cf5565b5086821015611d31575f1960f88860031b161c19848701351681555b505060018560011b0183555050505050565b6001600160a01b038581168252841660208201526060604082018190525f9061100f9083018486611b53565b5f60e08284031215611d7f575f80fd5b60405160e081018181106001600160401b0382111715611da157611da161181f565b604052611dad83611629565b815260208301356020820152604083013560408201526060830135611dd181611bf7565b806060830152506080830135608082015260a083013560a082015260c083013560c08201528091505092915050565b634e487b7160e01b5f52601160045260245ffd5b5f82611e2e57634e487b7160e01b5f52601260045260245ffd5b500490565b6001600160e01b03198135818116916004851015611e5b5780818660040360031b1b83161692505b505092915050565b6001600160a01b03841681526040602082018190525f90611e879083018486611b53565b95945050505050565b5f808335601e19843603018112611ea5575f80fd5b8301803591506001600160401b03821115611ebe575f80fd5b6020019150368190038213156116bd575f80fd5b634e487b7160e01b5f52602160045260245ffd5b5f60018201611ef757611ef7611e00565b5060010190565b85815260a060208201525f611f1660a083018761174b565b8281036040840152611f28818761174b565b90508281036060840152611f3c818661174b565b9150508260808301529695505050505050565b602080825282518282018190525f919060409081850190868401855b82811015611fce57815180516001600160a01b03168552868101518786015285810151868601526060808201511515908601526080808201519086015260a0808201519086015260c0908101519085015260e09093019290850190600101611f6b565b5091979650505050505050565b5f8251611fec818460208701611729565b9190910192915050565b5f8060408385031215612007575f80fd5b825161201281611bf7565b602084015190925063ffffffff8116811461202b575f80fd5b809150509250929050565b818103818111156104f5576104f5611e00565b634e487b7160e01b5f52603160045260245ffd","linkReferences":{}},"methodIdentifiers":{"ENCLAVE_VERIFIER()":"cadbea66","addGuardian(address)":"a526d83b","authority()":"bf7e214f","getEjectionThreshold()":"b1ba85ab","getGuardians()":"0665f04b","getGuardiansEnclaveAddress(address)":"728b722d","getGuardiansEnclaveAddresses()":"3f84cc71","getGuardiansEnclavePubkeys()":"5dfb2a3f","getMrenclave()":"86fef0a2","getMrsigner()":"ef91c964","getThreshold()":"e75235b8","isConsumingScheduledOp()":"8fb36037","isGuardian(address)":"0c68ba21","removeGuardian(address)":"71404156","rotateGuardianKey(uint256,bytes,(bytes,bytes,bytes32))":"af933df3","setAuthority(address)":"7a9e5e4b","setEjectionThreshold(uint256)":"4f790148","setGuardianEnclaveMeasurements(bytes32,bytes32)":"14e0a357","setThreshold(uint256)":"960bfe04","splitGuardianFunds()":"f07c1b64","validateBatchWithdrawals((address,uint256,uint256,bool,bytes32,uint256,uint256)[],bytes[])":"b6a5a690","validateGuardiansEOASignatures(bytes[],bytes32)":"8609c88a","validateGuardiansEnclaveSignatures(bytes[],bytes32)":"f0aff00a","validateProvisionNode(uint256,bytes,bytes,bytes,bytes32,bytes[])":"ae9865b4","validateSkipProvisioning(bytes32,uint256,bytes[])":"d4feed01","validateTotalNumberOfValidators(uint256,uint256,bytes[])":"292369cd"},"id":187}