{"abi":[{"type":"constructor","inputs":[{"name":"initialAdmin","type":"address","internalType":"address"}],"stateMutability":"nonpayable"},{"type":"function","name":"ADMIN_ROLE","inputs":[],"outputs":[{"name":"","type":"uint64","internalType":"uint64"}],"stateMutability":"view"},{"type":"function","name":"PUBLIC_ROLE","inputs":[],"outputs":[{"name":"","type":"uint64","internalType":"uint64"}],"stateMutability":"view"},{"type":"function","name":"canCall","inputs":[{"name":"caller","type":"address","internalType":"address"},{"name":"target","type":"address","internalType":"address"},{"name":"selector","type":"bytes4","internalType":"bytes4"}],"outputs":[{"name":"immediate","type":"bool","internalType":"bool"},{"name":"delay","type":"uint32","internalType":"uint32"}],"stateMutability":"view"},{"type":"function","name":"cancel","inputs":[{"name":"caller","type":"address","internalType":"address"},{"name":"target","type":"address","internalType":"address"},{"name":"data","type":"bytes","internalType":"bytes"}],"outputs":[{"name":"","type":"uint32","internalType":"uint32"}],"stateMutability":"nonpayable"},{"type":"function","name":"consumeScheduledOp","inputs":[{"name":"caller","type":"address","internalType":"address"},{"name":"data","type":"bytes","internalType":"bytes"}],"outputs":[],"stateMutability":"nonpayable"},{"type":"function","name":"execute","inputs":[{"name":"target","type":"address","internalType":"address"},{"name":"data","type":"bytes","internalType":"bytes"}],"outputs":[{"name":"","type":"uint32","internalType":"uint32"}],"stateMutability":"payable"},{"type":"function","name":"expiration","inputs":[],"outputs":[{"name":"","type":"uint32","internalType":"uint32"}],"stateMutability":"view"},{"type":"function","name":"getAccess","inputs":[{"name":"roleId","type":"uint64","internalType":"uint64"},{"name":"account","type":"address","internalType":"address"}],"outputs":[{"name":"since","type":"uint48","internalType":"uint48"},{"name":"currentDelay","type":"uint32","internalType":"uint32"},{"name":"pendingDelay","type":"uint32","internalType":"uint32"},{"name":"effect","type":"uint48","internalType":"uint48"}],"stateMutability":"view"},{"type":"function","name":"getNonce","inputs":[{"name":"id","type":"bytes32","internalType":"bytes32"}],"outputs":[{"name":"","type":"uint32","internalType":"uint32"}],"stateMutability":"view"},{"type":"function","name":"getRoleAdmin","inputs":[{"name":"roleId","type":"uint64","internalType":"uint64"}],"outputs":[{"name":"","type":"uint64","internalType":"uint64"}],"stateMutability":"view"},{"type":"function","name":"getRoleGrantDelay","inputs":[{"name":"roleId","type":"uint64","internalType":"uint64"}],"outputs":[{"name":"","type":"uint32","internalType":"uint32"}],"stateMutability":"view"},{"type":"function","name":"getRoleGuardian","inputs":[{"name":"roleId","type":"uint64","internalType":"uint64"}],"outputs":[{"name":"","type":"uint64","internalType":"uint64"}],"stateMutability":"view"},{"type":"function","name":"getSchedule","inputs":[{"name":"id","type":"bytes32","internalType":"bytes32"}],"outputs":[{"name":"","type":"uint48","internalType":"uint48"}],"stateMutability":"view"},{"type":"function","name":"getTargetAdminDelay","inputs":[{"name":"target","type":"address","internalType":"address"}],"outputs":[{"name":"","type":"uint32","internalType":"uint32"}],"stateMutability":"view"},{"type":"function","name":"getTargetFunctionRole","inputs":[{"name":"target","type":"address","internalType":"address"},{"name":"selector","type":"bytes4","internalType":"bytes4"}],"outputs":[{"name":"","type":"uint64","internalType":"uint64"}],"stateMutability":"view"},{"type":"function","name":"grantRole","inputs":[{"name":"roleId","type":"uint64","internalType":"uint64"},{"name":"account","type":"address","internalType":"address"},{"name":"executionDelay","type":"uint32","internalType":"uint32"}],"outputs":[],"stateMutability":"nonpayable"},{"type":"function","name":"hasRole","inputs":[{"name":"roleId","type":"uint64","internalType":"uint64"},{"name":"account","type":"address","internalType":"address"}],"outputs":[{"name":"isMember","type":"bool","internalType":"bool"},{"name":"executionDelay","type":"uint32","internalType":"uint32"}],"stateMutability":"view"},{"type":"function","name":"hashOperation","inputs":[{"name":"caller","type":"address","internalType":"address"},{"name":"target","type":"address","internalType":"address"},{"name":"data","type":"bytes","internalType":"bytes"}],"outputs":[{"name":"","type":"bytes32","internalType":"bytes32"}],"stateMutability":"view"},{"type":"function","name":"isTargetClosed","inputs":[{"name":"target","type":"address","internalType":"address"}],"outputs":[{"name":"","type":"bool","internalType":"bool"}],"stateMutability":"view"},{"type":"function","name":"labelRole","inputs":[{"name":"roleId","type":"uint64","internalType":"uint64"},{"name":"label","type":"string","internalType":"string"}],"outputs":[],"stateMutability":"nonpayable"},{"type":"function","name":"minSetback","inputs":[],"outputs":[{"name":"","type":"uint32","internalType":"uint32"}],"stateMutability":"view"},{"type":"function","name":"multicall","inputs":[{"name":"data","type":"bytes[]","internalType":"bytes[]"}],"outputs":[{"name":"results","type":"bytes[]","internalType":"bytes[]"}],"stateMutability":"nonpayable"},{"type":"function","name":"renounceRole","inputs":[{"name":"roleId","type":"uint64","internalType":"uint64"},{"name":"callerConfirmation","type":"address","internalType":"address"}],"outputs":[],"stateMutability":"nonpayable"},{"type":"function","name":"revokeRole","inputs":[{"name":"roleId","type":"uint64","internalType":"uint64"},{"name":"account","type":"address","internalType":"address"}],"outputs":[],"stateMutability":"nonpayable"},{"type":"function","name":"schedule","inputs":[{"name":"target","type":"address","internalType":"address"},{"name":"data","type":"bytes","internalType":"bytes"},{"name":"when","type":"uint48","internalType":"uint48"}],"outputs":[{"name":"operationId","type":"bytes32","internalType":"bytes32"},{"name":"nonce","type":"uint32","internalType":"uint32"}],"stateMutability":"nonpayable"},{"type":"function","name":"setGrantDelay","inputs":[{"name":"roleId","type":"uint64","internalType":"uint64"},{"name":"newDelay","type":"uint32","internalType":"uint32"}],"outputs":[],"stateMutability":"nonpayable"},{"type":"function","name":"setRoleAdmin","inputs":[{"name":"roleId","type":"uint64","internalType":"uint64"},{"name":"admin","type":"uint64","internalType":"uint64"}],"outputs":[],"stateMutability":"nonpayable"},{"type":"function","name":"setRoleGuardian","inputs":[{"name":"roleId","type":"uint64","internalType":"uint64"},{"name":"guardian","type":"uint64","internalType":"uint64"}],"outputs":[],"stateMutability":"nonpayable"},{"type":"function","name":"setTargetAdminDelay","inputs":[{"name":"target","type":"address","internalType":"address"},{"name":"newDelay","type":"uint32","internalType":"uint32"}],"outputs":[],"stateMutability":"nonpayable"},{"type":"function","name":"setTargetClosed","inputs":[{"name":"target","type":"address","internalType":"address"},{"name":"closed","type":"bool","internalType":"bool"}],"outputs":[],"stateMutability":"nonpayable"},{"type":"function","name":"setTargetFunctionRole","inputs":[{"name":"target","type":"address","internalType":"address"},{"name":"selectors","type":"bytes4[]","internalType":"bytes4[]"},{"name":"roleId","type":"uint64","internalType":"uint64"}],"outputs":[],"stateMutability":"nonpayable"},{"type":"function","name":"updateAuthority","inputs":[{"name":"target","type":"address","internalType":"address"},{"name":"newAuthority","type":"address","internalType":"address"}],"outputs":[],"stateMutability":"nonpayable"},{"type":"event","name":"OperationCanceled","inputs":[{"name":"operationId","type":"bytes32","indexed":true,"internalType":"bytes32"},{"name":"nonce","type":"uint32","indexed":true,"internalType":"uint32"}],"anonymous":false},{"type":"event","name":"OperationExecuted","inputs":[{"name":"operationId","type":"bytes32","indexed":true,"internalType":"bytes32"},{"name":"nonce","type":"uint32","indexed":true,"internalType":"uint32"}],"anonymous":false},{"type":"event","name":"OperationScheduled","inputs":[{"name":"operationId","type":"bytes32","indexed":true,"internalType":"bytes32"},{"name":"nonce","type":"uint32","indexed":true,"internalType":"uint32"},{"name":"schedule","type":"uint48","indexed":false,"internalType":"uint48"},{"name":"caller","type":"address","indexed":false,"internalType":"address"},{"name":"target","type":"address","indexed":false,"internalType":"address"},{"name":"data","type":"bytes","indexed":false,"internalType":"bytes"}],"anonymous":false},{"type":"event","name":"RoleAdminChanged","inputs":[{"name":"roleId","type":"uint64","indexed":true,"internalType":"uint64"},{"name":"admin","type":"uint64","indexed":true,"internalType":"uint64"}],"anonymous":false},{"type":"event","name":"RoleGrantDelayChanged","inputs":[{"name":"roleId","type":"uint64","indexed":true,"internalType":"uint64"},{"name":"delay","type":"uint32","indexed":false,"internalType":"uint32"},{"name":"since","type":"uint48","indexed":false,"internalType":"uint48"}],"anonymous":false},{"type":"event","name":"RoleGranted","inputs":[{"name":"roleId","type":"uint64","indexed":true,"internalType":"uint64"},{"name":"account","type":"address","indexed":true,"internalType":"address"},{"name":"delay","type":"uint32","indexed":false,"internalType":"uint32"},{"name":"since","type":"uint48","indexed":false,"internalType":"uint48"},{"name":"newMember","type":"bool","indexed":false,"internalType":"bool"}],"anonymous":false},{"type":"event","name":"RoleGuardianChanged","inputs":[{"name":"roleId","type":"uint64","indexed":true,"internalType":"uint64"},{"name":"guardian","type":"uint64","indexed":true,"internalType":"uint64"}],"anonymous":false},{"type":"event","name":"RoleLabel","inputs":[{"name":"roleId","type":"uint64","indexed":true,"internalType":"uint64"},{"name":"label","type":"string","indexed":false,"internalType":"string"}],"anonymous":false},{"type":"event","name":"RoleRevoked","inputs":[{"name":"roleId","type":"uint64","indexed":true,"internalType":"uint64"},{"name":"account","type":"address","indexed":true,"internalType":"address"}],"anonymous":false},{"type":"event","name":"TargetAdminDelayUpdated","inputs":[{"name":"target","type":"address","indexed":true,"internalType":"address"},{"name":"delay","type":"uint32","indexed":false,"internalType":"uint32"},{"name":"since","type":"uint48","indexed":false,"internalType":"uint48"}],"anonymous":false},{"type":"event","name":"TargetClosed","inputs":[{"name":"target","type":"address","indexed":true,"internalType":"address"},{"name":"closed","type":"bool","indexed":false,"internalType":"bool"}],"anonymous":false},{"type":"event","name":"TargetFunctionRoleUpdated","inputs":[{"name":"target","type":"address","indexed":true,"internalType":"address"},{"name":"selector","type":"bytes4","indexed":false,"internalType":"bytes4"},{"name":"roleId","type":"uint64","indexed":true,"internalType":"uint64"}],"anonymous":false},{"type":"error","name":"AccessManagerAlreadyScheduled","inputs":[{"name":"operationId","type":"bytes32","internalType":"bytes32"}]},{"type":"error","name":"AccessManagerBadConfirmation","inputs":[]},{"type":"error","name":"AccessManagerExpired","inputs":[{"name":"operationId","type":"bytes32","internalType":"bytes32"}]},{"type":"error","name":"AccessManagerInvalidInitialAdmin","inputs":[{"name":"initialAdmin","type":"address","internalType":"address"}]},{"type":"error","name":"AccessManagerLockedAccount","inputs":[{"name":"account","type":"address","internalType":"address"}]},{"type":"error","name":"AccessManagerLockedRole","inputs":[{"name":"roleId","type":"uint64","internalType":"uint64"}]},{"type":"error","name":"AccessManagerNotReady","inputs":[{"name":"operationId","type":"bytes32","internalType":"bytes32"}]},{"type":"error","name":"AccessManagerNotScheduled","inputs":[{"name":"operationId","type":"bytes32","internalType":"bytes32"}]},{"type":"error","name":"AccessManagerUnauthorizedAccount","inputs":[{"name":"msgsender","type":"address","internalType":"address"},{"name":"roleId","type":"uint64","internalType":"uint64"}]},{"type":"error","name":"AccessManagerUnauthorizedCall","inputs":[{"name":"caller","type":"address","internalType":"address"},{"name":"target","type":"address","internalType":"address"},{"name":"selector","type":"bytes4","internalType":"bytes4"}]},{"type":"error","name":"AccessManagerUnauthorizedCancel","inputs":[{"name":"msgsender","type":"address","internalType":"address"},{"name":"caller","type":"address","internalType":"address"},{"name":"target","type":"address","internalType":"address"},{"name":"selector","type":"bytes4","internalType":"bytes4"}]},{"type":"error","name":"AccessManagerUnauthorizedConsume","inputs":[{"name":"target","type":"address","internalType":"address"}]},{"type":"error","name":"AddressEmptyCode","inputs":[{"name":"target","type":"address","internalType":"address"}]},{"type":"error","name":"AddressInsufficientBalance","inputs":[{"name":"account","type":"address","internalType":"address"}]},{"type":"error","name":"FailedInnerCall","inputs":[]},{"type":"error","name":"SafeCastOverflowedUintDowncast","inputs":[{"name":"bits","type":"uint8","internalType":"uint8"},{"name":"value","type":"uint256","internalType":"uint256"}]}],"bytecode":{"object":"0x608060405234801562000010575f80fd5b5060405162002d0538038062002d0583398101604081905262000033916200047d565b6001600160a01b0381166200006257604051630409d6d160e11b81525f60048201526024015b60405180910390fd5b620000705f82818062000078565b505062000502565b5f6002600160401b03196001600160401b03861601620000b75760405163061c6a4360e21b81526001600160401b038616600482015260240162000059565b6001600160401b0385165f9081526001602090815260408083206001600160a01b038816845290915281205465ffffffffffff1615908115620001b45763ffffffff851662000105620002ca565b620001119190620004b9565b905060405180604001604052808265ffffffffffff168152602001620001438663ffffffff16620002db60201b60201c565b6001600160701b039081169091526001600160401b0389165f9081526001602090815260408083206001600160a01b038c16845282529091208351815494909201519092166601000000000000026001600160a01b031990931665ffffffffffff909116179190911790556200025c565b6001600160401b0387165f9081526001602090815260408083206001600160a01b038a168452909152812054620002029166010000000000009091046001600160701b0316908690620002e4565b6001600160401b0389165f9081526001602090815260408083206001600160a01b038c168452909152902080546001600160701b03909316660100000000000002600160301b600160a01b03199093169290921790915590505b6040805163ffffffff8616815265ffffffffffff831660208201528315158183015290516001600160a01b038816916001600160401b038a16917ff98448b987f1428e0e230e1f3c6e2ce15b5693eaf31827fbd0b1ec4b424ae7cf9181900360600190a35095945050505050565b5f620002d64262000396565b905090565b63ffffffff1690565b5f8080620002fb6001600160701b038716620003ce565b90505f6200033c8563ffffffff168763ffffffff168463ffffffff161162000324575f62000330565b620003308885620004e2565b63ffffffff16620003ee565b905063ffffffff81166200034f620002ca565b6200035b9190620004b9565b925063ffffffff8616602083901b67ffffffff0000000016604085901b6dffffffffffff000000000000000016171793505050935093915050565b5f65ffffffffffff821115620003ca576040516306dfcc6560e41b8152603060048201526024810183905260440162000059565b5090565b5f80620003e46001600160701b03841662000407565b5090949350505050565b5f818311620003fe578162000400565b825b9392505050565b5f80806200041f8462000419620002ca565b6200042c565b9250925092509193909250565b5f80806001600160501b03602086901c166001600160701b03861665ffffffffffff604088901c811690871681111562000469578282826200046d565b815f805b9550955095505050509250925092565b5f602082840312156200048e575f80fd5b81516001600160a01b038116811462000400575f80fd5b634e487b7160e01b5f52601160045260245ffd5b65ffffffffffff818116838216019080821115620004db57620004db620004a5565b5092915050565b63ffffffff828116828216039080821115620004db57620004db620004a5565b6127f580620005105f395ff3fe6080604052600436106101db575f3560e01c80636d5115bd116100fd578063b700961311610092578063d22b598911610062578063d22b598914610658578063d6bb62c614610677578063f801a69814610696578063fe0776f5146106cf575f80fd5b8063b7009613146105ca578063b7d2b16214610605578063cc1b6c8114610624578063d1f856ee14610639575f80fd5b8063a166aa89116100cd578063a166aa8914610501578063a64d95ce14610552578063abd9bd2a14610571578063ac9650d81461059e575f80fd5b80636d5115bd1461049157806375b238fc146104b0578063853551b8146104c357806394c7d7ee146104e2575f80fd5b806330cae187116101735780634665096d116101435780634665096d146104035780634c1da1e2146104185780635296295214610437578063530dd45614610456575f80fd5b806330cae1871461035c5780633adc277a1461037b5780633ca7c02a146103b15780634136a33c146103cb575f80fd5b806318ff183c116101ae57806318ff183c146102b25780631cff79cd146102d157806325c471a0146102e45780633078f11414610303575f80fd5b806308d6122d146101df5780630b0a93ba1461020057806312be87271461025f578063167bd39514610293575b5f80fd5b3480156101ea575f80fd5b506101fe6101f9366004612111565b6106ee565b005b34801561020b575f80fd5b5061024261021a366004612173565b6001600160401b039081165f9081526001602081905260409091200154600160401b90041690565b6040516001600160401b0390911681526020015b60405180910390f35b34801561026a575f80fd5b5061027e610279366004612173565b610740565b60405163ffffffff9091168152602001610256565b34801561029e575f80fd5b506101fe6102ad36600461218c565b61077a565b3480156102bd575f80fd5b506101fe6102cc3660046121c7565b610790565b61027e6102df366004612230565b6107f2565b3480156102ef575f80fd5b506101fe6102fe366004612293565b61091e565b34801561030e575f80fd5b5061032261031d3660046122d5565b610940565b604051610256949392919065ffffffffffff948516815263ffffffff93841660208201529190921660408201529116606082015260800190565b348015610367575f80fd5b506101fe6103763660046122ef565b6109a4565b348015610386575f80fd5b5061039a610395366004612320565b6109b6565b60405165ffffffffffff9091168152602001610256565b3480156103bc575f80fd5b506102426001600160401b0381565b3480156103d6575f80fd5b5061027e6103e5366004612320565b5f90815260026020526040902054600160301b900463ffffffff1690565b34801561040e575f80fd5b5062093a8061027e565b348015610423575f80fd5b5061027e610432366004612337565b6109e7565b348015610442575f80fd5b506101fe6104513660046122ef565b610a14565b348015610461575f80fd5b50610242610470366004612173565b6001600160401b039081165f90815260016020819052604090912001541690565b34801561049c575f80fd5b506102426104ab366004612367565b610a26565b3480156104bb575f80fd5b506102425f81565b3480156104ce575f80fd5b506101fe6104dd366004612393565b610a60565b3480156104ed575f80fd5b506101fe6104fc366004612230565b610af7565b34801561050c575f80fd5b5061054261051b366004612337565b6001600160a01b03165f90815260208190526040902060010154600160701b900460ff1690565b6040519015158152602001610256565b34801561055d575f80fd5b506101fe61056c3660046123ae565b610ba1565b34801561057c575f80fd5b5061059061058b3660046123d6565b610bb3565b604051908152602001610256565b3480156105a9575f80fd5b506105bd6105b8366004612436565b610beb565b6040516102569190612496565b3480156105d5575f80fd5b506105e96105e436600461250e565b610cd2565b60408051921515835263ffffffff909116602083015201610256565b348015610610575f80fd5b506101fe61061f3660046122d5565b610d6f565b34801561062f575f80fd5b506206978061027e565b348015610644575f80fd5b506105e96106533660046122d5565b610d86565b348015610663575f80fd5b506101fe610672366004612556565b610dff565b348015610682575f80fd5b5061027e6106913660046123d6565b610e11565b3480156106a1575f80fd5b506106b56106b0366004612572565b610f64565b6040805192835263ffffffff909116602083015201610256565b3480156106da575f80fd5b506101fe6106e93660046122d5565b6110a5565b6106f66110ce565b5f5b828110156107395761073185858584818110610716576107166125df565b905060200201602081019061072b91906125f3565b84611145565b6001016106f8565b5050505050565b6001600160401b0381165f9081526001602081905260408220015461077490600160801b90046001600160701b03166111c6565b92915050565b6107826110ce565b61078c82826111e4565b5050565b6107986110ce565b604051637a9e5e4b60e01b81526001600160a01b038281166004830152831690637a9e5e4b906024015f604051808303815f87803b1580156107d8575f80fd5b505af11580156107ea573d5f803e3d5ffd5b505050505050565b5f33818061080283888888611289565b9150915081158015610818575063ffffffff8116155b1561086b57828761082988886112da565b6040516381c6f24b60e01b81526001600160a01b0393841660048201529290911660248301526001600160e01b03191660448201526064015b60405180910390fd5b5f61087884898989610bb3565b90505f63ffffffff831615158061089e5750610893826109b6565b65ffffffffffff1615155b156108af576108ac826112f1565b90505b6003546108c58a6108c08b8b6112da565b6113ef565b60038190555061090c8a8a8a8080601f0160208091040260200160405190810160405280939291908181526020018383808284375f92019190915250349250611431915050565b506003559450505050505b9392505050565b6109266110ce565b61093a838361093486610740565b846114ca565b50505050565b6001600160401b0382165f9081526001602090815260408083206001600160a01b03851684529091528120805465ffffffffffff81169291829182919061099690600160301b90046001600160701b0316611710565b969991985096509350505050565b6109ac6110ce565b61078c8282611731565b5f8181526002602052604081205465ffffffffffff166109d5816117d4565b6109df5780610917565b5f9392505050565b6001600160a01b0381165f90815260208190526040812060010154610774906001600160701b03166111c6565b610a1c6110ce565b61078c8282611802565b6001600160a01b0382165f908152602081815260408083206001600160e01b0319851684529091529020546001600160401b031692915050565b610a686110ce565b6001600160401b0383161580610a8657506001600160401b03838116145b15610aaf5760405163061c6a4360e21b81526001600160401b0384166004820152602401610862565b826001600160401b03167f1256f5b5ecb89caec12db449738f2fbcd1ba5806cf38f35413f4e5c15bf6a4508383604051610aea929190612636565b60405180910390a2505050565b60408051638fb3603760e01b80825291513392918391638fb36037916004808201926020929091908290030181865afa158015610b36573d5f803e3d5ffd5b505050506040513d601f19601f82011682018060405250810190610b5a9190612651565b6001600160e01b03191614610b8d57604051630641fee960e31b81526001600160a01b0382166004820152602401610862565b610739610b9c85838686610bb3565b6112f1565b610ba96110ce565b61078c82826118b3565b5f84848484604051602001610bcb949392919061266c565b604051602081830303815290604052805190602001209050949350505050565b6060816001600160401b03811115610c0557610c05612698565b604051908082528060200260200182016040528015610c3857816020015b6060815260200190600190039081610c235790505b5090505f5b82811015610ccb57610ca630858584818110610c5b57610c5b6125df565b9050602002810190610c6d91906126ac565b8080601f0160208091040260200160405190810160405280939291908181526020018383808284375f920191909152506119c292505050565b828281518110610cb857610cb86125df565b6020908102919091010152600101610c3d565b5092915050565b6001600160a01b0382165f908152602081905260408120600101548190600160701b900460ff1615610d0857505f905080610d67565b306001600160a01b03861603610d2c57610d228484611a34565b5f91509150610d67565b5f610d378585610a26565b90505f80610d458389610d86565b9150915081610d55575f80610d5f565b63ffffffff811615815b945094505050505b935093915050565b610d776110ce565b610d818282611a4a565b505050565b5f8067fffffffffffffffe196001600160401b03851601610dac5750600190505f610df8565b5f80610db88686610940565b5050915091508165ffffffffffff165f14158015610ded5750610dd9611b33565b65ffffffffffff168265ffffffffffff1611155b93509150610df89050565b9250929050565b610e076110ce565b61078c8282611b42565b5f3381610e1e85856112da565b90505f610e2d88888888610bb3565b5f8181526002602052604081205491925065ffffffffffff9091169003610e6a5760405163060a299b60e41b815260048101829052602401610862565b826001600160a01b0316886001600160a01b031614610f03575f610e8e5f85610d86565b5090505f610ea8610ea261021a8b87610a26565b86610d86565b50905081158015610eb7575080155b15610f0057604051630ff89d4760e21b81526001600160a01b038087166004830152808c1660248301528a1660448201526001600160e01b031985166064820152608401610862565b50505b5f81815260026020526040808220805465ffffffffffff1916908190559051600160301b90910463ffffffff1691829184917fbd9ac67a6e2f6463b80927326310338bcbb4bdb7936ce1365ea3e01067e7b9f791a398975050505050505050565b5f803381610f7482898989611289565b9150505f8163ffffffff16610f87611b33565b610f919190612702565b905063ffffffff82161580610fc757505f8665ffffffffffff16118015610fc757508065ffffffffffff168665ffffffffffff16105b15610fd85782896108298a8a6112da565b610ff28665ffffffffffff168265ffffffffffff16611bfd565b9550611000838a8a8a610bb3565b945061100b85611c12565b5f8581526002602052604090819020805465ffffffffffff891669ffffffffffffffffffff19821617600160301b9182900463ffffffff90811660010190811692830291909117909255915190955086907f82a2da5dee54ea8021c6545b4444620291e07ee83be6dd57edb175062715f3b490611091908a9088908f908f908f90612721565b60405180910390a350505094509492505050565b6001600160a01b0381163314610d7757604051635f159e6360e01b815260040160405180910390fd5b335f806110dc838236611c5e565b9150915081610d81578063ffffffff165f03611136575f6110fd8136611d0f565b5060405163f07e038f60e01b81526001600160a01b03871660048201526001600160401b03821660248201529092506044019050610862565b61093a610b9c84305f36610bb3565b6001600160a01b0383165f818152602081815260408083206001600160e01b0319871680855290835292819020805467ffffffffffffffff19166001600160401b038716908117909155905192835292917f9ea6790c7dadfd01c9f8b9762b3682607af2c7e79e05a9f9fdf5580dde949151910160405180910390a3505050565b5f806111da836001600160701b0316611710565b5090949350505050565b306001600160a01b0383160361121857604051630b40d17960e31b81526001600160a01b0383166004820152602401610862565b6001600160a01b0382165f81815260208190526040908190206001018054841515600160701b0260ff60701b19909116179055517f90d4e7bb7e5d933792b3562e1741306f8be94837e1348dacef9b6f1df56eb1389061127d90841515815260200190565b60405180910390a25050565b5f80306001600160a01b038616036112af576112a6868585611c5e565b915091506112d1565b600483106112cb576112c686866105e487876112da565b6112a6565b505f9050805b94509492505050565b5f6112e86004828486612766565b6109179161278d565b5f8181526002602052604081205465ffffffffffff811690600160301b900463ffffffff168183036113395760405163060a299b60e41b815260048101859052602401610862565b611341611b33565b65ffffffffffff168265ffffffffffff16111561137457604051630c65b5bd60e11b815260048101859052602401610862565b61137d826117d4565b1561139e57604051631e2975b960e21b815260048101859052602401610862565b5f84815260026020526040808220805465ffffffffffff191690555163ffffffff83169186917f76a2a46953689d4861a5d3f6ed883ad7e6af674a21f8e162707159fc9dde614d9190a39392505050565b604080516001600160a01b03939093166020808501919091526001600160e01b0319929092168382015280518084038201815260609093019052815191012090565b6060814710156114565760405163cd78605960e01b8152306004820152602401610862565b5f80856001600160a01b0316848660405161147191906127bd565b5f6040518083038185875af1925050503d805f81146114ab576040519150601f19603f3d011682016040523d82523d5f602084013e6114b0565b606091505b50915091506114c0868383611eec565b9695505050505050565b5f67fffffffffffffffe196001600160401b038616016115085760405163061c6a4360e21b81526001600160401b0386166004820152602401610862565b6001600160401b0385165f9081526001602090815260408083206001600160a01b038816845290915281205465ffffffffffff16159081156115f8578463ffffffff16611553611b33565b61155d9190612702565b905060405180604001604052808265ffffffffffff16815260200161158b8663ffffffff1663ffffffff1690565b6001600160701b039081169091526001600160401b0389165f9081526001602090815260408083206001600160a01b038c1684528252909120835181549490920151909216600160301b026001600160a01b031990931665ffffffffffff909116179190911790556116a2565b6001600160401b0387165f9081526001602090815260408083206001600160a01b038a16845290915281205461164191600160301b9091046001600160701b0316908690611f48565b6001600160401b0389165f9081526001602090815260408083206001600160a01b038c168452909152902080546001600160701b03909316600160301b0273ffffffffffffffffffffffffffff000000000000199093169290921790915590505b6040805163ffffffff8616815265ffffffffffff831660208201528315158183015290516001600160a01b038816916001600160401b038a16917ff98448b987f1428e0e230e1f3c6e2ce15b5693eaf31827fbd0b1ec4b424ae7cf9181900360600190a35095945050505050565b5f805f6117248461171f611b33565b611fee565b9250925092509193909250565b6001600160401b038216158061174f57506001600160401b03828116145b156117785760405163061c6a4360e21b81526001600160401b0383166004820152602401610862565b6001600160401b038281165f818152600160208190526040808320909101805467ffffffffffffffff19169486169485179055517f1fd6dd7631312dfac2205b52913f99de03b4d7e381d5d27d3dbfe0713e6e63409190a35050565b5f6117dd611b33565b65ffffffffffff166117f262093a8084612702565b65ffffffffffff16111592915050565b6001600160401b038216158061182057506001600160401b03828116145b156118495760405163061c6a4360e21b81526001600160401b0383166004820152602401610862565b6001600160401b038281165f81815260016020819052604080832090910180546fffffffffffffffff00000000000000001916600160401b958716958602179055517f7a8059630b897b5de4c08ade69f8b90c3ead1f8596d62d10b6c4d14a0afb4ae29190a35050565b67fffffffffffffffe196001600160401b038316016118f05760405163061c6a4360e21b81526001600160401b0383166004820152602401610862565b6001600160401b0382165f9081526001602081905260408220015461192990600160801b90046001600160701b03168362069780611f48565b6001600160401b0385165f818152600160208190526040918290200180546001600160701b03909516600160801b026dffffffffffffffffffffffffffff60801b199095169490941790935591519092507ffeb69018ee8b8fd50ea86348f1267d07673379f72cffdeccec63853ee8ce8b4890610aea908590859063ffffffff92909216825265ffffffffffff16602082015260400190565b60605f80846001600160a01b0316846040516119de91906127bd565b5f60405180830381855af49150503d805f8114611a16576040519150601f19603f3d011682016040523d82523d5f602084013e611a1b565b606091505b5091509150611a2b858383611eec565b95945050505050565b5f611a3f83836113ef565b600354149392505050565b5f67fffffffffffffffe196001600160401b03841601611a885760405163061c6a4360e21b81526001600160401b0384166004820152602401610862565b6001600160401b0383165f9081526001602090815260408083206001600160a01b038616845290915281205465ffffffffffff169003611ac957505f610774565b6001600160401b0383165f8181526001602090815260408083206001600160a01b038716808552925280832080546001600160a01b0319169055519092917ff229baa593af28c41b1d16b748cd7688f0c83aaf92d4be41c44005defe84c16691a350600192915050565b5f611b3d42612040565b905090565b6001600160a01b0382165f90815260208190526040812060010154611b74906001600160701b03168362069780611f48565b6001600160a01b0385165f818152602081815260409182902060010180546dffffffffffffffffffffffffffff19166001600160701b039690961695909517909455805163ffffffff8716815265ffffffffffff841694810194909452919350917fa56b76017453f399ec2327ba00375dbfb1fd070ff854341ad6191e6a2e2de19c9101610aea565b5f818311611c0b5781610917565b5090919050565b5f8181526002602052604090205465ffffffffffff168015801590611c3d5750611c3b816117d4565b155b1561078c5760405163813e945960e01b815260048101839052602401610862565b5f806004831015611c7357505f905080610d67565b306001600160a01b03861603611c9657610d2230611c9186866112da565b611a34565b5f805f611ca38787611d0f565b92509250925082611cbc575f8094509450505050610d67565b5f80611cc8848b610d86565b9150915081611ce1575f80965096505050505050610d67565b611cf78363ffffffff168263ffffffff16611bfd565b63ffffffff8116159b909a5098505050505050505050565b5f80806004841015611d2857505f915081905080611ee5565b5f611d3386866112da565b90506001600160e01b031981166310a6aa3760e31b1480611d6457506001600160e01b031981166330cae18760e01b145b80611d7f57506001600160e01b0319811663294b14a960e11b145b80611d9a57506001600160e01b03198116635326cae760e11b145b80611db557506001600160e01b0319811663d22b598960e01b145b15611dca5760015f8093509350935050611ee5565b6001600160e01b0319811663063fc60f60e21b1480611df957506001600160e01b0319811663167bd39560e01b145b80611e1457506001600160e01b031981166308d6122d60e01b145b15611e53575f611e2860246004888a612766565b810190611e359190612337565b90505f611e41826109e7565b600196505f95509350611ee592505050565b6001600160e01b0319811663012e238d60e51b1480611e8257506001600160e01b03198116635be958b160e11b145b15611eda575f611e9660246004888a612766565b810190611ea39190612173565b90506001611ecc826001600160401b039081165f90815260016020819052604090912001541690565b5f9450945094505050611ee5565b5f805f935093509350505b9250925092565b606082611f0157611efc82612076565b610917565b8151158015611f1857506001600160a01b0384163b155b15611f4157604051639996b31560e01b81526001600160a01b0385166004820152602401610862565b5080610917565b5f805f611f5d866001600160701b03166111c6565b90505f611f988563ffffffff168763ffffffff168463ffffffff1611611f83575f611f8d565b611f8d88856127d8565b63ffffffff16611bfd565b90508063ffffffff16611fa9611b33565b611fb39190612702565b925063ffffffff8616602083901b67ffffffff0000000016604085901b6dffffffffffff000000000000000016171793505050935093915050565b5f808069ffffffffffffffffffff602086901c166001600160701b03861665ffffffffffff604088901c811690871681111561202c57828282612030565b815f805b9550955095505050509250925092565b5f65ffffffffffff821115612072576040516306dfcc6560e41b81526030600482015260248101839052604401610862565b5090565b8051156120865780518082602001fd5b604051630a12f52160e11b815260040160405180910390fd5b50565b6001600160a01b038116811461209f575f80fd5b5f8083601f8401126120c6575f80fd5b5081356001600160401b038111156120dc575f80fd5b6020830191508360208260051b8501011115610df8575f80fd5b80356001600160401b038116811461210c575f80fd5b919050565b5f805f8060608587031215612124575f80fd5b843561212f816120a2565b935060208501356001600160401b03811115612149575f80fd5b612155878288016120b6565b90945092506121689050604086016120f6565b905092959194509250565b5f60208284031215612183575f80fd5b610917826120f6565b5f806040838503121561219d575f80fd5b82356121a8816120a2565b9150602083013580151581146121bc575f80fd5b809150509250929050565b5f80604083850312156121d8575f80fd5b82356121e3816120a2565b915060208301356121bc816120a2565b5f8083601f840112612203575f80fd5b5081356001600160401b03811115612219575f80fd5b602083019150836020828501011115610df8575f80fd5b5f805f60408486031215612242575f80fd5b833561224d816120a2565b925060208401356001600160401b03811115612267575f80fd5b612273868287016121f3565b9497909650939450505050565b803563ffffffff8116811461210c575f80fd5b5f805f606084860312156122a5575f80fd5b6122ae846120f6565b925060208401356122be816120a2565b91506122cc60408501612280565b90509250925092565b5f80604083850312156122e6575f80fd5b6121e3836120f6565b5f8060408385031215612300575f80fd5b612309836120f6565b9150612317602084016120f6565b90509250929050565b5f60208284031215612330575f80fd5b5035919050565b5f60208284031215612347575f80fd5b8135610917816120a2565b6001600160e01b03198116811461209f575f80fd5b5f8060408385031215612378575f80fd5b8235612383816120a2565b915060208301356121bc81612352565b5f805f604084860312156123a5575f80fd5b61224d846120f6565b5f80604083850312156123bf575f80fd5b6123c8836120f6565b915061231760208401612280565b5f805f80606085870312156123e9575f80fd5b84356123f4816120a2565b93506020850135612404816120a2565b925060408501356001600160401b0381111561241e575f80fd5b61242a878288016121f3565b95989497509550505050565b5f8060208385031215612447575f80fd5b82356001600160401b0381111561245c575f80fd5b612468858286016120b6565b90969095509350505050565b5f5b8381101561248e578181015183820152602001612476565b50505f910152565b5f602080830181845280855180835260408601915060408160051b87010192508387015f5b8281101561250157878503603f19018452815180518087526124e2818989018a8501612474565b601f01601f1916959095018601945092850192908501906001016124bb565b5092979650505050505050565b5f805f60608486031215612520575f80fd5b833561252b816120a2565b9250602084013561253b816120a2565b9150604084013561254b81612352565b809150509250925092565b5f8060408385031215612567575f80fd5b82356123c8816120a2565b5f805f8060608587031215612585575f80fd5b8435612590816120a2565b935060208501356001600160401b038111156125aa575f80fd5b6125b6878288016121f3565b909450925050604085013565ffffffffffff811681146125d4575f80fd5b939692955090935050565b634e487b7160e01b5f52603260045260245ffd5b5f60208284031215612603575f80fd5b813561091781612352565b81835281816020850137505f828201602090810191909152601f909101601f19169091010190565b602081525f61264960208301848661260e565b949350505050565b5f60208284031215612661575f80fd5b815161091781612352565b6001600160a01b038581168252841660208201526060604082018190525f906114c0908301848661260e565b634e487b7160e01b5f52604160045260245ffd5b5f808335601e198436030181126126c1575f80fd5b8301803591506001600160401b038211156126da575f80fd5b602001915036819003821315610df8575f80fd5b634e487b7160e01b5f52601160045260245ffd5b65ffffffffffff818116838216019080821115610ccb57610ccb6126ee565b65ffffffffffff861681526001600160a01b038581166020830152841660408201526080606082018190525f9061275b908301848661260e565b979650505050505050565b5f8085851115612774575f80fd5b83861115612780575f80fd5b5050820193919092039150565b6001600160e01b031981358181169160048510156127b55780818660040360031b1b83161692505b505092915050565b5f82516127ce818460208701612474565b9190910192915050565b63ffffffff828116828216039080821115610ccb57610ccb6126ee56","linkReferences":{}},"methodIdentifiers":{"ADMIN_ROLE()":"75b238fc","PUBLIC_ROLE()":"3ca7c02a","canCall(address,address,bytes4)":"b7009613","cancel(address,address,bytes)":"d6bb62c6","consumeScheduledOp(address,bytes)":"94c7d7ee","execute(address,bytes)":"1cff79cd","expiration()":"4665096d","getAccess(uint64,address)":"3078f114","getNonce(bytes32)":"4136a33c","getRoleAdmin(uint64)":"530dd456","getRoleGrantDelay(uint64)":"12be8727","getRoleGuardian(uint64)":"0b0a93ba","getSchedule(bytes32)":"3adc277a","getTargetAdminDelay(address)":"4c1da1e2","getTargetFunctionRole(address,bytes4)":"6d5115bd","grantRole(uint64,address,uint32)":"25c471a0","hasRole(uint64,address)":"d1f856ee","hashOperation(address,address,bytes)":"abd9bd2a","isTargetClosed(address)":"a166aa89","labelRole(uint64,string)":"853551b8","minSetback()":"cc1b6c81","multicall(bytes[])":"ac9650d8","renounceRole(uint64,address)":"fe0776f5","revokeRole(uint64,address)":"b7d2b162","schedule(address,bytes,uint48)":"f801a698","setGrantDelay(uint64,uint32)":"a64d95ce","setRoleAdmin(uint64,uint64)":"30cae187","setRoleGuardian(uint64,uint64)":"52962952","setTargetAdminDelay(address,uint32)":"d22b5989","setTargetClosed(address,bool)":"167bd395","setTargetFunctionRole(address,bytes4[],uint64)":"08d6122d","updateAuthority(address,address)":"18ff183c"},"id":60}