{"abi":[{"type":"constructor","inputs":[{"name":"oracle","type":"address","internalType":"contract PufferOracleV2"},{"name":"accessManager","type":"address","internalType":"address"},{"name":"priceChangeToleranceBps","type":"uint256","internalType":"uint256"}],"stateMutability":"nonpayable"},{"type":"function","name":"authority","inputs":[],"outputs":[{"name":"","type":"address","internalType":"address"}],"stateMutability":"view"},{"type":"function","name":"getPriceChangeToleranceBps","inputs":[],"outputs":[{"name":"","type":"uint256","internalType":"uint256"}],"stateMutability":"view"},{"type":"function","name":"isConsumingScheduledOp","inputs":[],"outputs":[{"name":"","type":"bytes4","internalType":"bytes4"}],"stateMutability":"view"},{"type":"function","name":"isWithinRange","inputs":[{"name":"newPrice","type":"uint256","internalType":"uint256"}],"outputs":[{"name":"","type":"bool","internalType":"bool"}],"stateMutability":"view"},{"type":"function","name":"setAuthority","inputs":[{"name":"newAuthority","type":"address","internalType":"address"}],"outputs":[],"stateMutability":"nonpayable"},{"type":"function","name":"setPriceChangeToleranceBps","inputs":[{"name":"newValue","type":"uint256","internalType":"uint256"}],"outputs":[],"stateMutability":"nonpayable"},{"type":"function","name":"setValidatorTicketMintPrice","inputs":[{"name":"newPrice","type":"uint256","internalType":"uint256"}],"outputs":[],"stateMutability":"nonpayable"},{"type":"event","name":"AuthorityUpdated","inputs":[{"name":"authority","type":"address","indexed":false,"internalType":"address"}],"anonymous":false},{"type":"event","name":"PriceChangeToleranceBPSUpdated","inputs":[{"name":"oldValue","type":"uint256","indexed":false,"internalType":"uint256"},{"name":"newValue","type":"uint256","indexed":false,"internalType":"uint256"}],"anonymous":false},{"type":"error","name":"AccessManagedInvalidAuthority","inputs":[{"name":"authority","type":"address","internalType":"address"}]},{"type":"error","name":"AccessManagedRequiredDelay","inputs":[{"name":"caller","type":"address","internalType":"address"},{"name":"delay","type":"uint32","internalType":"uint32"}]},{"type":"error","name":"AccessManagedUnauthorized","inputs":[{"name":"caller","type":"address","internalType":"address"}]},{"type":"error","name":"InvalidPrice","inputs":[]},{"type":"error","name":"InvalidPriceChangeToleranceBPS","inputs":[]}],"bytecode":{"object":"0x60a060405234801561000f575f80fd5b5060405161093538038061093583398101604081905261002e916100ba565b8161003881610050565b506001600160a01b03909216608052506001556100fa565b5f80546001600160a01b0319166001600160a01b0383169081179091556040519081527f2f658b440c35314f52658ea8a740e05b284cdc84dc9ae01e891f21b8933e7cad9060200160405180910390a150565b6001600160a01b03811681146100b7575f80fd5b50565b5f805f606084860312156100cc575f80fd5b83516100d7816100a3565b60208501519093506100e8816100a3565b80925050604084015190509250925092565b60805161081c6101195f395f81816101930152610298015261081c5ff3fe608060405234801561000f575f80fd5b506004361061007a575f3560e01c80638fb36037116100585780638fb36037146100bc578063a536a0d9146100dd578063bf7e214f14610100578063c8a9e8cb1461011a575f80fd5b80632cb519e21461007e57806356112940146100945780637a9e5e4b146100a9575b5f80fd5b6001546040519081526020015b60405180910390f35b6100a76100a236600461061f565b61012d565b005b6100a76100b7366004610636565b6101f5565b6100c4610272565b6040516001600160e01b0319909116815260200161008b565b6100f06100eb36600461061f565b610294565b604051901515815260200161008b565b5f546040516001600160a01b03909116815260200161008b565b6100a761012836600461061f565b610368565b610139335b5f366103d5565b805f036101585760405162bfc92160e01b815260040160405180910390fd5b61016181610294565b61017d5760405162bfc92160e01b815260040160405180910390fd5b604051631e9414a560e31b8152600481018290527f00000000000000000000000000000000000000000000000000000000000000006001600160a01b03169063f4a0a528906024015f604051808303815f87803b1580156101dc575f80fd5b505af11580156101ee573d5f803e3d5ffd5b5050505050565b5f5433906001600160a01b031681146102305760405162d1953b60e31b81526001600160a01b03821660048201526024015b60405180910390fd5b816001600160a01b03163b5f03610265576040516361798f2f60e11b81526001600160a01b0383166004820152602401610227565b61026e826104c4565b5050565b5f8054600160a01b900460ff1661028857505f90565b50638fb3603760e01b90565b5f807f00000000000000000000000000000000000000000000000000000000000000006001600160a01b031663698c65046040518163ffffffff1660e01b8152600401602060405180830381865afa1580156102f2573d5f803e3d5ffd5b505050506040513d601f19601f820116820180604052508101906103169190610663565b90505f6127106001548361032a919061068e565b61033491906106ab565b9050818411156103535761034881836106ca565b909311159392505050565b61035d81836106dd565b909310159392505050565b61037133610132565b61271081111561039457604051630832d8c360e11b815260040160405180910390fd5b60015460408051918252602082018390527f8f7393c732754b671b55453f8f2c27665074a918543d3744718f61d190f57ce6910160405180910390a1600155565b5f806104086103eb5f546001600160a01b031690565b86306103fa60045f898b6106f0565b61040391610717565b610517565b91509150816101ee5763ffffffff8116156104a1575f805460ff60a01b198116600160a01b17909155604051634a63ebf760e11b81526001600160a01b03909116906394c7d7ee9061046290889088908890600401610747565b5f604051808303815f87803b158015610479575f80fd5b505af115801561048b573d5f803e3d5ffd5b50505f805460ff60a01b19169055506101ee9050565b60405162d1953b60e31b81526001600160a01b0386166004820152602401610227565b5f80546001600160a01b0319166001600160a01b0383169081179091556040519081527f2f658b440c35314f52658ea8a740e05b284cdc84dc9ae01e891f21b8933e7cad9060200160405180910390a150565b6040516001600160a01b03848116602483015283811660448301526001600160e01b0319831660648301525f9182918291829189169060840160408051601f198184030181529181526020820180516001600160e01b031663b700961360e01b179052516105859190610786565b5f60405180830381855afa9150503d805f81146105bd576040519150601f19603f3d011682016040523d82523d5f602084013e6105c2565b606091505b509150915081156106145760408151106105f457808060200190518101906105ea91906107c6565b9094509250610614565b602081511061061457808060200190518101906106119190610803565b93505b505094509492505050565b5f6020828403121561062f575f80fd5b5035919050565b5f60208284031215610646575f80fd5b81356001600160a01b038116811461065c575f80fd5b9392505050565b5f60208284031215610673575f80fd5b5051919050565b634e487b7160e01b5f52601160045260245ffd5b80820281158282048414176106a5576106a561067a565b92915050565b5f826106c557634e487b7160e01b5f52601260045260245ffd5b500490565b808201808211156106a5576106a561067a565b818103818111156106a5576106a561067a565b5f80858511156106fe575f80fd5b8386111561070a575f80fd5b5050820193919092039150565b6001600160e01b0319813581811691600485101561073f5780818660040360031b1b83161692505b505092915050565b6001600160a01b03841681526040602082018190528101829052818360608301375f818301606090810191909152601f909201601f1916010192915050565b5f82515f5b818110156107a5576020818601810151858301520161078b565b505f920191825250919050565b805180151581146107c1575f80fd5b919050565b5f80604083850312156107d7575f80fd5b6107e0836107b2565b9150602083015163ffffffff811681146107f8575f80fd5b809150509250929050565b5f60208284031215610813575f80fd5b61065c826107b256","linkReferences":{}},"methodIdentifiers":{"authority()":"bf7e214f","getPriceChangeToleranceBps()":"2cb519e2","isConsumingScheduledOp()":"8fb36037","isWithinRange(uint256)":"a536a0d9","setAuthority(address)":"7a9e5e4b","setPriceChangeToleranceBps(uint256)":"c8a9e8cb","setValidatorTicketMintPrice(uint256)":"56112940"},"id":190}